S00A0000524C532E53313919
S11350005805002041920000438F0000438F0000A8
S1135010000000000000000000000000000000008C
S1135020000000000000000000000000438F0000AA
S11350300000000000000000438F0000438F0000C8
S1135040438F0000438F0000438F0000438F000014
S1135050438F0000438F0000438F0000438F000004
S1135060438F0000438F0000438F0000438F0000F4
S1135070C56D0000438F0000438F0000438F000084
S1135080438F00003B560000D16D0000438F0000A9
S11350908F860000438F0000438F0000438F000081
S11350A0438F0000438F0000438F0000438F0000B4
S11350B0358C000096480168802292050A430260FC
S11350C094480169C20C0A4302613821016000213D
S11350D04160704770B50B00002219000AD080248B
S11350E0AB4D28602E682640FCD02E69B6B29219CA
S11350F05B1EF6D1100003F0C8FD80B270BD864877
S1135100017802220A430270A2494A78FF2A08D091
S11351108270C278FE2313400978CA07D20F1A435B
S1135120C270402102790A42FBD042782023134303
S1135130437002791143017170470000002808D0C0
S1135140C821090100BF491E0029FBD1401E0028C7
S1135150F6D17047010004D0002800BF401E00288B
S1135160FBD170477CB58C4C0123012221001F31F7
S11351708A4800F003FAE07FFF2801D16420E07739
S11351800123012221002031854800F0F7F9202075
S1135190205CFF2802D164202021605401230122D5
S11351A06946804800F0EAF968460078FF2801D192
S11351B0A82001E0684600787B4CE07201230122BC
S11351C069467A4800F0DAF968460078FF2801D188
S11351D0A82001E0684600782073002074494883C1
S11351E0744A90770123D377C87720268B5523768A
S11351F04D78B7262E40902535434D708D78F32693
S11352002E408E702021515C08250D4320215554D9
S11352101021557810262E4356705377157829435C
S1135220117010712070E370E0842071A0736070BD
S11352305021117709216172E17310756073207434
S1135240A074E07460746075A075E07573BD30B5CA
S11352500024594903F019FD401E584980228B79D6
S1135260134201D1564830BD3F230D786D0611D449
S11352700D78154207D00A781A403F250540AA4206
S113528001D0B94830BD0A78C025154003402B43EE
S11352900B7005E0097819400340994200D0B24CE4
S11352A0200030BD10B401000020B04A3023137137
S11352B01070122313720B0C53720123137051726A
S11352C0090A11723F490B68802464021C430C6074
S11352D08021117113790B42FCD01179890600D514
S11352E0A3481179C90602D50100A2480843032145
S11352F013790B4202D003009F48184312790A42E3
S113530002D00100BA48084310BC704700000000F6
S11353100C80044008B003400040064030B4020052
S11353200020924B30241C71187011241C72140C30
S11353305C7201241C705A72120A1A7202221A70C8
S11353400A0A5A7203221A7059721E490C6880257F
S11353506D0225430D60802119711C790C42FCD02B
S11353601979890600D582481979C90602D5010040
S1135370804808431979114202D001007E4808434D
S11353801979114202D001009948084330BC704792
S113539000B00340FE0300000000002010000010D5
S11353A01200001014000010040100201600001068
S11353B0700100207802002040420F0000000240EB
S11353C0143000000C3000F0FEB504000F0016008D
S11353D01D000020019002220021684603F0ACFC6D
S11353E0002F00D1BDE0300000D1BAE020008021C0
S11353F04905884200D2B4E08119491EB94A914254
S113540000D3AEE069468D70012D0FD1761CB1B288
S11354104A1E07D03B0001991C7809195B1C521ED7
S1135420FAD101910199CA43521C019244086400C3
S1135430051BEDB2002302226946200000F09EF80D
S1135440002800D18DE00220401BB1B28842694699
S113545016DB387848557F1C6D1CEDB2761EB0B251
S1135460012802D03004F4D118E068464019897844
S1135470012901D1019900E03978017000260DE07D
S1135480012D0BD8A81E3618684640190221491B65
S11354903A7802707F1C401C491EF9D16846007896
S11354A005026846407805432000FFF7FBFE00280C
S11354B057D129002000FFF731FF002851D1A51C46
S11354C0B0B202281ADD3C00207869460870607882
S11354D04870A41C09780F0207432800FFF7E2FE76
S11354E000283ED139002800FFF718FF002838D1E2
S11354F0AD1CB61EB0B20228E6DC2700002430043E
S113550023D0002302226946280000F037F800283F
S113551027D068460019B1B2012919D03978017031
S11355207F1C641C761E3004F3D1684601780C029B
S1135530407804432800FFF7B5FE002811D121006C
S11355402800FFF7EBFE00280BD1012003B0F0BDCB
S113555069468978012902D101990170E5E7397812
S1135560FBE70020F2E700001830000002000240D0
S1135570083000001030000011300000F0B40C00BE
S11355800021012B00D1521C002C0BD0150409D092
S113559080256D05A84205D395B245196D1E514E5F
S11355A0B5421FD3002002E015041BD10120F0BC3A
S11355B070470020FBE700780918C8B2401E8041FC
S11355C0C00FF4E70778401C2770641CC919521EE9
S11355D097B2012FE8D12D783542EAD0012BEAD0D9
S11355E0057825708026A24D2F783742EAD1E0E76E
S11355F0123000009648016820220A430260954850
S1135600016807220A430260C16840220A43C2605B
S1135610C16810220A43C2609649016101680822E8
S11356200A4302608020800293490A6802430A60A8
S113563092490A68104308607047F8B5904C206896
S1135640B249898C6A4611800106C90F44D020688A
S11356502068802141402160606803F077FB0022CC
S1135660884B03F083FB03F055FC606086480178A7
S1135670491C01704278521C427083785B1C837011
S1135680C478641CC4706D462D886D1C6E463580CC
S1135690C826760000256F463F88B74203DB6F4675
S11356A03E80012600E000260672090602D005703D
S11356B001210171D2B2042A02DD45700121417138
S11356C0DBB20A2B02DB857001218171E4B2322C3A
S11356D002DBC5700121C171684600888B4988844A
S11356E0F1BD00000001001010B48D4880210902B2
S11356F002690A430261026811430160894902692F
S11357000A400261426911404161914902690A40BB
S11357100261426911404161402102690A43026108
S1135720026811430160802201691143016101682B
S11357301143016087490B681A430A608022920171
S11357400369134303610368134303600B681A433B
S11357500A60CA0C036913430361036813430360BB
S11357600B681A430A600222D2437B4B1C68144024
S11357701C607A4B04691C40046144692340436102
S1135780030D04691C43046104681C4304600C6831
S113579023430B60016901239943016141699943E2
S11357A0416101691140016141690A40426104217A
S11357B0C94302690A4002614269114041610821FA
S11357C0C94302690A400261426911404161644966
S11357D002690A40026142691140416161490269FA
S11357E00A4002614269114041615F4902690A400D
S11357F002614269114041615C4902690A400261E7
S11358004269114041615A4902690A400261426990
S113581011404161574902690A40026142691140DD
S11358204161554902690A4002614269114041617E
S1135830524902690A4002614269114041619F492B
S113584002690A40026142691140416110BC70471B
S11358500C8004400080034010B50024092801DBBB
S1135860052403E09749087001F058FB200010BD9F
S113587006000240F305000080E200E000E100E0E1
S11358800C800340C0CD97403803002070B40A0058
S1135890040941080D00454086086E402500754006
S11358A0AD0140263540C6084E4074404109614070
S11358B0CC01E1437F24A1432943012A09D1C02219
S11358C00240C9B28A4201D0FF2103E08106890E59
S11358D000E00143C8B270BC704710B43C2901D049
S11358E07D2900D10021027813000AD080235B00B7
S11358F0401C047809198CB29C4200DBFF39521E0B
S1135900F6D1C843C0B210BC7047000004010020A7
S11359106B48012141700021AD4B1972818470479D
S113592004F00F40FFBFFFFF654801780F2901DB3A
S1135930002100E0491C0170A6490A78F0231340B5
S113594002781207120F1A430A7001210176704778
S1135950FFFFFFF70490044004800440FFEFFFFFC3
S1135960FFFFFEFFFFFFFDFFFFFFFBFFFFFFDFFF6A
S1135970FFFFBFFFFFFF7FFFFFFFFFFEFFFFFFFDF6
S1135980F8B5944E357A1020054201D0102700E076
S11359900027914C2178EF220A4017432770717A2F
S11359A0890600D400206178EF220A401043607019
S11359B0307B20718001192103F067F9A087F80674
S11359C0C00E6909490101432170A078FE210140FC
S11359D0B07AC207D20F0A43A270B07B0727A1791D
S11359E0F8220A40072101401143A171082508212A
S11359F0084200D10021A279F72313401943A17171
S1135A006278F0211140727A1207120F0A43627011
S1135A10A1798F220A40702101401143A171307C89
S1135A2004260421084200D100212022A25CFB2389
S1135A30134019432022A1540822104200D100220D
S1135A40F7230B401A43FE211140C207D20F0A4329
S1135A502020225402F098FB60780001A179090902
S1135A6039400143C9B211290ED013290FD052294C
S1135A700FD0532910D0952911D0D22911D0D32970
S1135A8011D0D52913D011E0012601250FE00225FC
S1135A9000E0032501260AE00425022607E0052587
S1135AA002E0062500E00725032600E00925267309
S1135AB09648457250202077F1BD0000FFFFFFFBA0
S1135AC0040100202C03002038B5434C9048914930
S1135AD00A8E824202D0498E814201D10020E076B2
S1135AE002F078FC02F0A4FC3A480178C906C90E19
S1135AF0E27E52010A4302700121844B19764278F6
S1135B00A37F002B02D00823134301E0F7231340A3
S1135B1043704278E37F002B02D01023134301E04B
S1135B20EF23134043704278C37F002B02D04023FD
S1135B30134301E0BF231340437042782023C35C26
S1135B40002B03D080231343437002E05206520E0D
S1135B504270E38F4279FC2515409A05920F2A433F
S1135B6042710371437FC370037F8371637E0A2B89
S1135B7001DBA02300E01B011207120F1343437142
S1135B808378914A12780A4202D002241C4301E02D
S1135B90FD241C40847083785408920822430A42EE
S1135BA002D00421194301E0FB211940817031BD69
S1135BB002005220202A0AD1212008702220487095
S1135BC0232088702420C870252008715420704731
S1135BD0380300207001002078020020F8B5070087
S1135BE04A4D0020A870380000F0F0F8494EB07714
S1135BF0FF2830D09B494200101880000C182078F0
S1135C00012812D1A06800782918097E002922D021
S1135C1098490D5C280000F0D9F8B077280001F00D
S1135C2018F96078FFF718FEF1BDA178012915D1A4
S1135C30002804D10021380000F0E2F8F1E7707F79
S1135C40002808D0707E032805D000F005FB707F83
S1135C50401E7077E5E701F0D9F9F1BD607801F0F5
S1135C6051F9F1BD70B504007E482A49897F4A0084
S1135C705118890040180679457901215F4A117647
S1135C800078002803D1200000F0BAF803E01128BE
S1135C9001D100F08AF8012D06DB7748FF21F2B22A
S1135CA08154761C6D1EFAD1200001F0A9F870BD54
S1135CB0F8B5524901240C76704D8A7E012A02D12E
S1135CC000222A748A76070000F080F80600AE7776
S1135CD000F04AF8300001F0ABF8380001F090F819
S1135CE03D2F11D1E88F401EE887022180B20028A1
S1135CF004D1E875297769762876F1BDFA20C000C9
S1135D004022A852EC752976F1BD00000401002060
S1135D10FFFF00000000002038B505000C00200043
S1135D2000F054F855498877ED1E042D16D8012249
S1135D300A743C2C08D103228A76CA760222504B7C
S1135D401A7100224A7706E03D2C05D103220A7716
S1135D5006220A7100220A7603224A7601F068F8C4
S1135D60200001F04DF831BD30B43E494200121814
S1135D7092008B1819795A791C78012C05D10024CA
S1135D80414D9B681B78EC5401E0112C0BD0012A87
S1135D9006DB394BFF24CDB25C55491C521EFAD1A7
S1135DA00021394A115430BC704780B537484078D7
S1135DB0002805D13348012181700A21417101BDB8
S1135DC000F066FA01BD00004C030020010004202D
S1135DD02F4A53798B4210D0032013798B420CD075
S1135DE00220D3788B4208D0012093788B4204D0D0
S1135DF0002052788A4200D0FF20704740010020E2
S1135E0030B418481D4A927F53009A18920084189F
S1135E1063781E4A1370E078002915D1A16800291F
S1135E2005D00978132902D10121154B9976012156
S1135E30184BCCB215786D1CAC4211DAC5B25D5D5D
S1135E401555491C401CF4E7591C012908DD521C56
S1135E5010491478C5B24C55401C521C5B1EF8D135
S1135E6030BC7047E890000080B50122044900F07E
S1135E70B8FB01BD95010020440300200000002070
S1135E8040010020040100201C0100202C030020FC
S1135E909401002070010020F0B583B007000E00CB
S1135EA0002401203C49C876887E022807D00328B4
S1135EB003D0062801D00528FDD1C87620E0684625
S1135EC0FFF7D2FF6D466878010903D002292ED06E
S1135ED018D310E00007000F3880A978317001282A
S1135EE009DD711C6A46521C401E93780B70521CCB
S1135EF0491C401EF9D12848002181760221C1762F
S1135F0003B0F0BD0002F02109010140A87808188F
S1135F103880E9783170297971706979B170A9791B
S1135F20F170E9793171401F80B202900524370085
S1135F30029E1EE001221949684600F052FBA8782F
S1135F40A1B27854641CE878A1B27854641C28790E
S1135F50A1B27854641C6879A1B27854641CA879FD
S1135F60A1B27854641CE879A1B27854641CB61FB9
S1135F70B6B2072EDEDA002EBDD06846FFF774FFF6
S1135F80002EB8DD68468178A2B2B954641C401C66
S1135F90761EF8D1AFE70000000000204001002089
S1135FA0F1B594B01000B34A527C6B46DA70032604
S1135FB07F225A7014AA14780500FF271F709F705F
S1135FC01278103A15D0123A1DD0521F00D1F3E0C6
S1135FD0D21F00D19DE0823A00D1DBE0921E00D1B5
S1135FE0B0E0521E00D1E0E0D21E012A00D8CAE07F
S1135FF0F5E0012900D0F2E0022650216A465170F2
S11360000400FF25EBE0012900D0E8E062216A46A4
S11360105170010085290ED10123032203A9180719
S1136020FFF7ACFA0626F12403A8077841786A46FC
S113603011708078A4E086290ED10123032203A9DC
S11360408D48FFF79BFA0626F12403A807784178C8
S11360506A461170807893E087290ED101230322C8
S113606003A98648FFF78AFA0626F12403A80778CD
S113607041786A461170807882E088290ED1012324
S1136080032203A97E48FFF779FA0626F12403A820
S1136090077841786A461170807871E0012912D13D
S11360A00123012203A97748FFF768FA03A80178BE
S11360B0FF2901D1642000E008466E49C877042610
S11360C01324CF7F8BE0022912D10123012203A9DB
S11360D06D48FFF753FA03A80178FF2901D1642022
S11360E000E0084669490870042613240F7876E016
S11360F00A2904D1052613245E48008E05E00B29E5
S11361002ED1052613245B48408E070A6946087081
S113611065E0012963D16E216A465170852805D056
S1136120862803D0872801D0882801D1F12456E09D
S1136130012805D0022803D00A2801D00B284ED10B
S113614013244CE001294AD10626F2216A465170F3
S1136150010005D1232400252327684605703EE06D
S1136160203920293BD201A9FFF722FD542836D13A
S113617001A8047845788778C1786A461170007957
S1136180694688702BE0012929D1012614A80078DA
S113619040300CE0A248C1680088C0000818C079EB
S11361A0344948740126F02001E00126F3206946B1
S11361B04870FF24FF2512E0012910D19848017F7F
S11361C0022909D108260124057C477C817C6A4682
S11361D01170C07C694688706720694648702548FC
S11361E0032101710121C1806946CB78C16802880D
S11361F0D2008B54C168491C0288D2008E54C168F5
S1136200891C0288D2006B465B788B54C168028873
S1136210D2008918CC70C1680288D20089180D7127
S1136220C1680288D20089184F71C1680288D200FF
S113623089186A4612788A71C1680288D20089185E
S11362406A469278CA71418881870121C1870177A2
S1136250417715B0F0BD0000E0B50022054968465D
S113626000F0BFF908226946A74802F085FE03B092
S113627000BD000000000020040000100800001011
S11362800C0000101000001012000010200000206C
S1136290F8B59E484378C67881780A099C4C7F2BD0
S11362A00DD07E2B0BD0677C9F4201D0B02E03D142
S11362B0222B04D0B02E02D100206077F1BD267EBF
S11362C0022E01D0042E1DD17E2B09D1667E002E14
S11362D018D1FA20C000402160520220E075F1BDBF
S11362E0022E0FD1002363762360E38005252571F8
S11362F04B4D2B60EB802B7102252577A376E57639
S1136300637707E0667E032E02D1022A00D186E07D
S11363107E2B01D0042300E006232376002A61D0DB
S1136320022A01D030D3F1BDFA22D2004023E25236
S11363300225E575A27D0907090F914213D1521C6C
S1136340D1B2102900DB0022A275617D491E61755E
S113635001223349401C00F0DDF8207E062807D0D6
S11363600420207604E00620A076E0760020E07584
S1136370607D002853D1A576E07501206076207EEB
S1136380062847D0257645E00902F02212010A408A
S1136390C1785618B6B2F11F05293ED2FA21C900B8
S11363A04022A1520221E1751D4900250D60CD80D6
S11363B00D710122401C00F0ADF8701F062102F09F
S11363C061FC0700701F062102F05CFC002900D06C
S11363D07F1C67750120A0756576207E06281ED077
S11363E004201BE00907090F062916DC0226A676FD
S11363F0E275012565760A490A804A80CA800A71D5
S11364000122401C00F086F8A5756575207E0628DB
S113641000D0267600F006F8F1BD00202076F1BD0C
S11364204001002038B584B0A14CE0682188C9003F
S1136430401801787E290BD101A96846FFF72CFD8D
S113644033480021017602224276417581751CE0B1
S113645041780909012901D1C07800E08078002140
S1136460944A1378834212D0491C537883420ED045
S1136470491C937883420AD0491CD21CCBB2092B05
S1136480EFDB11220021FFF78BFD05B030BD0122A7
S1136490C9B2611820254A55102813D0222824D0C7
S11364A027280CD02E2823D0B02818D0B2280CD0FE
S11364B0B32817D0B6280ED0B72809D0E5E700F0E6
S11364C06FF9E2E700F0F8F8DFE700F0A9FBDCE79A
S11364D000F006FBD9E7627600220121D3E700220F
S11364E00121D0E700F026FCCFE700F0A3F9CCE7C8
S11364F0AA48C078012803D17F2200212E20C2E7B8
S113650000F0E2F9C1E700002D0300202C03002075
S11365100000002038B4CB680C79032C5FD0052C24
S113652001D0002C06D1002A01D1042200E001226E
S11365300A7108E04A880C89551CAC4201D100223A
S113654000E0521C4A8002786C4622706A46127837
S11365504C88E4001A5542786C4622704A88D2006E
S11365609A182478547082786C4622709A1C4C884D
S1136570E4006D462D781555C2786C4622704A8821
S1136580D2009A182478D47002796C4622701A1DAD
S11365904C88E4006D462D78155542796C4622707E
S11365A04A88D2009A182478547182796C462270F1
S11365B09A1D4C88E4006D462D781555C0796A46BD
S11365C010704888C00018181278C271C888401C1E
S11365D0C8800A8980B2904201D30320087131BC7B
S11365E0704738B4CB680C79002C4AD0052C48D0BD
S11365F00C88E4001B191C786D462C706C462478BA
S113660004705C782C706C46247844709C782C70F0
S11366106C4624788470DC782C706C462478C470C2
S11366201C792C706C46247804715C792C706C464F
S1136630247844719C792C706C4624788471DB79BD
S11366406C4623706B461B78C371C888401EC88093
S1136650030405D1002A01D1052206E0002204E04A
S1136660002A01D1042200E001220A71000408D0AA
S113667008880B895B1E984201D1002000E0401C71
S1136680088031BC70474548C18C0279012A09D180
S1136690FA235B00994204DB0121C17000210171DE
S11366A000E0491CC184C0788449C8767047000062
S11366B0400100203492000038B584B001ACA11C24
S11366C06846FFF7E9FB68460088022842D1E07873
S11366D0012804D03CD303282ED007D338E001226C
S11366E001211020FFF75CFC01202EE0734CE07EBA
S11366F001281AD0207F032817D15A20A077704D83
S11367000123022221001E312800FEF75DFE002035
S1136710A0770123022221001E312800FEF72EFF5C
S1136720A07F5A2801D1002080477F220021102019
S1136730FFF736FC012008E00120604908770322B6
S113674001211020FFF72CFC03201449C87006E037
S1136750122200E0132200211020FFF721FC05B0D3
S113676030BD10B4007802060304D2180302D21814
S113677010182322534B4400002802D5200058400F
S113678000E02000521EF6D1020E0A70020C4A707C
S1136790020A8A70C87010BC70470000040100200F
S11367A038B584B001A96846FFF776FB01AC607880
S11367B0012814D1414C207F012834D102202077B4
S11367C002F0E8FB207402F0E5FB607402F0E2FBE7
S11367D0A07402F0DFFBE0744022012125E00228CE
S11367E021D1364D287F02281DD1290014312800DB
S11367F01030FFF7B6FF287DA178884202D002202E
S1136800287710E0687DE1788842F8D1A87D217965
S11368108842F4D1E87D61798842F0D10320287759
S11368204022012101E0122200212720FFF7B8FBBA
S113683005B030BD10B584B001ACA11C6846FFF7AB
S11368402BFB68460088022830DDE07800022179BD
S11368500843A149401A1BD0401E1CD008381DD043
S1136860401E1ED09D49401A06D0401E07D0401E2F
S113687008D0401E09D017E08522012118E08622A5
S1136880012115E08722012112E0882201210FE075
S1136890012201210CE00222012109E00A22012146
S11368A006E00B22012103E0312200E01322002143
S11368B02220FFF775FB04B010BD0000400100204A
S11368C020000010FCEBAD7F38B584B001ACA11CF6
S11368D06846FFF7E1FA68460088022800DCC2E057
S11368E0E0780002217908437B49401A4CD0401ECD
S11368F060D0083874D0401E00D180E07749401A37
S113690006D0401E13D0401E20D0401E2DD089E05A
S113691068460088062802D0132200217EE0012365
S11369200322611D1807FEF74FFD852275E06846B6
S11369300088062802D0132200216FE001230322DD
S1136940611DB248FEF740FD862266E06846008875
S1136950062802D01322002160E001230322611DD6
S1136960AB48FEF731FD872257E0684600880628C9
S113697002D01322002151E001230322611DA54806
S1136980FEF722FD882248E068460088042802D0E9
S11369901322002142E001230122611D9E48FEF7DB
S11369A013FD60799D49FF2800D16420C877012236
S11369B0012133E068460088042802D01322002114
S11369C02CE001230122611DD748FEF7FDFC61790B
S11369D09248FF2900D164212022815402221CE024
S11369E068460088052802D01322002116E00123FE
S11369F00222611DCD48FEF7E7FC0A220DE068463D
S1136A000088052802D01322002107E00123022276
S1136A10611DC748FEF7D8FC0B2201212E20FFF789
S1136A20BFFA56E07D48437C032101710122C280F4
S1136A30C4680588ED006355C3680488E4001B1925
S1136A405970C168891C0388DB007F24CC54C16859
S1136A500388DB00C9182E23CB70C168091D038885
S1136A60DB0031241FE06D48437C032101710122C6
S1136A70C280C4680588ED006355C3680488E400D7
S1136A801B195970C168891C0388DB007F24CC540E
S1136A90C1680388DB00C9182E23CB70C168091DA7
S1136AA00388DB001324CC54FF21C3685B1D0488D6
S1136AB0E4001955C3689B1D0488E4001955C36894
S1136AC00488E4001B19D97141888187C287027741
S1136AD0427705B030BD0000011300007ADE0000EB
S1136AE0F8B584B0072401ADA91C6846FFF7D4F9B2
S1136AF0E878011D01E0641E491E4AB2904237DA6B
S1136B0063B2EB5CFF2BF6D0042AF4DB4348437CEE
S1136B10032101710122C280C4680588ED00635518
S1136B20C3680488E4001B195970C168891C038870
S1136B30DB007F24CC54C1680388DB00C918B72369
S1136B40CB70C168091D0388DB001024CC54FF21DD
S1136B50C3680488E4001B195971C3689B1D048829
S1136B60E4001955C3680488E4001B19D97146E090
S1136B70441C01A90E1D0425FF273078010002D012
S1136B80FF280AD003E0B94861B2475405E0012167
S1136B90FEF77CFEB54962B28854641C761C6D1EF7
S1136BA0EBD11E48417C032202710122C280C368DA
S1136BB00488E4001955C1680388DB00C9184A70C9
S1136BC0C168891C0388DB00F724CC54C16803889E
S1136BD0DB00C918CF70C168091D0388DB00CF54DE
S1136BE0C1680388DB00C9184F71C168891D038817
S1136BF0DB00CF54C1680388DB00C918CF7141881A
S1136C008187C2870277427705B0F0BD0400001087
S1136C10080000100C0000101000001000000020FC
S1136C2038B584B001ACA11C6846FFF735F9E078AB
S1136C30002837D1B248427C032101710121C1806F
S1136C40C3680488E4001A55C2680388DB00D218BC
S1136C5006235370C268921C0388DB00F224D454C8
S1136C602322C3680488E4001B19DA700023C46873
S1136C70241D0588ED006355C4680588ED0064197A
S1136C806271C268921D0488E4001355C2680388C7
S1136C90DB00D218FF23D37142888287C187017732
S1136CA041773FE001002039202905D2020001216B
S1136CB0B220FFF775F935E09148437C0321017157
S1136CC00122C280C4680588ED006355C368048846
S1136CD0E4001B195970C168891C0388DB007F24F8
S1136CE0CC54C1680388DB00C918B223CB70C168D7
S1136CF0091D0388DB001224CC54FF21C3680488D7
S1136D00E4001B195971C3689B1D0488E4001955DC
S1136D10C3680488E4001B19D97141888187C2873C
S1136D200277427705B030BD120000101800001041
S1136D301C0000107848C1680088C0000918C87891
S1136D40002800D0704710B47D480A798B795340ED
S1136D504A79134201D1C9794174427C03210171FA
S1136D600121C180C3680488E4001A55C2680388FD
S1136D70DB00D2185170C2680388DB00D218F323F9
S1136D809370FF22C3680488E4001B19DA70C36897
S1136D900488E4001B191A71C3680488E4001B19F1
S1136DA05A71C3680488E4001B199A71C368048883
S1136DB0E4001B19DA7142888287C1870177417721
S1136DC010BC704780B500F049F9FEF7A1FD01BD84
S1136DD010B55C4C20680106C90F10D020682068EB
S1136DE0802141402160606801F0B0FF0022904B97
S1136DF001F0BCFF02F08EF8606000F0A5F810BD51
S1136E0010B445490A7E3E4B1B7C54001C431A4374
S1136E10920022437B4B9B78DB0013434A7E920112
S1136E201A4300021043834A02408A8510BC70470B
S1136E307549420010188000085C012808D07E487B
S1136E408178F7220A407D49097CC9001143817089
S1136E50704710B504000021FEF7D2FF0021200086
S1136E60FEF714FD7649487010BD0000940100201F
S1136E704021744802680A43026073480268072389
S1136E8013430360C2681143C160C16810220A43FE
S1136E90C2604C210161016808220A43026080201B
S1136EA0C0026A490A6802430A6069490A681043D1
S1136EB00860704780B56248524988636148016838
S1136EC0802252030A4302606248002101703F227B
S1136ED0427081702C21C170417986220A4342712B
S1136EE0817902220A438271017880220A43027066
S1136EF04179EF220A40427100F088F801BD000098
S1136F00000000203F498A6B1070002088714A639A
S1136F1006204871704700004001002038B5394C04
S1136F20A56B217A2800FEF7D8FC691C2A788854BE
S1136F300120A0716878484908700720607131BD4C
S1136F40000000200C90034010B53C48C27D402155
S1136F50415A022A09D1491E8BB2002B11D10322B6
S1136F60427605228276C27609E0012A09D1491EB9
S1136F708BB2002B05D10322427604220277002231
S1136F8003764023C152C2751E4C6079002808D094
S1136F90801E02281AD9001F1ED0401E012815D9B0
S1136FA010BDA08D00280ED10120A070FF20FFF796
S1136FB027FF0A206071BF48A085C6480178FD22DA
S1136FC00A40027010BD401EA08510BD208D00280F
S1136FD012D0401E208510BD608D00280FD1A079ED
S1136FE0002809D02020205C0221014320202154C4
S1136FF0E1790720FEF790FE00F008F810BD401E6E
S1137000608510BD04010020E8900000B2482021F2
S1137010415CFB220A4020214254A649818500217B
S11370204171AC48017802220A43027070470000A3
S1137030000B53404FFF00007001002000000020AF
S11370402C0300200C8004400090034080E200E008
S113705000E100E000A0064007A00640F8B59F4C00
S1137060267967799C4DC0203840402816D1607934
S11370704021014361712078BF210140217068796A
S11370800A2803D1FFF7C2FF0020A87020788021CE
S1137090014321706079EF2101406171B00717D578
S11370A02079022101432171E0792020285C0A2102
S11370B00143202029546879062803D0072801D0E9
S11370C0082803D1E9790420FEF726FEFFF79EFF86
S11370D0802007401DD061790843607140202178E9
S11370E040220A43227021784906490E21706979A9
S11370F00A2900D1C9E004212022A954102129859C
S1137100217808432070032068716079FD210140D3
S1137110CDE02079E679810600D4C9E069790329B4
S11371200AD0042910D0062934D0072900D180E0E0
S11371300A2900D1ACE0F1BD552E00D080E0042036
S1137140687101202875F1BD01213000FEF79EFB16
S1137150E8712E723C2801D03D2803D10021E98436
S113716001212971FF280AD0FEF738FDA748A96B31
S1137170097849004018801E00886885F1BD2020E8
S1137180285C4021014320202954FF210320FEF7DD
S1137190C3FD7AE0686B401C68630670A86BA9792C
S11371A00278914241D120216F5C297AFEF795FB48
S11371B0B04230D1FEF7E4FB012601203843202100
S11371C06854E078DB210140E17009206871E879B6
S11371D0FEF748FDE07824210143E17068790A282C
S11371E001D0FFF713FFE8793C281ED1A86B417842
S11371F000291AD18178FF2917D1C178FF2914D128
S11372000179FF2911D14179FF290ED1C079FF28D5
S11372100BD16E7509E01220384320216854E979B6
S11372200520FEF779FDFFF7F1FEA879401CA8714F
S1137230F1BD400604D5A979A86B425C964204D0FE
S1137240E9790620FEF768FD1FE002788A4205D33B
S1137250491CA971C9B2405CE071F1BD0020A8725B
S1137260FEF762FB2020285C0121014320202954E1
S1137270E078DB210140E17009206871E879FEF7CC
S113728017FDE07824210143E170FFF7BFFEF1BD53
S1137290F02E07D0E02E05D0C02E03D0802E01D0D2
S11372A0002E05D1FFF7B2FE60790221014361711E
S11372B0F1BD0000102700005548564908605648A3
S11372C023210170012141700F210171A02141711D
S11372D00120704705A006400401002000A00640DC
S11372E0F8B5FDF70CFFFEF785F9FDF7E3FEFEF7B1
S11372F0FBF9C548FDF7ABFF00F072F8FDF732FF6C
S113730000F0D7F801F0A2F9FFF7B2FD0020FFF773
S1137310D1FD80204001BD490A6802430A60BC498E
S11373200A6810430860BB48BB4CBC4D0127016888
S1137330890B3940FBD001F075FC0026287A01281E
S113734006D12E72A6846078002801D101F014F9C8
S1137350A07D617D012905D0012806D0E07D0128AA
S11373600AD106E06675012800D1A675E07D0128E2
S113737000D1E67501F000F96078012800D166704B
S1137380687A012802D16E7201F041F9A07B0028CD
S113739021D0012822D12879012807D12E71FFF7A5
S11373A072F9207C012801D101F0A8F8687901283C
S11373B002D16E7101F076F8A879012806D1AE7178
S11373C000F0C0FA00F0FEFEFEF77EFBE87901282B
S11373D0B1D1EE71AFE700F000FFACE7A773AAE705
S11373E08F4800210170017801220A43027001785C
S11373F0F7220A4002700178EF220A4002700178F5
S1137400DF220A40027000787047000024920000D6
S11374100050000008ED00E00020054070B55E0853
S11374200C68A04201D2108870BDB4000C59A0426F
S113743002D17000105A70BD84421ED2761CF6B27E
S11374405B1E01E0761CF6B2B34231DBB4000C598A
S11374509E4201D08442F5D3751EEDB2AB00CB58E9
S11374606900555A7100515A491BC01A414308001A
S1137470E11A01F00AFC401919E0741E00E0641ED0
S1137480E4B2A300CB58002C01D09842F7D3651C7A
S1137490EDB26400145B6E00925B121BC01A42438F
S11374A01000AA008958C91A01F0EFFB001980B234
S11374B070BD38B5F020000201F0F4F80120554900
S11374C00A68920B0240FBD00220FDF737FE0D2123
S11374D0FF2001F051F90520FDF730FE0B210920B2
S11374E001F030FA0221012001F02CFA02211420CB
S11374F001F028FA0021052001F024FA00210620D9
S113750001F020FA0321072001F01CFA424CE17A31
S11375100B2001F017FA0121032001F013FA0321D3
S1137520082001F00FFA217B0C2001F00BFA012155
S1137530042001F007FA04210A2001F003FA0321D0
S11375400F2001F0FFF90521102001F0FBF90421BF
S1137550112001F0F7F90221122001F0F3F90121C1
S1137560132001F0EFF901210E2001F0EBF9984C02
S11375709625AD002A000321102000F053F8A084C2
S11375802A000321082000F04DF820862A00032158
S1137590102000F047F8E0842A000321082000F0BE
S11375A041F860862A000321102000F03BF8208572
S11375B02A000321082000F035F8A0862A000321C0
S11375C0102000F02FF860852A000321082000F025
S11375D029F8E0862A000321102000F023F8A08572
S11375E02A000321082000F01DF820872A00032127
S11375F0102000F017F8E0852A000321082000F08D
S113760011F8608731BD0000002D310180E200E0F7
S113761000E100E010F00F400401002038030020D6
S113762000D00740F1B586B0002000250190002766
S11376309C4C6E46317069460A820390029016E0B3
S11376406B461E761B8A80B2984200D389E0A088DC
S1137650954EB04200DA84E0039B591803910299D5
S1137660891802910199081801906D1C7F1C6946C4
S11376700978F8B28842684616D2067E01F0D2FA3A
S1137680300001F0AFFA6188E2888A4201D2881A98
S113769000E0501A2087A94B9B7B012BD0D0002BF4
S11376A0ECD168460676D2E705700398A44D694686
S11376B0097E102969462DD10E78310001F0E5FAD2
S11376C00700AF850298310001F0DFFAA886218E09
S11376D0BBB2994201D3C91B00E0791A2185618E9E
S11376E083B2994201D3091A00E0411A61852786C1
S11376F06086208DC92834DA608DC92831DA019872
S11377006946097801F0C1FA06008C48807B00289C
S113771029D147E0097E0829F1D169460E78310064
S113772001F0B3FA0700EF850298310001F0ADFAD9
S1137730E886A18EBBB2994201D3C91B00E0791A35
S1137740A185E18E83B2994201D3091A00E0411A5E
S1137750E185A786E086A08DC92802DAE08DC928D4
S1137760CDDB002032E001282ED16846007E1028AF
S113777010D1A88EA24A904214DB511E401A80B246
S11377808100081840009621490001F07BFAA0848A
S1137790A08C16E06846007E082815D1E88E984A29
S11377A0904202DA684646800EE0511E401A80B2CA
S11377B08100081840009621490001F063FAE08432
S11377C0E08C301A694648806846408807B0F0BDAE
S11377D07802002030B4A648818F002901D02929DD
S11377E001DA0A2204E0512901DA092200E0072221
S11377F0A0498A77C28F642353439F4AD47F64226B
S113780062439A4201D301220A76002225012D1BEC
S1137810ED009D4200D20A76A5012D196D009D420E
S113782001D301254D7696256C439C4200D24A76BD
S11378300B7E847FA34215D08C7E641C012B8C7636
S113784008D18B7FE4B29C420DD38A7601238377DF
S1137850C27708E0E4B2372C05D38A768277012315
S1137860C37700E08A76487ECB7F984217D0CB7EE0
S11378705B1C0128CB7609D1887FDBB283420FD30E
S1137880CA760120C87720200A5409E0DBB2372BDE
S113789006D3CA76CA7701202022885400E0CA762B
S11378A030BC7047B8020020D184000010B4734883
S11378B02349CA8C724B9A421FD1C278521CC2709F
S11378C0D2B20A2A03DB0278022313430370C2787C
S11378D00A2A03DA0278FD2313400370694A0B8DE8
S11378E093420DDA03795B1C0371DBB20A2B09DBCB
S11378F0037804241C43047004E00022C270E9E706
S113790000230371498D91420ADA4179491C41717E
S1137910C9B20A2906DB017804220A43027001E095
S11379200021417101790A2906DA41790A2903DA29
S11379300178FB220A40027010BC70470401002049
S113794000000020F0B583B00024002500260227A3
S11379504D4800F0A7FE0120FDF7F0FB072001F0E1
S113796093F84A4840882418484880882D18474886
S1137970C08836187F1EEBD1600802906808710831
S113798001913D4C0299E184208501996185AB4EBA
S1137990102332002100A431FFF740FD2021615C57
S11379A0009141430800642101F06FF9FE2800D3DF
S11379B0FD20304D2877102332002100A431019896
S11379C0FFF72CFD010000984843642101F05DF9A4
S11379D0FE2800D3FD206877102322008432210082
S11379E044310298FFF71AFD9549884200D3481E96
S11379F01F49C887FFF75AFFFFF7ECFE03B0F0BD3D
S1137A00A51F00001D49102810D18E48C08D1C4AA6
S1137A10904208D14878401C4870C0B20A281BDB49
S1137A200A20487011E00020487015E0082813D19E
S1137A308448C08D124A90420CD18878401C8870CA
S1137A40C0B20A2808DB0A208870087801220243A1
S1137A500A7001E00020887048780A2806DA8878DD
S1137A600A2803DA0878FE2202400A7070470000F0
S1137A707802002070010020000000204C03002048
S1137A80FFFF0000B80B000040D00000B802002047
S1137A9070B50400962292001021FFF7C3FD050083
S1137AA06848C5852000FFF7ADFF6748102C63D1F7
S1137AB0002D00D1BFE00586808DA649C8844A8880
S1137AC00A800A1D0623C8841488961E3480C8843C
S1137AD054881480C88494885480921D5B1EF2D10B
S1137AE0C8849D499D4CE278002A09D1CD85CA8C71
S1137AF08A840A8DCA844A8D0A858A8D4A858D8531
S1137B008A8C2023CB5CDB08DB0714D52281944BC1
S1137B10984201D250260FE0924B984201D264263B
S1137B200AE0914B984201D2962605E0C833984268
S1137B3001D3FA2600E0C82622828C4B954207D353
S1137B4000202070A81A984212DB888DC8850FE0A7
S1137B50521BA28090B2984202DA92B2B24203D28D
S1137B60888DC885002002E0097F01F08BF8207021
S1137B702089A081207870BD082C5CD1002D5AD0BA
S1137B804586C08D73494E2288528A1C13234E2485
S1137B900853148DD484921C5B1EF8D14E22885253
S1137BA06D496E4CE278002A09D14D874A8E0A86C7
S1137BB08A8E4A86CA8E8A860A8FCA860D870A8E5C
S1137BC02023CB5CDB08DB0714D56281644B98422D
S1137BD001D250260FE0634B984201D264260AE09A
S1137BE0614B984201D2962605E0C833984201D3EE
S1137BF0FA2600E0C82662825C4B954207D3002037
S1137C006070A81A984212DB088F48870FE0521B55
S1137C10E28090B2984202DA92B2B24203D2088F62
S1137C204887002002E0097F01F02CF86070608929
S1137C30E081607870BD002070BD0000E400002089
S1137C40FE030000040100200000002070B50400C1
S1137C50974D082634423CD00820FFF719FF00282E
S1137C6034D0052801DA012030E0411F022901D86F
S1137C7002202BE001000839022901D2032025E06B
S1137C8001000A39022901D204201FE001000C3945
S1137C9001D105201AE001000D3901D1062015E0BB
S1137CA001000E39032901D807200FE00100123921
S1137CB001D16E760BE00100133901D1092005E0F2
S1137CC01438062801D20A2000E00B206876687E6A
S1137CD0E876E0063CD51020FFF7DAFE002834D021
S1137CE0052801DA012030E0411F022901D80220D1
S1137CF02BE001000839022901D2032025E001000C
S1137D000A39022901D204201FE001000C3901D1F3
S1137D1005201AE001000D3901D1062015E001000B
S1137D200E39032901D807200FE00100123901D1CF
S1137D302E760BE00100133901D1092005E0143837
S1137D40062801D20A2000E00B202876287EA87697
S1137D5070BD00002802002078020020F8020020F4
S1137D60DC1E000034210000C4220000891300003E
S1137D7078B45048818D828E8A4201D2891A00E0FB
S1137D80511A4B4A1184C18DC08E884201D2081AFF
S1137D9000E0401A5084108DC92808DA508DC92893
S1137DA005DA918DC92902DAD08DC92801DB0020BA
S1137DB000E00120404B142419883F4D2D886E4665
S1137DC035806D462D88FF262E36A94201D2691AC8
S1137DD000E0491BB14200DB00209B1C641EEBD178
S1137DE035490B00142432460D8D1E8DAE4201D24E
S1137DF0AD1B00E0751B954200DB00209B1C641E3C
S1137E00F2D12B49887771BC7047F0B42849487F78
S1137E102A4A8B7F012B23D1137A5376547A147216
S1137E20947A54724C7E0D7EA54201D2947200E085
S1137E309572234CA57A002D08D11D00052D00DB79
S1137E40062595760B770122A2722EE00C7F9C42C8
S1137E502BD21C00052C00DB062494760B7724E03F
S1137E60D38D9384548F1486D38454861385948637
S1137E705385D486938514870023114DAB720B77F9
S1137E801400083403252370967E002808D00020AF
S1137E90012E01DDB61E04E0370002D0761E00E09C
S1137EA001209676641C6D1EEDD14877F0BC7047B6
S1137EB0B8020020000000202802002078020020E0
S1137EC004010020F0B4AF490A7E00204B7B052B4F
S1137ED000D953E101A45B00E45AA7440A00F60068
S1137EE07E01CE00E2015E020B7B012B03D0022B4C
S1137EF001D0032B01D1322200E02822CC7B0E7C5E
S1137F008D7B002D01D0012401E0012C15D1AB4F54
S1137F107D8E3F8E8F840D86CF844D860F858D8612
S1137F204F85CD868F850D87088188728876082EC7
S1137F3002DB0026002400E0761C0E74CC734C7C1B
S1137F40944203D348749E4A507301E0641C4C74F9
S1137F50C876487500228D7E002D00D10CE148744E
S1137F6001244C730875042B0CD0032B02D1052378
S1137F70022407E0022B01D0012B02D106230324A3
S1137F8000E006239D4205D38D4B5B7BA34201D3C6
S1137F9004234B734B7E0B2B00D2EDE0884B5B7BB1
S1137FA0A34200D2E8E005234B73E5E0844B587309
S1137FB04874887488754B7D5B1C4B75DCB21E2C31
S1137FC005D3DBB2232B01DA012000E04873C87625
S1137FD00320D1E048758875C87401250E7D761C90
S1137FE00E75774B5C7BF6B2052E02DB00254873D9
S1137FF0641CCD768D7C8E7E0F7B042F0CD1052ED8
S113800006DB6D1CEEB21E2E02D9002504264E732B
S1138010E6B2032E1ED31AE0032F0CD1052E06DB85
S11380206D1CEEB21E2E02D9002504264E73E6B254
S1138030042E0FDB0BE0052E06DB6D1CEEB21E2EAC
S113804002D9002504264E73E6B2052E02DB002475
S1138050022048738D745C7301208DE088748875E8
S1138060574B58734B7D5B1CC874DCB21E2C0FDB62
S113807025001E3D052D10D32500233D1E2D07D3BD
S11380802500413D052D08D32500463D1E2D01D276
S1138090002406E0643C052C01D2012401E0002404
S11380A04873CC768C7E012C07D9521CD4B2042C94
S11380B003D900230022042048734B7502205BE09F
S11380C088823F4B5873C8750323CB768D8F0C7B06
S11380D0042C0BD1052D01DA142502E03C2D02DA23
S11380E046251E240EE05A2514240BE0052D02DA41
S11380F01425282406E03C2D02DA46251E2401E03E
S11381005A2514248E7E042E0BDACC7CAC4202D386
S1138110C8744B7301E0641CCC74022E2BDBC8744E
S113812029E0052E27DB8B7D5B1C8B75C874DBB2C5
S1138130A34220D38875052048731CE00623CB7620
S11381408B8F052B02DA1E23052405E003243C2B28
S113815001DA3C2300E04623C8748875CD7D6D1C8C
S1138160CD75EDB29D4202D304234B7302E08B7EA6
S1138170A34200D3C875487B887300E048730A762D
S1138180F0BC704778020020A848C34920228A5CCA
S1138190D208D2070DD48278521C531F497B05297B
S11381A002D1DBB20B2B01E0DBB2152B8941C90FE5
S11381B001E000220021C17082707047000000209D
S11381C00401002080B51820FFF740FDFFF7D0FD23
S11381D0FFF71BFEFFF776FE01BDF8B5AE4E00209B
S11381E0F076AE480078C006C00EAC490870AC4DBD
S11381F0012028764878B721014090200843A749F8
S11382004870142400F00EFD9622920001211020E3
S1138210FFF708FAE885002801D1641EF2D1B349BA
S1138220884222DAFE2400F0FDFCE87A401CE87261
S11382300121C0B200F0A0FA0520FCF77FFF9622CE
S1138240920003211020FFF7EDF9E885E97AA84AA6
S11382508018A84A904204D3E02902DA641E2AD086
S1138260E1E7E02927DBE02024E0A349884226DB7C
S1138270FE2400F0D7FCE87A401EE8720121C0B267
S113828000F07AFA0520FCF759FF962292000321A8
S11382901020FFF7C7F9E885E97A954A8018954ACE
S11382A0904204D3212902DB641E04D0E1E7212992
S11382B001DA2020E872E97A0B2000F043FBE88D14
S11382C02886B084F08430857085B085F085E87A9E
S11382D06946087001230122A648FDF775F81424A5
S11382E09627BF0000F09EFC3A0001210820FFF70A
S11382F099F9E885002801D1641EF3D17B498842AD
S113830021DAFE2400F08EFC287B401C2873032114
S1138310C0B200F031FA0520FCF710FF3A00032147
S11383200820FFF77FF9E885297B714A8018714A94
S1138330904204D3E02902DA641E29D0E2E7E0295E
S113834026DBE02023E06C49884225DBFE2400F094
S113835069FC287B401E28730321C0B200F00CFA8C
S11383600520FCF7EBFE3A0003210820FFF75AF939
S1138370E885297B5E4A80185E4A904204D321290D
S113838002DB641E04D0E2E7212901DA20202873ED
S1138390297B0C2000F0D6FAE88D6886308670863A
S11383A0B086F08630877087287B69460870012381
S11383B00122A448FDF708F800203081B0720121A1
S11383C0A9736873B074354802781023134303709B
S11383D02976F1BD30B401202F494A7813090122CE
S11383E01A40994B0024150005D10C818C720E257E
S11383F04D76CC7603E04D7F002D00D118704A777E
S11384005A781D78012D0DD1C876254D6C73521CF8
S1138410D5B2062D02DB00221C70CC760C818C7246
S113842088734C735A7030BC70470000F802002007
S113843010B41B4A537A00209849D47B9C4203D23F
S113844001244C70D37303E0D3734B78012B11D107
S11384500123012450730A78521C0A70D2B2062AEE
S113846001DB48700024BE49CC76088188728B7386
S1138470487300E0087010BC704780B503210B20DE
S1138480FCF728FE8649414308000D2100F0FDFB5E
S1138490000BB449888001BD7802002070010020DF
S11384A00401002010B5FFF7E8FFAE488278417858
S11384B083881C004C2C06DA0022491CCBB2142BF6
S11384C011DB01230EE0503B652B03D20022002177
S11384D0027008E0BA2C06DB0021521CD3B2142B24
S11384E001DB022303704170827010BDD4AD000023
S11384F02C52FFFFE9030000BDB1000030B400209E
S113850099490A7D012A01D148740874944B0122C7
S1138510DC7E002C02D0954CA2720BE04C7C641CD7
S11385204C74E4B2062C01DB48748A758F4CA47A2F
S1138530012C1DD1DA7648748B7C5B1C8B74DBB206
S1138540022B15DB88748A4B1C7814431C701C782E
S1138550FE2525401D70CB7C022B02DB0023CA754F
S113856000E05B1CCB74097D012901D17F4988722D
S113857030BC704714000010F8B501247B4D6C72B8
S113858040267C48417940220A43427101784022C6
S11385900A430270C14F3868E10301433960E120A6
S11385A0000200F07FF8B868800B2040FBD0A320C5
S11385B0000200F077F8B868800B20400028FAD059
S11385C067480078400908D0052806DAB4480168ED
S11385D00E4306600020A87204E00024B04801683D
S11385E0B14301606048047400210175AD4801780D
S11385F0E3220A400270AC48016804220A43026084
S113860030BFA7480168402291430160F1BD38B5ED
S1138610C74C20688021090201432160FEF728FC31
S11386200020FEF747FC0125E068800B2840FBD0C2
S1138630E420000200F036F8E068800B2840FBD00C
S113864031BD00001600001054030020BA48016830
S113865001220A430260924801688022D2010A433F
S113866002600168C022D2000A4302608C2141608A
S113867080214903B14A13680B431360B04A13685D
S11386801943116001684022914301607047A94871
S1138690016880220A4302607047000056030020EC
S11386A0360F0000F0B4030000240027F021090273
S11386B00140D0200002814217D11806400E19064D
S11386C0890E41401806C00E48401906090F414062
S11386D01806400F48401906890F4140CA07D20FB7
S11386E01806C00F50401843030001209049CA687F
S11386F0920B0240F9D04A68450315434D60C2030A
S11387004D6886022E434E601500E5402B4204D08E
S11387100D68C6022E430E6003E04D68C6022E4368
S11387204E600D6886022E430E60CD682D0B012627
S11387302E40B4460F26351B6646AE403E433700F6
S1138740641C102CDCDB0868920802430A60F8B24F
S1138750190A884201D1012000E00020F0BC7047D2
S113876078020020F20200200401002038030020D7
S113877003A0064000A00640FCB4020000230193BD
S11387808C08CD08D60900010F000743780000903B
S11387905706F80F704084469006C70F604647405E
S11387A0BC46D706F80F6746784084461007C70FC3
S11387B060464740BC465707F80F674678408446F2
S11387C09007C70F60464740D007C00F7840EF07B7
S11387D0FF0F4740E007C00F784084468807C70F63
S11387E060464740C807C00F7840012747400098BB
S11387F00743780084465708574090087840D708C4
S1138800474010097840570947409009784045404F
S11388106C40480860404140C807C00F464060466D
S11388200643B000872109040143414A0120D4686A
S1138830A40B2040FAD08024A40150682043506047
S1138840A502160D019800915168314351600099B9
S11388502F00DF400F4004D01168A7080F431760B2
S113886003E05168A7080F43576011683143116052
S1138870D768F904C90F1727FF1AB9400143080044
S11388805B1CD9B21829DFDB11680C431460054066
S1138890681E8041C00FF6BC7047000008F00F400E
S11388A000D0034000D0074010ED00E0F8B402000F
S11388B00021002012038E252D0415431C4A012398
S11388C0D468A40B2340FAD080239B0154681C4332
S11388D054609C0200955568160D2E4356609D0801
S11388E0009E2700CF40374003D0166835431560FB
S11388F002E05668354355601568160D2E43166020
S1138900D668F504ED0F1726761AB54005432800FE
S1138910491CCDB2182DDEDB11680B431360010432
S1138920090E8E2901D1C0B200E0AA20F2BC704722
S113893004F00F4000D003400C80044080E200E0CB
S113894000E100E038B50D00411E132900D99AE07A
S113895001A2525C52009744091620202D2D3D3D62
S11389604C515B5B96626D727C818B0E0020FFF72D
S11389709DFF002180E00020FFF798FF0021F922ED
S1138980024068007BE00020FFF790FF0021FE22F8
S11389900240E807C00F104373E0032801D102240A
S11389A000E004242000FFF781FF2100C206D20E5C
S11389B0680164E0052801D1022400E004242000B9
S11389C0FFF774FF2100E3220240AB001C20184093
S11389D0104356E0072801D1022400E004242000BB
S11389E0FFF764FF2100FC220240A807800F104318
S11389F047E00520FFF75AFF05213DE00520FFF77A
S1138A0055FF0521F82202406807400F104338E063
S1138A100B2801D1012100E00321280031E00520C9
S1138A20FFF744FF0521F7220240E800082318401D
S1138A30104326E00720FFF739FF07211CE0082038
S1138A40FFF734FF0821F02202402807000F1043EB
S1138A5017E00920FFF72AFF09210DE00920FFF79D
S1138A6025FF0921F02202402807000F104308E0E7
S1138A700E20FFF71BFF0E210207120F28011043DF
S1138A80C0B2FFF779FE32BDFEB5002400256A4668
S1138A9014706B4AD480010600D50124C10600D5A8
S1138AA0E41C010700D5E41C410700D5641C8107C0
S1138AB000D5641CC00700D5641C6248C06841042A
S1138AC0C90FFAD05F4F786880218901014379602A
S1138AD000267868390D014379600120FCF73AFBE0
S1138AE080200002F040C3210902014005D038680B
S1138AF0802109010143396004E07868802109017B
S1138B0001437960380D3968084338600120FCF767
S1138B1021FBF868C004C10F0F20801B814029434A
S1138B200D00761CF0B21028D3DB2804000E444953
S1138B3008704D7038464168802212010A43426031
S1138B40210625D03E4FE4B20194064600250024B8
S1138B507068310D014371600120FCF7FBFA306845
S1138B60310D014331600120FCF7F4FAF068C004D0
S1138B70C10F0F20401B814021430C006D1CE8B243
S1138B801028E5DB7C80BF1C0199491E0191DDD1D1
S1138B9000258027FF00684604782A4E7068384311
S1138BA070600120FCF7D6FA306838433060012049
S1138BB0FCF7D0FAF068C004C10F0720401B8140C5
S1138BC021430C006D1CE8B20828E7DB1C498C75B6
S1138BD03268FB0013433360887D401E8041C00F20
S1138BE003B0F0BD10B504002100802001406007EF
S1138BF002D0080040210143E00602D508003421D8
S1138C000143200702D508002A210143D020000295
S1138C100843FFF747FD0120FCF790FA2000FFF717
S1138C2033FF10BD72B60848084901800849018025
S1138C3062B670470748017840220A4302707047C1
S1138C40B802002004F00F4002200540A6020000F4
S1138C50B480000001200540F446002804D44942B1
S1138C6000F013F8404260474042002905D45FD029
S1138C7000F00BF8404249426047494200F005F8D1
S1138C804942604703460B43E6D40022030A8B4261
S1138C900BD203098B4219D243088B422ED2411ABC
S1138CA000D20146524110467047FF2209023FD0CC
S1138CB012068B4205D3121209028B4201D31212FF
S1138CC0090203098B4219D300E0090AC3098B4244
S1138CD001D3CB01C01A524183098B4201D38B01CA
S1138CE0C01A524143098B4201D34B01C01A52416D
S1138CF003098B4201D30B01C01A5241C3088B42B2
S1138D0001D3CB00C01A524183088B4201D38B009C
S1138D10C01A524143088B4201D34B00C01A52413E
S1138D20884200D3401A5241CFD2014610467047C0
S1138D3008B500F0AFF908BD10B504000800110033
S1138D400200200000F0A8F9200010BD010042221A
S1138D501201D21E004207D002D4521E0018FCD5C4
S1138D60C10A40051205891870470000F0B40125B6
S1138D70ED070F005F404FD48B4200D1824205D9EA
S1138D808446100062468C4619006346DF184C186E
S1138D90640D7F0D3AD0661C760537D0E61B352E60
S1138DA034DCDB022B43DB0A0C0DC9022943C91254
S1138DB0202E0DDB1700203E06D01F00F741F340A4
S1138DC05F400026012A7741C01871410DD217E097
S1138DD01700F741F2405740F3415A40B340F34083
S1138DE05A400026801859410AD3A21C52050FD0BC
S1138DF0C207012F724117004008CB0718434908E6
S1138E00641C24054208AF4170416141F0BC7047C5
S1138E10641C21050020F9E76B400AE06B40ABE7D6
S1138E20F742F3D1E943F1E72442EFD100200021D6
S1138E30ECE70C00871A9C4105D2C01BA141D21952
S1138E40634169406B40AE0ADF184C18F442E7D224
S1138E50640D7F0DE8D0E61B362ED7DCDB022B43F6
S1138E60DB0AA4460C0DC9022943C90A012E28DCD9
S1138E7004D1D6075208DF073A435B08EF0A76426B
S1138E809041994114D039423BD1B61940414941EE
S1138E90761C394204D1761C001849413942FAD073
S1138EA0B9436746B74208D9A41B24052143ADE75B
S1138EB00042EAD13642E8D1A8E7E40AE1070020FB
S1138EC0A4E7202E0BDD203E1F00F340F7415F4056
S1138ED0012A002257417E42984191410BE017003C
S1138EE0F741F2405740F3415A40B340F3405A40EF
S1138EF07E42904199410A0303D2641EB61940414F
S1138F0049410027641E24054208AE41784161416D
S1138F10F0BC70474A1812D2400DC902084301211F
S1138F20C9070843520D40210901521A521C06D4A4
S1138F3052421F3201D4D0407047C01770470020FE
S1138F407047FEE770B4103A03D378C9103A78C07A
S1138F50FBD2530701D318C918C001D508C908C0EA
S1138F60D20704D30B880380891C801C002A01D5F6
S1138F700B78037070BC70478B0701D18307E1D075
S1138F80124205D00B78491C0370401C521EF9D1C3
S1138F9070471300F0B53A480078002859D1384892
S1138FA0406838494843384940183849FFF76DFE4E
S1138FB034484143344808183449FFF766FE3148C1
S1138FC04143314808183149FFF75FFE2D484143BA
S1138FD02D4808182D49FFF758FE2A4841432A48CE
S1138FE008182A49FFF751FE264841432648081825
S1138FF02649FFF74AFE23484143234808182349DA
S1139000FFF743FE1F4841431F4808181F49FFF755
S11390103CFE1B4841601E4D102604461A4F6068F2
S113902018494843C0191949FFF72FFE61602960A8
S113903014484143C8191549FFF727FE6160696068
S11390400835761EEBD11248C16F80228150012071
S113905020700B4C60680B4948430B4940180B497E
S1139060FFF713FE61600A4B180080300278D206C5
S1139070520E9A1813680360116098008008F0BDBE
S11390809C0100200D6619005FF36E3CFFFFFF7F1B
S1139090A4010020704700001206130A1A43130C9F
S11390A01A4300BF094205D0830705D00270401C53
S11390B0491EF9D1704700001300103906D330B4AB
S11390C01400150010393CC0FCD230BC490700D351
S11390D00CC000D504C0890002D30280801C002982
S11390E000D5027070470000000801000002000073
S11390F0928F000000081008020200000000000027
S11391000006101004010000000000001108100007
S11391100000000000000000110801000000000031
S11391200000000070B40123002413E00168001D56
S1139130194202D04D466D1E49190C60091D121FBB
S1139140042AFAD20D00960701D50C80AD1C1A40F2
S113915000D02C700268001D002AE7D170BC704753
S113916030B401220EE00368C31844680830144286
S113917002D04D466D1E64191D6825601B1D241DFB
S1139180091FF9D10168001D0029ECD130BC7047DA
S113919010B5074979441831064C7C44163404E070
S11391A0081D0A68891888470100A142F8D110BD3A
S11391B008000000280000006DFFFFFFB40100005C
S11391C0A40100200000000099FFFFFFA40100009B
S11391D07C0000000000002000000000FEF76CF896
S11391E0002801D0FFF7D4FF00BF00BF002000BF5C
S11391F000BFFEF775F800F000F880B500F002F843
S113920001BD00000746384600F002F8FBE7000005
S113921080B500BF00BF024A11001820ABBEFBE7B7
S1139220260002000600070009000A000C000D00D9
S11392300F001000B2B6B72210B3B02E2700000002
S113924000BF00BF00BF00BFFFF7C8FF0000000061
S113925005000000020000000C03002000220000B2
S113926000000000000200000000000000000000F8
S113927000000000000000000000000000000000EA
S113928000000000000000000000000000000000DA
S11392909A1300000B2B00001D30000077350000EE
S11392A0943B0000A23F0000E84400006F4A000025
S11392B0E74D00002050000033520000C753000067
S11392C0E654000028550000F0550000EA5600005E
S11392D0000014002A004F00B300E70013015F01EF
S11392E09F01FF0137027702AD02EE026203FD0324
S11392F0465200008D6A0000F0730000B27700004F
S11393000E7A0000617E00000B810000898300005A
S113931024850000F8850000DC870000B888000080
S113932094890000F8890000DE8A0000D88B0000D0
S11393300000090015001D002300330044005500FF
S11393406600730086009400A700B600C800FD0004
S11393500000000000FF000080000000000000008A
S113936000000000000000000000000000000000F9
S113937000000000000000000000000000000000E9
S113938000000000000000000000000000000000D9
S113939005000000020000001C0300200000000083
S11393A000000000000000000000000000000000B9
S11393B0000000000000000000000000E000F000D9
S11393C0000000FF00E0FEFF00FF80FFF0FFFFFF52
S11393D0FFFF00000000000000000000000000008B
S11393E0002331323C3DFF0000000000010000007A
S903924129
