S00B0000524C532E7372656328
S1135000B004002061AA00003B7E00003B7E00004B
S1135010000000000000000000000000000000008C
S11350200000000000000000000000003B7E0000C3
S113503000000000000000003B7E00003B7E0000FA
S11350403B7E00003B7E00003B7E00003B7E000078
S11350503B7E00003B7E00003B7E00003B7E000068
S11350603B7E00003B7E00003B7E00003B7E000058
S113507031A800003B7E00003B7E00003B7E000028
S11350803B7E00000BA500003DA800003B7E000015
S1135090678200003B7E00003B7E00003B7E0000F8
S11350A03B7E00003B7E00003B7E00003B7E000018
S11350B03B7E0000F0B504000D0016001F00380010
S11350C0C0B2022101F0BAFF29688C4201D23088B3
S11350D086E00100C9B20422514369588C4204D1CC
S11350E0C0B202214843305A7AE00100C9B2042216
S11350F051436958A1423FD2401C00E0401C390092
S1135100C9B2491E0200D2B2914234DB0100C9B2D5
S11351103A00D2B2521E914206D00100C9B2042212
S113512051436958A142E9D3471E01000800C0B2A7
S113513002225043305A3A00D2B202235A43B25A9E
S1135140801A3A00D2B204235A43AA58A21A5043EE
S1135150C9B20422514369583A00D2B204235A43D3
S1135160AA58891A01F06DFFFFB202214F43F15B87
S1135170401880B234E033E0411E00E0491E0800CC
S1135180C0B2002806D00800C0B2042250432858F8
S11351908442F3D30F00491C0800C0B202225043DA
S11351A0305A3A00D2B202235A43B25A801A3A0011
S11351B0D2B204235A43AA58A21A5043C9B20422B1
S11351C0514369583A00D2B204235A43AA58891A5F
S11351D001F037FFFFB202214F43F15B401880B268
S11351E0F0BD70B5F020000201F082FF3D48006878
S11351F001004904C90F0029F8D0022002F096FBEF
S11352000D21FF2001F0FBFF052002F08FFB364C3F
S11352102178092002F036F96178012002F032F990
S1135220A178142002F02EF9E178052002F02AF981
S11352302179062002F026F9E179072002F022F90B
S11352402A4801780B2002F01DF96179032002F04D
S113525019F9217A082002F015F9254801780C2063
S113526002F010F9A179042002F00CF9617A0A2005
S113527002F008F9A17A0F2002F004F9E17A102073
S113528002F000F9217B112002F0FCF8617B12206E
S113529002F0F8F8A17B132002F0F4F8E17B0E2071
S11352A002F0F0F8002518E0A24C9626B600320071
S11352B00321102000F01EF82900C9B20222514334
S11352C0605232000321082000F014F82900C9B20A
S11352D002225143611888816D1C2800C0B206283F
S11352E0E2DB70BD10F00F403CAA000080020020F9
S11352F081020020F6B583B0070000263400350093
S1135300019602960BE0019942888918019102994D
S1135310C2888918029180882D18641C761C30007C
S11353206946097BC0B2884236D23800C0B202F066
S11353309FFA8148C1884288914203D24188C28839
S1135340891A02E0C1884288891A7C4A11807C4A01
S11353501378012B0AD16A46128A89B2914203D288
S11353608188784A9142CEDA0020E1E01178002960
S1135370D5D18188734A91420CDB019942888918FE
S113538001910299C2888918029180882D18641CA1
S1135390761CC4E70020CBE03800C0B210283CD112
S11353A001982100C9B201F04CFE0190664E0198AB
S11353B0308102982100C9B201F043FE3082634873
S11353C001883289914205D301883289891A604A59
S11353D0118004E031890288891A5D4A11805D498F
S11353E00A88338A9A4205D30A88338AD21A5A4BD6
S11353F01A8004E0328A0B88D21A574B1A803289F9
S11354000280308A088052480088C92803DA52484A
S11354100088C92842DB00208AE03800C0B208288E
S11354203CD101982100C9B201F00BFE0190464E17
S11354300198708102982100C9B201F002FE7082C5
S1135440944801887289914205D301887289891A26
S1135450914A118004E071890288891A8E4A118068
S11354608E490A88738A9A4205D30A88738AD21AA3
S11354708B4B1A8004E0728A0B88D21A884B1A80EC
S113548072890280708A088083480088C92803DAF8
S113549083480088C92801DB002049E02800E4B2E1
S11354A0210001F0CEFD040025480178002902D135
S11354B0684604803AE00078012837D13800C0B249
S11354C0102818D12048018A9B4A914202DA684682
S11354D004802BE0008A9949411A994D89B20A2027
S11354E048439621490001F0A9FD28802888201A04
S11354F0694608801AE0FFB2082F17D11248418A82
S11355008D4A914202DA684604800FE0408A8B4952
S1135510411A8B4D89B20A2048439621490001F073
S11355208DFD68806888201A69460880684600886E
S113553005B0F0BD5C010020740100204C02002085
S113554093020020D18400008C0100203A02002044
S1135550320200203C0200203402002030B5794899
S11355600188002903D10A207749087010E00188D6
S1135570292903DA0A207449087009E000885128AF
S113558003DA09207049087002E007206E490870A8
S11355906E480188642041436D4843789C4A1478DE
S11355A063438B4202D301239A4C2370837814788B
S11355B063438B4202D20023964C2370C378147841
S11355C063438B4202D30123924C637003791278B4
S11355D053438B4202D200218E4A51708E498D4A28
S11355E013780C78A34223D01378012B10D1AE4B3F
S11355F01C78641C1C701C78534D2D78AC421AD353
S1135600002425001D7001230B7084490C7012E0E6
S1135610A54B1C78641C1C701C780578AC420AD31A
S1135620002425001D700C7001217C4B197002E0D0
S113563000219D4B19709D4953780C78A34225D0C5
S11356405278012A11D1984A501C53785B1C03707C
S113565052783D4B1B789A421BD3002213000370EF
S1135660012008709248027013E08F4B5A1C5C783A
S1135670641C14705B78007883420AD30020030012
S11356801370087001208A49087002E000208649DE
S1135690487030BD3E020020360200204002002047
S11356A03802002010B583484188834A91420BD1C7
S11356B08249CA78521CCA70CA780A2A07DB0A7857
S11356C0022313430B7002E000217C4AD1707B4912
S11356D0CA780A2A03DA0A78FD2313400B70784A41
S11356E0838893420ADA0B795B1C0B710B790A2BC2
S11356F006DB0B7804241C430C7001E000230B71BF
S1135700C08890420ADA4879401C487148790A28CE
S113571006DB0878042202430A7001E00020487185
S113572008790A2806DA48790A2803DA0878FB2275
S113573002400A7010BD0000A51F0000A41F000055
S1135740140200202C020020950200202E020020CA
S11357506CAA0000FEB500273C003D003E000AE0B4
S1135760072002F085F857484188641881886D182D
S1135770C08836187F1C3800C0B20228F0DB6008ED
S113578001906808710800914A49019A4A80020010
S11357908A80009ACA804C4F4C4E10233200390044
S11357A0FFF788FC64254A4C21784843290001F01E
S11357B048FCFE2803D3FD204649087001E0454912
S11357C008701023320039000098FFF773FC217829
S11357D04843290001F035FCFE2803D3FD203E494F
S11357E0087001E03C49087010233C4A3C49019888
S11357F0FFF760FC3B49884203D33B483B490880A0
S113580001E03A490880FFF74DFFFFF7A7FEF7BD17
S11358109D02002054020020A1020020A2020020C8
S113582000B50100C9B2102917D1314800882249B6
S113583088420ED12148411C4278521C0A70427899
S11358400A2A24DB0A220A70017801220A43027020
S11358501DE000201949487019E0C0B2082816D18B
S113586023480088144988420ED11448811C827848
S1135870521C0A7082780A2A09DB0A220A7001780B
S113588001220A43027002E000200C4988700B4890
S113589041780A2906DA81780A2903DA0178FE2296
S11358A00A40027000BD000056020020A30200203E
S11358B0A40200208C010020FFFF0000EC01002066
S11358C0B80B00007401002040000020A00000205C
S11358D09E020020790200207A020020800000202D
S11358E000000020FE030000FD0300002E02002043
S11358F030020020F8B50500AE4EAF4C962292005F
S1135900617B2800C0B2FFF7F5FC30802800C0B2EC
S1135910FFF786FF2800C0B2102800D0A1E030882D
S1135920002800D19DE0A54831888181A4490A005E
S113593026320389138001231D0014E00689168092
S11359402E00F6B2142E0DDA2E00F6B202277E4394
S11359508F5BBC462F00FFB202267743CE19B61EDA
S1135960674637806D1C2E00F6B2152EE6DB95498E
S11359700978002919D11A0013E0934985894D81CA
S11359801500EDB2062D0BDA1500EDB202267543B3
S11359904D5B1700FFB202267743C919891E0D809B
S11359A0521C1100C9B20729E7DB88490978C9B23A
S11359B0C9080B40DBB2002B1DD083490988844AF7
S11359C0118001892288914201D2237A14E001894D
S11359D06288914201D2637A0EE00189A2889142E1
S11359E001D2A37A08E00189E288914201D2E37AE4
S11359F002E0237B00E0E37A7649734A14880C8042
S1135A0084890D88AC420BD30023734C23708089A6
S1135A100988401A714988421CDB1089508119E0B9
S1135A206F4C09888089081A208020886B49884235
S1135A3003DA20889BB2984205D210895081002055
S1135A406549087006E020886649097801F0F6FA8D
S1135A50614908705E480088634908805E480078A0
S1135A60A6E0EDB2082D00D0A1E03088002800D1D6
S1135A709DE052483188C18151490A004E32438920
S1135A80138001231D0014E0468916802E00F6B20F
S1135A90142E0DDA2E00F6B202277E438E19378DAE
S1135AA0BC462F00FFB202267743CE196746F7841F
S1135AB06D1C2E00F6B2152EE6DB4249097800294A
S1135AC019D11A0013E04049C589CD821500EDB201
S1135AD0062D0BDA1500EDB2022675434D19AD897A
S1135AE01700FFB202267743C9194D81521C1100D9
S1135AF0C9B20729E7DB35490978C9B2C9080B409F
S1135B00DBB2002B1DD030498989314A518041894B
S1135B102288914201D2237A14E041896288914219
S1135B2001D2637A0EE04189A288914201D2A37A1C
S1135B3008E04189E288914201D2E37A02E0237BC2
S1135B4000E0E37A9E49204A94890C80C4890D8838
S1135B50AC420BD30023204C6370C0890988401ADF
S1135B601E4988421CDB908AD08219E01C4C0988AB
S1135B70C089081A608060881849884203DA6088FE
S1135B809BB2984205D2908AD08200201249487074
S1135B9006E060881349097801F050FA0E4948700C
S1135BA00B484088104948800B48407800E00020AA
S1135BB0F2BD00003002002080A800008C0100200B
S1135BC00C010020850200205C010020AE020020B0
S1135BD00C0200204402002042020020891300002D
S1135BE008020020940200201002002070B5040076
S1135BF000252800280008262000C0B230400028D4
S1135C006DD00820FFF776FE0100C9B2002903D148
S1135C1028006C4948705EE00100C9B2002907D031
S1135C200100C9B2052903DA01206649487052E02F
S1135C300100C9B2491F032903D2022061494870F7
S1135C4049E00100C9B20839022903D203205D49A1
S1135C50487040E00100C9B20A39022903D2042085
S1135C605849487037E00100C9B20C39012903D200
S1135C700520544948702EE00100C9B20D390129AC
S1135C8003D206204F49487025E00100C9B20E39FD
S1135C90042903D207204B4948701CE00100C9B213
S1135CA01239012903D230004649487013E001003B
S1135CB0C9B21339012903D20920424948700AE0C4
S1135CC0C0B21438062803D20A203E49487002E0C4
S1135CD00B203C4948703B48407884494870E4B202
S1135CE0E0066BD51020FFF705FE0100C9B20029BC
S1135CF002D1344805705DE00100C9B2002907D023
S1135D000100C9B2052903DA01202E49087051E0C7
S1135D100100C9B2491F032903D20220294908708E
S1135D2048E00100C9B20839022903D203202549F9
S1135D3008703FE00100C9B20A39022903D20420E5
S1135D402049087036E00100C9B20C39012903D298
S1135D5005201C4908702DE00100C9B20D39012944
S1135D6003D206201749087024E00100C9B20E3995
S1135D70042903D20720134908701BE00100C9B2AB
S1135D801239012902D20F48067013E00100C9B28A
S1135D901339012903D209200A4908700AE0C0B264
S1135DA01438062803D20A200649087002E00B20A2
S1135DB004490870034800784C49087070BD00001D
S1135DC0460200204802002030B5A248018A028918
S1135DD0914205D20189028A891A9F4A118004E0FE
S1135DE0018A0289891A9C4A1180418A4289914216
S1135DF005D24189408A081A9749488004E0418ABB
S1135E004089081A9449488094480088C9280BDAC4
S1135E1093480088C92807DA92480088C92803DA19
S1135E2091480088C92803DB00209049087002E0EB
S1135E3001208E4908700020010024E00B00DBB231
S1135E4002246343D35A12889A1AFF232E339A42A8
S1135E5018DB864A107015E0854A0B00DBB2022479
S1135E606343D35A1488A342E8D213880C00E4B2E3
S1135E7002256C43125B9A1AFF232E339A4201DBEC
S1135E807A4A1070491C0A00D2B2142AE4DB0100D9
S1135E9027E00B00DBB202246343D3181B8D128D61
S1135EA09A1AFF232E339A421ADB704A107017E0B5
S1135EB06F4A0B00DBB202246343D3181B8D148D8D
S1135EC0A342E6D2138D0C00E4B202256C431219EE
S1135ED0128D9A1AFF232E339A4201DB634A107003
S1135EE0491C0A00D2B2142AE2DB30BD4A02002067
S1135EF030B55E48007801286BD15E485E490A7867
S1135F000270002207E01300DBB2CB185B781400A8
S1135F10E4B20B55521C1300DBB2022BF3DB574ADD
S1135F2013785478A34202D252788A7001E012782E
S1135F308A7053490A78002A24D10278052A03DAA0
S1135F400278504B1A7017E00278521F022A05D9C2
S1135F50D21E012A05D9921E07D00AE00522494B18
S1135F601A700622474B1A7006E00622454B1A7037
S1135F7002E00622434B1A700078434A1070012055
S1135F80087030BD40490A7803789A42F9D2027801
S1135F90052A03DA02783B4B1A7017E00278521F85
S1135FA0022A05D9D21E012A05D9921E07D00AE079
S1135FB00522344B1A700622324B1A7006E0062270
S1135FC0304B1A7002E006222E4B1A7000780870CB
S1135FD0D7E7002001000EE02C4A53890C00E4B2FC
S1135FE002256C431353D38A0C00E4B202256C439C
S1135FF012199381491C0A00D2B2052AECDB010074
S11360001F4A11700100204A1170010003E0137847
S11360105B1C1370491C0A00D2B2032AB1DA0200D5
S1136020154B0C00E4B21A55194A1378002BEED024
S113603003001370134A1378022B03DB13789B1E9F
S11360401370E7E71378002BE4D013785B1E13700A
S1136050E0E700008C010020000200203202002052
S11360603402002036020020380200208F02002073
S11360700C010020900200200402002048020020AD
S11360807B02002091020020820200205C0100209B
S113609083020020F0B58248017800290DD002293E
S11360A000D1B3E100D2FDE0042900D11AE200D20C
S11360B0C7E0052900D150E3E3E3BA49097801298F
S11360C003D1B949897C0A3116E0B6490A78022A13
S11360D003D1B549897C0A310EE00A78032A03D139
S11360E0B149897C0A3107E00978042902D1AE4913
S11360F0897C01E0AC49897CAC4A1278002A02D040
S11361000122AB4B1A70AA4A1278012A36D1002216
S11361101300A84C2370130011E0A74CA74DAE89BF
S1136120B4461F00FFB2022677436646E653ED8964
S11361301E00F6B202277E43A419A5815B1C1C0035
S1136140E4B2052CE9DB130005E014009C4D1E00AD
S1136150F6B2AC555B1C1C00E4B2032CF5DB130057
S1136160984C2370984B1C78082C04DB14001C708A
S11361708F4B1A7002E01A78521C1A70C34A1378B3
S1136180C9B28B4205D300210B001370C04B1970A8
S113619002E01178491C117000210B00854C23701A
S11361A00B00BC4C23700B00BB4C2370854B1C783C
S11361B0002C43D00C0014700122140004700C0055
S11361C0B64D2C70774C2578042D03D1764CE47CA5
S11361D0A41C1AE02578032D04D1734AD47CE41C52
S11361E0022212E02578022D04D16F4AD47C241DAA
S11361F003220AE02478012C04D16B4AD47C241DA8
S1136200032202E0684CE47C241D1B78E4B2A34220
S113621007D39F4B1B781400E4B2A34201D3042399
S11362200370AD4B1B78604C247DA34206D3984B7E
S11362301B78D2B2934201D3052202705B480170ED
S113624021E300210A00924B1A700A008F4B1A7046
S11362500A00A24B1A700A00A14B1A708D4A1378D7
S11362605B1C1370504B14785D7DAC4202D25148D4
S1136270017010E014785D7DAC4208D312785B7D28
S11362805B1D9A4203DA01204A49087003E00A00C0
S1136290484B1A700170032044490870F3E200BFB0
S11362A07C0200207B4B00221100197011008C4CE1
S11362B021701100C04C217001213E4C0D0025704D
S11362C0764D2E78761C2E702D78052D07DB150063
S11362D02570140004706E4C25786D1C2570314CAB
S11362E02578042D1CD1374C2478052C0CDB7B4CF1
S11362F025786D1C25702C4DED7D2678B54203D292
S11363001500257004240470614C2578264EB67D52
S1136310B54278D315002570022404701A7072E017
S11363202578032D1DD1274C2478052C0CDB6B4CD0
S113633025786D1C25701C4DED7D2678B54203D261
S11363401500257004240470514C2578164EB67D32
S1136350761CB54257DB15002570022404701A70B0
S113636051E02478022C31D1164C2478052C0CDB16
S11363705A4C25786D1C25700B4DED7D2678B54261
S113638003D21500257004240470414C2578064E70
S1136390B67DB61CB54236DB1500257002240470A8
S11363A01A7030E07702002080A800007D020020EF
S11363B07E020020920200205C0100208C0100205B
S11363C004020020910200207F020020C44C2478A3
S11363D0052C0CDB414C25786D1C2570774DED7D2B
S11363E02678B54203D21500257004240470284C85
S11363F02578724EB67DB61CB54204DB15002570B7
S1136400022404701A70B74801703CE200210A00AB
S1136410324B1A700A00324B1A700A001C4B1A7065
S11364201C4A13785B1C13700B00634C23701378A5
S11364301E2B03DA0B00AC4C237036E013781E3BA2
S1136440052B03D20123A84C23702EE01378233BA1
S11364501E2B03D20B00A44C237026E01378413B7F
S1136460052B03D20123A04C23701EE01378463B76
S11364701E2B03D20B009C4C237016E01378643B54
S1136480052B0DD20123984C23700EE086020020C8
S1136490870200208B0200208E0200208A02002046
S11364A00B00914C23700B000370444B8C4C2478EC
S11364B05D7EAC420CD38D4C25786D1C25702578FF
S11364C01B7E9D4204D30B001370217004210170C4
S11364D0022084490870D6E190020020880200203E
S11364E08C02002000210A00814B1A70814A0B00A3
S11364F013700B00804C23700B00804C237003231B
S11365001C00794D2C707E4C2578042D3DD1C04C57
S11365102588052D03DA294DAC7EED7E09E024881B
S11365203C2C03DA254D2C7F6D7F02E0234DAC7F9C
S1136530ED7F6B4E3778042F13DA1F4D2F78E4B2BA
S1136540A74205D30C002C700C001470037002E0F9
S11365502A78521C2A703278022A00DAF9E029706B
S1136560F7E03278052A00DAF3E0AA4A13785B1CD4
S113657013700B00104C23701378EDB2AB4200D2B1
S1136580E7E0117005210170E3E02578032D48D17F
S11365909F4C2588052D05DA084D20242C5D2126E5
S11365A0AD5D12E024883C2C0ADA044D22242C5DD3
S11365B02326AD5D09E000BF8902002080A8000009
S11365C0B14D24242C5D2526AD5D454E3778042F2E
S11365D013DAAE4D2F78E4B2A74205D30C002C7029
S11365E00C001470037002E02A78521C2A7032786E
S11365F0022A00DAADE02970ABE03278052A00DA2D
S1136600A7E0844A13785B1C13700B009F4C237023
S11366101378EDB2AB4200D29BE0117005210170FA
S113662097E02478022C40D1794C2588052D05DA91
S1136630954D26242C5D2726AD5D0DE024883C2C49
S113664005DA914D28242C5D2926AD5D04E08E4D9C
S11366502A242C5D2B26AD5D214E3778042F12DAC7
S11366608A4D2F78E4B2A74205D30C002C700C009D
S11366701470037002E02A78521C2A703278022ABD
S113668067DB297065E03278052A62DB614A13789A
S11366905B1C13700B007D4C23701378EDB2AB427E
S11366A057D311700521017053E0594C2588052DED
S11366B005DA754D2C242C5D2D26AD5D0DE0248866
S11366C03C2C05DA704D2E242C5D2F26AD5D04E0A4
S11366D06D4D30242C5D3126AD5D014E12E000BFBE
S11366E0910200207D020020920200208E020020F0
S11366F08A0200208B020020870200208D020020E5
S1136700770200203778042F12DA604D2F78E4B234
S1136710A74205D30C002C700C001470037002E027
S11367202A78521C2A703278022A12DB297010E06F
S11367303278052A0DDB374A13785B1C13700B0083
S1136740524C23701378EDB2AB4202D31170052181
S1136750017000786B49087095E06B4906220A7055
S11367606A4B1C78042C18D1294B1C88052C05DA9B
S1136770454C3223E35C3325645D64E01B883C2B89
S113678005DA414C3423E35C3525645D5BE03E4C23
S11367903623E35C3725645D55E01C78032C18D15F
S11367A01B4B1C88052C05DA374C3823E35C392550
S11367B0645D48E01B883C2B05DA334C3A23E35CE8
S11367C03B25645D3FE0304C3C23E35C3D25645D48
S11367D039E01B78022B18D10D4B1C88052C05DAE7
S11367E0294C3E23E35C3F25645D2CE01B883C2B55
S11367F005DA254C4023E35C4125645D23E0224C0B
S11368004223E35C4325645D1DE0014B04E000BFCB
S11368102C0200208C0200201C88052C05DA1A4C5E
S11368204423E35C4525645D0DE01B883C2B05DABD
S1136830154C4623E35C4725645D04E0124C482371
S1136840E35C4925645D00252E00104F3E702E0048
S11368502F4F3E702F4E37787F1C37703778DBB25E
S11368609F4203D304210170357006E02A4B1B7844
S1136870E4B2A34201D30A7035700078214908704C
S113688001E000210170F0BD80A800008902002011
S113689010B5012021490978C9B2C9080140C9B21B
S11368A0002927D11E490A78521C0A701D4A127801
S11368B0052A0FD11C4A937B0C78A34203D2097892
S11368C0D27B914203D300201849087018E017497D
S11368D0087015E0144A137C0C78A34203D209789B
S11368E0527C914203D300201049087008E00F49FC
S11368F0087005E0002001000C4A11700849087076
S113690010BD00007D0200209202002077020020CA
S11369108C0200208D02002091020020AE02002093
S1136920840200207C02002080A800008502002050
S113693080B51820FFF75AF9FFF746FAFFF7D8FA9F
S1136940FFF7A8FB01BDF8B50027B948390001706D
S1136950B8490978C906C90E007840010843B54909
S113696008700120B4490870B448B2494978F72244
S11369700A400270AF4949780121AF4A1170AD490C
S1136980497810220A430270AA4949780121AA4A87
S11369901170A8494978BF220A400270A549497874
S11369A00121A54A1170A349497880220A43027043
S11369B0A04840780120A04908703C0000E0641C15
S11369C02000C0B214280ADA9D4D962292000121BB
S11369D01020FEF78FFC288028880028EFD0984EDE
S11369E03088984988422CDA3D0000E06D1C28006C
S11369F0C0B2FE281ADA944C2078401C207021780A
S1136A000B2000F03FFD052000F090FF962292003D
S1136A1003211020FEF76EFC308030888949401A2B
S1136A208A49884202D32078E028DFDB864801784F
S1136A30E02901DBE021017001780B2000F022FD48
S1136A402FE03088824988422BDB3D0000E06D1C3A
S1136A502800C0B2FE281ADA7B4C2078401E207031
S1136A6021780B2000F00EFD052000F05FFF962238
S1136A70920003211020FEF73DFC308030887149DC
S1136A80401A7249884202D320782128DFDA6E48FE
S1136A900178212901DA2021017001780B2000F00E
S1136AA0F1FC308899490880380007E03188984A19
S1136AB00300DBB202246343D152401C0100C9B27B
S1136AC00629F3DB60480078694608700123012237
S1136AD06946904801F016F83C0000E0641C200070
S1136AE0C0B2142809DA9622920001210820FEF788
S1136AF001FC308030880028F0D030885149884229
S1136B002CDA3D0000E06D1C2800C0B2FE281ADA21
S1136B10814C2078401C207021780C2000F0B2FCBD
S1136B20052000F003FF9622920003210820FEF7BF
S1136B30E1FB308030884349401A4449884202D3FB
S1136B402078E028DFDB74480178E02901DBE021CC
S1136B50017001780C2000F095FC2FE030883C494E
S1136B6088422BDB3D0000E06D1C2800C0B2FE28EB
S1136B701ADA694C2078401E207021780C2000F02D
S1136B8081FC052000F0D2FE962292000321082009
S1136B90FEF7B0FB308030882A49401A2B498842DE
S1136BA002D320782128DFDA5B480178212901DA31
S1136BB02021017001780C2000F064FC3088914998
S1136BC00880380008E03188514A0300DBB202240F
S1136BD06343D2189181401C0100C9B20629F2DB3B
S1136BE04D480078694608700123012269468648A9
S1136BF000F088FF380005E03900844A0300DBB266
S1136C00D154401C0100C9B20329F5DB0120010065
S1136C107F4A117039007F4A11707F490F7005490E
S1136C200A78102313430B70097803490870F1BDE7
S1136C3092020020C0000020D4010020C1000020E6
S1136C4030020020D4AD000080020020E9030000DF
S1136C50BDB1000070B5012070494A78D2B2120962
S1136C6003001340DBB2002B11D10022130005E016
S1136C701400664D1E00F6B2AC555B1C1C00E4B259
S1136C80032CF5DB0E23894C2370894B1A70894A37
S1136C901378002B0AD14B78DBB21B0904001C408B
S1136CA0E4B2002C02D00300834C23704978C9B2AB
S1136CB0090903000B4013707F490A78012A23D184
S1136CC07B4A0300137000231C00524D2C707B4C34
S1136CD025786D1C25702578062D05DB1D00257093
S1136CE01C000C7019001170190005E01A00474CC3
S1136CF00D00EDB26255491C0A00D2B2032AF5DB3D
S1136D006F490870AA48037070BD00004E0200204D
S1136D105C010020140000108102002030B5694895
S1136D2069490A7803789A4202D20122904B1A7078
S1136D30007808708E48017801291ED15C4B01212E
S1136D4019700022334C22709A4C25786D1C2570E2
S1136D502478062C01DB02701A70100004E02B4B1F
S1136D600400E4B21A55401C0300DBB2032BF6DB2B
S1136D70534801708E48027002E000208D4908706B
S1136D8030BD80B503210B2001F03EF88A49484309
S1136D900D2100F056F9000B8849088001BD80B52B
S1136DA0FFF7EFFF854801884C290DDA002084495C
S1136DB0087084480178491C0170007814281FDB8E
S1136DC00120814908701BE001885039652907D2E8
S1136DD000207C4908707A4908707B4908700FE0EC
S1136DE00088BA280CDB00207649087074480178C2
S1136DF0491C01700078142802DB022072490870D3
S1136E0001BD000050020020160000100402002002
S1136E10930200208702002088020020E401002061
S1136E20F8B56A4F3878012805D100200100684A76
S1136E301170684908701E480178002903D00121A7
S1136E40654A11700BE062490A78521C0A700A788C
S1136E50062A04DB00220A700121604A11705E4C8C
S1136E602178012920D101250570002630005849D8
S1136E7008705B480178491C01700178022913DB12
S1136E803100017001F094F956480178022904DBBD
S1136E90310001705448057002E00178491C01700A
S1136EA03878012800D12670F1BD0000900200203E
S1136EB092020020970200209602002098020020EF
S1136EC07D020020780200209B02002038B50124B6
S1136ED0200046490870402045490A7802430A7058
S1136EE044490A781043087043480168802212021A
S1136EF00A430260E120000200F0FAF83F4D2868DE
S1136F00800B20400028F9D0A320000200F0F0F804
S1136F102868800B20400028FAD039480178C9B28B
S1136F204909C9B200290DD00078C0B24009C0B2E5
S1136F30052807DA01F06AF926480470002026497A
S1136F40087004E000202349087001F065F900206E
S1136F501E4908702B480178E3220A4002702A482F
S1136F60016804220A43026030BF01F055F931BDC3
S1136F709A02002038B525480168802212020A438B
S1136F80026001F081F9002001F083F901241B4D16
S1136F902868800B20400028F8D0E420000200F08C
S1136FA0A7F82868800B20400028FAD031BD0000E3
S1136FB07C02002099020020360F000052020020BB
S1136FC0A00200209F0200209C020020A9020020B1
S1136FD0A6020020A5020020AA020020AC02002084
S1136FE0A7020020A8020020AD02002063020020B6
S1136FF005A0064000A0064008F00F4010F00F4026
S1137000E401002000D0074010ED00E004F00F4040
S1137010F446002804D4494200F013F84042604783
S11370204042002905D45FD000F00BF840424942A9
S11370306047494200F005F84942604703460B4364
S1137040E6D40022030A8B420BD203098B4219D2E5
S113705043088B422ED2411A00D2014652411046B7
S11370607047FF2209023FD012068B4205D3121249
S113707009028B4201D31212090203098B4219D36C
S113708000E0090AC3098B4201D3CB01C01A524163
S113709083098B4201D38B01C01A524143098B42AD
S11370A001D34B01C01A524103098B4201D30B0196
S11370B0C01A5241C3088B4201D3CB00C01A5241BB
S11370C083088B4201D38B00C01A524143088B4280
S11370D001D34B00C01A5241884200D3401A524196
S11370E0CFD201461046704708B5C046C04608BD19
S11370F0F0B500221100130011000100010089B253
S1137100F02424020C40D02109028C422AD101210E
S11371100400A4B265100C002C400500ADB2AE1002
S11371200D00354065400400A4B2E6100C00344064
S11371306C400500ADB22E110D00354065400400D1
S1137140A4B266110C0034406C400500ADB2AE111F
S11371500D00354065400400A4B2E41121406940AB
S1137160C9B20843C4490C6825006D04ED0F002D15
S1137170F8D0C24C24688025AD012543BF4C25605E
S113718028E02E6880273F0137432F6012E08024D7
S1137190E400BA4D2E6826432E608026360216413E
S11371A00700BFB23742ECD0B54D2E6880273F01AF
S11371B037432F60B24D2E6834432C600C68250B86
S11371C02C00E407E40FA4B20F25AD1AAC401C4315
S11371D02300521C1400E4B2102CD8DBA8490A681E
S11371E08024A40114430C609BB2D9B280B2000A7B
S11371F080B2814201D1012000E00020F0BDF8B549
S1137200002200921300130014001400012406004D
S1137210F6B2F6090500EDB2AD1125407540060041
S1137220F6B2761126406E400500EDB22D112540D0
S113723075400600F6B2F61026406E400500EDB229
S1137240AD10254075400600F6B2761026406E401B
S11372500500EDB2254075400E00F6B2F61026404A
S11372606E400D00EDB2AD10254075400E00F6B233
S1137270761026406E400F00FFB22740774001256C
S11372807D4026000640B4460600F6B27608270084
S1137290374066467740BC460700FFB2BF08260069
S11372A03E4067467E40B4460600F6B2F608270024
S11372B0374066467740BC460700FFB23F092600C8
S11372C03E4067467E40B4460600F6B27609270083
S11372D0374066467740BC460700FFB2BF09260028
S11372E03E4067467E400700FFB2FF097740BC4638
S11372F00F00FFB2FF0826003E4067467E40B446BA
S11373000E00F6B2B6082700374066467740BC4602
S11373100F00FFB27F0826003E4067467E402700EC
S11373200F407740009EC0B230430001C9B2014310
S11373304800EDB205436800FFB20743B800872157
S11373400904014300914C480168890B214000293C
S1137350F9D04A4909688025AD010D4347490D60BC
S113736025E02E6880273F0137432F6012E08021FB
S1137370C900424D2E680E432E60009E80273F04B4
S113738017413740002FECD03D4D2E6880273F0138
S113739037432F603A4D2E68314329600168090B49
S11373A021401725AD1AA94019430B00521C1100A6
S11373B0C9B21829DBDB32480168802292010A43F2
S11373C00260180201D4012000E00020F2BDFCB5E7
S11373D000210A000B0000911201C0B21043000307
S11373E08E221204024301920120234A13689B0B4C
S11373F00340002BF8D0214B1C688025AD012543A8
S11374001D6025E01D68802636012E431E6011E0B4
S11374108024E4001D6825431D60019D80263604F8
S11374200E412E40002EEDD0154D2E6880273F01D1
S113743037432F60124D2E6834432C601468240B9C
S11374400440009D1726761AB4402C430094491C2E
S11374500C00E4B2182CDBDB09480168802292019D
S11374600A43026000980099090AC9B28E2901D121
S1137470C0B200E0AA20F6BD10F00F4008F00F40A3
S113748004F00F4038B50D000100C9B201292AD01B
S113749000D2FFE003294CD03DD305295DD048D369
S11374A0072970D059D3092900D181E06BD30B2966
S11374B000D196E000D287E00D2900D19DE000D2F2
S11374C08FE00F2900D1A7E000D297E0112900D165
S11374D0BBE000D2ACE0132900D1CFE000D2C0E081
S11374E014290CD0D6E00020FFF771FF0107090F23
S11374F0280108430021C0B2FFF781FECBE0002041
S1137500FFF765FFF9210140680008430021C0B27C
S1137510FFF775FEBFE00020FFF759FFFE21014091
S11375202800C007C00F08430021C0B2FFF767FE60
S1137530B1E0C0B2032801D1022400E004242000F9
S1137540C0B2FFF744FFC106C90E68010843210019
S1137550C9B2C0B2FFF753FE9DE0C0B2052801D105
S1137560022400E004242000C0B2FFF730FFE3212E
S11375700140AA001C20104008432100C9B2C0B237
S1137580FFF73DFE87E0C0B2072801D1022400E0E6
S113759004242000C0B2FFF71AFFFC210140A80711
S11375A0800F08432100C9B2C0B2FFF728FE72E081
S11375B00520FFF70CFF0107090F280108430521E7
S11375C0C0B2FFF71CFE66E00520FFF700FFF821BC
S11375D001406807400F08430521C0B2FFF70FFEC2
S11375E059E0C0B20B2801D1012100E00321C9B246
S11375F02800C0B2FFF703FE4DE04CE00520FFF782
S1137600E6FEF7210140E800082210400843052166
S1137610C0B2FFF7F4FD3EE00720FFF7D8FE0107F4
S1137620090F280108430721C0B2FFF7E8FD32E043
S11376300820FFF7CCFEF02101402807000F084383
S11376400821C0B2FFF7DBFD25E00920FFF7BFFEEC
S11376500107090F280108430921C0B2FFF7CFFD34
S113766019E00920FFF7B3FEF02101402807000FBD
S113767008430921C0B2FFF7C2FD0CE00E20FFF75A
S1137680A6FE0107090F280108430E21C0B2FFF727
S1137690B6FD00E0002032BDF8B50024002100252D
S11376A000216A46517000216D4AD180010600D53F
S11376B0641CC10600D5E41C010700D5E41C410785
S11376C000D5641C810700D5641CC00700D5641C68
S11376D06448006801004904C90F0029F8D06248D1
S11376E000688021890101435F480160002732E07E
S11376F05D480168802212010A43026017E0802677
S1137700F60059480068304357490860012000F0EA
S113771023F9802000023841C321090201400029D5
S1137720E6D052480168802212010A4302604F48A1
S113773001680E430660012000F00EF94948006814
S1137740010B0800C007C00F80B20F21C91B88407D
S1137750284305007F1C3800C0B21028CFDB280066
S113776080B2000A3E4908703D4845703E480068B2
S11377708021090101433C4801600025002069463D
S113778008702DE08026F600374801683143016017
S1137790012000F0E1F8354801680E43066001203D
S11377A000F0DAF82F480068010B0800C007C00F8A
S11377B080B20F21C91B8840284305007F1C380074
S11377C0C0B21028DEDB26486946097802225143FC
S11377D040184580002568460078401C69460870BA
S11377E0684600782100C9B2884201D20027E6E742
S11377F000241FE08025ED001B4801682943016037
S1137800012000F0A9F8194801680D430560012022
S113781000F0A2F813480068010B0800C007C00F6D
S11378206946497880B20722121B90400843694692
S11378304870641C2000C0B20828DBDB0849684695
S1137840407888750948026880239B0113430360CC
S1137850887D002801D1012000E00020F2BD000055
S11378607401002010F00F4008F00F4004F00F40A6
S113787010B5040000202000C0B280210140600740
S1137880400F002802D00800402101432000C0B26C
S1137890C00602D50800342101432000C0B200070D
S11378A002D508002A210143D0200002084380B2F7
S11378B0FFF71EFC012000F039F82000C0B2FFF7EA
S11378C0EBFE10BD10B51248017802220A43027083
S11378D010480178FF290DD000780F4908700F482F
S11378E00178FE220A400E4909780B00DB07DB0F02
S11378F01343037040200B490A780242FAD00A4A23
S1137900137820241C4314700A781043087010BDA7
S113791000400640FF0300000240064003400640CA
S1137920FE030000044006400140064030B5002339
S1137930190008E000BF521C1400A4B2C8252D0190
S1137940AC42F7DB491C0A00040092B2A4B2A24282
S113795001D21A00F0E730BD00B5002101E000BFFC
S1137960491C0A000300D2B2DBB29A42F7D300BD2D
S113797030B500245A49FFF764FB401E8021594A60
S113798012780A4203D15848204380B226E0574A6D
S113799013785B0616D413780B420BD03F2113786F
S11379A00B400500EDB229408B4203D050482043E0
S11379B080B213E01178C0230B408006800E184378
S11379C0107009E03F2112780A40C0B201408A4297
S11379D002D02000464C0443200080B230BD00B5E4
S11379E044490A6880235B0213430B603D498022AB
S11379F00A70C0B2002802D008781042FCD000BD42
S1137A0070B500221400374D302129703A490A70AC
S1137A103A4A122313703A4B0600360C1E700126A4
S1137A200E7001001970000A10700120FFF7D7FFD3
S1137A302878800602D52000B14C04432878C0067B
S1137A4002D52000AF4C044303202978014202D020
S1137A502100AD4C0C432978014202D02000AB4CEC
S1137A600443200080B270BDF8B500231C001D4DF6
S1137A7030222A70204A1370204B11261E70204F8A
S1137A800600360C3E700126167006003E70000A91
S1137A90187002201070080080B2000A38700326A3
S1137AA0167039700120FFF79AFF2878800602D5F6
S1137AB02000934C04432878C00602D52000914C42
S1137AC004432878304202D020008F4C04432878A5
S1137AD0304202D020008D4C0443200080B2F2BD1D
S1137AE040420F0006000240143000000000024033
S1137AF0183000000C3000F0020002400A0002407E
S1137B000B000240FEB50D00002600A9891C0024CC
S1137B100C800021002D04D01400210089B200291A
S1137B2001D10020EBE0010080204005814206D312
S1137B30200080B20818401E9B4A904201D30020C6
S1137B40DDE06846037068460078012800D1641CB3
S1137B506846007801280CD1002002E02A5CB6189F
S1137B60401C220092B2521E9042F7D3F04306000A
S1137B70761C48084000019001980F1A0023022245
S1137B8000A9891C019800F0C3F8002801D1002045
S1137B90B5E002203900C9B2401A210089B28842F6
S1137BA01FDB00A8801C29783A00D2B281546D1CD6
S1137BB07F1C7E496418220092B2012A0CD16A46C5
S1137BC01278012A03D13A00D2B2865403E02A780B
S1137BD03B00DBB2C2546418200080B20028E0D11C
S1137BE00AE0FFB206E0287800A9891CC8556D1C7C
S1137BF0641E7F1C022FF6D300AFBF1C387800022E
S1137C0079780843694608810198FFF7F9FE00284E
S1137C1001D0002073E0684601890198FFF724FF32
S1137C20002801D000206AE00198801C01900AE03D
S1137C30684601890198FFF717FF00281CD10198B5
S1137C40801C0190A41E200080B2032816DB0020B3
S1137C5003E0297839546D1C401C0228F9D3387884
S1137C60000279780843694608810198FFF7C8FE45
S1137C700028DDD0002042E0002040E000200290F7
S1137C80200080B2002839D00023022200A9891CD8
S1137C90019800F03DF8002809D100202FE0287851
S1137CA0029978546D1C0298401C0290641E2000B6
S1137CB080B200280ED0200080B20128EFD168469F
S1137CC00078012802D102983E5402E028780299F3
S1137CD07854601E38780402787804430198FFF7DA
S1137CE08FFE002801D0002009E0210089B201980C
S1137CF0FFF7BAFE002801D0002000E00120FEBDFD
S1137D000830000010300000113000001230000074
S1137D10F0B5040000201D00EDB2012D00D1521C6D
S1137D20002903D01500ADB2002D01D1002039E0A7
S1137D3080256D05AC4206D31500ADB265196D1EE4
S1137D40194EB54203D300202CE025780D701500A0
S1137D50ADB2002D25D08025154E37782F4201D1A4
S1137D6000201FE02778641C0F70491C4F1E3F78C9
S1137D70C019521E1700BFB2012FE8D136782E4227
S1137D8001D100200EE01D00EDB2012DDDD12178DE
S1137D90641C4018C0B2002801D1012002E0002078
S1137DA000E00120F0BD000000010010FFFF000012
S1137DB0060002400E480168802292050A430260D0
S1137DC00C480168802212010A43026038200A49E3
S1137DD00860002009490860704700B50849C0B22E
S1137DE0086008680006FCD50648006880B200BD3B
S1137DF00C80044018B0034008B003400CB00340AA
S1137E0000B0034010B00340F8B505000C00002694
S1137E10370005E02800C0B2FFF7DFFF3F18761CEB
S1137E2030002100C0B2C9B28842F3D33800210027
S1137E30C9B2FFF706F980B2F2BDFEE70120764928
S1137E40087000200100754A117075490880704758
S1137E5000B5744801780F2902DB0021017002E0AB
S1137E600178491C017070490A78F02313400078A6
S1137E700007000F184308700120CC49087000BDAA
S1137E80F8B51020EF21694C674F22780A403B7AFD
S1137E9005001D4015432570654E627811407A7ABD
S1137EA0D2B25208104008433070387B20712179D7
S1137EB089B2402048431921FFF7C0F85D49088082
S1137EC02078C006C00E397A49094901014321705E
S1137ED00125A078FE210140B87A2A0002400A4315
S1137EE0A270A079F8210140B87B4007400F0843F5
S1137EF0A071F720A1790140BA7B08231A400A43F4
S1137F00A2716278F02111407A7A1207120F0A43A3
S1137F103270A1798F220A40B97B70230B4013433E
S1137F20A371A84904260A78FB2313409C463B7C92
S1137F3032001A4063461A430A700A7810403A7CA9
S1137F4008231A4002430A700A78FE2010403A7C43
S1137F502B00134003430B70FEF79AFC6078010179
S1137F60A079C0B200094007400F0843C0B21128ED
S1137F7010D0132814D0522818D053281CD0952878
S1137F8020D0D22825D0D3282AD0D5282FD0D6281F
S1137F9033D038E028008C4908708C48057037E0ED
S1137FA00220894908708948057031E00320864918
S1137FB00870864805702BE08348067002208349C8
S1137FC0087025E005208049087003207F49087067
S1137FD01EE006207C49087003207C49087017E0E5
S1137FE007207949087003207849087010E00820B8
S1137FF075490870754806700AE0092072490870CE
S11380007248067004E009206F4908706F480670D2
S113801050206F490870F1BD620200206002002008
S11380201802002061020020C0000020E4010020AA
S1138030E50100202C02002070B5664866498A8953
S1138040824202D0C989814202D10020634908706A
S1138050FEF700FEFEF762FE61480178C906C90E0C
S11380605E4A127852010A43027001214F4A0B0002
S113807013705C4B1B78002B05D0437808241C43F9
S11380804470437804E04378F7241C4044704378F8
S11380900B001370544B1B78002B05D0437810242D
S11380A01C434470437804E04378EF241C4044703C
S11380B043780B0013704D4B1B78002B05D043788D
S11380C040241C434470437804E04378BF241C409C
S11380D0447043780B001370454B1B78002B05D07C
S11380E0437880241C434470437804E043785B065F
S11380F05B0E437043780B001370431D3D4C46796F
S1138100FC2535402688B6B2360AB607B60F2E438C
S11381101E70248804710C001470374C2478C470C9
S11381200C001470354C247884710C001470344C99
S113813025780A2D01DB0A2400E0247845792D07EF
S11381402D0F24012C431C700B0013702D4B1C7835
S11381500D002540EDB2002D05D08478022525437D
S11381608570847804E08478FD25254085708478C2
S11381700C0014701C782500EDB26D080C002C4026
S11381801B78DBB29B080D001D402543EDB2002D8A
S113819005D0837804241C438470807804E08378B9
S11381A0FB241C4084708078117070BDD4010020C1
S11381B01548017801220A4302700178FE220A4020
S11381C002707047AE02002078020020770200207F
S11381D094020020FFFF00008C0100209202002086
S11381E0C0000020A1020020A2020020A30200205F
S11381F0A40200202E0200207A020020790200202E
S113820090020020EC01002003A0064019480168F8
S113821040220A4302607047164801684022914395
S11382200160704780B51448016801220A43026066
S1138230104801688022D2010A4302600168C0220A
S1138240D2000A4302608C200C490860802040035D
S11382500B490A6802430A600A490A681043086025
S1138260FFF7DAFF01BD0348016880220A43026078
S11382707047000000D003400C80044004D0034049
S113828080E200E000E100E080B500F083F8002027
S113829002BD80B500F002F802BD130280B50020D3
S11382A000F07EF8002002BD80B500F0B4F801BDF6
S11382B080B500F0B4F801BD10B500242100010020
S11382C0C9B2092901DB052403E03449087000F030
S11382D0B7F82000C0B210BD80B5C0B200F0A3F85A
S11382E0002002BD10B50200012003001340140059
S11382F0E4B2640804405C401300DBB29B08034012
S113830063401400E4B22409204058408301100063
S1138310C0B240081400E4B2E40844401000C0B203
S1138320000960401400E4B264094440E043C00121
S11383301843C9B201290BD11100C9B2C0230B40A3
S1138340C0B2834201D0FF2003E09006800E00E01B
S11383501043C0B210BD00B50A00D2B23C2A05D009
S11383600A00D2B27D2A01D0C9B200E0002102780D
S113837008E0401C0378C9180B009BB2FF2B00DDFA
S1138380FF39521E1300DBB2002BF2D189B2C8436D
S1138390C0B200BD80B500F0FBFA01BDC0010020F1
S11383A080B5334908703348334908603420334971
S11383B008803F2032490A6880235B0313430B6023
S11383C07949020092B21212D206D20E0B681A70C8
S11383D00A68507000200A6890702C200A68D070D7
S11383E008684079862202430868427108688079E7
S11383F002220243086882710868007880220243DE
S11384000868027008684079EF22024008684271E7
S113841000F0B6F801BD80B500F0B2F801BD0A2045
S113842062490870704714490A6810700020604A55
S1138430107008685F49086006205C49087070473E
S113844010B50D4C5C4801782068FFF784FF216863
S113845022681278891848700120554908702068EC
S1138460407851490968C87107205049087010BD07
S113847006010020C0010020FC010020240200208D
S11384800C80044038B54E480178022914D14D4976
S11384900A88521E0A80098800290DD103214A4AFC
S11384A0117005210A00494B1A70494A11700021C4
S11384B00A000270474A11700178012911D141491B
S11384C00A88521E0A80098800290AD103213E4ADB
S11384D011700421404A117000210A0002703D48C5
S11384E00170324C207800280AD0801E022822D93C
S11384F0001F2BD0401E01281DD9801E3FD03EE016
S1138500364D2888002812D1012035490870FF21F2
S1138510082000F071FA334828802348016849791B
S1138520FD220A40006842710A20207002E0288877
S1138530401E288023E02C480188002902D100F045
S11385401FF802E00188491E018018E027480188CD
S1138550002910D116480078002809D0174801785E
S113856002220A43027022480178072000F044FAEC
S113857000F006F802E00188491E0180FFE731BDE2
S11385800E480178FB220A400270164813490880FD
S113859000200649087004480168497902220A4308
S11385A000684271704700000001002007010020AC
S11385B075020020F801002008010020F4010020C9
S11385C06A02002020020020050100206C02002025
S11385D06D0200206B0200206E0200202A0200209F
S11385E06602002010270000260200202802002036
S11385F076020020F8B5B04D2868007929684C79D6
S1138600C0212140402921D12868407940210143DB
S11386102868417128680078BF21014028680170EA
S1138620A64800780A2804D1FFF7AAFF0020A4492D
S11386300870286800788021014328680170286840
S11386404079EF2101402868417184E1022631001C
S113865008421DD02868007931000143286801715F
S11386602868C079BC4801780A220A4302709348FA
S11386700178062905D00178072902D00078082856
S113868004D1B6480178042000F0B6F9FFF778FF6A
S1138690802001000C422CD02968497908432968BC
S11386A0487140202968097801432A6811702968B3
S11386B009784906490E2A68117080490A780A2AFD
S11386C002D1FFF75DFF46E10422A34B1A70A44ACE
S11386D0D289A44B1A802A68127810432A68107031
S11386E00320087028684079FD2101402868417101
S11386F031E1286800792968CC79810600D42AE11F
S11387006E4F397803290AD0042919D006294BD091
S1138710072900D1B5E00A2900D101E11BE1E4B247
S1138720552C05D10420387001208F49087006E0CB
S11387308A480178062000F05FF9FFF721FF0AE17B
S1138740864D01212000C0B2FFF7CCFD2870874878
S1138750047028783C2802D028783D2805D10020D0
S1138760834908800120834908702878FF280FD0A6
S11387702978002000F040F979487F490968097890
S1138780022251434018801E00887C4908800AE078
S11387907148017840220A430270FF21032000F04F
S11387A02BF9FFF7EDFED6E075480168491C01601E
S11387B000680470704E7348007831680978884204
S11387C05AD16A4801783068FFF7C5FDE4B2A04287
S11387D046D1FFF755FB01245F48017822000A4384
S11387E002702868C078DB2101402868C170092024
S11387F038705A480178022000F0FEF82868C078E2
S1138800242101432868C17038780A2801D0FFF771
S1138810B7FE524800783C282ED1306840780028B2
S11388202AD130688078FF2826D13068C078FF28A4
S113883022D130680079FF281ED130684079FF28A2
S11388401AD130684079FF2816D13068C079FF28E2
S113885012D13068C079FF280ED14B4804700BE068
S11388603D48017812220A4302703C4801780520F1
S113887000F0C2F8FFF784FE42480178491C0170F9
S113888069E0400607D435480178062000F0B4F8C2
S1138890FFF776FE5FE03B4837490A680378D25C0D
S11388A0E4B294420ED02D480178062000F0A4F8DA
S11388B0FFF766FE4FE000BF000100200701002023
S11388C0660200200A68127803789A4208D3027874
S11388D0521C027009680078085C2968C8711EE09F
S11388E000202A490870FFF7B3FA1B4801780122D7
S11388F00A4302702868C078DB2101402868C170EF
S11389000920387015480178012000F075F82868AE
S1138910C078242101432868C170FFF731FE1AE0B2
S11389202000C0B2F0280ED02000C0B2E0280AD047
S11389302000C0B2C02806D02000C0B2802802D0D7
S1138940E4B2002C06D1FFF71BFE286840790643E9
S113895028684671FFE7F1BDF4010020760200208B
S113896050AA000026020020A902002008010020CD
S11389702202002074020020FC01002028020020B2
S1138980F801002075020020AB0200207B020020C9
S11389904021114802680A43026010480268072314
S11389A0134303600E4A13681943116011681023BE
S11389B00B4313604C210B4A1160016808220A43DF
S11389C002608020C00208490A6802430A6007491D
S11389D00A681043086070470C800440009003400C
S11389E00C9003401090034080E200E000E100E0BE
S11389F080B5FFF747FD01BD80B50200D2B2002A61
S1138A0004D10800C0B200F021F81EE00200D2B286
S1138A10012A04D10800C0B200F0B3F815E0020046
S1138A20D2B2022A04D10800C0B200F071F80CE0FE
S1138A300200D2B2082A04D10800C0B200F022F920
S1138A4003E0C9B2C0B200F0DAF801BDF8B507001E
S1138A500025280087490870874E3800C0B200F00E
S1138A6069F930703078FF2801D128003FE00120F7
S1138A70824932780C235A438C182178012917D162
S1138A807F48A1680978405C00280FD09E48A168FF
S1138A900978401845782800C0B200F04BF93070CE
S1138AA02800C0B200F002FA022020E028001EE0F4
S1138AB0A17801291BD12078002806D10021380093
S1138AC0C0B200F04FF9022011E0974E3078002830
S1138AD001D128000BE0C5480078032806D000F037
S1138AE025F93078401E3070022000E02800C0B222
S1138AF0012802D0022804D007E06078FFF7ECFBDD
S1138B0005E06078FFF7D8FB01E0FFF7CDFBF1BD8E
S1138B1070B504005848594902780C235A438A18FE
S1138B20157902780C235A438A18567901228C4B02
S1138B301A7002780C235A438A5C002A05D1012159
S1138B402000C0B200F00EF907E000780C22504378
S1138B50085C112801D100F0D9F8002006E0FF21BB
S1138B60A34A2B00DBB2D1546D1C401C010032001F
S1138B70C9B2D2B29142F2D32000C0B200F060F97F
S1138B8070BD70B5012576490D709A490A78012A9D
S1138B9004D100221300984C23700A700400364E4E
S1138BA02000C0B200F0C6F83070307800F071F8E0
S1138BB0307800F062F92000C0B200F041F9E4B26C
S1138BC03D2C1BD18D480188491E01800088002856
S1138BD00BD1002001008A4A11700221894A1170C8
S1138BE0824A11708849087008E0FA20C000874959
S1138BF008808348057002208349087070BD70B5F1
S1138C0005000C001C4E2000C0B200F093F8307038
S1138C10EDB2ED1E042D25D80120774908702000FF
S1138C20C0B23C280DD103207949087079490870F5
S1138C3002207949087100203B4908707249087084
S1138C400CE02000C0B23D2808D103206D49087013
S1138C5006207249087100206B490870032063499B
S1138C600870FFE7307800F008F92000C0B200F087
S1138C70E7F870BD6602002071020020CCA8000055
S1138C80D401002080B5C0B200F0DAF8FFF710FB81
S1138C9001BDF0B562490200D2B20C235A438A18CE
S1138CA012790300DBB20C246343CB185B79040014
S1138CB0E4B20C256C430C5D012C09D1594C050020
S1138CC0EDB20C2675434D19AD682D780026665516
S1138CD00400E4B20C256C43095D112912D0002173
S1138CE00C0006E0FF25424E1700FFB2F555521C5A
S1138CF0641C25001E00EDB2F6B2B542F2D3494A17
S1138D00C0B21154F0BD0000F800002080B5464800
S1138D104078002805D1012044490870FFF7C8FABB
S1138D2001E000F0E1FB01BD6F02002080B500F01E
S1138D30E3FA01BD00B5052100E0491E0A00D2B2E4
S1138D40002A0AD03A4A0B00DBB2D25C0300DBB241
S1138D509A42F2D1481EC0B200E0FF2000BD0000DC
S1138D606402002030B53048324A2D4B14780C256B
S1138D706C431C196478047014780C256C431C191A
S1138D80E478C9B200291FD111780C225143591833
S1138D908968002907D00978274A1278914202D1BC
S1138DA00121144A117001210A00D2B203785B1C1C
S1138DB09A421ADA214A2300DBB2D25C0B00DBB2FE
S1138DC0C254491C641CEFE7012108E00A00D2B236
S1138DD0825C1A4B2500EDB25A55491C641C0A00EA
S1138DE0D2B203785B1C9A42F0DB30BD050100204F
S1138DF0CC01002070020020650200201E02002029
S1138E006A0200206E0200206B0200202002002073
S1138E106C0200206D020020E8000020D800002031
S1138E20CCA80000D4010020C0010020660200206C
S1138E30F8000020710200202EA80000C0000020CD
S1138E4010B42249224A13780C7864001C43127827
S1138E5009781143890021431E4A1278D2000A433B
S1138E601D49097889011143C0B2000208431B4916
S1138E7001401B48018010BC704730B51949C0B28D
S1138E800C225043085C01280FD017481749184A90
S1138E900B78D35C01240578AC40A3430C4C2478B4
S1138EA0007884401C430878145430BD10B5040085
S1138EB000212000C0B2FFF755FF00212000C0B2FE
S1138EC0FFF710FA0B49487010BD0000640200203F
S1138ED06502002066020020670200204FFF0000A8
S1138EE01A020020CCA80000869D00009B8200008E
S1138EF0C0000020C0010020F8B596B003001000A7
S1138F00C54A04AC1578257003252E0066707F26AB
S1138F10A670E3702071FF266671A671E6711F00CA
S1138F20FFB2102F14D0222F1CD02E2F00D1FAE024
S1138F30B02F00D19EE1B22F00D151E1B32F00D167
S1138F40A7E1B62F00D18BE1B72F00D17EE1A7E1D5
S1138F50C9B2012905D1022161704033A370E070C8
S1138F6026719DE1C9B2012900D0DBE04033A37032
S1138F700100C9B2852914D10123032206A9802046
S1138F804005FEF7C5FE06206070F120E0708520E4
S1138F90207106A8017861714178A1718078E0712F
S1138FA0C0E00100C9B2862913D10123032206A916
S1138FB0BF48FEF7ADFE06206070F120E070862009
S1138FC0207106A8017861714178A1718078E071FF
S1138FD0A8E00100C9B2872913D10123032206A9FD
S1138FE0C348FEF795FE06206070F120E0708720EC
S1138FF0207106A8017861714178A1718078E071CF
S113900090E00100C9B2882913D10123032206A9E3
S1139010B848FEF77DFE06206070F120E0708820DD
S1139020207106A8017861714178A1718078E0719E
S113903078E00100C9B201291AD10123012206A94D
S1139040B948FEF765FE06A80178FF2903D164201C
S1139050B649087002E00078B449087004206070D2
S11390601320E07001202071B0480078607159E04D
S11390700100C9B202291AD10123012206A9AC4870
S1139080FEF746FE06A80178FF2903D16420A9490A
S1139090087002E00078A74908700420607013206B
S11390A0E07002202071A348007860713AE001006A
S11390B0C9B20A290DD1052060701320E0700A207E
S11390C020719D48818989B2090A61718089A071E2
S11390D028E00100C9B20B290DD1052060701320CE
S11390E0E0700B2020719448C18989B2090A61712A
S11390F0C089A07116E00100C9B22039202911D21B
S113910002A9C0B200F09EFBC0B254280AD102A842
S11391100178E1704178217181786171C178A17120
S11391200079E071BCE0C9B2012958D14033A37081
S113913066710100C9B2852906D128006070F1204A
S1139140E070852020714AE00100C9B2862906D169
S113915028006070F120E070862020713FE001005B
S1139160C9B2872906D128006070F120E0708720F9
S1139170207134E00100C9B2882906D1280060704A
S1139180F120E0708820207129E00100C9B2012992
S113919006D1280060701320E070012020711EE0C9
S11391A00100C9B2022906D1280060701320E070C2
S11391B00220207113E00100C9B20A2906D1280057
S11391C060701320E0700A20207108E0C0B20B2800
S11391D005D1280060701320E0700B2020715FE03F
S11391E0C9B2012931D1062161704033A370010055
S11391F0C9B2002912D1B6480188E170018889B248
S1139200090A217141886171418889B2090AA171F1
S11392100079E07119E000BF040100200100C9B227
S11392202039202911D26946C0B200F00BFBC0B22C
S113923054280AD168460178E17041782171817817
S11392406171C178A1710079E07129E0C9B2012985
S113925005D1012060704033A370E67026711FE0D1
S1139260C9B2012905D1012060704033A370E670B2
S1139270267115E09748C168008808234343C8183D
S1139280C079107001206070F020A070E670267123
S113929006E001206070F320A070E6702671FFE7FD
S11392A08D48057101210A00C28000220EE000BF32
S11392B004000010C368058808266E439B19150036
S11392C0EDB21600F6B2A65D5E55521C1300DBB279
S11392D0082BEFDB4088814A10800800804A108008
S11392E00800804A1070BA48017017B0F0BD000041
S11392F0080000100C000010E0B500227649684612
S113930000F05AFA01200AE069460200D2B2891834
S1139310491E0978AF4A0300DBB2D154401C010056
S1139320C9B20929F0DB07BD100000109D0200201E
S1139330120000109E0200208C01002070B54178BC
S1139340C9B20909C9B2002903D002297BD02FD39D
S1139350BDE040780007000F80B2072824DA022518
S113936028009D490870002001009C4A11700124C6
S113937021009B4A1170574902000A8002004A806A
S11393800200CA8008710122964800F0DBF920002F
S1139390C54908709448047094480178062900D09F
S11393A0057000F027F902E00020904908708EE073
S11393B041780907090F80225200514380780C1824
S11393C0200080B2C01F052839D2FA20C000884985
S11393D0088002208149087000253E492800088041
S11393E0280048802800C8802800087101227D4890
S11393F000F0A8F90626200080B2401F3100FDF7D6
S11394001DFE002907D1A4B2601F3100FDF716FE2E
S11394107549087007E0A4B2601F3100FDF70EFE25
S1139420401C7149087001209F4908706C48057000
S11394306E480178062905D00421017002E000205D
S11394406A49087043E0FA21C900694A118002247C
S1139450624D2100297040780007000F92490A7874
S1139460C0B2904217D10878401C087008781028C0
S113947001DB002008705C480178491E017001225C
S11394801449584800F05EF95848017806290AD072
S11394900421017007E0062001004F4A11709C4925
S11394A00870002028705048007800280ED1200051
S11394B049490870002028700120494908704B4828
S11394C00178062900D0047000F094F8FFE770BD1D
S11394D074AA0000E8000020D80000201C0200202C
S11394E01E0200206E020020F8B53A4A5078D37864
S11394F09178C9B209090400E4B27F2C1AD004009F
S1139500E4B27E2C16D0834C24780500EDB2AC4234
S113951003D01C00E4B2B02C08D17F4C24780500A1
S1139520EDB2AC4206D0DBB2B02B03D10020284907
S113953008704BE02D4B1C78022C02D01C78042CB4
S113954010D10400E4B27E2C0CD1254C2478002CDC
S113955008D1FA20C0002649088002201F4908705B
S1139560002033E01C78022C1ED10400E4B27E2CCF
S11395701AD0002425001A4E3570684D6C802C805A
S1139580EC8005262E71664D6C802C80EC802600C4
S11395902E7102252E00634F3E7026000E4F3E7042
S11395A05B4E35700A4D2C700D4C2478032C02D17F
S11395B0C9B202290AD0C0B27E2802D00420187091
S11395C001E006201870501CFFF7B8FEF1BD000042
S11395D06F020020C00100206C0200206A020020FB
S11395E005010020C1010020680200206B02002058
S11395F02002002070B5002421004948C268038875
S113960008255D4352195278D2B21209C3680588FD
S113961008266E439B5DDBB27E2B0BD100F0ACFBC6
S113962041480470022041490870414804701E48B2
S113963004706CE0D2B2012A06D1C2680088082303
S11396404343D018C07805E0C26800880823434328
S1139650D0188078220000E0521C1300DBB2082BE3
S11396600CDA344B1500EDB25B5D0500EDB2AB4294
S1139670F2D101210B00304DD2B2AB54C9B2012951
S113968040D10100C9B2102910D0222929D02E2995
S11396902AD0B0291CD0B2290BD0B3291ED0B629A8
S11396A00DD0B72908D02CE06902002000F0FDF8A5
S11396B02DE000F0F5FA2AE000F0A4FA27E00120FA
S11396C01E49087000220121B620FFF715FC1EE098
S11396D000220121B020FFF70FFC18E000F004FB8A
S11396E015E000F02BF912E015490978012905D19C
S11396F07F220021C0B2FFF7FFFB01E000F086F9F2
S113970005E004E011220021C0B2FFF7F5FB70BDB3
S11397106D02002004010020879D0000D800002075
S1139720E80000206E0200206B02002005010020EA
S1139730680200207CAA0000DC01002067020020EF
S11397407202002070B5CB680C79032C33D00C79ED
S1139750052C02D00C79002C08D1D2B2002A02D1F7
S113976004220A710DE001220A710AE00A894C8878
S1139770641CA24202D100224A8002E04A88521CA0
S11397804A8000220AE04C88082565435C191500CC
S1139790EDB21600F6B2865D6655521C1400E4B2B2
S11397A0082CF0DBC888401CC880C8880A8990420D
S11397B001D30320087170BDFCB50B00DC68009474
S11397C01C79002C3DD01C79052C3AD01D8800232F
S11397D01C0001900DE000982E00B6B208277743D4
S11397E0C0192600F6B2805D019E2700FFB2F05535
S11397F0641C2000C0B20828EDDBC888401EC88065
S1139800C888002808D1D2B2002A02D105200871E4
S11398100AE01800087107E0D2B2002A02D104203D
S1139820087101E001200871C888002809D008885F
S11398300A89521E904201D10B8002E00888401C24
S11398400880F3BD00B5020052201300DBB2202BC8
S11398500ED11000401C08701000801C48701000CD
S1139860C01C88701000001DC870521D0A7154205D
S1139870C0B200BD00B561480178012910D160492A
S11398800A88FA235B009A4207DB01225D4B1A70B7
S11398900022130003700A8002E00888401C08803C
S11398A0584800785849087000BDF8B501A8811CD3
S11398B0684600F071FA01A8C0786946098802294F
S11398C035D1C0B2012804D02BD3032820D009D32A
S11398D027E0012201211020FFF70EFB0120494956
S11398E0087029E048480078012808D17F22002127
S11398F01020FFF701FB01204249087007E0022213
S113990001211020FFF7F8FA02203E49087013E005
S1139910032201211020FFF7EFFA032039490870D0
S11399200AE0122200211020FFF7E6FA04E01322D5
S113993000211020FFF7E0FA05B000BDF8B501A83A
S1139940811C684600F028FA01A9C8780002097948
S1139950084369460988032949DB80B2A749401AAC
S113996027D0401E2BD008382FD0401E33D0A44916
S1139970401A06D0401E0AD0401E0ED0401E12D0FF
S11399802FE0852201212220FFF7B6FA34E0862257
S113999001212220FFF7B0FA2EE0872201212220A4
S11399A0FFF7AAFA28E0882201212220FFF7A4FA6F
S11399B022E0012201212220FFF79EFA1CE002226C
S11399C001212220FFF798FA16E00A220121222021
S11399D0FFF792FA10E00B2201212220FFF78CFA04
S11399E00AE0312200212220FFF786FA04E0132244
S11399F000212220FFF780FA05B000BD7402002088
S1139A002202002072020020730200201FB501A868
S1139A10811C684600F0C0F901ACE07800022179AD
S1139A20084369460988032900DAE1E080B27349F2
S1139A30401A6BD0401E00D188E0083800D1A5E060
S1139A40401E00D1B8E06E49401A06D0401E1BD01B
S1139A50401E2FD0401E43D0C4E06846008806282C
S1139A6005D0132200212E20FFF746FA0BE0012334
S1139A700322611D80204005FEF744F88522012160
S1139A802E20FFF739FAB8E068460088062805D08A
S1139A90132200212E20FFF72FFA0AE001230322CC
S1139AA0611DA948FEF72EF8862201212E20FFF71A
S1139AB023FAA2E068460088062805D01322002174
S1139AC02E20FFF719FA0AE001230322611D9F48A3
S1139AD0FEF718F8872201212E20FFF70DFA8CE0FB
S1139AE068460088062805D0132200212E20FFF79F
S1139AF003FA0AE001230322611D9548FEF702F8E8
S1139B00882201212E20FFF7F7F976E068460088C5
S1139B10042805D0132200212E20FFF7EDF914E0CC
S1139B2001230122611D8B48FDF7ECFF6079FF28BA
S1139B3003D164208849087002E06079864908707E
S1139B40012201212E20FFF7D7F956E0684600884C
S1139B50042805D0132200212E20FFF7CDF914E0AC
S1139B6001230122611D7D48FDF7CCFF6079FF28A8
S1139B7003D164207A49087002E06079784908705A
S1139B80022201212E20FFF7B7F936E0684600884B
S1139B90052805D0132200212E20FFF7ADF90AE095
S1139BA001230222611D6F48FDF7ACFF0A22012147
S1139BB02E20FFF7A1F920E068460088052805D08B
S1139BC0132200212E20FFF797F90AE00123022235
S1139BD0611D6548FDF796FF0B2201212E20FFF73A
S1139BE08BF90AE0312200212E20FFF785F904E0E9
S1139BF0132200212E20FFF77FF91FBD011300005F
S1139C007ADE00007FB50724200001A8811C684685
S1139C1000F0C2F801AEF5782800001D01E0641ED2
S1139C20401E2900C9B2020052B209B212B29142D6
S1139C300EDA210049B2715CFF29F0D0010049B26B
S1139C400429ECDB10220021B720FFF755F926E0A8
S1139C5004246D1C0CE00121200040B2305CFEF7AE
S1139C6041FB42492A0052B28854FFE7641C6D1C30
S1139C70200040B208280DDA200040B2305C0028F1
S1139C8002D0FF28F2D0E6E7FF2038492A0052B27A
S1139C908854EBE700220121B720FFF72DF97FBD9F
S1139CA0F8B501A8811C684600F076F801A8C278CE
S1139CB01000C0B2002805D100220121B220FFF714
S1139CC01BF90FE01000C0B22038202805D2D2B210
S1139CD00121B220FFF710F904E012220021B22082
S1139CE0FFF70AF905B000BD70B52148C1680288C4
S1139CF008235343C918C978C268038808245C43FD
S1139D0012191279C3680488082565435B195B79C5
S1139D10C468058808266E43A419A479C9B2002929
S1139D2011D154402340DBB2002B07D1C168008815
S1139D30082242438818C0790E4908700022012184
S1139D40B320FFF7D9F870BD04000010080000101C
S1139D500C000010100000109D02002012000010E2
S1139D609E020020180000101C000010F8000020C3
S1139D70E800002004010020F8B501A9684600F0BD
S1139D800BF805B000BD031680B501220149FFF7A9
S1139D9013FD01BDE8000020F3B583B000240120C9
S1139DA04C4908704C4D287802280CD02878032898
S1139DB005D02878062802D028780528F2D12878FA
S1139DC04449087084E06846FFF7DEFF6E46707809
S1139DD00100C9B209090398C9B2002903D00229B4
S1139DE047D01AD36FE071780907090F0180B07862
S1139DF0049A1070012008E00200D2B2B2189278DE
S1139E00049B0400E4B21A55401C0200D2B20B00B9
S1139E1092B29BB29A42EFD355E071780907090FC9
S1139E20802252005143B27889180180F078049A54
S1139E301070012008E00200D2B2B218D278049B5C
S1139E400700FFB2DA55401C0200D2B2052AF2DB49
S1139E504F1F641D0DE00100C9B2715C049A230018
S1139E609BB2D154641C401C0100C9B20829F2DB26
S1139E70BF1F380080B2072807DB6846FFF784FF5E
S1139E8070780007000F0220EEE7380080B2002847
S1139E9018D06846FFF778FF70780007000F00209D
S1139EA009E00100C9B271188978049A23009BB2B1
S1139EB0D154641C401C0100C9B23A0089B292B268
S1139EC09142EED3FFE70020287002200149087078
S1139ED005B0F0BD6D0200206C020020F8B57B4C8B
S1139EE00123012221007A48FDF712FF2078FF2880
S1139EF001D164202070774C01230122210076488F
S1139F00FDF706FF2078FF2801D16420207001238B
S1139F10012269467148FDF7FBFE68460078FF2878
S1139F2004D16F48007C6F49087003E068460078EC
S1139F306C4908700123012269466B48FDF7E8FE6D
S1139F4068460078FF2804D16548407C674908705A
S1139F5003E06846007865490870654900200200FE
S1139F600A7002004A70634C01002170624D0121A5
S1139F700A002A70614A03001370614B0E001E70C0
S1139F802478002C06D05F4C667808273743677026
S1139F90647805E05B4C6678F7273740677064782F
S1139FA0594C0E0026702D78002D06D0554D6E7834
S1139FB0102737436F706D7805E0524D6E78EF27A8
S1139FC037406F706D780D0025701278002A06D026
S1139FD04C4A557840262E435670527805E0494A3B
S1139FE05578BF262E40567052780A0022701A788F
S1139FF0002A06D0434A537880251D435570527871
S113A00005E0404A53785B065B0E537052780A00B1
S113A01022703C4A931C9578FB262E401E7095783E
S113A0200D0025709578F7262E401E7092780A0050
S113A0302270364A137808241C431470344A531C83
S113A0401024557826002E431E700D00314E3570B5
S113A050157826002E43167055782C431C70030087
S113A060137102002C4B1A702C4A117001002C4AF7
S113A070118001002B4A117001002B4A117001005C
S113A0802A4A117050212A4A11700921294A117053
S113A090294A11700100294A11700100284A1170DF
S113A0A00100284A11700100274A11700100274A53
S113A0B011700100264A11700100264A1170010036
S113A0C0254A117025490870F1BD00BF9D0200208A
S113A0D0100000109E020020120000101400001056
S113A0E03CAA00008002002016000010810200201B
S113A0F056020020A1020020A2020020A302002098
S113A100A4020020C0000020D4010020AE020020E0
S113A110E401002097020020610200207202002066
S113A1202202002074020020930200206202002018
S113A13094020020780200209B0200208A02002062
S113A14087020020A5020020A7020020A802002008
S113A150A6020020AB020020AC020020AD020020C9
S113A16070B4802212025B480168114301605A49AD
S113A1700B681A430A60594B02681A400260584A35
S113A180146823401360574B04681C40046014682F
S113A19023401360402304681C4304600C68234379
S113A1A00B6080240368234303600B6823430B6024
S113A1B04D4B1D682C431C608024A4010568254375
S113A1C005600D6825430D601D682C431C608024C8
S113A1D024010568254305600D6825430D601D684D
S113A1E02C431C600224E443404D2E6826402E601C
S113A1F03F4D06682E400660166835401560802580
S113A200ED0006682E4306600E682E430E60196842
S113A2100D431D6001680123994301601168012306
S113A2209943116001682140016011680C40146079
S113A2300421C94303680B4003601368194011608B
S113A2400821C94303680B40036013681940116077
S113A250284903680B4003601368194011602649BC
S113A26003680B40036013681940116023490368B5
S113A2700B400360136819401160214903680B40C7
S113A28003601368194011601E4903680B400360A2
S113A2901368194011601C4903680B40036013687C
S113A2A019401160194903680B4003601368194091
S113A2B01160174903680B4003601368194011606B
S113A2C0144903680B40036010680140116070BCBE
S113A2D0704700BF14F00F4004F00F40FFBFFFFFB2
S113A2E018F00F40FFFFFFF704900440048004407F
S113A2F0FFEFFFFFFFFFFEFFFFFFFDFFFFFFFBFF81
S113A300FFFFDFFFFFFFBFFFFFFF7FFFFFFFFFFE3A
S113A310FFFFFFFDFFFFFFFBFEB500242000200030
S113A320FDF7D0FA00F0CCF8FDF744FDFFF718FF75
S113A3305248FDF71DFB00F065F9FFF7CFFDFAF772
S113A34050FFFDF76FFFFDF79FFF0020FDF7A1FF12
S113A3500C206946087120260125494F3868009071
S113A360684600793100FCF769FE2A008A400098AB
S113A37002433A60434F38680090684600793100E0
S113A380FCF75CFE2A008A40009802433A603E488B
S113A3900068800B28400028F9D03C480178012946
S113A3A00AD1210001702000394908803948007819
S113A3B0002801D1FCF78AFD37480178012907D02C
S113A3C036490978012903D035490978012912D180
S113A3D00178012901D12100017030480178012957
S113A3E001D1210001702E480178012901D12100F9
S113A3F00170FCF76BFD27480178012901D1210088
S113A400017028480178012903D121000170FCF76B
S113A410B1FD2548017800292AD001292BD12348F0
S113A4200178012909D121000170FFF723FA20489E
S113A4300078012801D1FCF7F3FC1E4801780129BA
S113A44003D121000170FCF7AAFC1B480178012903
S113A45007D121000170FBF77DF9FCF769FAFDF7DC
S113A460EBFD16480178012901D12100017094E720
S113A470FCF769FA91E7290001708EE7002D31019C
S113A48080E200E000E100E010F00F4060020020F4
S113A4901802002062020020AB020020AC0200205F
S113A4A0AD02002063020020930200205C02002021
S113A4B0A50200205D0200205E0200205F02002051
S113A4C03E48016820220A4302603D480168072291
S113A4D00A4302603B490A68402313430B600A683D
S113A4E0102313430B603849384A1160016808226D
S113A4F00A4302608020800235490A6802430A60E8
S113A50034490A68104308607047F8B501242D489F
S113A5100168C909214000294FD0016801688022DF
S113A5204A400260294D286800F086F800222A4B30
S113A53000F092F800F064F9286028480178491C7A
S113A540017027490A78521C0A70264A13785B1C4A
S113A5501370254B1D786D1C1D70244D2E88761CA0
S113A5602E80C82676002F88B74204DB2E80250073
S113A5701F4E357002E000251D4E35700578002D04
S113A58004D00025057020001A4D2870087805288D
S113A59004DB0020087020001749087010780A288E
S113A5A004DB002010702000144908701878322849
S113A5B003DB0020187012480470F1BD0C800440C5
S113A5C0008003400C800340F3050000108003402A
S113A5D080E200E000E100E0C0CD97405802002096
S113A5E0590200205A0200205B02002018020020B9
S113A5F0600200205C0200205D0200205E02002058
S113A6005F0200200B4800210170017801220A43F7
S113A61002700178F7220A4002700178EF220A40A2
S113A62002700178DF220A4002700078802108401D
S113A630704700BF00D00740010042221201D21E21
S113A640004207D002D4521E0018FCD5C10A4005AE
S113A6501205891870470000F0B40125ED070F00BA
S113A6605F404FD48B4200D1824205D9844610000A
S113A67062468C4619006346DF184C18640D7F0D42
S113A6803AD0661C760537D0E61B352E34DCDB0267
S113A6902B43DB0A0C0DC9022943C912202E0DDB02
S113A6A01700203E06D01F00F741F3405F4000260C
S113A6B0012A7741C01871410DD217E01700F74104
S113A6C0F2405740F3415A40B340F3405A40002609
S113A6D0801859410AD3A21C52050FD0C207012F7A
S113A6E0724117004008CB0718434908641C24052D
S113A6F04208AF4170416141F0BC7047641C2105C0
S113A7000020F9E76B400AE06B40ABE7F742F3D176
S113A710E943F1E72442EFD100200021ECE70C00EB
S113A720871A9C4105D2C01BA141D21963416940DB
S113A7306B40AE0ADF184C18F442E7D2640D7F0D6B
S113A740E8D0E61B362ED7DCDB022B43DB0AA4461B
S113A7500C0DC9022943C90A012E28DC04D1D607ED
S113A7605208DF073A435B08EF0A76429041994169
S113A77014D039423BD1B61940414941761C394283
S113A78004D1761C001849413942FAD0B9436746CE
S113A790B74208D9A41B24052143ADE70042EAD1FE
S113A7A03642E8D1A8E7E40AE1070020A4E7202E16
S113A7B00BDD203E1F00F340F7415F40012A0022D9
S113A7C057417E42984191410BE01700F741F24016
S113A7D05740F3415A40B340F3405A407E429041BF
S113A7E099410A0303D2641EB61940414941002726
S113A7F0641E24054208AE4178416141F0BC7047B3
S113A8004A1812D2400DC90208430121C90708435E
S113A810520D40210901521A521C06D452421F32D1
S113A82001D4D0407047C017704700207047130010
S113A83080B5FDF7DFFEFDF701FB01BD10B50D4846
S113A84001680A001206D20F002A11D001680168BB
S113A85080224A400260084C2068FFF7EDFE002287
S113A860064BFFF7F9FEFFF7CBFF2060FEF7C0F8B9
S113A87010BD00000C90034010900340000B5340A7
S113A880DC1E3421C4228C23506496C8FA100410B0
S113A890041A28020B1E031E0502141E461E5A1417
S113A8A01428461E5A141428461E5A141428461EE8
S113A8B05A141E053C0346031E053C0346031E05AD
S113A8C03C0346031E053C03460300000008010048
S113A8D0000200009A820000000810080202000032
S113A8E00000000000061010040100000000000039
S113A8F01108100000000000000000001108010011
S113A9000000000000000000084809490860A42075
S113A910084908700120084908700F200749087089
S113A920A020074908700120704700BF00500000B4
S113A93008ED00E00020054001200540042005400A
S113A9400520054070B40123002413E00168001DB4
S113A950194202D04D466D1E49190C60091D121F83
S113A960042AFAD20D00960701D50C80AD1C1A40BA
S113A97000D02C700268001D002AE7D170BC70471B
S113A98030B401220168001D00290FD00368C318E8
S113A99044680830144202D04D466D1E64191D6887
S113A9A025601B1D241D091FECD0F8E730BC70473F
S113A9B010B5074979441831064C7C44163404E038
S113A9C0081D0A68891888470100A142F8D110BD02
S113A9D008000000280000006DFFFFFFA401000034
S113A9E00C0100200000000099FFFFFF0C01000093
S113A9F0940000000000002000000000FFF784FF26
S113AA00002801D0FFF7D4FF00BF00BF002000BF23
S113AA1000BFFFF781FC00F000F880B500F002F8F9
S113AA2001BD00000746384600F002F8FBE70000CD
S113AA302021090326311820ABBEF9E70B020200DE
S113AA40000101030304030504020101A8A8000096
S113AA500600070009000A000C000D000F0010009A
S113AA6000BF00BF00BF00BFFFF7C8FF3764788294
S113AA709600000023002300FF000000B2B6B722B6
S113AA8010B3B02E9A1300000B2B00001D300000F1
S113AA9077350000943B0000A23F0000E84400002A
S113AAA06F4A0000E74D00002050000033520000C0
S113AAB0C7530000E654000028550000F05500007C
S113AAC0EA560000465200008D6A0000F073000050
S113AAD0B27700000E7A0000617E00000B81000056
S113AAE08983000024850000F8850000DC870000CD
S113AAF0B888000094890000F8890000DE8A00000C
S113AB00D88B0000000014002A004F00B300E700B7
S113AB1013015F019F01FF0137027702AD02EE02CC
S113AB206203FD030000090015001D00230033002B
S113AB30440055006600730086009400A700B60028
S113AB40C800FD00E000F000000000FF00E0FEFF90
S113AB5000FF80FFF0FFFFFFFFFF00000000000088
S113AB600500000002000000A00100200000000019
S113AB700500000002000000B00100200023313273
S113AB803C3DFF0000A006401602FFFF80000000CD
S903AA61F1
