S00A0000524C532E68657891
S1130000000C0020E11B0000B11B0000B11B00002C
S113001000000000000000000000000000000000DC
S1130020000000000000000000000000B11B000000
S11300300000000000000000B11B0000B11B000024
S1130040B11B0000B11B0000B11B0000B11B00007C
S1130050B11B0000B11B0000B11B0000B11B00006C
S1130060B11B0000B11B0000B11B0000B11B00005C
S1130070C9220000B11B0000B11B0000B11B00002D
S1130080B11B0000B11B0000D1220000B11B000015
S1130090B11B0000B11B0000B11B0000B11B00002C
S11300A0B11B0000B11B0000B11B0000B11B00001C
S11300B0B11B0000B11B0000B11B0000B11B00000C
S1130800002934D00123002210B488422CD30124BF
S11308102407A14204D2814202D209011B01F8E754
S1130820E400A14204D2814202D249005B00F8E70D
S1130830884201D3401A1A434C08A04202D3001B39
S11308405C0822438C08A04202D3001B9C0822436C
S1130850CC08A04202D3001BDC082243002803D0AA
S11308601B0901D00909E3E7101C10BC70470028DC
S113087001D00020C04307B4024802A140180290EE
S113088003BDC046D90000000029F0D003B5FFF72E
S1130890B9FF0EBC4243891A1847C046002941D00B
S11308A010B4041C4C40A44601230022002900D5A6
S11308B04942002800D5404288422CD30124240711
S11308C0A14204D2814202D209011B01F8E7E400EB
S11308D0A14204D2814202D249005B00F8E7884277
S11308E001D3401A1A434C08A04202D3001B5C08EF
S11308F022438C08A04202D3001B9C082243CC084C
S1130900A04202D3001BDC082243002803D01B09A9
S113091001D00909E3E7101C6446002C00D54042CD
S113092010BC7047002806D003DB0020C0434008F9
S113093001E08020000607B4024802A1401802909A
S113094003BDC046190000000029EBD003B5FFF732
S1130950A7FF0EBC4243891A1847C0467047C046D9
S113096038B50E4B0C4A041C0D1C00F0DBFF0028AC
S113097004D1201C291C00F03BFF38BD074B064A5C
S1130980201C291C00F0B8FB00F032FF802319065C
S11309904018F2E7C046C046000000000000E041F5
S11309A0F8B55F4656464D464446F0B40C03460F30
S11309B0640A3443A3465E001C03DB0F9C46630AAF
S11309C098464D00530F44461C436D0DC90F760DD8
S11309D0D2000F1CC000A1469246AB1B614500D15A
S11309E0A2E0002B00DCF0E0002E0CD1261C164304
S11309F000D1C0E0013B002B00D041E15C464B46F6
S1130A00821AE71A21E0D04EB54200D1C8E0802412
S1130A104A4627043A439146382B00DD0AE11F2B4E
S1130A2000DD4BE12026F61A4C4652465746B440A8
S1130A30B740DA4022433E1C4C46771EBE41DC40A0
S1130A403243261C5B46821A9F1B904280414642D9
S1130A50BB1B141C2E1C0F1C180200D4A9E05D0241
S1130A60690A88464246002A00D1D4E0404600F094
S1130A7063FF051C083D1F2D00DDD5E02822131A55
S1130A80201C4146D840A940031C0B43AC40AE4255
S1130A9000DD8BE0AE1B711C1F2900DDFBE01F2075
S1130AA0851B1A1C201CAA40C840AC401043661E7B
S1130AB0B4410443CB40012200260F2020400428E7
S1130AC062D0201DA042A441614201255B182F4041
S1130AD01C0207D59C4EB24200D198E09B4C161CD8
S1130AE0234001325C07C00852050443DB08510D62
S1130AF0012960DD1B0371051B0B4E0D0020002135
S1130B000A0D201C1105924C0B43760575081C40F8
S1130B102C4363005A08FF07111C39433CBC904620
S1130B209946A246AB46F8BD002B00DC8EE0002EB1
S1130B302ED0854EB54200D1A6E080244E46220434
S1130B401643B146382B00DD16E11F2B00DD71E1A1
S1130B502026F61A4A46B240904652464446DA40A7
S1130B6022435446B440261C741EA6414C463243CC
S1130B70DC401218F4E0041C0F206A1C5B462E1C97
S1130B800F1C204004289CD101252F40201C9FE7E6
S1130B90144300D0DEE06A1C5B46041C2E1C8CE768
S1130BA080215B46041C0A012E1C86E7761B674DD8
S1130BB02B40721C81E7251C1D4300D168E2002EE6
S1130BC041D080200203134394E7002B00D088E037
S1130BD0691C4E05740D012C00DC1BE15B46161CE0
S1130BE04C46821A191B90429B415B42C91A8846A3
S1130BF00B0200D49EE0371ABA4592415E46A41B0C
S1130C005342E11A88463C1C2E1C67462AE7161CF0
S1130C100023002472E7201C00F08EFE2030051C07
S1130C20083D1F2D00DC29E7031C283B9C40231CA6
S1130C3000242CE74A4653461A430026002A00D1D2
S1130C4000E70122FEE61D032B0B57E7002B00D023
S1130C5005E16E1C7405630D012B00DCABE03A4921
S1130C608E4200D131E11118814280414B4642420B
S1130C705B449B18DC0749080C435B08AA1C1CE76F
S1130C80314FBD4200D0C7E6041C80205B460F1CD8
S1130C9002012E1C11E7301C1F381A1CC240151CFF
S1130CA0202900D183E03F218E1BB3401C43631EE7
S1130CB09C412C43012200230026FEE61C1C203C00
S1130CC04F46E7403E1C202B73D04022D41A4B469B
S1130CD0A3401A1C57463A43531E9A4132430026F6
S1130CE0B0E65F42002D51D0174DAE4200D156E11F
S1130CF080245A4621040A439346382F00DDDBE062
S1130D001F2F00DD79E12021CC1B051C5A46A2408F
S1130D10FD40A04015435B46421E90412843FB40E2
S1130D2057463C1AA24592414846C11A55424B1BAC
S1130D30674691E6081C104331D1002701220023A5
S1130D4004200026C4E6C046FF070000FFFF7FFF23
S1130D50FFFF0F80013B002B24D153461A184C4649
S1130D60824280415C444342E3182E1C141C180246
S1130D703ED4721C0F1CA0E64A4653461A43002474
S1130D80002A00D1F5E601221218E9E75B46034385
S1130D9000D083E0231C721C544667468DE6141C65
S1130DA02E1C5FE6CD4EB54200D0CBE66CE70023A7
S1130DB07CE700228EE75E460643002D00D0F4E077
S1130DC0002E00D14CE14B46134300D17EE11518AF
S1130DD04E46854280415E444242B3181E0200D40E
S1130DE082E1BF4F2C1C3B4002220F1C012664E60B
S1130DF0BA4D701CA8424BD0B94F0125254062085A
S1130E003B402C1CDF0714433C43B21C5B08061C0C
S1130E100F1C52E65E460643002D2CD1002E00D056
S1130E207DE04E46141C164387D04B46674601228C
S1130E30002642E61E1C203E4C46F440261C202B75
S1130E4000D1D8E04022D41A4B46A3401A1C544681
S1130E502243531E9A4132430024121880E75B4216
S1130E60002D37D15C46044300D0D7E0721C4B46BA
S1130E7054460F1C21E6002E6ED14B46141C13431E
S1130E8000D1DCE080254B4667462A01934E14E6E8
S1130E908021061C0A010023042019E6013F002FCB
S1130EA079D1171A5B46BA45AD414946CA1A684218
S1130EB03C1C131A6746CFE55F4607430023002016
S1130EC0002F00D12CE701202AE780252A010023E6
S1130ED00420FDE5814DAE4200D1D3E080245D467F
S1130EE022041543AB46382B00DDB0E01F2B00DD98
S1130EF0DBE02025ED1A021C5C46AC40DA40A84039
S1130F00451EA841224302435846D840031C554677
S1130F105419544592414B4450421B1827E74A4602
S1130F205646324300D185E0851B5B464C46A842B9
S1130F309241191B56428B1B1E0200D4ADE057464A
S1130F403D1A5B46AA458941E41A4A42A31A6746F8
S1130F502C1C01220026B0E54D46161C154344D036
S1130F605C468021C0086207E3080D0310432B424E
S1130F7000D181E04C46E10829427DD1F70866079B
S1130F803E430B1C6746700FDB008022F4000343D2
S1130F901201524E91E5514DAE4200D0ADE6802093
S1130FA04B4654466746020187E5002E5ED04C4608
S1130FB014431AD0C7088025584643072C03C00899
S1130FC01F43204208D04E46F308234204D1524620
S1130FD0D5087707181C2F43C300FC00780F0F1C9B
S1130FE0802103430A013D4E67E5802632015B46BA
S1130FF0041C3A4E61E5002229E7391C20395C467D
S1131000CC40221C202F67D04023DF1B5D46BD400F
S11310102843431E98411043002381E6013B002BE3
S11310202CD150445C469042AD414C446A42A318D2
S1131030041C9CE65B46041C012200263DE580243A
S1131040042100272201274B4842244E40E55D46F7
S1131050054300230022002D00D158E7012256E762
S1131060141C4B460F1C0122002626E5141C80226A
S11310704B461201194E20E5061C84E7174A964296
S113108000D030E70F1C80214B4654460A0114E57A
S11310907605760D0023002430E5181C284300D182
S11310A04BE62C1C0122002607E51C1C203C5D4657
S11310B0E5402C1C202B1CD04022D31A5A469A40BF
S11310C00243501E82412243002320E75B46041C56
S11310D00F1C01220026F0E4002599E7FF07000019
S11310E0FFFF7FFFFFFF7F002C1C0F1C0122002647
S11310F0E3E40022E4E7C046F0B557464E464546D1
S1131100E0B4071C0D034E00680ACC0F790F0843A6
S11311108446111C18035A00FD00400ADF0F4B0FD0
S11311201843C74BC900760D520D8A469A4200D126
S1131130DEE001235F40B946BC4200D1A6E0B71A05
S1131140002F00DC0BE1002A12D15246024300D1E9
S1131150D2E0013F002F00D05BE151466F1ABD423F
S1131160AD4162466B42101A3D1CC31A371C24E081
S1131170B34A964200D1DEE080210B041843382F95
S113118000DD1EE11F2F00DD60E12021C91B021CD0
S113119053468A40FB401A4353468B40191C4B1E4E
S11311A09941031C0A43FB40AA1A67469542AD4184
S11311B0F81A6B42C31A151C371C1A0200D4C2E079
S11311C05E02710A88464246002A00D1EBE040469E
S11311D000F0B2FB021C083A1F2A00DDECE02823D1
S11311E0181A2E1C4146C6409140331C0B439540AF
S11311F0974200DDA4E0D01B411C1F2900DD0DE156
S11312001F273A1A2E1C181CCE409040954030439C
S11312106A1E9541CB400543012100270F262E402D
S1131220042E00D170E02E1DAE42AD416842012271
S11312301B181440180207D5814FB94200D1AEE003
S1131240804D0F1C2B400131F20849055E073243E3
S1131250DB08480D012800DC77E01B037F051B0B2E
S11312607E0D002000210D0D101C2905764A0B432C
S113127077057E081A40324353005D08291CE407B1
S113128021431CBC90469946A246F0BDB31A002BDC
S113129000DCA3E0002A3BD0694A96424BD080216F
S11312A00F043843382B00DC14E15346184300275D
S11312B00022002800D001225219AA42AD416744FD
S11312C06B42FB18151C371C1E023CD55C487E1C67
S11312D0864200D177E15B4901222A400B4068082D
S11312E0151CD90705430D435B08B91C371C95E74A
S11312F0014300D11DE71EE7711C371C0F2663460E
S11313002E40042E00D08EE7012214402E1C91E7BB
S113131052460243F0D0013B002B09D157467919BC
S1131320A9429241554260444319371C0D1CCBE736
S113133043498E42B6D1802063460101371C6DE7D4
S1131340BF1A404A1340791C68E7151C1D4300D19D
S113135020E2002F3ED0802631030B437DE7002F8F
S113136000D085E0721C51054B0D012B00DCEFE031
S11313705746EA1B95429B416746391A5B42C91A94
S113138088460B0200D49CE05446651BAA45924152
S1131390C01B5742C31B9846371C4C4613E70E1C10
S11313A0002300225DE7281C00F0C6FA2030021C4E
S11313B0083A1F2A00DC12E7283885402B1C002538
S11313C016E75746384300230022002800D1EBE6F5
S11313D00122E9E61803030B002642E7002B00D0A4
S11313E0D8E0771C79054A0D012A00DC94E0144BFF
S11313F09F4200D1FDE051464919A942AD416246E0
S11314006B428018C2184908D5070D435308B11C14
S113141004E70B498E4200D0B1E68CE7061C1F3E60
S11314201F1CF7403E1C202972D03F22101A834013
S11314301D436B1E9D413543012100230027EDE62A
S1131440FF070000FFFF7FFFFFFF0F803B1C203BD7
S1131450011CD9400B1C202F5CD04022D71BB84064
S1131460021C50460243511E8A411A4300239BE644
S11314707F42002E40D0CA4CA24200D11FE18021FD
S113148066460B041E43B446382F00DDA9E01F2F27
S113149000DD3DE12023DE1B291C6446B440F940F5
S11314A0B5406B1E9D41214363460D43FB405746A7
S11314B07D1BC01AAA459B415F42C31B4C46171CA7
S11314C07BE60D1C154320D10024012100230426B2
S11314D00027AFE61F2B4ADC2021C91A071C5246FD
S11314E08F40DA403A4357468F40391C4F1EB9416A
S11314F0D8400A43071CDFE664462C4369D1511CDB
S1131500031C5546171C4C4688E6151C371C5AE626
S113151000238DE70022A4E767462F43002E00D066
S1131520D4E0002F00D126E15346034300D1E4E088
S113153051464F19AF42AD4160446E4283191E02B9
S113154000D44EE197483D1C03400221012765E683
S113155061462943002E29D1002976D15146014301
S1131560B2D0031C55464C460121002756E61F1CE9
S1131570203F011CF9400F1C202B00D1C6E0402263
S1131580D31A9840021C50460243531E9A413A43D0
S1131590002791E65B42002E30D167462F4300D0EE
S11315A0C8E0511C031C5546171C37E6002965D1B9
S11315B05746074300D1C8E0031C802055464C46DB
S11315C00101774F2AE68023371C190104260023E2
S11315D030E6013F002F6ED154466146651B401A28
S11315E068E767463D430023002D00D15FE70125EE
S11315F05DE780263101002304261BE668498A4200
S113160000D1C1E08027664639040E43B446382B26
S113161000DDA2E01F2B00DDD0E02021C91A2E1C22
S113162067468F408D40DE403E43291C67464D1E71
S1131630A941DF40351C0D433E1C554455459B4193
S113164030185E428319171C3EE65646064354D0B2
S11316505746EA1B63469542B641191A7342CB1AA0
S11316601E0200D4A2E07D1B6446AA45BF41001BB4
S11316707A42831A4C4601210027CFE55646064399
S11316803FD0624680215707ED08D3080A033D4343
S1131690134208D0C608164205D15546EC08450742
S11316A02543331C4C46680FDB0080260343ED00C2
S11316B031013B4FB2E53A498A4200D0E4E6802644
S11316C0031C55464C463101171CA7E5002F4CD08E
S11316D05346034315D062468026ED085107D308CC
S11316E037030D433B42DED0C2083A42DBD15546B4
S11316F0E9084507131C0D43D5E76346012100277C
S11317008CE5802739016346254F87E500223AE7B7
S11317103C1C203C6646E640331C202F5FD040240E
S1131720E71B6646BE40311C0D43691E8D411D43B7
S11317300023BCE6013B002B22D155445545BF4153
S11317407B426044C318171CBEE580210422002498
S11317500901154B5642124F6CE563461D430026A2
S1131760002D00D169E7012567E78022031C554657
S113177011010B4F52E5031C5546012100274DE58D
S113178007498A4200D042E78021031C55460901DB
S1131790171C43E57A05560D0023002261E5C04677
S11317A0FF070000FFFF7FFFFFFF7F001D1C1543A5
S11317B000D189E6151C012100272FE51F1C203FBD
S11317C06146F940202B10D04026F31A67469F400B
S11317D03B1C1D436B1E9D410D4300262DE700213C
S11317E0A2E73D1C0121002718E50023F1E7C046CC
S11317F0134A0B0330B5051C48001C0BC90F430DDD
S11318000020934211DD0F4883420FDC80225003F5
S11318100D4A0443D01A1F280BDD0C4DEB1ADC4093
S1131820221C5042002900D1101C30BD084C08195C
S1131830FBE7C54007482A1C1D18AC402243F0E7CB
S1131840FE0300001D040000330400001304000024
S1131850FFFFFF7FEDFBFFFF70B5041E26D000F0F5
S11318606BF814490A1A0A2813DD0B38844056050C
S11318702403720D250B002600200021301C0E0DC0
S113188033050D4C2B4311051C400C4365006908BE
S113189070BD0B23051C181A1535211CC440A94022
S11318A0520525030E1C2D0B520DE5E700220025E1
S11318B00026E1E71E040000FFFF0F808446101C91
S11318C062468C46191C634600E0C0461FB500F012
S11318D003F9002801D40021C8421FBD10B500F04F
S11318E049F84042013010BD10B500F0F5F8002869
S11318F001DB002010BD012010BDC04610B500F072
S1131900EBF8002801DD002010BD012010BDC04609
S113191010B500F06DF8002801DC002010BD012096
S113192010BDC04610B500F063F8002801DA0020AD
S113193010BD012010BDC0461C2101231B04984288
S113194001D3000C10391B0A984201D3000A08394C
S11319501B09984201D30009043902A2105C401803
S11319607047C046040302020101010100000000A7
S113197000000000F0B5944647461A03061C5800C0
S113198080B4170B420D19480D034C00DB0F2D0BCF
S1131990640DC90F9846844208D0144882420DD081
S11319A00120944212D004BC9046F0BD2B1C33435A
S11319B00120002BF7D10D488242F1D163463B430D
S11319C00120002BEFD101209442ECD1BD42EAD199
S11319D06645E8D1414506D0002CE4D1281C3043AB
S11319E0451EA841DFE70020DDE7C046FF070000F1
S11319F0F0B557464E464546E0B4041C4E00080375
S1131A00C90F8A46171C59001A03050B700D160BD3
S1131A104A0D3049DB0F9C46884232D02D498A4218
S1131A2035D000280FD1291C21434B424B41984605
S1131A30002A0BD0002B1AD1E2452CD05546002D9C
S1131A4018D1012018E0002AF6D19046311C394300
S1131A504B424B414146002906D1002BECD056465F
S1131A600120002E08D005E00020002B04D1674699
S1131A70002FE6D1012358421CBC90469946A24649
S1131A80F0BD2B1C2343C9D002214842F4E7331C88
S1131A903B43C6D0F8E7904205DC09DA5246002AF7
S1131AA0E8D00120E8E75446002CE3D10120E3E725
S1131AB0B542C3D807D00020B542DDD25046002835
S1131AC0D8D00120D8E7BC42B8D80020BC42F5D316
S1131AD0D2E7C046FF070000F0B544465F465646CD
S1131AE04D46F0B49446061C1A035800170B420DD9
S1131AF02E480D034C00DB0F2D0B640DC90F9846C7
S1131B00844233D02948824236D0002C19D0002A8E
S1131B1020D1934663463B43584258415B46824634
S1131B20002B1DD051460020002904D14246002A32
S1131B3014D1012460423CBC90469946A246AB466F
S1131B40F0BD2B1C3343584243419B46002AE1D04D
S1131B50002BEBD1414515D00029EAD10120EAE759
S1131B600028F7D001200029E5D0E2E72B1C3343FD
S1131B700220002BDFD1C5E763463B430220002B44
S1131B80D9D1C2E79442E7DC05DBBD42E4D806D0F4
S1131B900020BD42CFD20029CBD00120CBE766453F
S1131BA0DAD800206645F6D3C5E7C046FF07000033
S1131BB000BE70470649074B074A0848D150A42382
S1131BC0037001220F21A0234270017143717047F9
S1131BD000000000080D000000E000E000200540C7
S1131BE002F0CAFFFFF7E6FF0848094A0021121A6B
S1131BF002F030FF02F0F4FF02F072FF02F0CAFFBD
S1131C000449002002F096FE02F0F8FE50FCFF1F8B
S1131C1048FEFF1F50FCFF1F00B5FEE71A4B30B50E
S1131C201A4A18701A4D1B48EB68026080221A4C3D
S1131C30500318433421194B2180002241212C24C4
S1131C40E8601A7059709A70DC705D7986202843B8
S1131C5058719C7902210C43E5B29D711C78802057
S1131C60204318705D7910240D48A5435D710478F4
S1131C700425AC4304700B4D0B4C0C482A700480B3
S1131C805A791143597130BD01FCFF1F34FEFF1F07
S1131C900080044060FCFF1F66FCFF1F00A006409C
S1131CA054FCFF1F00FCFF1F1027000058FCFF1FFF
S1131CB0084B04211A7808488A431A70074B0849CC
S1131CC01880002207480A70437902221A4342719D
S1131CD07047C04654FCFF1F1027000058FCFF1F2C
S1131CE000FCFF1F00A00640014B0A221A70704737
S1131CF000FCFF1F054B064A1B68002118700548AD
S1131D0011700360044B06211970704760FCFF1FBB
S1131D1068FCFF1F5CFCFF1F00FCFF1F38B50A4C6A
S1131D200A4B2068197805780135451901F0D6F970
S1131D30216828700648074D01224C78064B027032
S1131D400722EC711A7038BD60FCFF1F02FCFF1FF4
S1131D5068FCFF1F00A0064000FCFF1F424A38B584
S1131D601378022B58D0012B1FD0404C2378082B1A
S1131D701AD8002165560120021CCE21AA404D002C
S1131D802A4223D03A4A1588002D5BD1394B0420CE
S1131D901978394A81431970384B13802570384CAF
S1131DA0022165792943617138BD364908880138B3
S1131DB084B20C80002CD8D11470334B3349344A8C
S1131DC0032504201D7008701470CEE7510608D452
S1131DD01042E9D0284D2A88002A36D0013A2A80B8
S1131DE0E2E72C480588002D29D12B4A214D117892
S1131DF0002908D02878294A0223034311780720B0
S1131E002B7000F0B9FC29780420814329701A4B07
S1131E101A4D1D800025C1E71A4C2588013DABB23F
S1131E202380002BA1D118490320137008701C4D86
S1131E301C48174A05242C700470137095E7013D63
S1131E400580B1E7013D1580AEE7174B1870FF2000
S1131E5000F0FAFC094802212880094D0A236A7916
S1131E608A436A7123709FE728FEFF1F00FCFF1F4F
S1131E7064FCFF1F54FCFF1F58FCFF1F10270000C9
S1131E8000A006409CFDFF1F2CFCFF1F07FEFF1F48
S1131E90D8FCFF1F5AFCFF1F68FCFF1F69FCFF1FD3
S1131EA09AFDFF1F98FDFF1F20FEFF1F70B5CA4B50
S1131EB0402118795A79D4B2214217D055B2002D55
S1131EC014DB5E79402232435A711D78C34A8D4334
S1131ED01D7011780A2900D10CE1BF4E802531789C
S1131EE010230D43357072799A43727183071ED59E
S1131EF0B948022106793143CDB20571B74EB84DC8
S1131F00C3792A7830780A211143063829700228C7
S1131F1000D87BE0042291432970B248B24D0023DB
S1131F203370AD4E0580717902220A43727164B236
S1131F30A94D002C46DB2879EC79E5B2830640D51F
S1131F40A64E3378033BD9B207293AD8A74B8A0067
S1131F5099588F464024044000D1F4E0A44AA5498E
S1131F6013680C78185DA84200D0AEE01D78A54235
S1131F7000D30FE1A04B1A78022A01D10321197072
S1131F80974D01202C7824222043934C2870E37829
S1131F909A489343E37009210078317000F02CFBD8
S1131FA0E27824231343E3702978042081432970C1
S1131FB08C4A8D4D0023158033706679022131439C
S1131FC0617170BD68798022564206436E712C7827
S1131FD040231C43E1B229702A787F2002407F4EBF
S1131FE02A7034780A2C18D07D4A8548042111704F
S1131FF0C489844903200C802A7802241343DBB269
S11320002B7030706E79A6436E71DAE77B4B042037
S1132010197800F0B1FB29787CE7714904230A7828
S113202071489A436F4C0A700021208031706E7998
S1132030022232436A71C4E7F02D07D0E02D05D0A7
S1132040C02D03D0802D01D0002DBAD164480425C1
S11320500478654A634B0021AC4331705E4E0470D2
S11320601A80707902242043707175792C4374713D
S1132070A7E7281C012101F007F863495F4D0C70A4
S1132080041C3C3CE3B22870012B55D9FF2845D0F1
S113209000F092F956485A4B01685C4A0C78013CAE
S11320A06600F55A15808CE7594803685C70504CFB
S11320B0591C016020684F4C027821788A4251D023
S11320C0013121707DE7552D25D04C48017806203B
S11320D000F052FB424C042123788B432370424D81
S11320E0404A0020158030703B4E0223747923430C
S11320F0737166E73A4904260D78B5430D703A4D7D
S11321003849002616700D805D7902222A435A71DF
S1132110404B1E70E1E60421317052E7304D4020FF
S11321202A78FF2110432870032000F025FB29782A
S11321300424A1432970D2E7374B384A00260125ED
S11321401E801570A4E72D4A0620117800F014FBB8
S1132150234B04211878244D224A88431870158093
S11321603470C1E7284B197800F0B8FFA84218D1A1
S11321701B4D01222B7818481A432A70C578242154
S11321808D430923C57033701C4E2548327821785D
S1132190027095E70134E4B2185D0F4D0C70E871DC
S11321A00FE70F4D154A28781221014329700520A5
S11321B0117800F0E1FA2B78042083432B7009494D
S11321C0094D00223270044E0D80737902201843A9
S11321D07071217874E7C04600A0064000FCFF1F20
S11321E054FCFF1F58FCFF1F10270000144C000074
S11321F060FCFF1F68FCFF1F46FEFF1F69FCFF1FFA
S1132200784D000064FCFF1F02FCFF1F5AFCFF1FF7
S11322105CFCFF1F20FEFF1F92FDFF1F90FDFF1FB0
S113222040FEFF1F10B50C4B2422D9780A43DA7004
S11322300A4A10780A280DD0094904240878A043D2
S1132240087008480849002414700880587902224C
S113225002435A7110BDC04600A0064000FCFF1F97
S113226054FCFF1F1027000058FCFF1F114B402295
S1132270D9681143D960104B0721186801431960CC
S1132280D8680243DA60D96810220A434E20DA6023
S11322901861196808220A431A60C020074B4100DC
S11322A058588022D2021043585019680A431A60C1
S11322B07047C046008004400090034000E100E005
S11322C008B5FFF74BFD08BD08B5FFF7EFFD08BDE6
S11322D010B50D4C8023E268134200D110BDE268B2
S11322E0E0684340E3602069FFF7B6FA054B044A0F
S11322F0FEF756FBFEF734FB2061FFF7E1FFEDE745
S1132300000000000088534000900340C046C046CF
S113231010B50C4A0C49127809785400C9000B4BCB
S113232021430B4C1B7824781943A40121431A43FD
S113233092000B1C134300020343B021054C8B4352
S1132340238010BD09FEFF1F20FEFF1F30FEFF1F6C
S1132350E5FCFF1F24FEFF1F430018180A4A8100F2
S113236010B58C5C012C0ED0084B09481B78094A27
S113237001780124D05C8C40A043074C24788C4025
S1132380211C0143D15410BD884D0000744D000040
S1132390754D000030FCFF1F30FEFF1F10B50021FB
S11323A0041C00F057FA201C002100F06DFE014BC4
S11323B0587010BD34FEFF1F70B54E4B00224E4EB8
S11323C01A70B179814218D0747984425BD035791E
S11323D0854200D175E0F278824200D173E0B3788F
S11323E0834200D171E07178814200D16FE0434EA5
S11323F0FF20307000F02CFE70BD0624013CE2B2D8
S1132400530099183D4D3E4C88002A7004192378D6
S1132410012B06D0A278012A25D0607800F02EFE88
S1132420EAE7A168374A0B78D05C0028E2D0F118BB
S11324304878B379834255D07279824250D0317949
S1132440814249D0F37883424ED0B27882424FD051
S11324507678FF23864249D02B70FFF79FFF607880
S113246000F0FEFDC8E7002B0FD0274E3578002D75
S1132470C0D0264908780328BCD000F041FF337847
S1132480013B3370EBE70524B8E760782049A66880
S11324900870E378002E04D01E4D36782D78AE42B5
S11324A017D00028DBD002201B4E0122C51AF05C95
S11324B0885408785A19D2B20133DBB28242F6DD6D
S11324C0CDE704249AE7032498E7022496E701243D
S11324D094E7124E3270E4E704210139CBB2BBE732
S11324E00521FAE70621F8E70321F6E70121F4E7DD
S11324F00221F2E720FEFF1F44FCFF1F15FDFF1F12
S1132500884D0000E8FCFF1FE4FCFF1F2CFCFF1FAC
S113251034FEFF1FD84D000030FCFF1F14FDFF1FC9
S1132520F0B5474680B42D4B041C18782C49420062
S11325301518AA008B182B4F895C01201D795E7930
S11325403870002927D011293CD0002E1BD0264FEB
S11325507619FF22EB43F0B27A550135191801269A
S1132560EBB20E4083420ED0002E04D0FA54013355
S1132570DBB2834207D0FA540133D9B27A54013121
S1132580CBB28342F7D1201CFFF7C2FEFFF74AFE0D
S113259004BC9046F0BD5878144FDA78387000289F
S11325A0D3D0134B0121984602239B1A9C467B5C93
S11325B041468B546346D118C9B20132D2B2884223
S11325C0F5DAC2E7094A5378002B02D000F0C2FFC3
S11325D0BBE7084F387000F03FFDB6E715FDFF1F5D
S11325E0884D000009FEFF1FDCFCFF1F34FEFF1FA7
S11325F030FCFF1F20FEFF1FF0B557464E464546F0
S1132600E0B4041C4E484F4B017801221A70012992
S113261000D176E04C4FBA79A24200D180E07B79B8
S1132620A34200D181E03879A04200D17FE0F9785B
S1132630A14200D17DE0BD78A54200D17BE07E7847
S1132640FF27B946FF20A64200D176E049464D0057
S11326503E4E4D44AF00F2193D4BF65D187055796E
S11326601379012E46D0112E26D03A498A46002DE0
S11326701ED0DE43ED18384AB446EDB2FF210127DF
S1132680AC44D15401333E1CDBB267463E40AB42FE
S11326900ED0002E04D0D1540133DBB2AB4207D0AC
S11326A0D1540133DFB2D1550137FBB2AB42F7D17C
S11326B0524600254A441570FFF74EFE201CFFF7D2
S11326C027FE3D2C04D01CBC90469946A246F0BD82
S11326D02248018801398EB20680002E16D0FA23D2
S11326E01F4F204A2049DC00012502203C80157040
S11326F00870E8E79268174F16780021BA46B95572
S1132700B5E71A4E00253570057083E7154B184F51
S1132710184D154A02241E703C702C701670D2E7B6
S11327200622013AD0B2814690E70522F9E7042255
S1132730F7E70322F5E70222F3E70122F1E7C046B7
S113274014FDFF1F09FEFF1F44FCFF1F884D0000FE
S113275015FDFF1FE8FCFF1FDCFCFF1F04FEFF1F2D
S11327609CFDFF1F28FEFF1FD8FCFF1F30FEFF1F2C
S113277007FEFF1F2CFCFF1F10B5284B0C1C9A7979
S11327808A423DD05979A1423ED01A79A2423DD025
S1132790D978A1423CD09A78A2423BD05978FF2301
S11327A0A14239D01E4A03381370042809D81D49A0
S11327B0012008703C2C0BD03D2C17D01A4A032062
S11327C01070181CFFF7C8FD201CFFF7A1FD10BDF9
S11327D016490320164A0870164910700220087121
S11327E015481649002202700A70E7E7144A0320CC
S11327F0107014480621114A017100211170DDE79F
S11328000623013BDBB2CDE70523FAE70423F8E70F
S11328100323F6E70223F4E70123F2E744FCFF1F56
S113282015FDFF1F30FEFF1F2CFCFF1F9AFDFF1F2D
S113283098FDFF1F08FCFF1FE4FCFF1FD8FCFF1FCF
S113284007FEFF1F1CFCFF1F08B5FFF761FD00F02A
S113285003FC08BD30B51D4B18781D4B44002218ED
S113286095005C1960781B4AE378107000290ED03B
S113287000280BD00224184D0121E41A515CE954BC
S11328801919C9B20133DBB28142F7DD30BDA56845
S1132890002D04D011492C780D78AC420FD00028BB
S11328A0F4D002200C4D0121C41AE85C5054107875
S11328B01919C9B20133DBB28842F6DAE6E70849EE
S11328C001240C700028ECD1E0E7C04615FDFF1F81
S11328D0884D000034FEFF1F30FCFF1FD84D000060
S11328E014FDFF1F08B500F03FFC002008BDC046E2
S11328F008B500F0A7FB08BD10B5154B154A1878AC
S113290011780A1A14495442544109785A7800201B
S113291091420DD0114C9A782178002491420ED026
S11329200F48DB780178002299420FD0D0B210BD55
S1132930201C0A4C9A78217800249142F0D1041C7E
S11329400748DB78017800229942EFD1221CEDE799
S113295004FCFF1FFCFF0000FDFF0000FEFF000061
S1132960FFFF000010B5124C01231248211C022263
S113297001F030FF23785A2B14D0FF2B14D0607849
S11329804F2809D9002161700A48211C0222012321
S113299001F082FB002010BD0F2210400428F3DD5B
S11329A00021F0E70120F6E700212170EBE7C046A3
S11329B044FEFF1F20000010F0B585B0694668464C
S11329C0063100F0D7FF6A46108801ABDC78022894
S11329D006D010200021132200F0CAFB05B0F0BD80
S11329E0394F3A4D39780F230E092E70384E19405D
S11329F03170022C4BD015D8012C21D0102000218D
S1132A00122200F0B5FB34782878A04208D00443A1
S1132A10391C3048022201237C7001F03DFB3478DC
S1132A202C70DBE7032C2AD0812CE7D12A4B072218
S1132A301A7010200121812200F09AFB3478E3E718
S1132A40264B274C1A782078264C811A4842484154
S1132A5021785A780024914221D023489A78017829
S1132A60002091422DD0214CDB782178994218D056
S1132A70102000217F2200F07BFB3478C4E7102073
S1132A800121032200F074FB34700324BCE71020FE
S1132A900121022200F06CFB34700224B4E7041C10
S1132AA0DBE7C2B2002AE3D00B49002007240C70F4
S1132AB07870012110200122012400F059FB3470A8
S1132AC0A2E7201CCFE7C04644FEFF1F94FDFF1F72
S1132AD01CFDFF1F2000001046FEFF1F04FCFF1F0B
S1132AE0FCFF0000FDFF0000FEFF0000FFFF0000F0
S1132AF010B584B069466846063100F03BFF68466D
S1132B00038801ACE1782279022B10D90C020B491D
S1132B10224322208A4205D00021312200F028FBE2
S1132B2004B010BD0121402200F022FBF8E722206E
S1132B300021132200F01CFBF2E7C046C101000093
S1132B4030B585B0684601A900F014FF68464379A2
S1132B50012B38D0022B06D027200021122200F0AE
S1132B6007FB05B030BD384D29780829F4D1374A20
S1132B70147820062304C1180A19354824021319AD
S1132B805A00011C5140002B53DB22230CE00A1C89
S1132B90013B5100041CDBB24C40002A11DB013B19
S1132BA0DBB20A1C002B24D05100041C4C40002A28
S1132BB0EDDA221C013B5100041CDBB24C40002A1C
S1132BC0EDDA211CEBE7204B08251D7001F032FFE4
S1132BD01E4C207001F02EFF607001F02BFFA070DE
S1132BE001F028FF0121E0704022272000F0C0FA04
S1132BF0B7E7184C080C0A0E0B0A60702270A37019
S1132C00E170684681798A4215D16378C27993422A
S1132C1011D1A178037A99420DD1E478407A8442A3
S1132C2009D109222A7027200121402200F0A0FAAC
S1132C3097E70A1CA9E708212970272000211222FE
S1132C4000F096FA8DE7C04646FEFF1F8CFDFF1F7D
S1132C50FCEBAD7F88FDFF1F70B588B0694602AC00
S1132C6068460A3100F086FE1B4DE2782B78012A73
S1132C701CD0042B01D008B070BDE678002EFAD128
S1132C806079A279010215488B180360217A647A6D
S1132C900802134A0119A020C40111803420A34260
S1132CA00ED00021312200F063FAE4E7092BE0D1D1
S1132CB02A7034200121402200F05AFA2B78D8E7F8
S1132CC00121402200F054FA064A074B01211680E4
S1132CD0052619802E70CEE746FEFF1FD4FCFF1F89
S1132CE0D2FCFF1F1AFDFF1F96FDFF1FF0B55F46C4
S1132CF056464D464446F0B48C4B8FB018780128A4
S1132D004CD005280BD036200021132200F030FAD5
S1132D100FB03CBC90469946A246AB46F0BD844DEC
S1132D206946281C00F026FE2F880023BE1E0022C0
S1132D30FF21F00738D4B24215D06C460132A05CB2
S1132D401B189BB21C1C8C4301D00133DBB26846B8
S1132D500132845C1B199BB2181C8843EBD00133ED
S1132D60DBB2B242E9D100AEF1190139DC430A7891
S1132D70E0B28242C7D1043FB8B26B4628805E7885
S1132D809C7831020A196B496B4F0C8893B2621C10
S1132D90BB463B8093420ED0A342B4D136200121DE
S1132DA0402200F0E5F9B3E701226C46A35C181C4D
S1132DB08843C0D0D3E7002800D1AFE05F4F6B4613
S1132DC03E785F4C421EB8460121DF781140012352
S1132DD0A2191770834213D0002905D069460B79D4
S1132DE05370022383420BD000AFF918C978A2199B
S1132DF0D1540133FF18F978D15401338342F3D10C
S1132E0047463E78FF22831998B228804D4E032509
S1132E10810828404C4D3170114038708A00286870
S1132E20211C01F061F83778BE001ED0286847499C
S1132E3003780B7022789A4200D064E701231A5C6D
S1132E406778CA5497420DD05DE71A5CE75CCA54B0
S1132E50974200D057E701331A5CE75CCA549742A3
S1132E6000D050E70133B342EFD12868311829600C
S1132E7045462B789846002B4BD09A080020A6197B
S1132E809700011C9246331D251D03229C4241419B
S1132E90BC46AE4240414245BF41084379420142EB
S1132EA040D0604600283DD052460127013A31689F
S1132EB03A40574621600120012F13D9002A04D03B
S1132EC001CB01C5022082450CD9191C04C902306A
S1132ED091464F462A1C80C25B686B600B1D151D12
S1132EE08245F2D8C44514D06046C143375C63467A
S1132EF04144012201330A402754984509D9002A44
S1132F0002D1F15CE1540133F55CE5540133984599
S1132F10F7D85C462688074806803FE7074B084CED
S1132F2098466DE70025AC46DEE7C04646FEFF1F27
S1132F30D0FCFF1F1AFDFF1F96FDFF1F84FDFF1F1E
S1132F4020FDFF1F18FDFF1FD4FCFF1F6CFCFF1F9B
S1132F5010B588B069460A31684600F00BFD694631
S1132F60CB7A012B13D0032B06D0312000217F22F2
S1132F7000F0FEF808B010BD487B00280DD00128F1
S1132F80F3D131200121402200F0F2F8F2E74A7B2C
S1132F90002A07D0012AE8D1F3E7074C2178042955
S1132FA0E3D1EEE7044C312001214022237000F0EC
S1132FB0DFF802232370DDE746FEFF1F38B51B4B05
S1132FC01878012827D0052805D03720002113229E
S1132FD000F0CEF838BD164C164D211C281C0422D6
S1132FE000F082FF2A7821781348531A0278617816
S1132FF05D425D4100208A4215D0104BA2781D78B5
S1133000002195420DD00E48E4780578A542DCD124
S1133010CBB2002BD9D037200121402200F0A8F8F0
S1133020D8E7011CEFE7281CE7E7C04646FEFF1F70
S113303004FCFF1FFCFF0000FDFF0000FEFF00007A
S1133040FFFF000008B50020FEF7E8FD002008BDE2
S113305008B5FEF72DFE08BD08B5FEF745FE08BD10
S113306008B50521082801D9081C08BD024B1870B1
S1133070FEF754FE0021F7E734FEFF1F08B5FEF704
S113308039FE002008BDC0460122031C70B5440867
S1133090000910401440061CDD08664015407540C8
S11330A05E09164075409E08164074401A406240FE
S11330B0ED43ED01504084012A1C2243D5B201297D
S11330C002D0281C184370BD3F211E1C8E43FF20D4
S11330D0B542F8D1081C1840F5E7C04630B53C2984
S11330E03FD07D293DD00378002B35D05C1EE2B261
S11330F001328418C543012263190130151C1D4097
S11331000378C9188BB21A1CFF3A92B2191CFF2B10
S113311025D889B2A0421FD0002D04D001300578F3
S11331204B199DB20EE04278451C8B1899B2081CCD
S1133130FF3882B20B1CFF2900D9131C681C6D7860
S1133140E9188DB22A1CFF3A93B2291CFF2D00D92D
S1133150191C89B2A042E6D1C843C0B230BD111CCB
S1133160D7E70021BFE7C04608B5FFF77FF808BDE1
S113317030B5594B93B01D786C46032325706370AA
S11331807F25FF23A570E07022716371A371E37141
S1133190041C103CE5B2272D0DD8504CAB00E5586B
S11331A0AF46012907D14E4D2878082800D185E083
S11331B067216A4691704B4B01211D880320D980F9
S11331C018716C462478E800DD680122445518889B
S11331D0DC68C50060196D466C7844701888DC683A
S11331E0AD78C000201885701C88DD68E0002818C0
S11331F06D46EC78C4701888DC682D79C0002018FE
S113320005711C88DD68E00028186D466C794471EE
S11332101888DC68AD79C000201885711C88DD68C9
S1133220E0006C462818E579C5712F4C58882F4D5D
S11332302F4B21802F4918800A702A7013B030BD9B
S11332400129B8D1772069468870B4E70129B2D141
S11332506D4602215024EA70FF226970AC702A7115
S1133260A9E70129A7D16D4662240620F12385210F
S1133270AC706870EB70297102AC22786A71607866
S1133280A871A378EB7196E7012900D093E7712226
S11332906C46A2708FE7012900D08CE706236A46AA
S11332A05370154D6C464030A0702888010AE170B7
S11332B0207180E7012900D07DE7F2E76B46D970E1
S11332C00E4958700A786C461A714D785D71887889
S11332D09871CB78E3716BE718FCFF1F344C000046
S11332E046FEFF1F1CFCFF1F04FEFF1FE4FCFF1F24
S11332F026FEFF1F07FEFF1F96FDFF1F8CFDFF1F0D
S113330010B52D4B82B01A79D968002A12D0052A3B
S113331010D01888C4000A19910734D11168546870
S113332000910194D98801398CB2DC80002C0AD137
S113333005241C71214B990710D1009A01991A6038
S1133340596002B010BD1989042201391A718842EA
S113335016D001301880194B9907EED068460478CE
S11333601C7042785A7081789970C478DC70027944
S11333701A714179597184799C71C079D871E0E7E7
S113338000201880D6E711786C462170547869467D
S11333904C70947869468C70D4786946CC701479F2
S11333A001A90C70547969464C71947969468C7101
S11333B0D4796A46D471B5E71CFCFF1F35FEFF1FA4
S11333C0F0B54F464646C0B4544A83B01388D1681A
S11333D0D8000C18657827782E097E2F00D165E077
S11333E0012E61D0A2784E4B1878904200D168E04B
S11333F05978914200D185E09C78944200D183E0D1
S1133400DD78954200D181E01E79964200D17FE0BB
S11334105F79974200D17DE09B79934200D17BE0B4
S1133420404B41481F88017801268846B146FE007A
S1133430DF68032501244046DC801D71B8551E88D1
S1133440DF68F0003E1875701D88D868EF00C51954
S11334507F26AE701F88DD68F8002E18F2701A8877
S1133460DF68D0003E18112535711A88D868D70056
S1133470FF21C61971711D88DF68EA00B8188171CF
S11334801E88DA68F5005719F97159882748284BBE
S11334904E4619800480274C274D26702E7003B0A9
S11334A00CBC90469946F0BDE2789CE7234F244932
S11334B0244A2548002502233D700B7015700570C1
S11334C0EDE700272149103A0123D2B2CB55272A30
S11334D0E5D81F4C90002658B746FFF76FFDDEE78E
S11334E0FFF704FCDBE7FFF7B7FBD8E7FFF730FD96
S11334F0D5E7FFF725FBD2E7FFF7FAFACFE7FFF7A7
S11335005BFACCE70127DDE70227DBE70327D9E7EE
S11335100427D7E70527D5E70627D3E708FCFF1FCD
S1133520D04D00001CFCFF1F18FCFF1F04FEFF1FF2
S113353026FEFF1F07FEFF1FE4FCFF1FD8FCFF1F32
S11335402CFCFF1F0CFEFF1FD0FDFF1FF0FCFF1F14
S1133550D44C0000F8B54F464646C0B4B94BBA4AFD
S1133560597817789878B94206D0B84E0025357046
S11335700CBC90469946F8BDB54C2578022D00D177
S113358078E1042D48D0B34E32780109032A35D0AE
S11335907E2F0BD004222270012932D0002907D1BA
S11335A00F221040062845D92170E1E70622F2E7F0
S11335B00229DDD1A84DFA27FF002F80A74DA84F7F
S11335C029700F2108403978814200D1CEE0A54806
S11335D00623A54F03700021A4483B702970077887
S11335E0002FC5D19F4802212F700125017035702D
S11335F0062A00D02170FFF7E3FEB9E70229C7D1FC
S1133600B6E70F252840DF780002C019C21F1C2A24
S113361056D900232370ABE77E2FB4D18D4E327878
S1133620002AB2D1FA248C4A8C4BE000022110808B
S113363019709DE78B480227077001273770874D63
S11336408B4E29707180F1805A783180F16837711E
S11336500A7070889D78C700CA1955707088DD7823
S1133660C700CA19957070881D79C700CA19D5702A
S113367070885D79C700CA19157170889D79C70073
S1133680CA1955717088DD79C700CA199571758892
S11336901B7AE8000918CB71F78833890137BAB26D
S11336A0F280934201D8032535716D486F4927781C
S11336B0012606700E70062F9DD0022222709AE712
S11336C0654AFA25EF001780644F694A02253D7068
S11336D000255580D580117115805978D5682970D9
S11336E051889F78C90069184F705188DF78C900E4
S11336F069188F7051881F79C9006918CF70518873
S11337005F79C90069180F7151889F79C9006918D8
S11337104F715188DF79C90069188F7157881B7AF6
S1133720F9006D18EB71D38801339FB2D7801189EA
S1133730B94201D803251571471F381C0621FDF72E
S113374003F9381C00296FD10621FDF7A7F8C0B290
S11337500025464A424B35702678012110701970B5
S1133760062E00D104E70427277001E70131C9B20E
S1133770102900D100213D48397007783C49013FA8
S11337800770CF68B9460F79032F46D0052F51D063
S1133790002F4FD04A880F89013297424ED092B2FF
S11337A04A805F78D2004A4417704A889F78D200D2
S11337B04A4457704A88DF78D2004A4497704F8849
S11337C01A799046FA004A444746D7704F885A7986
S11337D09446FA004A44674617719A794F8890468E
S11337E0FA004A4447465771DA794F889446FA00FA
S11337F04A44674697711B7A4A889846D7004B46D5
S1133800DF194246FA71CB880A8901339FB2CF800F
S1133810BA4201D803230B712278062A00D1DEE6CE
S1133820042121700422DAE60621FDF737F801307D
S1133830C0B28DE701270F714A88B2E700224A809F
S1133840AFE7C04634FEFF1F18FCFF1FE4FCFF1F58
S1133850D8FCFF1F2CFCFF1F9CFDFF1F28FEFF1F31
S1133860D0FDFF1F9AFDFF1F98FDFF1F0CFEFF1FD9
S113387008FCFF1F7E2900D1D0E60E490027002254
S1133880B84605270A804A80CA800F710A4E0B4940
S113389032700A804A80CA8042460A710849094F38
S11338A00A70094A3D701570084D47462F7001098A
S11338B070E6C0461CFCFF1F2CFCFF1F08FCFF1F0A
S11338C09AFDFF1F07FEFF1F98FDFF1FE4FCFF1F6B
S11338D070B50C79CD68002C23D0052C21D00B8831
S11338E0DE00AB191D1C0543AD0731D100241D1D9D
S11338F0261CA8426641351C061DB34264412C4374
S113390026D01C6804605B684360C888013886B2AE
S1133910CE80002E06D153425A41504205263040F3
S1133920087170BD0424002A08D10A890D88013A5F
S11339300C71954209D001350D80F2E70A890D8892
S11339400124013A0C719542F5D100230B80E8E77C
S11339501D7805705E7846709C788470DD78C5703B
S11339601E7906715C7944719D798571DB79C37127
S1133970CBE7C046F0B5454657464E46E0B48246CE
S11339809648974E0378012582B00C1C357080460A
S1133990022B09D0052B00D114E1062B00D10FE135
S11339A0032B00D1DEE0FEE78E4A6846111C9146E7
S11339B00122FFF78DFF68464278110901292DD0B5
S11339C0002900D0CAE00F273A4053461A806846BF
S11339D081782170012A00D8B5E06B46033318784A
S11339E0971E3D4060700227022A00D8ABE0002DEC
S11339F006D001AD29780327A170BA4200D8A2E00D
S1133A0000A8C3199D78E5550137FFB2C11988781C
S1133A10E0550137FFB2BA42F2D894E00F23877819
S1133A201A401202D71951460F80C078631C2070C7
S1133A30980700D0C8E0019A1A60053FBFB2052577
S1133A40062F7ED9F91F88B20621FCF7D9FE01237F
S1133A5003404946684601229A46FFF739FF684603
S1133A608278691C6255C2788BB2E2540279A91C2F
S1133A708BB2E2544279E91C8BB2E254291D82795B
S1133A808BB2E254691D063FC0798BB20635BFB2D2
S1133A90E054ADB2062F54D95246002A0ED06846DF
S1133AA049460122FFF714FF69468B78681C635569
S1133AB0CA7883B2A81CE25483B22EE06846494611
S1133AC00122FFF705FF69468B78681C6355CA78A5
S1133AD083B2E2540A79A81C83B2E2544A79E81CFE
S1133AE083B2E2548A79281D83B2E254681DC979ED
S1133AF083B2E154684649460122FFF7E9FE6A466B
S1133B0090780635ADB260556B1CD27899B2063FF9
S1133B10A81C6254BFB283B269460A79E81CE25415
S1133B204A7983B2E254281D8A7983B2E254681D2B
S1133B30C979063F83B20635BFB2E154ADB2062F50
S1133B40BCD8002F10D1002447463C7002223270AA
S1133B5002B01CBC90469946A246F0BD0229F2D19F
S1133B6000256DE70322F2E7684649460122FFF784
S1133B70AFFE6B469978781E012261550123013509
S1133B800240ADB2BB42DED2002A07D06846C278FA
S1133B90022362550135ADB2BB42D4D200A9C81884
S1133BA082780133DBB26255C91801358878ADB229
S1133BB001336055DBB20135ADB2BB42EED3C2E78F
S1133BC00622C4E70522C2E76D4629796170687947
S1133BD0A070AB79E370EA7922712EE79AFDFF1F9A
S1133BE098FDFF1F08FCFF1F00B5114B0222197836
S1133BF010480A431A700178FF2908D099700E49B9
S1133C00D87809780122114090430843D8700848B5
S1133C1040210379064A1942FBD050782021014300
S1133C205170107940230343D9B2117100BDC046CD
S1133C3000400640FF030000FE030000244B302236
S1133C4000B59A7100229A7006229A72020CD2B2BE
S1133C50DA7201229A70C2B2000ADA72C2B29A729D
S1133C6002200A0A9870D0B2CAB29872DA7203209B
S1133C700A0E090C98709A72C8B2164AD872D068A3
S1133C80802149020143D16080229A71181C8379F2
S1133C9059B20029FBDA0E4A9079810615D40E4AEE
S1133CA000200B4B9979C90600D5101C084A93795A
S1133CB09A0702D00949084380B2054A93799907C3
S1133CC002D00749084380B200BD064A0648E8E727
S1133CD000000240003000F01030000011300000FD
S1133CE012300000183000000830000072B6034B98
S1133CF0034A04485A80588062B670470020054041
S1133D00A6020000B480FFFF10B5154CA37959B288
S1133D10002901DB134810BD1349FCF771FD22781B
S1133D200138C0B252060CD4237859B2002910DBF2
S1133D300B4C3F21237808408B431843207000200C
S1133D40E9E724786040830601D00848E3E70020CF
S1133D50E1E7227842409206EAD00448DBE7C04615
S1133D60000002401430000040420F0018300000F0
S1133D70032300B5034001D01D4800BD1D4A302176
S1133D8091719370010C0A239372CBB2D372012107
S1133D90C3B2000A9170D372C1B2174B9172D86842
S1133DA0802149020143D96080239371907941B203
S1133DB00029FBDA0F4A9379990615D40F4A00209B
S1133DC00C498B79D90600D5101C0A4A91798A07C7
S1133DD002D00B4B184380B2064A91798907CCD0A4
S1133DE0084B184380B2C8E7074A0848E8E7C046CA
S1133DF00130000000000240003000F010300000EC
S1133E0011300000123000001830000008300000AB
S1133E1070B50324251C054001D02B4870BD2B4BE5
S1133E2030269E719D70060C06259D72F5B2DD72DA
S1133E300126C5B2000A9E70DD72C6B20225080AC8
S1133E409E729D70C6B2CDB29E72DD729C700C0ED5
S1133E50090CC8B2150A04269C72D1B2D872ECB20D
S1133E609E70160E120C9C72D5B20520184CD97295
S1133E7098709E72DD72E06880214E0206438022B3
S1133E80E6601D1C9A71AB795CB2002CFBDA0F481A
S1133E908179890615D40F4E00200C4A9579E906DC
S1133EA000D5301C094B9C79A20702D00A4908436B
S1133EB080B2064EB2799107B0D0084D284380B243
S1133EC0ACE7074E0748E8E7013000000000024075
S1133ED0003000F0103000001130000012300000FB
S1133EE01830000008300000F8B546464F46C0B40C
S1133EF09046820704D03D480CBC90469946F8BDD4
S1133F004246D3086FD05F1EBDB2041CEE000834D5
S1133F10A7193A1A083A1307DD0F0B68A9460E1AB7
S1133F200D1C4A68191C0835FFF772FF0028E3D1FD
S1133F30BC421DD04846002801D029680DE0082263
S1133F4051193019894642682968201CFFF760FF1F
S1133F500028D1D1A96808344D4632195268201C72
S1133F600835FFF755FF0028C6D10834BC42E6D116
S1133F70072641460E40B70809D02968A307BAD1DD
S1133F80201C0435FFF75AFE0028B5D10434BB00C9
S1133F90F01AC2B20020002AAED0013A96B2F14320
S1133FA0AD1801206F188843114B29786E1E1943F0
S1133FB0BE4211D0002805D032780902AE1E11434A
S1133FC0BE4209D00D023178701E0D4303782902D8
S1133FD0023E1943BE42F5D1A20700D08BE7201C54
S1133FE0FFF72CFE88E70D1C041CC1E7013000001C
S1133FF000FFFFFF214B302200B59A7100229A7016
S113400011229A72020CD2B2DA7201229A70C2B2EE
S1134010000ADA72C2B29A7202200A0A9870C9B20D
S1134020DA720320164A9870D972D0688021490246
S11340300143D16080229A71181C837959B20029F6
S1134040FBDA0E4A9079810615D40E4A00200B4BF8
S11340509979C90600D5101C084A93799A0702D0A9
S11340600949084380B2054A9379990702D0074960
S1134070084380B200BD064A0648E8E70000024053
S1134080003000F010300000113000001230000049
S11340901830000008300000F0B54D465F46564623
S11340A04446F0B48BB00393002508AB99461D80B9
S11340B0002900D194E0002A00D191E0B14EB04231
S11340C000D88DE0471EB04BBD189D4200D987E053
S11340D0039E00240794012E00D189E0A94E041CFC
S11340E001239C43B4427BD9A74F651CBD4277D8BA
S11340F0A64DAB795EB2002E72DA27784B461F705C
S1134100AE7973B2002B6BDA667821236B441E7090
S1134110AD796EB2002E63DA6578E6B2801B1D704D
S1134120C0B20223AC461D1A954200DA38E1951E4E
S113413001272F4209D00B784D46013A2B5492B2F5
S11341400130C0B20131002A16D00F784D46013A31
S11341502F5492B20130C0B20131012A00D19EE144
S1134160002A09D00D784F46013A3D5492B20130ED
S1134170C0B20131002AE8D14B4658781F788446F2
S113418082483023837112250023837085720125B0
S1134190C3728570C67283727D4BDD689B46AA46E6
S11341A080235D0253462B435D46EB60802383717D
S11341B085796BB2002BFBDA74488579A80600D5A3
S11341C005E20023734D9B46704B9879C00600D5D9
S11341D0AB466E4B03209D79284200D16CE19B795C
S11341E000200BB03CBC90469946A246AB46F0BDBD
S11341F0013292B2571E0297002F00D16EE74B4254
S113420003241C40A346BC4200D9E4E1029E032ED1
S113421000D8B3465F46002F00D1C5E20124013F18
S1134220251C3D400B785C4512D2002D05D04C78FE
S11342301B190224DBB25C450AD2D8460E5D013458
S11342400D5D9F197B190134DBB24445F6D3C34697
S1134250029E5E4500D190E0029D5F46EE1BB708CA
S1134260BD0006960497059568D0BA4601277E429C
S1134270B24456460127BC463740BA465F46CE197B
S113428080CE454D0196454EE0462E433E40049F68
S11342900796BC4500D3A0E15646002E17D0019FD7
S11342A040CF0197079FB3467E403C4F3E40B04607
S11342B05E462E40B446079E47462E4066447740ED
S11342C00797049F0226B046BE4200D385E19B4671
S11342D0079E019B924684464246009488461F1CD2
S11342E002CF2E4C081C704029405B682E408E196A
S11342F020407040191C41402B4028401E183B1D93
S1134300049F214002324E40BA42E8D3009C6046EA
S1134310414652465B460796351C2E04370E079ECF
S11343202D02F719FB18DFB22D0E7D19360EAB19CD
S1134330059F069DDBB2E419BD421ED0029EE743F1
S1134340BD190E5D01272F40029D9B190134DBB27C
S1134350A54212D9002F00D112E20F5D0134DE19FB
S1134360029FF3B2A74208D90D5D01340E5D5B19BB
S11343709D190134EBB2A742F6D85C42E7B2079725
S1134380ACE6C046FFFFFF0FFF0000100000024034
S1134390003000F0103000007F7F7F7F80808080BD
S11343A00690012800D9EBE6C743BB4603239B4490
S11343B05D4684460497CC44AF08BB00BA466746C2
S11343C003250F432F40029303237D427D415B4528
S11343D0BF417B422B4200D1E2E1029D002D00D17E
S11343E0DEE15346013B01271F40B8460F1C20CF96
S11343F0634620C3012505955546012D20D9454620
S1134400002D05D020CF20C302250595AA4517D934
S11344108846059984460694504692461A1C3D1CCB
S113442010CD131C0594059C023110C37F6857609E
S11344302F1D1A1D8842F2D8069C604641465246FA
S1134440029BC018CD1806905B451DD0069BE81A48
S11344500125EF1A3D40C75CAC464D46EF5401338D
S1134460012B11D86746002F05D0C55C4F46FD547B
S11344700133012B08D8C55C4F46FD540133C55C9C
S1134480FD540133012BF6D9049B4D460233D84326
S11344906B781218594492B22F789C4670E6039AAE
S11344A0012A00D164E10B784D462B5448464578E7
S11344B00778AC46002263E69D79284200D08FE657
S11344C05D46002D00D08BE665463F022F43302524
S11344D09D715D469D7011259D725D46DD720125BD
S11344E09D70DE725E469E7202253E0A9D70DE72EB
S11344F09870AF48DF72C76880256E023E43C6607D
S1134500802098711F1CBB795DB2002DFBDAA94E87
S1134510B079870600D530E1A74F0026A54B9D79D9
S1134520ED0600D53E1CA34B03209F79384200D0F2
S113453055E69D79284200D052E6002E00D04FE681
S11345400234A046022A00D89BE08024984894466E
S1134550A24642460E784F78350204972F430596BB
S113456002976C460826375B30250697170C9D7119
S11345700024FDB21226170A9C709E720124009535
S1134580D6B2DD72FDB29C70DE729D72C468802763
S11345907F023C43C46054469C71009F02319C7965
S11345A064B2002CFBDA0097824FBC79A40600D5D4
S11345B0D6E0814F0024BB46A0469F79FC0600D577
S11345C0D8469F7903243C4209D07A4B07E67B48BE
S11345D07B4D8346F8E5BB4618E6079D9DE69F792B
S11345E03C4200D0FCE54446002C00D0F8E53027DE
S11345F09F719C7011249C726C4627780124DF7291
S11346009C70DE7202269D729E70069D03242F0A02
S1134610DF726E469C700825AF5D8026DF72C46829
S113462075022C435746C4609F719C7966B2002E74
S1134630FBDA604DAF79BD0600D596E05E4D0026ED
S11346409C79E70600D52E1C9F7903243C42BCD1FB
S11346509D792C4200D0C3E5002E00D0C0E566460B
S1134660023EB7B20232BC46022F00D972E7684656
S1134670142310251C5C285C4E46904634703A1C6A
S113468070700120002A00D1ABE54E4B984500D84C
S1134690A6E544464C4E0134B44200D9A0E54F4649
S11346A04346444D0226FC1AA87947B2002F00DB8A
S11346B096E51878E054022E64D0012A72D00E7860
S11346C04A46167001310123039D012D01D009785A
S11346D007916C461C27385D4E46F054354B4046D6
S11346E0317874783022060C002512279A719D7057
S11346F0F2B29F72C7B2000ADA72C6B22C4A01251E
S11347009D70DF729E72D5688027780228438026C8
S1134710D0609E711A1C93795DB2002DFBDA254F8F
S1134720B879870638D4294A234F0023214EB57916
S1134730EE0600D53B1C1F488779BF0700D0131C29
S11347401C4A9679B00700D04AE5002B00D047E513
S1134750090221434046FFF74DFC4342584140E5DE
S1134760174F164CBB46A04627E7154D134E67E777
S11347706F461C22D35D2B5498E6114F0F4ECDE6A5
S1134780029FF1E5A87947B2002F00DB28E5013349
S11347901E78E654012687E70D4A094F074BC5E703
S11347A00D1C53E600238FE70024231C54E5C04668
S11347B0003000F00000024010300000083000001B
S11347C018300000FFFFFF0FFF0000101130000041
S11347D01930000070B5012B29D00024002924D001
S11347E0002A22D0344DA8421FD9461E334DB61894
S11347F0AE421AD8012B27D0314CA3795DB2002DDB
S113480057DA0678013A92B20E700130012A13D0B9
S1134810002A0FD00131F0E7B57969B2002948DAEE
S113482000780619F4B263425C41201C70BD013269
S113483092B2D2E70124F8E7A3795DB2002D38DA09
S113484006784E700131D8E71D4D013AAC79091A4A
S113485064B213402E1C002C2BDA047892B20C5450
S11348600130012AD8D0002AE4D0002B0FD0AB7934
S11348702E1C5BB2002B1CDA0378013AE41892B2C6
S11348800B54E4B20130012AC6D0002AD2D0AB794D
S11348900B4E5BB2002B0CDA0378013AE41892B2A7
S11348A00B54E4B20130012AB6D0AB795BB2002BD1
S11348B0E2DB0024B9E7C046FFFFFF0FFF00001052
S11348C000000240074B80225969100201435961DC
S11348D0596808435860044B02205A6882435A605E
S11348E07047C04600F00F400080044008B5FDF753
S11348F0F9FF0020FDF7FCFF054BC0214900585883
S1134900802252011043585019680A431A6008BDA6
S113491000E100E008B5FFF767F9FFF7D3FF0248AD
S1134920FFF7F2F908BDC046002D310108B5038830
S11349309847FEE7F0B557464E464546E0B4FFF7C4
S1134940E9FF284C284E294F002333703B70237015
S11349506370FEF707F8012803D0FDF7CDFF0128A7
S11349603CD0FFF7C3FF22480022042192460025D1
S11349708146884604E0307803280CD007281FD0ED
S1134980FFF7B4F938780028F5D0FDF7C9FD307881
S11349903D700328F2D15346572B14D94246327046
S11349A0211C0222012313482570FFF775FBFDF734
S11349B0D9FF0028F4D1307800218A460728DFD1B6
S11349C00020FFF7B3FF52462832012150028A44E7
S11349D0FFF7CEF94B4618803078CFE70648FFF74B
S11349E0A5FFC04644FEFF1F46FEFF1F40FEFF1FFB
S11349F0F8FCFF1F200000100450000038B5051C0F
S1134A0000F0ACF800F090F8084C2368002B02D0BA
S1134A10984700202060064C2168002902D088476E
S1134A2000222260281CFDF7F7F838BDFCFCFF1FAC
S1134A3000FDFF1F044B05481A6805495043401800
S1134A4018604300580C70474CFCFF1F6D4EC64164
S1134A503930000010B5041C00F002F8201C10BD11
S1134A6030B5C9B2031C1F2A31D944420323234061
S1134A7005D0D21AC51801700130A842FBD1002913
S1134A8005D00D060C042C430B0221431943540991
S1134A90031C002C0ED0251C013D1960596099603F
S1134AA0D960196159619961D9612033002DF3D11D
S1134AB06301C318D006400F07D0041C1D1C013C21
S1134AC002C5002CFBD180001B18032422409D1832
S1134AD0002A03D019700133AB42FBD130BD000072
S1134AE010B50B4C0B4B9C4202D001CC8047F9E72C
S1134AF0094C0A48844202D008CC9847F9E7084C8C
S1134B0008498C4202D004CC9047F9E710BDC04656
S1134B10DC4D0000DC4D0000DC4D0000DC4D0000ED
S1134B20DC4D0000DC4D000010B5084C084B9C42E5
S1134B3002D004CC9047F9E7064C0748844203D0DE
S1134B40043C21688847F8E710BDC046DC4D0000EE
S1134B50DC4D0000DC4D0000DC4D0000054B10B5C1
S1134B601C68002C04D0A068616888472468F8E7B2
S1134B7010BDC04604FDFF1F054B181C002805D0BE
S1134B80854681B00020C043009001B0F7467047CD
S1134B90000C0020F746704700B588421FD0002A59
S1134BA01DD00323194207D1184205D19A4203D9D3
S1134BB008C9043A08C0F2E70123194209D118428E
S1134BC007D19A4205D90B88023A03800231023098
S1134BD0E5E70B78013A037001310130DFE700BDEE
S1134BE038B50B4D002D11D000242B19196800295C
S1134BF006D02B1958689A68FFF7CEFF0C34F4E7F7
S1134C005A68002AF5D198680028F2D138BDC04608
S1134C102C4E0000C620000072200000C21F0000BD
S1134C20A8200000541F0000C21F0000C21F000083
S1134C30382000004C320000B6310000B6310000CC
S1134C40B6310000B6310000B6310000B6310000C4
S1134C50B6310000B6310000B6310000B6310000B4
S1134C60B6310000B6310000B6310000B6310000A4
S1134C70B6310000B6310000B631000062320000E7
S1134C80B6310000B6310000B6310000B631000084
S1134C90A2310000B6310000B6310000B631000088
S1134CA0B6310000B6310000B6310000B631000064
S1134CB0B6310000B631000088320000B631000081
S1134CC0B631000096320000B6310000B432000064
S1134CD040320000FE3400009E3400009E34000088
S1134CE09E3400009E3400009E3400009E34000078
S1134CF09E3400009E3400009E3400009E34000068
S1134D009E3400009E3400009E3400009E34000057
S1134D109E3400009E3400009E340000F8340000ED
S1134D209E3400009E3400009E3400009E34000037
S1134D30F23400009E3400009E3400009E340000D3
S1134D409E3400009E3400009E3400009E34000017
S1134D509E3400009E340000EC3400009E340000B9
S1134D609E340000E63400009E340000E03400006D
S1134D70DA3400000D0409000600070009000A00E7
S1134D800C000D000F0010000004100000020000D1
S1134D9000000000000210040201000000000000F6
S1134DA00008010603010000764D00000004010E16
S1134DB004020000000000001108100000000000C0
S1134DC000000000110801000000000000000000C5
S10F4DD01022273134363700090000009F
S1134DDCFFFF8000A55AA44A000000000500000053
S1134DEC06000000A0FDFF1F2200000000000000D0
S1134DFC0500000006000000D4FDFF1F02000000A7
S1134E0C000000000000FFFFFFFF00000008007F0F
S1134E1C0000000000111203103C3DFF01000000D3
S1134E2CDC4D000000FCFF1F5000000000000000DF
S10B4E3C00000000000000006A
S9031BE100
