S00A0000524C532E68657891
S1130000000C0020191C0000B11B0000B11B0000F3
S113001000000000000000000000000000000000DC
S1130020000000000000000000000000B11B000000
S11300300000000000000000B11B0000B11B000024
S1130040B11B0000B11B0000B11B0000B11B00007C
S1130050B11B0000B11B0000B11B0000B11B00006C
S1130060B11B0000B11B0000B11B0000B11B00005C
S113007001250000B11B0000B11B0000B11B0000F2
S1130080B11B00003199000011250000B11B0000D4
S1130090519D0000B11B0000B11B0000B11B00000A
S11300A0B11B0000B11B0000B11B0000B11B00001C
S11300B08D9D0000B11B0000B11B0000B11B0000AE
S1130800002934D00123002210B488422CD30124BF
S11308102407A14204D2814202D209011B01F8E754
S1130820E400A14204D2814202D249005B00F8E70D
S1130830884201D3401A1A434C08A04202D3001B39
S11308405C0822438C08A04202D3001B9C0822436C
S1130850CC08A04202D3001BDC082243002803D0AA
S11308601B0901D00909E3E7101C10BC70470028DC
S113087001D00020C04307B4024802A140180290EE
S113088003BDC046D90000000029F0D003B5FFF72E
S1130890B9FF0EBC4243891A1847C046002941D00B
S11308A010B4041C4C40A44601230022002900D5A6
S11308B04942002800D5404288422CD30124240711
S11308C0A14204D2814202D209011B01F8E7E400EB
S11308D0A14204D2814202D249005B00F8E7884277
S11308E001D3401A1A434C08A04202D3001B5C08EF
S11308F022438C08A04202D3001B9C082243CC084C
S1130900A04202D3001BDC082243002803D01B09A9
S113091001D00909E3E7101C6446002C00D54042CD
S113092010BC7047002806D003DB0020C0434008F9
S113093001E08020000607B4024802A1401802909A
S113094003BDC046190000000029EBD003B5FFF732
S1130950A7FF0EBC4243891A1847C0467047C046D9
S113096038B50E4B0C4A041C0D1C00F0DBFF0028AC
S113097004D1201C291C00F03BFF38BD074B064A5C
S1130980201C291C00F0B8FB00F032FF802319065C
S11309904018F2E7C046C046000000000000E041F5
S11309A0F8B55F4656464D464446F0B40C03460F30
S11309B0640A3443A3465E001C03DB0F9C46630AAF
S11309C098464D00530F44461C436D0DC90F760DD8
S11309D0D2000F1CC000A1469246AB1B614500D15A
S11309E0A2E0002B00DCF0E0002E0CD1261C164304
S11309F000D1C0E0013B002B00D041E15C464B46F6
S1130A00821AE71A21E0D04EB54200D1C8E0802412
S1130A104A4627043A439146382B00DD0AE11F2B4E
S1130A2000DD4BE12026F61A4C4652465746B440A8
S1130A30B740DA4022433E1C4C46771EBE41DC40A0
S1130A403243261C5B46821A9F1B904280414642D9
S1130A50BB1B141C2E1C0F1C180200D4A9E05D0241
S1130A60690A88464246002A00D1D4E0404600F094
S1130A7063FF051C083D1F2D00DDD5E02822131A55
S1130A80201C4146D840A940031C0B43AC40AE4255
S1130A9000DD8BE0AE1B711C1F2900DDFBE01F2075
S1130AA0851B1A1C201CAA40C840AC401043661E7B
S1130AB0B4410443CB40012200260F2020400428E7
S1130AC062D0201DA042A441614201255B182F4041
S1130AD01C0207D59C4EB24200D198E09B4C161CD8
S1130AE0234001325C07C00852050443DB08510D62
S1130AF0012960DD1B0371051B0B4E0D0020002135
S1130B000A0D201C1105924C0B43760575081C40F8
S1130B102C4363005A08FF07111C39433CBC904620
S1130B209946A246AB46F8BD002B00DC8EE0002EB1
S1130B302ED0854EB54200D1A6E080244E46220434
S1130B401643B146382B00DD16E11F2B00DD71E1A1
S1130B502026F61A4A46B240904652464446DA40A7
S1130B6022435446B440261C741EA6414C463243CC
S1130B70DC401218F4E0041C0F206A1C5B462E1C97
S1130B800F1C204004289CD101252F40201C9FE7E6
S1130B90144300D0DEE06A1C5B46041C2E1C8CE768
S1130BA080215B46041C0A012E1C86E7761B674DD8
S1130BB02B40721C81E7251C1D4300D168E2002EE6
S1130BC041D080200203134394E7002B00D088E037
S1130BD0691C4E05740D012C00DC1BE15B46161CE0
S1130BE04C46821A191B90429B415B42C91A8846A3
S1130BF00B0200D49EE0371ABA4592415E46A41B0C
S1130C005342E11A88463C1C2E1C67462AE7161CF0
S1130C100023002472E7201C00F08EFE2030051C07
S1130C20083D1F2D00DC29E7031C283B9C40231CA6
S1130C3000242CE74A4653461A430026002A00D1D2
S1130C4000E70122FEE61D032B0B57E7002B00D023
S1130C5005E16E1C7405630D012B00DCABE03A4921
S1130C608E4200D131E11118814280414B4642420B
S1130C705B449B18DC0749080C435B08AA1C1CE76F
S1130C80314FBD4200D0C7E6041C80205B460F1CD8
S1130C9002012E1C11E7301C1F381A1CC240151CFF
S1130CA0202900D183E03F218E1BB3401C43631EE7
S1130CB09C412C43012200230026FEE61C1C203C00
S1130CC04F46E7403E1C202B73D04022D41A4B469B
S1130CD0A3401A1C57463A43531E9A4132430026F6
S1130CE0B0E65F42002D51D0174DAE4200D156E11F
S1130CF080245A4621040A439346382F00DDDBE062
S1130D001F2F00DD79E12021CC1B051C5A46A2408F
S1130D10FD40A04015435B46421E90412843FB40E2
S1130D2057463C1AA24592414846C11A55424B1BAC
S1130D30674691E6081C104331D1002701220023A5
S1130D4004200026C4E6C046FF070000FFFF7FFF23
S1130D50FFFF0F80013B002B24D153461A184C4649
S1130D60824280415C444342E3182E1C141C180246
S1130D703ED4721C0F1CA0E64A4653461A43002474
S1130D80002A00D1F5E601221218E9E75B46034385
S1130D9000D083E0231C721C544667468DE6141C65
S1130DA02E1C5FE6CD4EB54200D0CBE66CE70023A7
S1130DB07CE700228EE75E460643002D00D0F4E077
S1130DC0002E00D14CE14B46134300D17EE11518AF
S1130DD04E46854280415E444242B3181E0200D40E
S1130DE082E1BF4F2C1C3B4002220F1C012664E60B
S1130DF0BA4D701CA8424BD0B94F0125254062085A
S1130E003B402C1CDF0714433C43B21C5B08061C0C
S1130E100F1C52E65E460643002D2CD1002E00D056
S1130E207DE04E46141C164387D04B46674601228C
S1130E30002642E61E1C203E4C46F440261C202B75
S1130E4000D1D8E04022D41A4B46A3401A1C544681
S1130E502243531E9A4132430024121880E75B4216
S1130E60002D37D15C46044300D0D7E0721C4B46BA
S1130E7054460F1C21E6002E6ED14B46141C13431E
S1130E8000D1DCE080254B4667462A01934E14E6E8
S1130E908021061C0A010023042019E6013F002FCB
S1130EA079D1171A5B46BA45AD414946CA1A684218
S1130EB03C1C131A6746CFE55F4607430023002016
S1130EC0002F00D12CE701202AE780252A010023E6
S1130ED00420FDE5814DAE4200D1D3E080245D467F
S1130EE022041543AB46382B00DDB0E01F2B00DD98
S1130EF0DBE02025ED1A021C5C46AC40DA40A84039
S1130F00451EA841224302435846D840031C554677
S1130F105419544592414B4450421B1827E74A4602
S1130F205646324300D185E0851B5B464C46A842B9
S1130F309241191B56428B1B1E0200D4ADE057464A
S1130F403D1A5B46AA458941E41A4A42A31A6746F8
S1130F502C1C01220026B0E54D46161C154344D036
S1130F605C468021C0086207E3080D0310432B424E
S1130F7000D181E04C46E10829427DD1F70866079B
S1130F803E430B1C6746700FDB008022F4000343D2
S1130F901201524E91E5514DAE4200D0ADE6802093
S1130FA04B4654466746020187E5002E5ED04C4608
S1130FB014431AD0C7088025584643072C03C00899
S1130FC01F43204208D04E46F308234204D1524620
S1130FD0D5087707181C2F43C300FC00780F0F1C9B
S1130FE0802103430A013D4E67E5802632015B46BA
S1130FF0041C3A4E61E5002229E7391C20395C467D
S1131000CC40221C202F67D04023DF1B5D46BD400F
S11310102843431E98411043002381E6013B002BE3
S11310202CD150445C469042AD414C446A42A318D2
S1131030041C9CE65B46041C012200263DE580243A
S1131040042100272201274B4842244E40E55D46F7
S1131050054300230022002D00D158E7012256E762
S1131060141C4B460F1C0122002626E5141C80226A
S11310704B461201194E20E5061C84E7174A964296
S113108000D030E70F1C80214B4654460A0114E57A
S11310907605760D0023002430E5181C284300D182
S11310A04BE62C1C0122002607E51C1C203C5D4657
S11310B0E5402C1C202B1CD04022D31A5A469A40BF
S11310C00243501E82412243002320E75B46041C56
S11310D00F1C01220026F0E4002599E7FF07000019
S11310E0FFFF7FFFFFFF7F002C1C0F1C0122002647
S11310F0E3E40022E4E7C046F0B557464E464546D1
S1131100E0B4071C0D034E00680ACC0F790F0843A6
S11311108446111C18035A00FD00400ADF0F4B0FD0
S11311201843C74BC900760D520D8A469A4200D126
S1131130DEE001235F40B946BC4200D1A6E0B71A05
S1131140002F00DC0BE1002A12D15246024300D1E9
S1131150D2E0013F002F00D05BE151466F1ABD423F
S1131160AD4162466B42101A3D1CC31A371C24E081
S1131170B34A964200D1DEE080210B041843382F95
S113118000DD1EE11F2F00DD60E12021C91B021CD0
S113119053468A40FB401A4353468B40191C4B1E4E
S11311A09941031C0A43FB40AA1A67469542AD4184
S11311B0F81A6B42C31A151C371C1A0200D4C2E079
S11311C05E02710A88464246002A00D1EBE040469E
S11311D000F0B2FB021C083A1F2A00DDECE02823D1
S11311E0181A2E1C4146C6409140331C0B439540AF
S11311F0974200DDA4E0D01B411C1F2900DD0DE156
S11312001F273A1A2E1C181CCE409040954030439C
S11312106A1E9541CB400543012100270F262E402D
S1131220042E00D170E02E1DAE42AD416842012271
S11312301B181440180207D5814FB94200D1AEE003
S1131240804D0F1C2B400131F20849055E073243E3
S1131250DB08480D012800DC77E01B037F051B0B2E
S11312607E0D002000210D0D101C2905764A0B432C
S113127077057E081A40324353005D08291CE407B1
S113128021431CBC90469946A246F0BDB31A002BDC
S113129000DCA3E0002A3BD0694A96424BD080216F
S11312A00F043843382B00DC14E15346184300275D
S11312B00022002800D001225219AA42AD416744FD
S11312C06B42FB18151C371C1E023CD55C487E1C67
S11312D0864200D177E15B4901222A400B4068082D
S11312E0151CD90705430D435B08B91C371C95E74A
S11312F0014300D11DE71EE7711C371C0F2663460E
S11313002E40042E00D08EE7012214402E1C91E7BB
S113131052460243F0D0013B002B09D157467919BC
S1131320A9429241554260444319371C0D1CCBE736
S113133043498E42B6D1802063460101371C6DE7D4
S1131340BF1A404A1340791C68E7151C1D4300D19D
S113135020E2002F3ED0802631030B437DE7002F8F
S113136000D085E0721C51054B0D012B00DCEFE031
S11313705746EA1B95429B416746391A5B42C91A94
S113138088460B0200D49CE05446651BAA45924152
S1131390C01B5742C31B9846371C4C4613E70E1C10
S11313A0002300225DE7281C00F0C6FA2030021C4E
S11313B0083A1F2A00DC12E7283885402B1C002538
S11313C016E75746384300230022002800D1EBE6F5
S11313D00122E9E61803030B002642E7002B00D0A4
S11313E0D8E0771C79054A0D012A00DC94E0144BFF
S11313F09F4200D1FDE051464919A942AD416246E0
S11314006B428018C2184908D5070D435308B11C14
S113141004E70B498E4200D0B1E68CE7061C1F3E60
S11314201F1CF7403E1C202972D03F22101A834013
S11314301D436B1E9D413543012100230027EDE62A
S1131440FF070000FFFF7FFFFFFF0F803B1C203BD7
S1131450011CD9400B1C202F5CD04022D71BB84064
S1131460021C50460243511E8A411A4300239BE644
S11314707F42002E40D0CA4CA24200D11FE18021FD
S113148066460B041E43B446382F00DDA9E01F2F27
S113149000DD3DE12023DE1B291C6446B440F940F5
S11314A0B5406B1E9D41214363460D43FB405746A7
S11314B07D1BC01AAA459B415F42C31B4C46171CA7
S11314C07BE60D1C154320D10024012100230426B2
S11314D00027AFE61F2B4ADC2021C91A071C5246FD
S11314E08F40DA403A4357468F40391C4F1EB9416A
S11314F0D8400A43071CDFE664462C4369D1511CDB
S1131500031C5546171C4C4688E6151C371C5AE626
S113151000238DE70022A4E767462F43002E00D066
S1131520D4E0002F00D126E15346034300D1E4E088
S113153051464F19AF42AD4160446E4283191E02B9
S113154000D44EE197483D1C03400221012765E683
S113155061462943002E29D1002976D15146014301
S1131560B2D0031C55464C460121002756E61F1CE9
S1131570203F011CF9400F1C202B00D1C6E0402263
S1131580D31A9840021C50460243531E9A413A43D0
S1131590002791E65B42002E30D167462F4300D0EE
S11315A0C8E0511C031C5546171C37E6002965D1B9
S11315B05746074300D1C8E0031C802055464C46DB
S11315C00101774F2AE68023371C190104260023E2
S11315D030E6013F002F6ED154466146651B401A28
S11315E068E767463D430023002D00D15FE70125EE
S11315F05DE780263101002304261BE668498A4200
S113160000D1C1E08027664639040E43B446382B26
S113161000DDA2E01F2B00DDD0E02021C91A2E1C22
S113162067468F408D40DE403E43291C67464D1E71
S1131630A941DF40351C0D433E1C554455459B4193
S113164030185E428319171C3EE65646064354D0B2
S11316505746EA1B63469542B641191A7342CB1AA0
S11316601E0200D4A2E07D1B6446AA45BF41001BB4
S11316707A42831A4C4601210027CFE55646064399
S11316803FD0624680215707ED08D3080A033D4343
S1131690134208D0C608164205D15546EC08450742
S11316A02543331C4C46680FDB0080260343ED00C2
S11316B031013B4FB2E53A498A4200D0E4E6802644
S11316C0031C55464C463101171CA7E5002F4CD08E
S11316D05346034315D062468026ED085107D308CC
S11316E037030D433B42DED0C2083A42DBD15546B4
S11316F0E9084507131C0D43D5E76346012100277C
S11317008CE5802739016346254F87E500223AE7B7
S11317103C1C203C6646E640331C202F5FD040240E
S1131720E71B6646BE40311C0D43691E8D411D43B7
S11317300023BCE6013B002B22D155445545BF4153
S11317407B426044C318171CBEE580210422002498
S11317500901154B5642124F6CE563461D430026A2
S1131760002D00D169E7012567E78022031C554657
S113177011010B4F52E5031C5546012100274DE58D
S113178007498A4200D042E78021031C55460901DB
S1131790171C43E57A05560D0023002261E5C04677
S11317A0FF070000FFFF7FFFFFFF7F001D1C1543A5
S11317B000D189E6151C012100272FE51F1C203FBD
S11317C06146F940202B10D04026F31A67469F400B
S11317D03B1C1D436B1E9D410D4300262DE700213C
S11317E0A2E73D1C0121002718E50023F1E7C046CC
S11317F0134A0B0330B5051C48001C0BC90F430DDD
S11318000020934211DD0F4883420FDC80225003F5
S11318100D4A0443D01A1F280BDD0C4DEB1ADC4093
S1131820221C5042002900D1101C30BD084C08195C
S1131830FBE7C54007482A1C1D18AC402243F0E7CB
S1131840FE0300001D040000330400001304000024
S1131850FFFFFF7FEDFBFFFF70B5041E26D000F0F5
S11318606BF814490A1A0A2813DD0B38844056050C
S11318702403720D250B002600200021301C0E0DC0
S113188033050D4C2B4311051C400C4365006908BE
S113189070BD0B23051C181A1535211CC440A94022
S11318A0520525030E1C2D0B520DE5E700220025E1
S11318B00026E1E71E040000FFFF0F808446101C91
S11318C062468C46191C634600E0C0461FB500F012
S11318D003F9002801D40021C8421FBD10B500F04F
S11318E049F84042013010BD10B500F0F5F8002869
S11318F001DB002010BD012010BDC04610B500F072
S1131900EBF8002801DD002010BD012010BDC04609
S113191010B500F06DF8002801DC002010BD012096
S113192010BDC04610B500F063F8002801DA0020AD
S113193010BD012010BDC0461C2101231B04984288
S113194001D3000C10391B0A984201D3000A08394C
S11319501B09984201D30009043902A2105C401803
S11319607047C046040302020101010100000000A7
S113197000000000F0B5944647461A03061C5800C0
S113198080B4170B420D19480D034C00DB0F2D0BCF
S1131990640DC90F9846844208D0144882420DD081
S11319A00120944212D004BC9046F0BD2B1C33435A
S11319B00120002BF7D10D488242F1D163463B430D
S11319C00120002BEFD101209442ECD1BD42EAD199
S11319D06645E8D1414506D0002CE4D1281C3043AB
S11319E0451EA841DFE70020DDE7C046FF070000F1
S11319F0F0B557464E464546E0B4041C4E00080375
S1131A00C90F8A46171C59001A03050B700D160BD3
S1131A104A0D3049DB0F9C46884232D02D498A4218
S1131A2035D000280FD1291C21434B424B41984605
S1131A30002A0BD0002B1AD1E2452CD05546002D9C
S1131A4018D1012018E0002AF6D19046311C394300
S1131A504B424B414146002906D1002BECD056465F
S1131A600120002E08D005E00020002B04D1674699
S1131A70002FE6D1012358421CBC90469946A24649
S1131A80F0BD2B1C2343C9D002214842F4E7331C88
S1131A903B43C6D0F8E7904205DC09DA5246002AF7
S1131AA0E8D00120E8E75446002CE3D10120E3E725
S1131AB0B542C3D807D00020B542DDD25046002835
S1131AC0D8D00120D8E7BC42B8D80020BC42F5D316
S1131AD0D2E7C046FF070000F0B544465F465646CD
S1131AE04D46F0B49446061C1A035800170B420DD9
S1131AF02E480D034C00DB0F2D0B640DC90F9846C7
S1131B00844233D02948824236D0002C19D0002A8E
S1131B1020D1934663463B43584258415B46824634
S1131B20002B1DD051460020002904D14246002A32
S1131B3014D1012460423CBC90469946A246AB466F
S1131B40F0BD2B1C3343584243419B46002AE1D04D
S1131B50002BEBD1414515D00029EAD10120EAE759
S1131B600028F7D001200029E5D0E2E72B1C3343FD
S1131B700220002BDFD1C5E763463B430220002B44
S1131B80D9D1C2E79442E7DC05DBBD42E4D806D0F4
S1131B900020BD42CFD20029CBD00120CBE766453F
S1131BA0DAD800206645F6D3C5E7C046FF07000033
S1131BB080B500AF00BEBD4680BDC04680B500AF55
S1131BC0084A0949094BD150094BA4221A70084B01
S1131BD001225A70064B0F221A71054BA0225A712A
S1131BE0BD4680BD00E000E000000000080D0000DC
S1131BF00020054080B500AF054A064BD31A054ABC
S1131C00101C00211A1C08F0D5F9BD4680BDC04641
S1131C1070FFFF1F50FCFF1F08F05EFAFFF7CEFFB6
S1131C20FFF7E8FF08F08CFA08F00AFA08F062FA05
S1131C30044B0020191C08F0F3F8031C181C08F0CE
S1131C409DF9C04650FCFF1F80B582B000AF78609C
S1131C50FEE7C04680B584B000AF021CFB1D1A70BD
S1131C602D4BFA1D12781A702C4B2D4A1A602D4BED
S1131C7034221A803B1C0E3341221A802A4B2A4AF2
S1131C80D268802149030A43DA60284B1B683A1C56
S1131C900E321288120A92B2D1B21F220A40D2B274
S1131CA01A70224B1B683A1C0E321288D2B25A7038
S1131CB01E4B1B6800229A701C4B1B682C22DA7086
S1131CC01A4B1A68194B1B685B79DBB27A214942BB
S1131CD00B43DBB25371154B1A68144B1B689B7989
S1131CE0DBB202210B43DBB29371104B1A680F4B2A
S1131CF01B681B78DBB2802149420B43DBB21370B3
S1131D000A4B1B685A7910218A435A7100F020F952
S1131D10BD4604B080BDC04604FCFF1F64FCFF1F29
S1131D2064FFFF1F68FCFF1F0080044000FCFF1FCE
S1131D3080B500AF00F00CF9BD4680BD80B500AFA2
S1131D40024B0A221A70BD4680BDC04605FCFF1F27
S1131D5080B582B000AF021CFB1D1A70084B1B68D3
S1131D60FA1D12781A70074B00221A70044B1A6875
S1131D70054B1A60054B06221A70BD4602B080BDA1
S1131D8064FCFF1F58FCFF1F5CFCFF1F05FCFF1FCA
S1131D9098B500AF0F4B1A680E4B1B681B780133C4
S1131DA0D4180C4B1A680C4B1B78101C191C01F02E
S1131DB0A7FC031C2370094B01221A70084B1A68F4
S1131DC0044B1B685B78D371064B07221A70BD461F
S1131DD098BDC04664FCFF1F06FCFF1F58FCFF1F94
S1131DE000FCFF1F05FCFF1F80B500AF464B1B78AE
S1131DF0022B18D1454B1B88013B9AB2434B1A80E6
S1131E00424B1B88002B0ED1414B03221A70414BCD
S1131E1005221A70404B05221A703B4B00221A709F
S1131E203E4B00221A70384B1B78012B15D1374BCF
S1131E301B88013B9AB2354B1A80344B1B88002B0C
S1131E400BD1334B03221A70354B04221A702E4BDC
S1131E5000221A70314B00221A70324B1B78092B66
S1131E6050D89A00304BD3181B689F462F4B1B88C1
S1131E70002B13D12E4B01221A700820FF2100F0F1
S1131E8013FC2A4B2B4A1A802B4B1B685A790221CC
S1131E908A435A71234B0A221A7033E0234B1B885E
S1131EA0013B9AB2214B1A802CE0244B1B88002B57
S1131EB002D100F04DF825E0204B1B88013B9AB27B
S1131EC01E4B1A801EE01E4B1B88002B13D11D4B8A
S1131ED01B78002B0CD01C4B1B7802221343DAB264
S1131EE0194B1A70194B1B780720191C00F0DCFBE6
S1131EF000F02EF805E0124B1B88013B9AB2104B00
S1131F001A80C046BD4680BD58FFFF1F0CFFFF1F4F
S1131F104CFCFF1F0AFFFF1F08FFFF1F8CFCFF1F65
S1131F2037FFFF1F05FCFF1F74A100006EFCFF1F9D
S1131F3050FFFF1F1027000000FCFF1F6AFCFF1F5B
S1131F406CFCFF1F58FCFF1F54FCFF1F60FCFF1FAD
S1131F5080B500AF0A4B1B7804229343DAB2084BD6
S1131F601A70084B084A1A80084B00221A70084B52
S1131F701B685A7902210A435A71BD4680BDC04686
S1131F8054FCFF1F6EFCFF1F1027000005FCFF1F01
S1131F9000FCFF1F80B582B000AFDB4B1A68FB1D4D
S1131FA012791A70D84B1A68BB1D52791A70BB1D6E
S1131FB01A78402313402ED0BB1D1B785BB2002B34
S1131FC029DBD14B1B685A7940210A435A71CE4B05
S1131FD01A68CD4B1B681B78DBB240218B43DBB204
S1131FE01370CA4B1B780A2B04D1FFF7B1FFC84BFF
S1131FF000221A70C44B1A68C34B1B681B78DBB2EF
S1132000802149420B43DBB21370BF4B1B685A79E2
S113201010218A435A71FB1D1A780223134029D0D8
S1132020B94B1A68B84B1B681B79DBB202210B430E
S1132030DBB21371B44B1A687B1DD2791A70B54B9D
S11320401B780A221343DAB2B24B1A70AF4B1B78D7
S1132050062B07D0AD4B1B78072B03D0AB4B1B785B
S1132060082B05D1AC4B1B780420191C00F01CFB79
S1132070FFF76EFFBB1D1B785BB2002B3CDAA24B53
S11320801B685A79802149420A435A719E4B1A6847
S11320909D4B1B681B78DBB240210B43DBB21370F2
S11320A0994B1A68984B1B681B78D9B27F230B4055
S11320B0DBB21370954B1B780A2B02D1FFF748FF54
S11320C0C8E1944B04221A70944BDA89944B1A8019
S11320D08D4B1A688C4B1B681B78DBB240210B4379
S11320E0DBB21370894B03221A70874B1B685A7931
S11320F002218A435A71ADE1834B1A68FB1D1279A0
S11321001A70814B1A687B1DD2791A70FB1D1A78DC
S11321102023134000D19DE17C4B1B78033B072B0C
S113212000D994E19A007F4BD3181B689F467B1D0E
S11321301B78552B08D1754B04221A707A4B012257
S11321401A7002F02DFC85E1734B1B780620191CD4
S113215000F0AAFAFFF7FCFE7CE17B1D1B78181C3B
S1132160012101F055FA031C1A1C6B4B1A706F4BBA
S11321707A1D12781A70684B1B783C2B03D0664B7F
S11321801B783D2B05D16A4B00221A80694B012232
S11321901A70614B1B78FF2B0FD05F4B1B7800200C
S11321A0191C00F081FA644B1B681B785A1E5B4BA8
S11321B05200D25A614B1A804CE1564B1B78402294
S11321C01343DAB2534B1A700320FF2100F06CFA68
S11321D0FFF7BEFE3EE15A4B1B685A1C584B1A606F
S11321E0574B1B687A1D12781A70534B1B681A7868
S11321F0544B1B789A4200D07FE04F4B1A684B4BEC
S11322001B78101C191C01F07BFA031C7A1D127830
S11322109A4263D102F006FC3E4B1B780122134321
S1132220DAB23C4B1A70384B1A68374B1B68DB78B0
S1132230DBB224218B43DBB2D370344B09221A70F6
S1132240354B1B780220191C00F02EFA2E4B1A680D
S11322502D4B1B68DB78DBB224210B43DBB2D3703C
S11322602A4B1B780A2B01D0FFF772FE2A4B1B78EE
S11322703C2B42D1304B1B6801331B78002B3CD1E3
S11322802D4B1B6802331B78FF2B36D12A4B1B685E
S113229003331B78FF2B30D1274B1B6804331B7887
S11322A0FF2B2AD1244B1B6805331B78FF2B24D129
S11322B0214B1B6805331B78FF2B1ED11E4B1B685B
S11322C007331B78FF2B18D11B4B1B6807331B7874
S11322D0FF2B12D11C4B01221A700EE00D4B1B7800
S11322E012221343DAB20B4B1A700B4B1B780520E6
S11322F0191C00F0D9F9FFF72BFE124B1B780133A0
S1132300DAB2104B1A70A5E000FCFF1F05FCFF1F9A
S113231050FFFF1F54FCFF1F60FCFF1F24A400009C
S11323206AFCFF1F9CA100003EFDFF1F06FCFF1F6F
S1132330B8FCFF1FB7FCFF1F64FCFF1F6CFCFF1FF2
S11323405CFCFF1F58FCFF1FFEFEFF1FFB1D1A78DD
S11323504023134008D1414B1B780620191C00F080
S1132360A3F9FFF7F5FD75E03D4B1A683D4B1B786B
S1132370D3181B787A1D12789A4208D0374B1B78F1
S11323800620191C00F090F9FFF7E2FD62E0344BDF
S11323901B681A78334B1B789A420FD3314B1B7846
S11323A00133DAB22F4B1A702F4B1A682C4B196871
S11323B02C4B1B78CB181B78D3714BE02B4B002292
S11323C01A7002F001FB2A4B1B7801221343DAB284
S11323D0274B1A70244B1A68234B1B68DB78DBB23B
S11323E024218B43DBB2D370224B09221A701B4B7E
S11323F01B780120191C00F057F91B4B1A681A4B63
S11324001B68DB78DBB224210B43DBB2D370FFF70C
S11324109FFD1FE07B1D1B78F02B0FD07B1D1B78CD
S1132420E02B0BD07B1D1B78C02B07D07B1D1B78AA
S1132430802B03D07B1D1B78002B0AD1FFF788FD6E
S1132440094B1B685A7902210A435A7101E0C046BC
S113245000E0C046BD4602B080BDC04660FCFF1F20
S113246064FCFF1F58FCFF1F00FCFF1F8AFDFF1FB9
S113247054FCFF1F05FCFF1F80B500AF1A4B1A4A1E
S1132480D26840210A43DA60184B184A12680721BF
S11324900A431A60154B154AD26840210A43DA6090
S11324A0124B124AD26810210A43DA600F4B4E22B3
S11324B01A610E4B0D4A126808210A431A600C4A2D
S11324C00B49C0235B00CB588021C9021943C023A8
S11324D05B00D150064B064A12688021C9020A43A8
S11324E01A60BD4680BDC046008004400090034091
S11324F000E100E080B500AFFFF776FCBD4680BD8B
S113250080B500AFFFF746FDBD4680BD000000006A
S1132510B0B500AF164BDA6880231340DB09012BFA
S11325201FD1134BDB68124B114AD26880214A40F9
S1132530DA600F4D0E4B1B69181CFFF78DF9031C55
S11325400C1C181C211C094B074AFEF729FA031C12
S11325500C1C181C211CFEF703FA031C2B61FFF74B
S1132560C9FFBD46B0BDC04600000000008853400E
S113257000900340C046C04680B582B000AF021C44
S1132580FB1D1A70164B1B781A1C164B1B785B002C
S11325909BB213439AB2124B1978124B1B780B431C
S11325A0DBB29B009BB213439AB20F4B1B78DB0048
S11325B09BB213439AB20D4B1B789B019BB21343FE
S11325C09AB2FB1D1B781B029BB213439BB29BB2B6
S11325D0B02293439AB2064B1A80BD4602B080BD26
S11325E060FFFF1F39FFFF1F50FFFF1F7DFCFF1F10
S11325F054FFFF1F90B583B000AF021CFB1D1A707F
S1132600FB1D1A781549131C5B009B189B005B5C2F
S1132610012B1FD0124B1B78114A127811498A5C86
S1132620D2B2114909780120041C8C40211CC9B282
S1132630C943C9B20A40D1B20C4A1278101C0A4AE2
S11326401278041C9440221CD2B20A43D2B2D1B2F2
S1132650044AD154BD4603B090BDC046F4A3000063
S1132660F1A3000008FCFF1FF2A3000060FFFF1F9E
S113267080B582B000AF021CFB1D1A70FB1D1B78D5
S1132680181C002100F00AFBFB1D1B78181C0021FC
S113269000F0BEFF031C1A1C024B5A70BD4602B068
S11326A080BDC04664FFFF1F80B582B000AF0A1C26
S11326B0FB1D011C1970BB1D1A70FB1D1B78002B20
S11326C005D1BB1D1B78181C00F02AF825E0FB1D62
S11326D01B78012B05D1BB1D1B78181C00F042F997
S11326E01BE0FB1D1B78022B05D1BB1D1B78181C9E
S11326F000F0C4F811E0FB1D1B78082B05D1BB1DAD
S11327001B78181C00F002FA07E0FB1D1A78BB1DA9
S11327101B78101C191C00F08DF9BD4602B080BD59
S113272080B584B000AF021CFB1D1A704C4B002214
S11327301A70FB1D1B78181C00F082FA031C1A1C6B
S1132740484B1A70474B1B78FF2B04D13B1C0F33AB
S113275000221A7069E03B1C0F3301221A70414BAE
S11327601B781A1C131C5B009B189B003E4A9B1889
S1132770BB60BB681B78012B26D1BB689B681B78A8
S11327803A4AD35C002B1AD0BB689B681B785A1C4E
S1132790FB1D37498A5C1A70FB1D1B78181C00F05E
S11327A04FFA031C1A1C2F4B1A70FB1D1B78181CA4
S11327B0FFF75EFF3B1C0F3302221A7035E03B1C0F
S11327C00F3300221A7030E0BB689B78012B2CD1A8
S11327D0BB681B78002B0AD1FB1D1B78181C002139
S11327E000F05CFA3B1C0F3302221A701DE0214BEF
S11327F01B78002B04D13B1C0F3300221A7014E009
S11328001D4B1B78032B0CD000F014FA194B1B78CA
S1132810013BDAB2174B1A703B1C0F3302221A70B9
S113282003E03B1C0F3300221A703B1C0F331B7850
S1132830012B02D0022B06D00BE0BB685B78181C7E
S113284000F0D6FE08E0BB685B78181C00F0AAFE16
S113285002E000F097FEC046BD4604B080BDC0460D
S113286050FFFF1FB5FCFF1FF4A3000088FCFF1FEF
S113287020FCFF1F98FCFF1F4CFCFF1F80B584B099
S113288000AF021CFB1D1A70324B1B781A1C391C3A
S11328900F313148131C5B009B189B00C3181B7934
S11328A00B702C4B1B781A1C391C0D312A48131C35
S11328B05B009B189B00C3185B790B70274B0122AC
S11328C01A70244B1B781A1C2349131C5B009B1899
S11328D09B005B5C002B06D1FB1D1B78181C01219F
S11328E000F0DCF90CE01B4B1B781A1C1A49131C72
S11328F05B009B189B005B5C112B01D100F086F9F7
S11329003B1C0E3300221A7013E03B1C0F331B7860
S1132910134AFF21D1543B1C0F333A1C0F32127857
S113292001321A703B1C0E333A1C0E3212780132FB
S11329301A703A1C0E323B1C0D3312781B789A42E3
S1132940E3D3FB1D1B78181CFFF716FEBD4604B02D
S113295080BDC046B5FCFF1FF4A3000039FFFF1F74
S113296080FCFF1F80B582B000AF021CFB1D1A70F3
S1132970264B01221A70264B1B78012B05D1254BBF
S113298000221A70224B00221A70FB1D1B78181C9F
S113299000F056F9031C1A1C1F4B1A701E4B1B78AF
S11329A0181C00F0C3F81C4B1B78181CFFF722FE00
S11329B0FB1D1B78181CFFF7DFFDFB1D1B783D2B4F
S11329C020D1164B1B88013B9AB2144B1A80134B2F
S11329D01B88002B0CD1124B00221A70114B0222BF
S11329E01A70114B02221A70104B00221A7009E05F
S11329F00F4BFA22D2001A80094B01221A700B4B9A
S1132A0002221A70BD4602B080BDC04639FFFF1FC6
S1132A10B4FCFF1F60FFFF1FB5FCFF1F34FFFF1F47
S1132A2058FFFF1F37FFFF1F4CFCFF1F8CFCFF1FCD
S1132A300CFFFF1F80B582B000AF0A1CFB1D011CF8
S1132A401970BB1D1A70BB1D1B78181C00F0F8F818
S1132A50031C1A1C224B1A70FB1D1B78033B042B0E
S1132A602FD8204B1B78002B03D11F4B00221A7048
S1132A7002E01D4B01221A70BB1D1B783C2B0FD1A9
S1132A801A4B03221A701A4B03221A70194B022292
S1132A901A71194B00221A70184B00221A700CE09C
S1132AA0BB1D1B783D2B08D1154B03221A70154B07
S1132AB006221A71114B00221A70134B03221A704A
S1132AC000E0C046064B1B78181CFFF793FDBB1DA6
S1132AD01B78181CFFF750FDBD4602B080BDC046F0
S1132AE0B5FCFF1FD0FDFF1F60FFFF1F0AFFFF1F84
S1132AF008FFFF1F3CFCFF1F98FCFF1F8CFCFF1FFF
S1132B0037FFFF1F2CFCFF1F4CFCFF1F80B582B05A
S1132B1000AF021CFB1D1A70FB1D1B78181CFFF76D
S1132B202BFD00F037FDBD4602B080BD80B584B0FA
S1132B3000AF021CFB1D1A70FB1D1A78391C0F31E3
S1132B402F48131C5B009B189B00C3181B790B7048
S1132B50FB1D1A78391C0D312948131C5B009B1886
S1132B609B00C3185B790B70FB1D1A782449131C56
S1132B705B009B189B005B5C012B0DD1FB1D1A783D
S1132B801F49131C5B009B189B00CB1808331B6860
S1132B901B781C4A0021D154FB1D1A781849131CB8
S1132BA05B009B189B005B5C112B25D03B1C0E33F8
S1132BB000221A7013E03B1C0F331B78124AFF21CA
S1132BC0D1543B1C0F333A1C0F32127801321A7065
S1132BD03B1C0E333A1C0E32127801321A703A1C26
S1132BE00E323B1C0D3312781B789A42E3D3FB1D43
S1132BF01B78044A0021D154BD4604B080BDC046B0
S1132C00F4A3000088FCFF1F80FCFF1F80B500AF09
S1132C10064B5B78002B05D1054B01221A7000F09E
S1132C20B9FC01E001F0DAFABD4680BD64FFFF1F84
S1132C3050FFFF1F80B500AF01F072F9BD4680BDA3
S1132C4080B584B000AF021CFB1D1A703B1C0F330F
S1132C5004221A7015E03B1C0F331B780E4AD35C18
S1132C60FA1D12789A4205D13B1C0F331B78013BA5
S1132C70DBB20CE03B1C0F333A1C0F321278013AE2
S1132C801A703B1C0F331B78002BE4D1FF23181C54
S1132C90BD4604B080BDC04620FCFF1F80B584B093
S1132CA000AF0A1CFB1D011C1970BB1D1A70414B9F
S1132CB01B781A1C4049131C5B009B189B00CB1803
S1132CC05A783E4B1A703B4B1B781A1C391C0F3137
S1132CD03948131C5B009B189B00C318DB780B70EE
S1132CE0BB1D1B78002B3DD1324B1B781A1C32497B
S1132CF0131C5B009B189B00CB1808331B68BB603C
S1132D00BB68002B08D0BB681A782D4B1B789A42FD
S1132D1002D12C4B01221A703B1C0E3301221A7073
S1132D2017E03B1C0E331B783A1C0F3212782649ED
S1132D30895C224AD1543B1C0E333A1C0E32127861
S1132D4001321A703B1C0F333A1C0F3212780132D5
S1132D501A703B1C0E331A78184B1B7801339A42B5
S1132D60DFDB24E03B1C0E3301221A7017E03B1C0E
S1132D700F331B783A1C0E3212781049895C124AC0
S1132D80D1543B1C0E333A1C0E32127801321A70A5
S1132D903B1C0F333A1C0F32127801321A703B1C61
S1132DA00E331A78054B1B7801339A42DFDBBD469C
S1132DB004B080BDB5FCFF1FF4A3000064FFFF1F37
S1132DC040A40000B4FCFF1F08FCFF1F80B500AF47
S1132DD000F0E4FC0023181CBD4680BD80B582B021
S1132DE000AF021CFB1D1A7000F0C2FB031C181C70
S1132DF0BD4602B080BDC04680B500AF0F4B1B7806
S1132E00012B14D10E4B1A880E4B9A4209D90E4B42
S1132E1001221A70094B00221A70094B00221A80F1
S1132E2005E0074B1B8801339AB2054B1A80064B09
S1132E301A78064B1A70BD4680BDC046B7FCFF1F0A
S1132E40B8FCFF1FF3010000B6FCFF1FBAFCFF1F14
S1132E5080B586B000AF3A1C10323B1D0233101C03
S1132E60191C01F021FC3B1D7B613B1C13337A6967
S1132E70D2781A703B1C10331B88022B37D13B1CB1
S1132E8013331B78022B0CD0032B20D0012B28D119
S1132E9010200121012200F087FC194B01221A7035
S1132EA02AE0184B1B78012B08D1102000217F2227
S1132EB000F07AFC124B01221A701DE0102001214F
S1132EC0022200F071FC0E4B02221A7014E0102052
S1132ED00121032200F068FC094B03221A70C0464A
S1132EE00AE010200021122200F05EFC04E0102011
S1132EF00021132200F058FC181CBD4606B080BD0A
S1132F00B6FCFF1FBAFCFF1F80B586B000AF3A1CA9
S1132F100E323B1D0233101C191C01F0C5FB3B1D76
S1132F207B617B69DA783B1C12331A803B1C1233B9
S1132F301B881B029AB27B691B7913439AB23B1C10
S1132F4010331A803B1C0E331B88022B5AD93B1CAE
S1132F5010331B882F4A934247D02E4A934209DCF0
S1132F602D4A934235D02D4A934238D02C4A93426D
S1132F7029D041E02B4A934213D02A4A934203DCDE
S1132F80294A934207D037E0284A93420FD0284A6F
S1132F90934212D030E022200121852200F004FC6B
S1132FA035E022200121862200F0FEFB2FE02220C2
S1132FB00121872200F0F8FB29E022200121882248
S1132FC000F0F2FB23E022200121012200F0ECFBBF
S1132FD01DE022200121022200F0E6FB17E022205E
S1132FE001210A2200F0E0FB11E0222001210B2242
S1132FF000F0DAFBC0460AE022200021312200F072
S1133000D3FB04E022200021132200F0CDFBBD46B7
S113301006B080BD0B130000021300000A13000069
S11330200113000086F1000085F1000087F1000023
S113303088F1000080B586B000AF3A1C0E323B1D0B
S11330400233101C191C01F02FFB3B1D7B617B69B3
S1133050DA783B1C12331A803B1C12331B881B0288
S11330609AB27B691B7913439AB23B1C10331A80C2
S11330703B1C0E331B88022B00D817E13B1C10337A
S11330801B888E4A934200D1EFE08C4A93420CDCB9
S11330908B4A934200D1A8E08A4A934200D1CAE005
S11330A0894A934200D17AE0FAE0884A934228D0D0
S11330B0864A934203DC864A934207D0F0E0854A6D
S11330C0934238D0844A93424FD0E9E03B1C0E33FC
S11330D01B88062B05D02E200021132200F064FB50
S11330E0E9E07B69053380225205101C191C032278
S11330F0012306F0D1F92E200121852200F054FB92
S1133100D9E03B1C0E331B88062B05D02E20002152
S1133110132200F049FBCEE07B6905336F4A101C93
S1133120191C0322012306F0B7F92E20012186225F
S113313000F03AFBBFE03B1C0E331B88062B05D086
S11331402E200021132200F02FFBB4E07B6905330D
S1133150634A101C191C0322012306F09DF92E203A
S11331600121872200F020FBA5E03B1C0E331B88C5
S1133170062B05D02E200021132200F015FB9AE027
S11331807B690533574A101C191C0322012306F0DE
S113319083F92E200121882200F006FB8BE03B1CE2
S11331A00E331B88042B05D02E200021132200F09F
S11331B0FBFA80E07B6905334B4A101C191C012281
S11331C0012306F069F97B695B79FF2B03D1474B37
S11331D064221A7003E07B695A79444B1A702E20DA
S11331E00121012200F0E0FA65E03B1C0E331B884C
S11331F0042B05D02E200021132200F0D5FA5AE02A
S11332007B6905333A4A101C191C0122012306F07C
S113321043F97B695B79FF2B03D1364B64221A7027
S113322003E07B695A79334B1A702E200121022264
S113323000F0BAFA3FE03B1C0E331B88052B05D087
S11332402E200021132200F0AFFA34E07B6905330D
S1133250294A101C191C0222012306F01DF92E20F4
S113326001210A2200F0A0FA25E03B1C0E331B8842
S1133270052B05D02E200021132200F095FA1AE028
S11332807B6905331D4A101C191C0222012306F018
S113329003F92E2001210B2200F086FAC0460AE031
S11332A02E200021312200F07FFA04E02E2000219C
S11332B0132200F079FABD4606B080BD0B1300005E
S11332C0021300000A1300000113000086F100003D
S11332D085F1000087F1000088F10000040000106F
S11332E0080000100C0000101000001030FDFF1F3B
S11332F012000010F8FDFF1F180000101C00001041
S113330090B587B000AF3B1C163307221A703A1CE5
S11333100C323B1C0233101C191C01F0C5F93B1C78
S11333203B613B1C0F333A69D2781A703B1C16334D
S113333007221A703B1C0F331B780433DAB23B1C90
S113334017331A7021E03B1C16331B785BB23A69C1
S1133350D35CFF2B0BD03B1C17331B785BB2022BC7
S113336005DDB7200021102200F01EFA63E03B1CAB
S113337016333A1C16321278013A1A703B1C173372
S11333803A1C17321278013A1A703B1C1733002288
S11333909A563B1C0F331B789A42D4DC3B1C1633E1
S11333A004221A703B1C0F331B780133DAB23B1C26
S11333B017331A7034E03B1C16331B785BB23A693E
S11333C0D35C002B02D0FF2B1BD007E03B1C173330
S11333D01B785BB2194AFF21D15413E03B1C17330D
S11333E000241C573B1C16331B785BB23A69D35C30
S11333F0181C012100F00CF9031C1A1C0F4B1A5560
S113340000E0C0463B1C16333A1C163212780132D7
S11334101A703B1C17333A1C1732127801321A7097
S11334203B1C16331B785BB2072BC4DDB72001218C
S1133430002200F0B9F9BD4607B090BD20FCFF1F83
S113344080B586B000AF3A1C10323B1D0233101C0D
S1133450191C01F029F93B1D7B613B1C13337A696C
S1133460D2781A703B1C13331B78002B05D1B22081
S11334700121002200F098F919E03B1C13331B785A
S11334801F2B0ED93B1C13331B783F2B09D83B1C35
S113349013331B78B22001211A1C00F085F9C046B1
S11334A004E0B2200021122200F07EF9C046BD469D
S11334B006B080BD80B582B000AF244BDA68234BE0
S11334C01B88DB00D218FB1DD2781A701F4BDA68F8
S11334D01E4B1B88DB00D218BB1D12791A701B4BC4
S11334E0DA681A4B1B88DB00D2187B1D52791A70DC
S11334F0164BDA68154B1B88DB00D2183B1D9279FA
S11335001A70FB1D1B78002B1CD1BA1D3B1D1278B1
S11335101B785340DAB2BB1D791D09780A401A7032
S1133520BB1D1B78002B08D1084BDA68074B1B889E
S1133530DB00D318DA79064B1A70B320012100227C
S113354000F032F9BD4602B080BDC0463CFCFF1F0E
S113355028FCFF1F80B584B000AF3A1C0E323B1D1F
S1133560101C191C01F0A0F8BD4604B080BDC04673
S113357080B500AF0020FEF76DFB0023181CBD468C
S113358080BDC04680B500AFFEF7D2FBC046BD4645
S113359080BDC04680B500AFFEF7D0FBC046BD4637
S11335A080BDC04680B584B000AF021CFB1D1A70FC
S11335B03B1C0F3300221A70FB1D1B78082B04D907
S11335C03B1C0F3305221A7009E0084BFA1D1278D0
S11335D01A70FEF7DDFB3B1C0F3300221A703B1CF4
S11335E00F331B78181CBD4604B080BD64FFFF1F59
S11335F080B582B000AF021CFB1D1A70FB1D1B7846
S1133600181CFEF7A5FB0023181CBD4602B080BDA4
S113361080B584B000AF0A1CFB1D011C1970BB1DD2
S11336201A70FB1D1A7801231A40FB1D1B785B08D6
S1133630DBB2191C01230B405A40FB1D1B789B086D
S1133640DBB2191C01230B405A40FB1D1B781B09DC
S1133650DBB2191C01230B4053409B01DAB2FB1D62
S11336601B785B08DBB2191C01231940FB1D1B7876
S1133670DB08DBB2181C012303405940FB1D1B78F7
S11336801B09DBB2181C012303405940FB1D1B78A6
S11336905B09DBB2181C012303404B40DB43DB0115
S11336A0DBB21343DAB23B1C0E331A70BB1D1B781A
S11336B0012B15D1FB1D1A78C0231A403B1C0E3375
S11336C01B789A4204D03B1C0F33FF221A7010E07F
S11336D03B1C0F33FA1D11783F220A401A7008E090
S11336E03B1C0F33F91D3A1C0E32097812780A4339
S11336F01A703B1C0F331B78181CBD4604B080BDE8
S113370080B584B000AF78600A1CFB1C1A70FB1CE7
S11337101B783C2B09D0FB1C1B787D2B05D03B1C54
S11337200C33FA1C12781A8003E03B1C0C33002281
S11337301A803B1C0F337A6812781A701FE07B687A
S113374001337B607B681B78191C3B1C0C333A1CCF
S11337500C3212888A181A803B1C0C331B88FF2BEE
S113376006D93B1C0C333A1C0C321288FF3A1A80DF
S11337703B1C0F333A1C0F321278013A1A703B1C6F
S11337800F331B78002BDAD13B1C0C331B88DBB2C4
S1133790DB43DBB2181CBD4604B080BD80B500AF6E
S11337A0FEF76AFEBD4680BD90B59BB000AFFB1D21
S11337B01870BB1D19707B1D1A70D64B1A783B1CF0
S11337C05C331A703B1C5C3303225A703B1C5C3321
S11337D07F229A703B1C5C33FA1D1278DA703B1C12
S11337E05C337A1D12781A713B1C5C33FF225A71C8
S11337F03B1C5C33FF229A713B1C5C33FF22DA7161
S1133800FB1D1B78B02B00D10BE307DC222B2ED041
S11338102E2B00D1CBE1102B0FD02DE3B32B00D1F5
S113382019E303DCB22B00D15AE225E3B62B00D115
S1133830DFE2B72B00D1C4E21EE3BB1D1B78012BD2
S113384000D01AE33B1C5C3302225A70FB1D1B7828
S11338504033DAB23B1C5C339A703B1C5C337A1DF8
S11338601278DA703B1C5C33FF221A7105E3BB1D2E
S11338701B78012B00D002E3FB1D1B784033DAB226
S11338803B1C5C339A707B1D1B78852B28D18023CD
S11338905A053B1C1C33101C191C0322012305F080
S11338A083FF3B1C5C3306225A703B1C5C33F122C1
S11338B0DA703B1C5C3385221A713B1C1C331A786A
S11338C03B1C5C335A713B1C1C335A783B1C5C33E5
S11338D09A713B1C1C339A783B1C5C33DA71CEE240
S11338E07B1D1B78862B27D18B4A3B1C1C33101C59
S11338F0191C0322012305F057FF3B1C5C330622ED
S11339005A703B1C5C33F122DA703B1C5C33862218
S11339101A713B1C1C331A783B1C5C335A713B1CD8
S11339201C335A783B1C5C339A713B1C1C339A78C9
S11339303B1C5C33DA71A2E27B1D1B78872B27D1F9
S1133940764A3B1C1C33101C191C0322012305F06E
S11339502BFF3B1C5C3306225A703B1C5C33F12268
S1133960DA703B1C5C3387221A713B1C1C331A78B7
S11339703B1C5C335A713B1C1C335A783B1C5C3334
S11339809A713B1C1C339A783B1C5C33DA7176E2E7
S11339907B1D1B78882B27D1614A3B1C1C33101CD0
S11339A0191C0322012305F0FFFE3B1C5C33062295
S11339B05A703B1C5C33F122DA703B1C5C33882266
S11339C01A713B1C1C331A783B1C5C335A713B1C28
S11339D01C335A783B1C5C339A713B1C1C339A7819
S11339E03B1C5C33DA714AE27B1D1B78012B28D126
S11339F04C4A3B1C1C33101C191C0122012305F0EA
S1133A00D3FE3B1C1C331B78FF2B03D1464B642293
S1133A101A7004E03B1C1C331A78434B1A703B1C8D
S1133A205C3304225A703B1C5C331322DA703B1C57
S1133A305C3301221A713C4B1A783B1C5C335A717B
S1133A401DE27B1D1B78022B28D1384A3B1C1C33FA
S1133A50101C191C0122012305F0A6FE3B1C1C337B
S1133A601B78FF2B03D1324B64221A7004E03B1CF9
S1133A701C331A782E4B1A703B1C5C3304225A7088
S1133A803B1C5C331322DA703B1C5C3302221A7138
S1133A90274B1A783B1C5C335A71F0E17B1D1B7871
S1133AA00A2B19D13B1C5C3305225A703B1C5C3336
S1133AB01322DA703B1C5C330A221A711D4B9B697A
S1133AC0DAB23B1C5C335A711A4B9B691B0ADAB29B
S1133AD03B1C5C339A71D2E17B1D1B780B2B2BD1E1
S1133AE03B1C5C3305225A703B1C5C331322DA7096
S1133AF03B1C5C330B221A710E4BDB69DAB23B1CA4
S1133B005C335A710B4BDB691B0ADAB23B1C5C3326
S1133B109A71B4E128FCFF1F040000100800001093
S1133B200C0000101000001030FDFF1F12000010E8
S1133B30F8FDFF1FECFCFF1F7B1D1B781F2B00D81B
S1133B409DE17B1D1B783F2B00D998E13C1C66341A
S1133B507B1D1A783B1C1433101C191C06F024F925
S1133B60031C23703B1C66331B78542B00D086E166
S1133B703B1C14331A783B1C5C33DA703B1C143343
S1133B805A783B1C5C331A713B1C14339A783B1CE7
S1133B905C335A713B1C1433DA783B1C5C339A71E6
S1133BA03B1C14331A793B1C5C33DA7167E1BB1D8F
S1133BB01B78012B00D064E1FB1D1B784033DAB283
S1133BC03B1C5C339A703B1C5C33FF225A717B1D97
S1133BD01B78852B0CD13B1C5C3303225A703B1C95
S1133BE05C33F122DA703B1C5C3385221A7148E1A4
S1133BF07B1D1B78862B0CD13B1C5C3303225A7033
S1133C003B1C5C33F122DA703B1C5C3386221A7154
S1133C1037E17B1D1B78872B0CD13B1C5C330322C3
S1133C205A703B1C5C33F122DA703B1C5C338722F4
S1133C301A7126E17B1D1B78882B0CD13B1C5C334D
S1133C4003225A703B1C5C33F122DA703B1C5C3358
S1133C5088221A7115E17B1D1B78012B0CD13B1CAA
S1133C605C3303225A703B1C5C331322DA703B1C16
S1133C705C3301221A7104E17B1D1B78022B0CD1E9
S1133C803B1C5C3303225A703B1C5C331322DA70F6
S1133C903B1C5C3302221A71F3E07B1D1B780A2B58
S1133CA00CD13B1C5C3303225A703B1C5C33132243
S1133CB0DA703B1C5C330A221A71E2E07B1D1B782C
S1133CC00B2B00D0DDE03B1C5C3303225A703B1C01
S1133CD05C331322DA703B1C5C330B221A71D0E084
S1133CE0BB1D1B78012B00D0CDE03B1C5C330622AE
S1133CF05A70FB1D1B784033DAB23B1C5C339A705C
S1133D007B1D1B78002B21D17D4B1B88DAB23B1C19
S1133D105C33DA707A4B1B881B0A9BB2DAB23B1C09
S1133D205C331A71764B5B88DAB23B1C5C335A7194
S1133D30734B5B881B0A9BB2DAB23B1C5C339A71EF
S1133D406F4B1A793B1C5C33DA719CE07B1D1B784A
S1133D501F2B00D897E07B1D1B783F2B00D992E0E6
S1133D603C1C65347B1D1A783B1C0C33101C191C3D
S1133D7006F01AF8031C23703B1C65331B78542B84
S1133D8000D080E03B1C0C331A783B1C5C33DA70A7
S1133D903B1C0C335A783B1C5C331A713B1C0C33B0
S1133DA09A783B1C5C335A713B1C0C33DA783B1C0D
S1133DB05C339A713B1C0C331A793B1C5C33DA710B
S1133DC061E0BB1D1B78012B5FD13B1C5C330122DE
S1133DD05A70FB1D1B784033DAB23B1C5C339A707B
S1133DE03B1C5C33FF22DA703B1C5C33FF221A71EC
S1133DF04BE0BB1D1B78012B49D13B1C5C330122DA
S1133E005A70FB1D1B784033DAB23B1C5C339A704A
S1133E103B1C5C33FF22DA703B1C5C33FF221A71BB
S1133E2035E0384BDA68374B1B88DB00D318DA7976
S1133E30354B1A703B1C5C3301225A703B1C5C33BB
S1133E40F0229A703B1C5C33FF22DA703B1C5C331B
S1133E50FF221A711CE03B1C5C3301225A703B1C8C
S1133E605C33F3229A703B1C5C33FF22DA703B1CF8
S1133E705C33FF221A710BE00AE0C04608E0C0463A
S1133E8006E0C04604E0C04602E0C04600E0C0468A
S1133E901E4B03221A711D4B0122DA803B1C67332F
S1133EA000221A7016E0194BDA68184B1B88DB00E5
S1133EB0D2183B1C67331B78391C67310978381CCE
S1133EC05C30415CD1543B1C67333A1C6732127836
S1133ED001321A703B1C67331B78072BE3D90B4B59
S1133EE05A880B4B1A800B4B01221A800A4B012271
S1133EF01A700A4B01221A70BD461BB090BDC04611
S1133F0038A400003CFCFF1F28FCFF1F2CFCFF1FF3
S1133F1056FFFF1F34FFFF1F37FFFF1F98FCFF1FD3
S1133F2080B584B000AF3A1D124B101C191C00223E
S1133F3000F036FB3B1C0F3301221A7011E03B1CCE
S1133F400F331B783A1C0F321278013A391D895C01
S1133F50094AD1543B1C0F333A1C0F3212780132F8
S1133F601A703B1C0F331B78082BE8D9BD4604B0EC
S1133F7080BDC0462CFCFF1F64FFFF1F80B584B0CA
S1133F8000AF78607B685A783B1C0F3312091A70B3
S1133F903B1C0F331B78012B42D0022B00D1ABE02A
S1133FA0002B00D0FFE07B685B78191C3B1C0C33B2
S1133FB00F220A401A803B1C0C331B88062B2BD87B
S1133FC07C4B02221A707C4B00221A707B4B01221C
S1133FD01A707B4B00221A80794B00225A80784B4E
S1133FE00022DA80764B00221A71764A744B101C38
S1133FF0191C012200F06EFA734B01221A70734BE4
S113400001221A70724B1B78062B02D0704B0222CD
S11340101A7000F095F9C9E06D4B00221A70C5E0E2
S11340207B685B781A1C0F2313409BB21B0299B266
S11340307B689B781A1C3B1C0C338A181A803B1C27
S11340400C331B88062B52D93B1C0C331B880B2BBF
S11340504DD8604BFA22D2001A80574B02221A70B4
S1134060574B00221A80564B00225A80544B002290
S1134070DA80534B00221A71524A514B101C191CFE
S1134080012200F027FA3B1C0C331B88053B181C4B
S11340900621FCF759FC0B1C002B0CD13B1C0C33E8
S11340A01B88053B181C0621FCF7F8FB031CDAB23D
S11340B0464B1A700DE03B1C0C331B88053B181C47
S11340C00621FCF7EBFB031CDBB20133DAB23F4BF6
S11340D01A703D4B01221A70384B00221A703C4B67
S11340E01B78062B07D03A4B04221A7003E0384B96
S11340F000221A705AE059E0364BFA22D2001A8094
S11341002D4B02221A707B6859783B1C0B330F220B
S11341100A401A702C4B1B783A1C0B3212789A42C4
S113412021D1294B1B780133DAB2274B1A70264B65
S11341301B780F2B02D9244B00221A70234B1B78B7
S1134140013BDAB2214B1A701E4A1D4B101C191C7C
S1134150012200F0BFF91E4B1B78062B0CD01C4B20
S113416004221A7008E0134B06221A701A4B062216
S11341701A70114B00221A70144B1B78002B14D1A7
S11341800C4B02221A700C4B00221A700B4B0122AA
S11341901A700F4B1B78062B02D00D4B02221A709B
S11341A000F0CEF801E0C04600E0C046BD4604B0D1
S11341B080BDC0460AFFFF1F58FFFF1F4CFCFF1FB6
S11341C03CFCFF1F65FFFF1F20FFFF1F3CFFFF1F7D
S11341D08CFCFF1F0CFFFF1F08FFFF1F80B582B080
S11341E000AFFB1D484A52781A70BB1D464AD2786C
S11341F01A70454B9A787B1D12091A70FB1D1B78A7
S11342007F2B1BD0FB1D1B787E2B17D03F4B1B78BD
S1134210FA1D12789A4203D0BB1D1B78B02B09D12A
S11342203B4B1B78FA1D12789A4207D0BB1D1B78B2
S1134230B02B03D1374B00221A7062E0364B1B7847
S1134240022B03D0344B1B78042B12D1FB1D1B789B
S11342507E2B0ED1314B1B78002B0AD1304BFA2226
S1134260D2001A802F4B02221A70FB1D00221A70F2
S113427047E0294B1B78022B2AD1FB1D1B787E2B90
S113428026D0264B00221A70274B00225A80264B38
S113429000221A80244B0022DA80234B05221A7153
S11342A0224B00225A80214B00221A801F4B0022ED
S11342B0DA801E4B00221A711D4B02221A701D4B0C
S11342C000221A701C4B02221A70124B00221A7020
S11342D0124B1B78032B03D17B1D1B78022B0FD0B1
S11342E0FB1D1B787E2B03D00B4B04221A7002E0BB
S11342F0094B06221A70114B181CFFF73FFE00E011
S1134300C046BD4602B080BD64FFFF1F28FCFF1FEE
S113431034A4000098FCFF1F8CFCFF1F4CFCFF1F03
S11343200CFFFF1F58FFFF1F2CFCFF1F3CFCFF1F4F
S113433037FFFF1F0AFFFF1F08FFFF1F65FFFF1F57
S113434080B582B000AF7B1D00221A70584BDA682A
S1134350574B1B88DB00D3185A783B1D12091A707F
S1134360534BDA68524B1B88DB00D218FB1C1278C3
S11343701A70FB1C1B787E2B0ED1FFF7EBF84D4B0C
S113438000221A704C4B02221A704C4B00221A70F5
S11343904B4B00221A7088E03B1D1B78012B09D17E
S11343A0434BDA68424B1B88DB00D218FB1DD278E2
S11343B01A7008E03E4BDA683D4B1B88DB00D218CC
S11343C0FB1D92781A70BB1D00221A7015E0BB1DEC
S11343D01B783C4AD35CFA1D12789A4208D1BB1D63
S11343E01B78394A0121D1547B1D01221A7008E03F
S11343F0BB1DBA1D127801321A70BB1D1B78072B26
S1134400E5D97B1D1B78012B48D17B1D00221A7036
S1134410FB1D1B78B02B24D006DC222B2AD02E2B9C
S11344202BD0102B0BD038E0B32B20D002DCB22BD6
S113443008D032E0B62B0BD0B72B06D02DE0FEF718
S113444007FD32E0FEF7FCFF2FE0FEF759FF2CE0FA
S11344501E4B01221A70B62001210022FFF7A4F995
S113446023E0B02001210022FFF79EF91DE0FFF7B1
S113447021F81AE0FEF748FD17E0154B1B78012BD5
S113448007D1FB1D1B78181C00217F22FFF78CF934
S11344900BE0FEF7CFFDC04607E006E0FB1D1B78EE
S11344A0181C00211122FFF77FF9BD4602B080BD20
S11344B03CFCFF1F8CFCFF1F4CFCFF1F3CFFFF1F3D
S11344C020FFFF1F44A4000090FCFF1F7DFCFF1F82
S11344D0B6FCFF1F80B586B000AFF860B960FB1D65
S11344E01A70BB68DB683B61BB681B79032B54D033
S11344F0BB681B79052B03D0BB681B79002B0BD140
S1134500FB1D1B78002B03D1BB6804221A7115E034
S1134510BB6801221A7111E0BB681B891A1CBB68B5
S11345205B8801339A4203D1BB6800225A8005E0BC
S1134530BB685B8801339AB2BB685A803B1C173353
S113454000221A7015E0BB685B88DB003A69D21858
S11345503B1C17331B78391C17310978F86841184C
S11345600978D1543B1C17333A1C173212780132A4
S11345701A703B1C17331B78072BE4D9BB68DB8804
S113458001339AB2BB68DA80BB68DA88BB681B89DE
S11345909A4202D3BB6803221A71BD4606B080BD9D
S11345A080B588B000AFF860B960FB1D1A70BB68B5
S11345B0BB61BB69DB687B61BB691B79002B60D085
S11345C0BB691B79052B5CD03B1C1233BA6912887A
S11345D01A803B1C1F3300221A7016E03B1C1F3349
S11345E01B78FA68D3183A1C12321288D2007969FF
S11345F089183A1C1F3212788A5C1A703B1C1F33CC
S11346003A1C1F32127801321A703B1C1F331B787C
S1134610072BE3D9BB68DB88013B9AB2BB68DA801D
S1134620BB68DB88002B0BD1FB1D1B78002B03D14F
S1134630BB6805221A710EE0BB6800221A710AE0F9
S1134640FB1D1B78002B03D1BB6804221A7102E006
S1134650BB6801221A71BB68DB88002B11D0BB68D0
S11346601B881A1CBB681B89013B9A4203D1BB6897
S113467000221A8005E0BB681B8801339AB2BB682C
S11346801A80BD4608B080BD80B582B000AF7860A6
S11346907A68044B101C191C0122FFF781FFBD46E8
S11346A002B080BD3CFCFF1F80B588B000AF7860CD
S11346B039603B1C1C3300221A809A4B01221A7069
S11346C010E0994B1B78032B07D0974B1B78062BD4
S11346D003D0954B1B78052B04D1934B1A78914B3F
S11346E01A701BE1904B1B78022BEAD13B1C0C3354
S11346F0181CFFF7C9FF3B1C0C335A783B1C1933B9
S113470012091A703B1C19331B78012B3BD0022B66
S113471000D1B9E0002B00D0F8E03B1C0C335B78EF
S1134720191C3B1C1A330F220A401A807B683A1C5E
S11347301A3212881A803B1C0C339A783B681A7020
S11347403B1C1F3301221A7013E03B1C1F331B78E0
S11347503A68D3183A1C1F3212780232391C0C31D1
S11347608A5C1A703B1C1F333A1C1F3212780132C8
S11347701A703B1C1F331B789BB23A1C1A321288E6
S11347809A42E2D8C4E03B1C0C335B781A1C0F231A
S113479013409BB21B0299B23B1C0C339B781A1C2E
S11347A03B1C1A338A181A807B683A1C1A32128806
S11347B01A803B1C0C33DA783B681A703B1C1F339D
S11347C001221A7013E03B1C1F331B783A68D3187C
S11347D03A1C1F3212780332391C0C318A5C1A706D
S11347E03B1C1F333A1C1F32127801321A703B1CD7
S11347F01F331B78042BE6D93B1C1A333A1C1A329C
S11348001288053A1A803B1C1C333A1C1C3212884D
S113481005321A8038E03B1C0C33181CFFF734FFB8
S11348203B1C0C335B78191C3B1C16330F220A40CB
S11348301A803B1C1F3302221A7019E03B1C1C33E4
S11348401B883A68D3183A1C1F321278391C0C3171
S11348508A5C1A703B1C1C333A1C1C3212880132CD
S11348601A803B1C1F333A1C1F32127801321A7013
S11348703B1C1F331B78072BE0D93B1C1A333A1C13
S11348801A321288063A1A803B1C1A331B88062BEC
S1134890C1D83B1C1A331B88002B38D03B1C0C336B
S11348A0181CFFF7F1FE3B1C0C335B78191C3B1CF6
S11348B016330F220A401A803B1C1F3300221A7041
S11348C01AE03B1C1C331B883A68D3183A1C1F326D
S11348D012780232391C0C318A5C1A703B1C1C336E
S11348E03A1C1C32128801321A803B1C1F333A1CBA
S11348F01F32127801321A703B1C1F331B789BB293
S11349003A1C1A3212889A42DBD800E000E0C04612
S1134910054B00221A70034B02221A70BD4608B0E0
S113492080BDC04608FFFF1F0AFFFF1F90B583B07C
S113493000AFFB1D00221A70BB1D00221A70FC1D63
S1134940FEF744FA031C2370FC1D0020FEF746FA10
S1134950031C2370BB1D0C221A70104A0F49C0237C
S11349605B00C958BB1D18781F2303400120041C99
S11349709C40231C1943C0235B00D150074B074ABA
S11349801168BA1D10781F2202400120041C9440B3
S1134990221C0A431A60BD4603B090BD00E100E04A
S11349A080B500AF054B01221A70054B00221A7026
S11349B0044B00221A60BD4680BDC046BCFCFF1FEC
S11349C07CFCFF1F74FCFF1F80B500AF124B1B78EB
S11349D00E2B03D9104B00221A7005E00E4B1B78E6
S11349E00133DAB20C4B1A700C4B1B78DBB20F227A
S11349F09343DAB2084B1B78DBB2191C0F230B402C
S1134A00DBB21343DBB2DAB2044B1A70044B01225B
S1134A101A70BD4680BDC046BDFCFF1F08FCFF1FC9
S1134A2088FCFF1F80B582B000AF6B4B1B7A1A1C49
S1134A3003231340D9B2694B03220A401978032097
S1134A4081430A431A70644B1B7A1A1C04231340D3
S1134A5001D0012200E00022604B01210A409200B3
S1134A601978042081430A431A705B4B1B7A1A1C81
S1134A700823134001D0012200E00022574B0121FA
S1134A800A40D2001978082081430A431A70524B15
S1134A901B7A1A1C1023134001D0012200E00022CB
S1134AA04E4B01210A4012011978102081430A4318
S1134AB01A70494B1B7A5B09DBB21A1C072313409B
S1134AC0DAB2464B520118781F2101400A431A708A
S1134AD0414B5B7A1A1C01231340D9B23F4B01228C
S1134AE00A405978012081430A435A703A4B5B7A51
S1134AF01A1C0223134001D0012200E00022374B8C
S1134B0001210A4052005978022081430A435A7015
S1134B10314B5B7A1A1C0423134001D0012200E0BC
S1134B2000222E4B01210A4092005978042081432F
S1134B300A435A70284B1A7B284B1A71264BDB7A8E
S1134B401A1C1F2313409BB21B029BB21A1C224B3C
S1134B509B7AD3187B607A68131CDB009B18181CA3
S1134B60A021FBF74DFE031C1A1C1D4B1A6002F01A
S1134B708BFE1A4B1B781B065B0FDBB2062B20D86F
S1134B809A00184BD3181B689F46174B01221A70C2
S1134B901BE0154B01221A7017E0134B02221A7006
S1134BA013E0114B02221A700FE00F4B03221A700C
S1134BB00BE00D4B03221A7007E00B4B04221A7012
S1134BC003E0094B04221A70C046084B50221A70A5
S1134BD0BD4602B080BDC04608FCFF1FD0FEFF1FCB
S1134BE0E0FCFF1FBCA10000DCFEFF1FC1FCFF1F97
S1134BF080B582B000AF8E4B9A698E4B9A420CD826
S1134C008B4BDA698B4B9A4207D88B4B1B78012B61
S1134C1003D08A4B1B78002B02D1894B00221A70D7
S1134C20884B1B78DBB230229343DAB2844B197879
S1134C3003230B40DBB21B01DBB2DBB21343DBB259
S1134C40DAB2804B1A70804B01221A707F4B1B78AA
S1134C50002B08D07B4B1B78802252421343DAB2DC
S1134C60784B1A7006E0774B1A787F231340DAB238
S1134C70744B1A70744B01221A70754B1B78002BFD
S1134C8007D0704B5B7801221343DAB26D4B5A7034
S1134C9006E06C4B5B7801229343DAB2694B5A709D
S1134CA0694B01221A70674B1B79DBB203229343D1
S1134CB0DAB2684B1B681B0ADBB2191C03230B40D6
S1134CC0DBB21343DBB2DAB25E4B1A71614B1B6881
S1134CD0DAB25C4BDA705C4B01221A705E4B1A78C4
S1134CE0584B9A70584B01221A70514B1B691B0A7E
S1134CF0DAB2544B5A71544B01221A70574B1B7839
S1134D00092B03D9FB1D0A221A7003E0FB1D534A29
S1134D1012781A704B4B1B79DBB23C229343DAB204
S1134D20FB1D19780F230B40DBB29B00DBB2DBB217
S1134D301343DBB2DAB2434B1A71434B01221A70AC
S1134D40474B1A7801231340DBB2002B07D03D4BAD
S1134D505B7802221343DAB23A4B5A7006E0394BBD
S1134D605B7802229343DAB2364B5A70364B0122F7
S1134D701A703B4B1B789B07DB0FDBB21A1C384BBA
S1134D801B785B07DB0FDBB2134307D02D4B5B783B
S1134D9004221343DAB22B4B5A7006E0294B5B789A
S1134DA004229343DAB2274B5A70274B01221A701C
S1134DB0244B5B78DBB230229343DAB21E4B197872
S1134DC003230B40DBB21B01DBB2DBB21343DBB2C8
S1134DD0DAB21C4B5A701C4B01221A70214B1B78FF
S1134DE0002B07D0174B5B7840221343DAB2154BE4
S1134DF05A7006E0134B5B7840229343DAB2114BAE
S1134E005A70114B01221A70094B9B69DAB20D4B8F
S1134E109A710D4B01221A70054B9B691B0ADAB279
S1134E20084BDA71084B01221A70BD4602B080BDEE
S1134E30ECFCFF1FFEFF0000E5FEFF1FD0FDFF1F7F
S1134E40F4FEFF1F08FCFF1F88FCFF1FEBFCFF1F85
S1134E50E0FDFF1FF8FEFF1FCCFEFF1F00FFFF1F3A
S1134E6038FDFF1FE1FDFF1F80B500AF044B044A6E
S1134E701278D2B240210A43D2B21A70BD4680BD24
S1134E800060074080B500AF044B044A1278D2B2E8
S1134E9040218A43D2B21A70BD4680BD00600740EB
S1134EA080B586B000AFF860B9607A601A1CFB1C4C
S1134EB01A703B1C1733FA1C127852081A70BB681C
S1134EC01A68FB689A4202D97B681B68F0E03B1CB5
S1134ED017331B789B00BA68D3181A68FB689A4288
S1134EE007D13B1C17331B789B007A68D3181B68C7
S1134EF0DEE03B1C17331B789B00BA68D3181A6892
S1134F00FB689A426FD23B1C17333A1C1732127853
S1134F1001321A705EE03B1C17331A78FB1C1B78B5
S1134F20013B9A4209D03B1C17331B789B00BA689B
S1134F30D3181A68FB689A4245D33B1C16333A1CB3
S1134F4017321278013A1A703B1C15333A1C173287
S1134F5012781A703B1C15331B789B007A68D3189F
S1134F601A683B1C16331B789B007968CB181B68A6
S1134F70D21A3B1C16331B789B00B968CB181B68EC
S1134F80F968CB1A5A433B1C15331B789B00B9684C
S1134F90CB1819683B1C16331B789B00B868C318E0
S1134FA01B68CB1A101C191CFBF72AFC031C1A1CC7
S1134FB03B1C16331B789B007968CB181B68D318ED
S1134FC03B613B6974E03B1C17333A1C173212787F
S1134FD001321A703B1C17331A78FB1C1B78013BF7
S1134FE09A4298DD63E03B1C17333A1C173212785F
S1134FF0013A1A703B1C17331B78002B09D03B1C59
S113500017331B789B00BA68D3181A68FB689A4256
S113501045D83B1C16333A1C173212781A703B1CC5
S113502015333A1C1732127801321A703B1C1533AF
S11350301B789B007A68D3181A683B1C16331B78BC
S11350409B007968CB181B68D21A3B1C16331B785B
S11350509B00B968CB181B68F968CB1A5A433B1CF0
S113506015331B789B00B968CB1819683B1C1633A1
S11350701B789B00B868C3181B68CB1A101C191C3A
S1135080FBF7BEFB031C1A1C3B1C16331B789B004E
S11350907968CB181B68D3183B613B6908E03B1C5B
S11350A017333A1C17321278013A1A70A2E7FFE755
S11350B0181CBD4606B080BD90B583B000AFF02388
S11350C01B02181C03F000FA04F04EFEC046544BB9
S11350D01A698023DB0113409B0BF8D0022004F0F3
S11350E045F8FF200D2103F081FA052004F03EF875
S11350F04C4B1B780920191C03F026FC494B5B78A8
S11351000120191C03F020FC464B9B781420191C29
S113511003F01AFC434BDB780520191C03F014FC44
S1135120404B1B790620191C03F00EFC3D4BDB7928
S11351300720191C03F008FC3B4B1B780B20191C9F
S113514003F002FC374B5B790320191C03F0FCFBD2
S1135150344B1B7A0820191C03F0F6FB334B1B78E5
S11351600C20191C03F0F0FB2E4B9B790420191C16
S113517003F0EAFB2B4B5B7A0A20191C03F0E4FBD7
S1135180284B9B7A0F20191C03F0DEFB254BDB7A9E
S11351901020191C03F0D8FB224B1B7B1120191C77
S11351A003F0D2FB1F4B5B7B1220191C03F0CCFBDA
S11351B01C4B9B7B1320191C03F0C6FB194BDB7B98
S11351C00E20191C03F0C0FBFB1D00221A701FE007
S11351D0FB1D1C7896239B00102003211A1C00F051
S11351E029F8011C124BA200D150FB1D1C789623F8
S11351F09B00082003211A1C00F01CF8011C0C4B16
S1135200A21D9200D150FB1DFA1D127801321A70B2
S1135210FB1D1B78052BDBD9BD4603B090BDC046F2
S113522000F00F4020A300002DFDFF1FD6FEFF1F3E
S1135230FCFDFF1F80B58AB000AF3A60FB1D021C65
S11352401A70BB1D0A1C1A703B1C1A3300221A70F8
S113525000237B623B1C0C3300221A603B1C0C3382
S113526000225A603B1C1B3300221A708EE004F0AB
S11352707BFDFB1D1B78181C03F08CFECC4B5A687D
S1135280CB4BDB689A4206D9C94B5A68C84BDB68DA
S1135290D31AFB6105E0C64BDA68C54B5B68D31AC9
S11352A0FB61C44BFA691A60C34B1B78012B30D1E4
S11352B0FA693B689A422AD2BD4B9A68BF4B9A421C
S11352C025D93B1C0C331A68B94B5B68D2183B1CBC
S11352D00C331A603B1C0C335A68B54BDB68D2188C
S11352E03B1C0C335A60B24B9B687A6AD3187B62BE
S11352F03B1C1A333A1C1A32127801321A703B1CC6
S11353001B333A1C1B32127801321A703EE0002320
S113531087E1A94B1B783A1C1B32391C1B310978D5
S113532011703A1C1A32391C1A3109781170002B89
S11353302CD19F4B9A68A14B9A4225D93B1C0C3324
S11353401A689B4B5B68D2183B1C0C331A603B1CDD
S11353500C335A68964BDB68D2183B1C0C335A60EA
S1135360934B9B687A6AD3187B623B1C1A333A1CB2
S11353701A32127801321A703B1C1B333A1C1B324E
S1135380127801321A7001E000234AE13A1C1B3200
S1135390BB1D12781B789A4200D268E7FB1D1B786C
S11353A0102B5DD13B1C0C331A683B1C1A331B7841
S11353B0101C191CFBF724FA031C1A1C3B1C0C338D
S11353C01A603B1C0C331A687D4B1A613B1C0C336E
S11353D05A683B1C1A331B78101C191CFBF710FA73
S11353E0031C1A1C764B1A62754B1A69754B1B68A1
S11353F09A4205D8734B1A68714B1B69D21A04E0A0
S11354006F4B1A696F4B1B68D21A6F4B1A606C4B47
S11354101A6A6E4B1B689A4205D86C4B1A68684B23
S11354201B6AD21A04E0664B1A6A684B1B68D21ACC
S1135430674B1A60624B1A69624B1A60604B1A6AB6
S1135440624B1A60604B1A6896235B009A4205D837
S11354505F4B1A6896235B009A4263D90023E0E00D
S1135460FB1D1B78082B5DD13B1C0C331A683B1CBD
S11354701A331B78101C191CFBF7C2F9031C1A1CE5
S11354803B1C0C331A603B1C0C331A684C4B5A619E
S11354903B1C0C335A683B1C1A331B78101C191C18
S11354A0FBF7AEF9031C1A1C454B5A62444B5A696C
S11354B0484B1B689A4205D8464B1A68404B5B69B7
S11354C0D21A04E03E4B5A69424B1B68D21A424B33
S11354D01A603B4B5A6A414B1B689A4205D83F4BB2
S11354E01A68374B5B6AD21A04E0354B5A6A3B4B55
S11354F01B68D21A3A4B1A60314B5A69354B1A6001
S11355002F4B5A6A354B1A60334B1A6896235B004B
S11355109A4205D8324B1A6896235B009A4201D905
S113552000237EE03B1C1A331B78786A191CFBF7B6
S113553067F9031C7B62204B1B78002B02D17B6A2A
S11355403B626DE01C4B1B78012B69D1FB1D1B7862
S1135550102B20D11A4B1A6A224B9A4202D87B6A2A
S11355603B625DE0164B1B6A1F4A9B187B617A699C
S1135570131C9B009B185B00181C96235900FBF717
S11355803FF9031C1A1C194B1A60184B1B687A6AE2
S1135590D31A3B6244E0FB1D1B78082B40D1084B17
S11355A05A6A104B9A4223D87B6A3B6238E0C04661
S11355B098FDFF1F04FFFF1FF7FEFF1FD0840000AC
S11355C0ECFCFF1FC8FCFF1F4CFDFF1F50FDFF1F1D
S11355D0ECFEFF1F8CFDFF1FC4FCFF1FF0FDFF1F2F
S11355E0CCFCFF1FA41F00005CE0FFFF80FDFF1F39
S11355F00E4B5B6A0E4A9B187B617A69131C9B00F5
S11356009B185B00181C96235900FBF7F9F8031C40
S11356101A1C084B5A60074B5B687A6AD31A3B62C0
S11356203B6A181CBD460AB080BDC046ECFCFF1F97
S11356305CE0FFFF80FDFF1F80B582B000AFB64B7A
S11356401B68002B03D1B54B04221A7012E0B24B35
S11356501B68282B03D8B14B0A221A700AE0AE4B00
S11356601B68502B03D8AD4B09221A7002E0AB4BD8
S113567007221A70AA4B1B78052B06D8A94B5B6826
S11356807B60A84B9B683B6014E0A54B1B780A2BFE
S113569008D8A44B5B6810337B60A24B9B68103323
S11356A03B6007E09F4B5B6821337B609D4B9B68AD
S11356B021333B609C4B1A7804231340DBB2002B4C
S11356C047D19A4B1A687B689A4217D8944B1B7837
S11356D0022B13D8964B00221A70964B1A788F4BD4
S11356E01B789A4203D3944B01221A7069E0914BC0
S11356F01B780133DAB28F4B1A7062E08B4B1A6855
S11357003B689A4203D9864B1B78042B05D8874BF8
S11357101A68FA235B009A4214D9864B00221A7045
S1135720834B1A787F4B1B789A4203D3824B002217
S11357301A7046E07E4B1B780133DAB27C4B1A7048
S1135740C0463EE07B4B00221A70794B00221A704F
S113575037E0764B1A687B689A4213D8744B002260
S11357601A70744B1A786D4B1B789A4203D3724BA0
S113577001221A7025E06F4B1B780133DAB26D4BAE
S11357801A701EE0694B1A683B689A4213D9694B38
S113579000221A70664B1A78624B1B789A4203D324
S11357A0654B00221A700CE0614B1B780133DAB2AE
S11357B05F4B1A7005E05F4B00221A705C4B0022AD
S11357C01A70574B1B78052B06D8564BDB687B6049
S11357D0544B1B693B6014E0514B1B780A2B08D8CF
S11357E0504BDB6810337B604E4B1B6910333B60BE
S11357F007E04C4BDB6821337B604A4B1B69213348
S11358003B60494B1A7804231340DBB2002B47D189
S1135810464B1A687B689A4217D8414B1B78022B77
S113582013D8434B00225A70424B5A783B4B1B7897
S11358309A4203D3414B01221A7069E03D4B5B78D5
S11358400133DAB23B4B5A7062E0384B1A683B685A
S11358509A4203D9324B1B78042B05D8334B1A6870
S1135860FA235B009A4214D9324B00225A70304B0F
S11358705A782C4B1B789A4203D3304B00221A706F
S113588046E02B4B5B780133DAB2294B5A70C046A1
S11358903EE0274B00225A70264B00225A7037E014
S11358A0224B1A687B689A4213D8214B00225A7003
S11358B0204B5A78194B1B789A4203D31F4B012271
S11358C01A7025E01B4B5B780133DAB2194B5A701E
S11358D01EE0164B1A683B689A4213D9154B0022F6
S11358E05A70134B5A780F4B1B789A4203D3134BBD
S11358F000221A700CE00E4B5B780133DAB20C4BC9
S11359005A7005E00B4B00225A70094B00225A7062
S1135910BD4602B080BDC046E0FCFF1F70FDFF1F06
S1135920CCFEFF1F88A3000038FDFF1FF8FEFF1FF9
S1135930C8FDFF1F14FDFF1FEBFCFF1FE0FDFF1F51
S113594080B500AF214B5A68214B9A420FD1214BAD
S1135950DB780133DAB21F4BDA701E4BDB78312B64
S113596008D91C4B1A7802210A431A7002E0194B19
S11359700022DA70174BDB78312B04D8154B1A78D8
S113598002218A431A70114B9B68002B0FD1114BD3
S11359901B790133DAB20F4B1A710E4B1B79312B81
S11359A008D90C4B1A7804210A431A7002E0094BF7
S11359B000221A71074B1B79312B04D8054B1A7836
S11359C004218A431A70BD4680BDC046ECFCFF1F0B
S11359D0FFFF000038FDFF1F80B584B000AF002337
S11359E0FB600023BB6000233B60FB1D00221A7098
S11359F011E0062003F0CEFA364B5B68FA68D31840
S1135A00FB60344B9B68BA68D318BB60FB1DFA1D5E
S1135A10127801321A70FB1D1B78012BE9D9FB683F
S1135A205B08FB60BB685B08BB603B685B083B6072
S1135A30294BFA685A60284BBA689A60264B3A6830
S1135A40DA60B968254A264B081C111C1A1C10235D
S1135A50FFF726FA031CBB60BB68FD2B03D9214B5F
S1135A60FD221A7003E0BB68DAB21E4B1A70396863
S1135A701A4A1B4B081C111C1A1C1023FFF710FA9E
S1135A80031C3B603B68FD2B03D9174BFD221A70A6
S1135A9003E03B68DAB2144B1A70F968134A144BEA
S1135AA0081C111C1A1C1023FFF7FAF9031CFB60D5
S1135AB0FA68104B9A4203D90F4B0E4A1A6002E05F
S1135AC00D4BFA681A60FFF73BFFFFF7B5FDBD46C3
S1135AD004B080BD98FDFF1FECFCFF1F58A200001E
S1135AE098A20000CCFEFF1F2FFDFF1FD8A10000CD
S1135AF018A20000FD030000F8FEFF1F80B582B06D
S1135B0000AF021CFB1D1A70FB1D1B78102B1AD151
S1135B10244B1B68002B12D1234B5B780133DAB280
S1135B20214B5A70204B5B78632B2AD91E4B64227D
S1135B305A701D4B1A7801210A431A7021E01A4B3E
S1135B4000225A701DE0FB1D1B78082B19D1154B40
S1135B501B68002B12D1144B9B780133DAB2124B21
S1135B609A70114B9B78632B0BD90F4B64229A705C
S1135B700D4B1A7801210A431A7002E00A4B0022E5
S1135B809A70094B5B78632B08D8074B9B78632B7F
S1135B9004D8054B1A7801218A431A70BD4602B015
S1135BA080BDC046D8FEFF1F38FDFF1F80B584B0FE
S1135BB000AF021CFB1D1A70D94B5A7DFB1D1978CE
S1135BC096239B00081C111C1A1CFFF733FB021CB4
S1135BD0D44B1A60FB1D1B78181CFFF78FFFFB1DAD
S1135BE01B78102B00D0DDE0CE4B1B68002B00D1BE
S1135BF0D8E0CC4B1A68CC4B9A61CB4B1A69CB4B8F
S1135C00DA643B1C0F3301221A701CE0C64B1A697C
S1135C10C64BDA643B1C0F331B78132B0CD83B1C8C
S1135C200F331B785A1E3B1C0F331978BF4B890066
S1135C30C958BE4B9200D1503B1C0F333A1C0F3253
S1135C40127801321A703B1C0F331B78142BDDD9E8
S1135C50B74B1B78002B52D13B1C0F3301221A7017
S1135C601CE0B14B9A69B34B5A613B1C0F331B7850
S1135C70052B0CD83B1C0F331B785A1E3B1C0F33CF
S1135C801978AC4B8900C958AA4B9200D1503B1CDF
S1135C900F333A1C0F32127801321A703B1C0F3347
S1135CA01B78062BDDD9A04B1A699D4B1B689A42C1
S1135CB003D29B4B1B7CBB6023E09B4B1A69984B24
S1135CC05B689A4203D2964B5B7CBB6019E0964BAF
S1135CD01A69934B9B689A4203D2914B9B7CBB609D
S1135CE00FE0914B1A698E4BDB689A4203D28C4BBE
S1135CF0DB7CBB6005E08A4B1B7DBB6001E08E4B07
S1135D00BB608E4B1A7810231340DBB2002B03D0F8
S1135D10884B1A688A4B1A60864B1A68894B1A603A
S1135D20814B9A69874B1B689A420FD3864B00229A
S1135D301A707D4B9A69834B1B68D21A834B9A4223
S1135D4029D97C4B1A697B4B5A6124E07D4B1A6834
S1135D50754B9B69D21A7E4B1A607D4B1A687B4B3C
S1135D609A4204D87A4B1A68BB689A4207D2714B9C
S1135D701A69704B5A61744B00221A700BE0744B11
S1135D801A68744B1B78101C191CFAF739FD031C94
S1135D90DAB26D4B1A706A4B1A686F4B1A606A4B11
S1135DA01B780AE1FB1D1B78082B00D004E15D4B36
S1135DB01B68002B00D1FFE05A4B1A685A4BDA617A
S1135DC0594B5969594A9C23D1503B1C0F3301222A
S1135DD01A701FE0544B5969544A9C23D1503B1C00
S1135DE00F331B78132B0ED83B1C0F331B785A1E12
S1135DF03B1C0F3319784D4B14318900C9584B4B58
S1135E0014329200D1503B1C0F333A1C0F321278DB
S1135E1001321A703B1C0F331B78142BDAD9444B14
S1135E201B78002B54D13B1C0F3301221A701EE047
S1135E303D4BDA693F4BDA623B1C0F331B78052B71
S1135E400ED83B1C0F331B785A1E3B1C0F3319789A
S1135E50384B06318900C958364B06329200D1506E
S1135E603B1C0F333A1C0F32127801321A703B1C60
S1135E700F331B78062BDBD92B4B5A69284B1B6835
S1135E809A4203D2264B1B7CBB6023E0264B5A6903
S1135E90234B5B689A4203D2214B5B7CBB6019E0C5
S1135EA0214B5A691E4B9B689A4203D21C4B9B7C24
S1135EB0BB600FE01C4B5A69194BDB689A4203D252
S1135EC0174BDB7CBB6005E0154B1B7DBB6001E021
S1135ED0194BBB60194B1A7810231340DBB2002B0B
S1135EE003D0144B9A69164B5A60124B9A691B4B98
S1135EF01A600D4BDA69194B1B689A4230D3124B66
S1135F0000225A70084BDA69144B1B68D21A0F4BE3
S1135F109A424AD9074B9A6A064BDA6245E0C04670
S1135F2034A30000D8FEFF1FECFCFF1F2CFEFF1F54
S1135F3020FDFF1FFCFDFF1FB80B0000D0FEFF1F5C
S1135F4018FDFF1F34FDFF1F94FDFF1F8813000081
S1135F5024FDFF1FC1FCFF1F5CFDFF1F58FDFF1F39
S1135F60184B1A68184BDB69D21A184B5A60174B36
S1135F705A68174B9A4204D8144B5A68BB689A4221
S1135F8007D2144B9A6A134BDA62134B00225A70ED
S1135F900BE00E4B5A68114B1B78101C191CFAF7B6
S1135FA02FFC031CDAB20C4B5A700D4B5A680D4B84
S1135FB05A60094B5B7800E00023181CBD4604B00E
S1135FC080BDC04658FDFF1FECFCFF1F24FDFF1FD2
S1135FD088130000FCFDFF1F94FDFF1FC1FCFF1F81
S1135FE018FDFF1F5CFDFF1F90B585B000AF021CBC
S1135FF0FB1D1A703B1C0F3300221A703B1C0E331E
S113600000221A70FB1D1A780823134000D1A2E065
S11360103C1C0E340820FFF7C9FD031C23703B1CF5
S11360200E331B78002B03D1A14B00225A708EE053
S11360303B1C0E331B78002B08D03B1C0E331B7803
S1136040032B03D89A4B01225A7080E03B1C0E3379
S11360501B78032B08D93B1C0E331B78052B03D864
S1136060934B02225A7072E03B1C0E331B78052BB3
S113607008D93B1C0E331B78072B03D88C4B032207
S11360805A7064E03B1C0E331B78072B08D93B1C69
S11360900E331B78092B03D8854B04225A7056E023
S11360A03B1C0E331B78092B08D93B1C0E331B7881
S11360B00A2B03D87E4B05225A7048E03B1C0E3352
S11360C01B780A2B08D93B1C0E331B780E2B03D8E4
S11360D0774B06225A703AE03B1C0E331B780E2B8A
S11360E008D93B1C0E331B78112B03D8704B0722A5
S11360F05A702CE03B1C0E331B78112B08D93B1C27
S11361000E331B78122B03D8694B08225A701EE0F9
S11361103B1C0E331B78122B08D93B1C0E331B7807
S1136120132B03D8624B09225A7010E03B1C0E3328
S11361301B78132B08D93B1C0E331B78232B03D855
S11361405B4B0A225A7002E0594B0B225A70584B8F
S11361505A78584B5A70FB1D1A781023134000D1FB
S1136160A2E03C1C0F341020FFF720FD031C237019
S11361703B1C0F331B78002B03D14D4B00221A70AC
S11361808EE03B1C0F331B78002B08D03B1C0F33D5
S11361901B78032B03D8464B01221A7080E03B1C6A
S11361A00F331B78032B08D93B1C0F331B78052BAB
S11361B003D83F4B02221A7072E03B1C0F331B784A
S11361C0052B08D93B1C0F331B78072B03D8384BFE
S11361D003221A7064E03B1C0F331B78072B08D989
S11361E03B1C0F331B78092B03D8314B04221A7044
S11361F056E03B1C0F331B78092B08D93B1C0F338B
S11362001B780A2B03D82A4B05221A7048E03B1C42
S11362100F331B780A2B08D93B1C0F331B780E2B2A
S113622003D8234B06221A703AE03B1C0F331B7829
S11362300E2B08D93B1C0F331B78112B03D81C4B96
S113624007221A702CE03B1C0F331B78112B08D942
S11362503B1C0F331B78122B03D8154B08221A70E2
S11362601EE03B1C0F331B78122B08D93B1C0F3349
S11362701B78132B03D80E4B09221A7010E03B1C19
S11362800F331B78132B08D93B1C0F331B78232B9C
S113629003D8074B0A221A7002E0054B0B221A702E
S11362A0034B1A78034B1A70BD4605B090BDC04627
S11362B088FDFF1F7CFDFF1F80B582B000AF5C4BE3
S11362C01A695B4B1B6A9A4207D9594B1A69584B96
S11362D01B6AD21A574B1A6006E0554B1A6A544B84
S11362E01B69D21A534B1A60514B5A69504B5B6A63
S11362F09A4207D94E4B5A694D4B5B6AD21A4D4BA1
S11363005A6006E04A4B5A6A494B5B69D21A494BB8
S11363105A60494B1A6896235B009A4211D8474B3E
S11363201A6896235B009A420BD8454B1A68962349
S11363305B009A4205D8434B1A6896235B009A4245
S113634003D9414B00221A7002E03F4B01221A701C
S1136350FB1D00221A702CE03C4B1A68FB1D1978B7
S11363603A4B8900CB589A420FD9384B1A68FB1D17
S11363701978364B8900CB58D21A96235B009A427F
S113638012D9314B00221A700EE0FB1D1A782F4BE4
S11363909200D2582D4B1B68D21A96235B009A4266
S11363A002D9294B00221A70FB1DFA1D1278013202
S11363B01A70FB1D1B78132BCED9FB1D00221A70FB
S11363C02FE0224B1A6DFB1D1978204B14318900E4
S11363D0CB589A4210D91D4B1A6DFB1D19781B4BD3
S11363E014318900CB58D21A96235B009A4213D9F0
S11363F0154B00221A700FE0FB1D1A78134B143250
S11364009200D258114B1B6DD21A96235B009A420C
S113641002D90D4B00221A70FB1DFA1D12780132AD
S11364201A70FB1D1B78132BCBD9BD4602B080BD5F
