S00A0000524C532E68657891
S1130000000C0020191C0000B11B0000B11B0000F3
S113001000000000000000000000000000000000DC
S1130020000000000000000000000000B11B000000
S11300300000000000000000B11B0000B11B000024
S1130040B11B0000B11B0000B11B0000B11B00007C
S1130050B11B0000B11B0000B11B0000B11B00006C
S1130060B11B0000B11B0000B11B0000B11B00005C
S113007021250000B11B0000B11B0000B11B0000D2
S1130080B11B000049AF000031250000B11B000086
S1130090D9B30000B11B0000B11B0000B11B00006C
S11300A0B11B0000B11B0000B11B0000B11B00001C
S11300B035B40000B11B0000B11B0000B11B0000EF
S1130800002934D00123002210B488422CD30124BF
S11308102407A14204D2814202D209011B01F8E754
S1130820E400A14204D2814202D249005B00F8E70D
S1130830884201D3401A1A434C08A04202D3001B39
S11308405C0822438C08A04202D3001B9C0822436C
S1130850CC08A04202D3001BDC082243002803D0AA
S11308601B0901D00909E3E7101C10BC70470028DC
S113087001D00020C04307B4024802A140180290EE
S113088003BDC046D90000000029F0D003B5FFF72E
S1130890B9FF0EBC4243891A1847C046002941D00B
S11308A010B4041C4C40A44601230022002900D5A6
S11308B04942002800D5404288422CD30124240711
S11308C0A14204D2814202D209011B01F8E7E400EB
S11308D0A14204D2814202D249005B00F8E7884277
S11308E001D3401A1A434C08A04202D3001B5C08EF
S11308F022438C08A04202D3001B9C082243CC084C
S1130900A04202D3001BDC082243002803D01B09A9
S113091001D00909E3E7101C6446002C00D54042CD
S113092010BC7047002806D003DB0020C0434008F9
S113093001E08020000607B4024802A1401802909A
S113094003BDC046190000000029EBD003B5FFF732
S1130950A7FF0EBC4243891A1847C0467047C046D9
S113096038B50E4B0C4A041C0D1C00F0DBFF0028AC
S113097004D1201C291C00F03BFF38BD074B064A5C
S1130980201C291C00F0B8FB00F032FF802319065C
S11309904018F2E7C046C046000000000000E041F5
S11309A0F8B55F4656464D464446F0B40C03460F30
S11309B0640A3443A3465E001C03DB0F9C46630AAF
S11309C098464D00530F44461C436D0DC90F760DD8
S11309D0D2000F1CC000A1469246AB1B614500D15A
S11309E0A2E0002B00DCF0E0002E0CD1261C164304
S11309F000D1C0E0013B002B00D041E15C464B46F6
S1130A00821AE71A21E0D04EB54200D1C8E0802412
S1130A104A4627043A439146382B00DD0AE11F2B4E
S1130A2000DD4BE12026F61A4C4652465746B440A8
S1130A30B740DA4022433E1C4C46771EBE41DC40A0
S1130A403243261C5B46821A9F1B904280414642D9
S1130A50BB1B141C2E1C0F1C180200D4A9E05D0241
S1130A60690A88464246002A00D1D4E0404600F094
S1130A7063FF051C083D1F2D00DDD5E02822131A55
S1130A80201C4146D840A940031C0B43AC40AE4255
S1130A9000DD8BE0AE1B711C1F2900DDFBE01F2075
S1130AA0851B1A1C201CAA40C840AC401043661E7B
S1130AB0B4410443CB40012200260F2020400428E7
S1130AC062D0201DA042A441614201255B182F4041
S1130AD01C0207D59C4EB24200D198E09B4C161CD8
S1130AE0234001325C07C00852050443DB08510D62
S1130AF0012960DD1B0371051B0B4E0D0020002135
S1130B000A0D201C1105924C0B43760575081C40F8
S1130B102C4363005A08FF07111C39433CBC904620
S1130B209946A246AB46F8BD002B00DC8EE0002EB1
S1130B302ED0854EB54200D1A6E080244E46220434
S1130B401643B146382B00DD16E11F2B00DD71E1A1
S1130B502026F61A4A46B240904652464446DA40A7
S1130B6022435446B440261C741EA6414C463243CC
S1130B70DC401218F4E0041C0F206A1C5B462E1C97
S1130B800F1C204004289CD101252F40201C9FE7E6
S1130B90144300D0DEE06A1C5B46041C2E1C8CE768
S1130BA080215B46041C0A012E1C86E7761B674DD8
S1130BB02B40721C81E7251C1D4300D168E2002EE6
S1130BC041D080200203134394E7002B00D088E037
S1130BD0691C4E05740D012C00DC1BE15B46161CE0
S1130BE04C46821A191B90429B415B42C91A8846A3
S1130BF00B0200D49EE0371ABA4592415E46A41B0C
S1130C005342E11A88463C1C2E1C67462AE7161CF0
S1130C100023002472E7201C00F08EFE2030051C07
S1130C20083D1F2D00DC29E7031C283B9C40231CA6
S1130C3000242CE74A4653461A430026002A00D1D2
S1130C4000E70122FEE61D032B0B57E7002B00D023
S1130C5005E16E1C7405630D012B00DCABE03A4921
S1130C608E4200D131E11118814280414B4642420B
S1130C705B449B18DC0749080C435B08AA1C1CE76F
S1130C80314FBD4200D0C7E6041C80205B460F1CD8
S1130C9002012E1C11E7301C1F381A1CC240151CFF
S1130CA0202900D183E03F218E1BB3401C43631EE7
S1130CB09C412C43012200230026FEE61C1C203C00
S1130CC04F46E7403E1C202B73D04022D41A4B469B
S1130CD0A3401A1C57463A43531E9A4132430026F6
S1130CE0B0E65F42002D51D0174DAE4200D156E11F
S1130CF080245A4621040A439346382F00DDDBE062
S1130D001F2F00DD79E12021CC1B051C5A46A2408F
S1130D10FD40A04015435B46421E90412843FB40E2
S1130D2057463C1AA24592414846C11A55424B1BAC
S1130D30674691E6081C104331D1002701220023A5
S1130D4004200026C4E6C046FF070000FFFF7FFF23
S1130D50FFFF0F80013B002B24D153461A184C4649
S1130D60824280415C444342E3182E1C141C180246
S1130D703ED4721C0F1CA0E64A4653461A43002474
S1130D80002A00D1F5E601221218E9E75B46034385
S1130D9000D083E0231C721C544667468DE6141C65
S1130DA02E1C5FE6CD4EB54200D0CBE66CE70023A7
S1130DB07CE700228EE75E460643002D00D0F4E077
S1130DC0002E00D14CE14B46134300D17EE11518AF
S1130DD04E46854280415E444242B3181E0200D40E
S1130DE082E1BF4F2C1C3B4002220F1C012664E60B
S1130DF0BA4D701CA8424BD0B94F0125254062085A
S1130E003B402C1CDF0714433C43B21C5B08061C0C
S1130E100F1C52E65E460643002D2CD1002E00D056
S1130E207DE04E46141C164387D04B46674601228C
S1130E30002642E61E1C203E4C46F440261C202B75
S1130E4000D1D8E04022D41A4B46A3401A1C544681
S1130E502243531E9A4132430024121880E75B4216
S1130E60002D37D15C46044300D0D7E0721C4B46BA
S1130E7054460F1C21E6002E6ED14B46141C13431E
S1130E8000D1DCE080254B4667462A01934E14E6E8
S1130E908021061C0A010023042019E6013F002FCB
S1130EA079D1171A5B46BA45AD414946CA1A684218
S1130EB03C1C131A6746CFE55F4607430023002016
S1130EC0002F00D12CE701202AE780252A010023E6
S1130ED00420FDE5814DAE4200D1D3E080245D467F
S1130EE022041543AB46382B00DDB0E01F2B00DD98
S1130EF0DBE02025ED1A021C5C46AC40DA40A84039
S1130F00451EA841224302435846D840031C554677
S1130F105419544592414B4450421B1827E74A4602
S1130F205646324300D185E0851B5B464C46A842B9
S1130F309241191B56428B1B1E0200D4ADE057464A
S1130F403D1A5B46AA458941E41A4A42A31A6746F8
S1130F502C1C01220026B0E54D46161C154344D036
S1130F605C468021C0086207E3080D0310432B424E
S1130F7000D181E04C46E10829427DD1F70866079B
S1130F803E430B1C6746700FDB008022F4000343D2
S1130F901201524E91E5514DAE4200D0ADE6802093
S1130FA04B4654466746020187E5002E5ED04C4608
S1130FB014431AD0C7088025584643072C03C00899
S1130FC01F43204208D04E46F308234204D1524620
S1130FD0D5087707181C2F43C300FC00780F0F1C9B
S1130FE0802103430A013D4E67E5802632015B46BA
S1130FF0041C3A4E61E5002229E7391C20395C467D
S1131000CC40221C202F67D04023DF1B5D46BD400F
S11310102843431E98411043002381E6013B002BE3
S11310202CD150445C469042AD414C446A42A318D2
S1131030041C9CE65B46041C012200263DE580243A
S1131040042100272201274B4842244E40E55D46F7
S1131050054300230022002D00D158E7012256E762
S1131060141C4B460F1C0122002626E5141C80226A
S11310704B461201194E20E5061C84E7174A964296
S113108000D030E70F1C80214B4654460A0114E57A
S11310907605760D0023002430E5181C284300D182
S11310A04BE62C1C0122002607E51C1C203C5D4657
S11310B0E5402C1C202B1CD04022D31A5A469A40BF
S11310C00243501E82412243002320E75B46041C56
S11310D00F1C01220026F0E4002599E7FF07000019
S11310E0FFFF7FFFFFFF7F002C1C0F1C0122002647
S11310F0E3E40022E4E7C046F0B557464E464546D1
S1131100E0B4071C0D034E00680ACC0F790F0843A6
S11311108446111C18035A00FD00400ADF0F4B0FD0
S11311201843C74BC900760D520D8A469A4200D126
S1131130DEE001235F40B946BC4200D1A6E0B71A05
S1131140002F00DC0BE1002A12D15246024300D1E9
S1131150D2E0013F002F00D05BE151466F1ABD423F
S1131160AD4162466B42101A3D1CC31A371C24E081
S1131170B34A964200D1DEE080210B041843382F95
S113118000DD1EE11F2F00DD60E12021C91B021CD0
S113119053468A40FB401A4353468B40191C4B1E4E
S11311A09941031C0A43FB40AA1A67469542AD4184
S11311B0F81A6B42C31A151C371C1A0200D4C2E079
S11311C05E02710A88464246002A00D1EBE040469E
S11311D000F0B2FB021C083A1F2A00DDECE02823D1
S11311E0181A2E1C4146C6409140331C0B439540AF
S11311F0974200DDA4E0D01B411C1F2900DD0DE156
S11312001F273A1A2E1C181CCE409040954030439C
S11312106A1E9541CB400543012100270F262E402D
S1131220042E00D170E02E1DAE42AD416842012271
S11312301B181440180207D5814FB94200D1AEE003
S1131240804D0F1C2B400131F20849055E073243E3
S1131250DB08480D012800DC77E01B037F051B0B2E
S11312607E0D002000210D0D101C2905764A0B432C
S113127077057E081A40324353005D08291CE407B1
S113128021431CBC90469946A246F0BDB31A002BDC
S113129000DCA3E0002A3BD0694A96424BD080216F
S11312A00F043843382B00DC14E15346184300275D
S11312B00022002800D001225219AA42AD416744FD
S11312C06B42FB18151C371C1E023CD55C487E1C67
S11312D0864200D177E15B4901222A400B4068082D
S11312E0151CD90705430D435B08B91C371C95E74A
S11312F0014300D11DE71EE7711C371C0F2663460E
S11313002E40042E00D08EE7012214402E1C91E7BB
S113131052460243F0D0013B002B09D157467919BC
S1131320A9429241554260444319371C0D1CCBE736
S113133043498E42B6D1802063460101371C6DE7D4
S1131340BF1A404A1340791C68E7151C1D4300D19D
S113135020E2002F3ED0802631030B437DE7002F8F
S113136000D085E0721C51054B0D012B00DCEFE031
S11313705746EA1B95429B416746391A5B42C91A94
S113138088460B0200D49CE05446651BAA45924152
S1131390C01B5742C31B9846371C4C4613E70E1C10
S11313A0002300225DE7281C00F0C6FA2030021C4E
S11313B0083A1F2A00DC12E7283885402B1C002538
S11313C016E75746384300230022002800D1EBE6F5
S11313D00122E9E61803030B002642E7002B00D0A4
S11313E0D8E0771C79054A0D012A00DC94E0144BFF
S11313F09F4200D1FDE051464919A942AD416246E0
S11314006B428018C2184908D5070D435308B11C14
S113141004E70B498E4200D0B1E68CE7061C1F3E60
S11314201F1CF7403E1C202972D03F22101A834013
S11314301D436B1E9D413543012100230027EDE62A
S1131440FF070000FFFF7FFFFFFF0F803B1C203BD7
S1131450011CD9400B1C202F5CD04022D71BB84064
S1131460021C50460243511E8A411A4300239BE644
S11314707F42002E40D0CA4CA24200D11FE18021FD
S113148066460B041E43B446382F00DDA9E01F2F27
S113149000DD3DE12023DE1B291C6446B440F940F5
S11314A0B5406B1E9D41214363460D43FB405746A7
S11314B07D1BC01AAA459B415F42C31B4C46171CA7
S11314C07BE60D1C154320D10024012100230426B2
S11314D00027AFE61F2B4ADC2021C91A071C5246FD
S11314E08F40DA403A4357468F40391C4F1EB9416A
S11314F0D8400A43071CDFE664462C4369D1511CDB
S1131500031C5546171C4C4688E6151C371C5AE626
S113151000238DE70022A4E767462F43002E00D066
S1131520D4E0002F00D126E15346034300D1E4E088
S113153051464F19AF42AD4160446E4283191E02B9
S113154000D44EE197483D1C03400221012765E683
S113155061462943002E29D1002976D15146014301
S1131560B2D0031C55464C460121002756E61F1CE9
S1131570203F011CF9400F1C202B00D1C6E0402263
S1131580D31A9840021C50460243531E9A413A43D0
S1131590002791E65B42002E30D167462F4300D0EE
S11315A0C8E0511C031C5546171C37E6002965D1B9
S11315B05746074300D1C8E0031C802055464C46DB
S11315C00101774F2AE68023371C190104260023E2
S11315D030E6013F002F6ED154466146651B401A28
S11315E068E767463D430023002D00D15FE70125EE
S11315F05DE780263101002304261BE668498A4200
S113160000D1C1E08027664639040E43B446382B26
S113161000DDA2E01F2B00DDD0E02021C91A2E1C22
S113162067468F408D40DE403E43291C67464D1E71
S1131630A941DF40351C0D433E1C554455459B4193
S113164030185E428319171C3EE65646064354D0B2
S11316505746EA1B63469542B641191A7342CB1AA0
S11316601E0200D4A2E07D1B6446AA45BF41001BB4
S11316707A42831A4C4601210027CFE55646064399
S11316803FD0624680215707ED08D3080A033D4343
S1131690134208D0C608164205D15546EC08450742
S11316A02543331C4C46680FDB0080260343ED00C2
S11316B031013B4FB2E53A498A4200D0E4E6802644
S11316C0031C55464C463101171CA7E5002F4CD08E
S11316D05346034315D062468026ED085107D308CC
S11316E037030D433B42DED0C2083A42DBD15546B4
S11316F0E9084507131C0D43D5E76346012100277C
S11317008CE5802739016346254F87E500223AE7B7
S11317103C1C203C6646E640331C202F5FD040240E
S1131720E71B6646BE40311C0D43691E8D411D43B7
S11317300023BCE6013B002B22D155445545BF4153
S11317407B426044C318171CBEE580210422002498
S11317500901154B5642124F6CE563461D430026A2
S1131760002D00D169E7012567E78022031C554657
S113177011010B4F52E5031C5546012100274DE58D
S113178007498A4200D042E78021031C55460901DB
S1131790171C43E57A05560D0023002261E5C04677
S11317A0FF070000FFFF7FFFFFFF7F001D1C1543A5
S11317B000D189E6151C012100272FE51F1C203FBD
S11317C06146F940202B10D04026F31A67469F400B
S11317D03B1C1D436B1E9D410D4300262DE700213C
S11317E0A2E73D1C0121002718E50023F1E7C046CC
S11317F0134A0B0330B5051C48001C0BC90F430DDD
S11318000020934211DD0F4883420FDC80225003F5
S11318100D4A0443D01A1F280BDD0C4DEB1ADC4093
S1131820221C5042002900D1101C30BD084C08195C
S1131830FBE7C54007482A1C1D18AC402243F0E7CB
S1131840FE0300001D040000330400001304000024
S1131850FFFFFF7FEDFBFFFF70B5041E26D000F0F5
S11318606BF814490A1A0A2813DD0B38844056050C
S11318702403720D250B002600200021301C0E0DC0
S113188033050D4C2B4311051C400C4365006908BE
S113189070BD0B23051C181A1535211CC440A94022
S11318A0520525030E1C2D0B520DE5E700220025E1
S11318B00026E1E71E040000FFFF0F808446101C91
S11318C062468C46191C634600E0C0461FB500F012
S11318D003F9002801D40021C8421FBD10B500F04F
S11318E049F84042013010BD10B500F0F5F8002869
S11318F001DB002010BD012010BDC04610B500F072
S1131900EBF8002801DD002010BD012010BDC04609
S113191010B500F06DF8002801DC002010BD012096
S113192010BDC04610B500F063F8002801DA0020AD
S113193010BD012010BDC0461C2101231B04984288
S113194001D3000C10391B0A984201D3000A08394C
S11319501B09984201D30009043902A2105C401803
S11319607047C046040302020101010100000000A7
S113197000000000F0B5944647461A03061C5800C0
S113198080B4170B420D19480D034C00DB0F2D0BCF
S1131990640DC90F9846844208D0144882420DD081
S11319A00120944212D004BC9046F0BD2B1C33435A
S11319B00120002BF7D10D488242F1D163463B430D
S11319C00120002BEFD101209442ECD1BD42EAD199
S11319D06645E8D1414506D0002CE4D1281C3043AB
S11319E0451EA841DFE70020DDE7C046FF070000F1
S11319F0F0B557464E464546E0B4041C4E00080375
S1131A00C90F8A46171C59001A03050B700D160BD3
S1131A104A0D3049DB0F9C46884232D02D498A4218
S1131A2035D000280FD1291C21434B424B41984605
S1131A30002A0BD0002B1AD1E2452CD05546002D9C
S1131A4018D1012018E0002AF6D19046311C394300
S1131A504B424B414146002906D1002BECD056465F
S1131A600120002E08D005E00020002B04D1674699
S1131A70002FE6D1012358421CBC90469946A24649
S1131A80F0BD2B1C2343C9D002214842F4E7331C88
S1131A903B43C6D0F8E7904205DC09DA5246002AF7
S1131AA0E8D00120E8E75446002CE3D10120E3E725
S1131AB0B542C3D807D00020B542DDD25046002835
S1131AC0D8D00120D8E7BC42B8D80020BC42F5D316
S1131AD0D2E7C046FF070000F0B544465F465646CD
S1131AE04D46F0B49446061C1A035800170B420DD9
S1131AF02E480D034C00DB0F2D0B640DC90F9846C7
S1131B00844233D02948824236D0002C19D0002A8E
S1131B1020D1934663463B43584258415B46824634
S1131B20002B1DD051460020002904D14246002A32
S1131B3014D1012460423CBC90469946A246AB466F
S1131B40F0BD2B1C3343584243419B46002AE1D04D
S1131B50002BEBD1414515D00029EAD10120EAE759
S1131B600028F7D001200029E5D0E2E72B1C3343FD
S1131B700220002BDFD1C5E763463B430220002B44
S1131B80D9D1C2E79442E7DC05DBBD42E4D806D0F4
S1131B900020BD42CFD20029CBD00120CBE766453F
S1131BA0DAD800206645F6D3C5E7C046FF07000033
S1131BB080B500AF00BEBD4680BDC04680B500AF55
S1131BC0084A0949094BD150094BA4221A70084B01
S1131BD001225A70064B0F221A71054BA0225A712A
S1131BE0BD4680BD00E000E000000000080D0000DC
S1131BF00020054080B500AF054A064BD31A054ABC
S1131C00101C00211A1C09F0EFFCBD4680BDC04623
S1131C104C00002054FCFF1F09F078FDFFF7CEFFB5
S1131C20FFF7E8FF09F0A6FD09F024FD09F07CFDAB
S1131C30044B0020191C09F00BFC031C181C09F0B0
S1131C40B7FCC04654FCFF1F80B582B000AF78607B
S1131C50FEE7C04680B584B000AF021CFB1D1A70BD
S1131C602D4BFA1D12781A702C4B2D4A1A602D4BED
S1131C7034221A803B1C0E3341221A802A4B2A4AF2
S1131C80D268802149030A43DA60284B1B683A1C56
S1131C900E321288120A92B2D1B21F220A40D2B274
S1131CA01A70224B1B683A1C0E321288D2B25A7038
S1131CB01E4B1B6800229A701C4B1B682C22DA7086
S1131CC01A4B1A68194B1B685B79DBB27A214942BB
S1131CD00B43DBB25371154B1A68144B1B689B7989
S1131CE0DBB202210B43DBB29371104B1A680F4B2A
S1131CF01B681B78DBB2802149420B43DBB21370B3
S1131D000A4B1B685A7910218A435A7100F020F952
S1131D10BD4604B080BDC04604FCFF1F68FCFF1F25
S1131D20400000206CFCFF1F0080044000FCFF1FEB
S1131D3080B500AF00F00CF9BD4680BD80B500AFA2
S1131D40024B0A221A70BD4680BDC04605FCFF1F27
S1131D5080B582B000AF021CFB1D1A70084B1B68D3
S1131D60FA1D12781A70074B00221A70044B1A6875
S1131D70054B1A60054B06221A70BD4602B080BDA1
S1131D8068FCFF1F5CFCFF1F60FCFF1F05FCFF1FBE
S1131D9098B500AF0F4B1A680E4B1B681B780133C4
S1131DA0D4180C4B1A680C4B1B78101C191C01F02E
S1131DB083FC031C2370094B01221A70084B1A6818
S1131DC0044B1B685B78D371064B07221A70BD461F
S1131DD098BDC04668FCFF1F06FCFF1F5CFCFF1F8C
S1131DE000FCFF1F05FCFF1F80B500AF464B1B78AE
S1131DF0022B18D1454B1B88013B9AB2434B1A80E6
S1131E00424B1B88002B0ED1414B03221A70414BCD
S1131E1005221A70404B05221A703B4B00221A709F
S1131E203E4B00221A70384B1B78012B15D1374BCF
S1131E301B88013B9AB2354B1A80344B1B88002B0C
S1131E400BD1334B03221A70354B04221A702E4BDC
S1131E5000221A70314B00221A70324B1B78092B66
S1131E6050D89A00304BD3181B689F462F4B1B88C1
S1131E70002B13D12E4B01221A700820FF2100F0F1
S1131E8023FC2A4B2B4A1A802B4B1B685A790221BC
S1131E908A435A71234B0A221A7033E0234B1B885E
S1131EA0013B9AB2214B1A802CE0244B1B88002B57
S1131EB002D100F04DF825E0204B1B88013B9AB27B
S1131EC01E4B1A801EE01E4B1B88002B13D11D4B8A
S1131ED01B78002B0CD01C4B1B7802221343DAB264
S1131EE0194B1A70194B1B780720191C00F0ECFBD6
S1131EF000F02EF805E0124B1B88013B9AB2104B00
S1131F001A80C046BD4680BD34000020A8FFFF1FD4
S1131F1050FCFF1FA6FFFF1FA4FFFF1F98FCFF1F1D
S1131F201300002005FCFF1FA8B7000072FCFF1F70
S1131F302C0000201027000000FCFF1F6EFCFF1F78
S1131F4070FCFF1F5CFCFF1F58FCFF1F64FCFF1F9D
S1131F5080B500AF0A4B1B7804229343DAB2084BD6
S1131F601A70084B084A1A80084B00221A70084B52
S1131F701B685A7902210A435A71BD4680BDC04686
S1131F8058FCFF1F72FCFF1F1027000005FCFF1FF9
S1131F9000FCFF1F80B582B000AFD84B1A68FB1D50
S1131FA012791A70D54B1A68BB1D52791A70BB1D71
S1131FB01A78402313402ED0BB1D1B785BB2002B34
S1131FC029DBCE4B1B685A7940210A435A71CB4B0B
S1131FD01A68CA4B1B681B78DBB240218B43DBB207
S1131FE01370C74B1B780A2B04D1FFF7B1FFC54B05
S1131FF000221A70C14B1A68C04B1B681B78DBB2F5
S1132000802149420B43DBB21370BC4B1B685A79E5
S113201010218A435A71FB1D1A780223134029D0D8
S1132020B64B1A68B54B1B681B79DBB202210B4314
S1132030DBB21371B14B1A687B1DD2791A70B24BA3
S11320401B780A221343DAB2AF4B1A70AC4B1B78DD
S1132050062B07D0AA4B1B78072B03D0A84B1B7861
S1132060082B05D1A94B1B780420191C00F02CFB6C
S1132070FFF76EFFBB1D1B785BB2002B3CDA9F4B56
S11320801B685A79802149420A435A719B4B1A684A
S11320909A4B1B681B78DBB240210B43DBB21370F5
S11320A0964B1A68954B1B681B78D9B27F230B405B
S11320B0DBB21370924B1B780A2B02D1FFF748FF57
S11320C0D8E1914B04221A70914BDA89914B1A8012
S11320D08A4B1A68894B1B681B78DBB240210B437F
S11320E0DBB21370864B03221A70844B1B685A7937
S11320F002218A435A71BDE1804B1A68FB1D127993
S11321001A707E4B1A687B1DD2791A70FB1D1A78DF
S11321102023134000D1ADE1794B1B78033B072BFF
S113212000D9A4E19A007C4BD3181B689F467B1D01
S11321301B78552B07D1724B04221A7006F0D4FF7A
S113214003F0E8FA96E1714B1B780620191C00F0A5
S1132150BBFAFFF7FDFE8DE17B1D1B78181C0121E6
S113216001F032FA031C1A1C684B1A706B4B7A1D6F
S113217012781A70654B1B783C2B03D0634B1B7889
S11321803D2B0FD1664B00221A80664B01221A7038
S1132190654B00221A70654B5A7807218A43022145
S11321A00A435A70594B1B78FF2B0FD0574B1B789F
S11321B00020191C00F088FA5D4B1B681B785A1E1E
S11321C0534B5200D25A5B4B1A8053E14E4B1B784F
S11321D040221343DAB24C4B1A700320FF2100F063
S11321E073FAFFF7B5FE45E1534B1B685A1C524B7B
S11321F01A60514B1B687A1D12781A704C4B1B687D
S11322001A784E4B1B789A4200D0AAE0484B1A68C1
S1132210424B1B78101C191C01F04EFA031C7A1D4A
S113222012789A4200D08DE003F082FA374B1B7883
S1132230152B01D106F074FB334B1B780122134399
S1132240DAB2314B1A702D4B1A682C4B1B68DB78B1
S1132250DBB224218B43DBB2D370294B09221A70E1
S11322602A4B1B780220191C00F02EFA234B1A6803
S1132270224B1B68DB78DBB224210B43DBB2D37027
S11322801F4B1B780A2B01D0FFF762FE1F4B1B78F4
S11322903C2B66D1264B1B6801331B78002B60D185
S11322A0234B1B6802331B78FF2B5AD1204B1B682E
S11322B003331B78FF2B54D11D4B1B6804331B784D
S11322C0FF2B4ED11A4B1B6805331B78FF2B48D1CB
S11322D0174B1B6805331B78FF2B42D1144B1B682B
S11322E007331B78FF2B3CD1114B1B6807331B783A
S11322F0FF2B36D1124B01221A7032E000FCFF1F73
S113230005FCFF1F2C00002058FCFF1F64FCFF1F6E
S1132310A0BB00006EFCFF1FD0B7000006FCFF1F2F
S1132320C4FCFF1FC3FCFF1FA1FDFF1F3CFEFF1FDA
S113233068FCFF1F70FCFF1F60FCFF1F5CFCFF1F9D
S11323405AFFFF1F4D4B1B7812221343DAB24B4B3B
S11323501A704B4B1B780520191C00F0B5F9FFF7D8
S1132360F7FD484B1B780133DAB2464B1A7081E013
S1132370FB1D1A784023134008D1414B1B780620DB
S1132380191C00F0A1F9FFF7E3FD73E03E4B1A6856
S11323903C4B1B78D3181B787A1D12789A4208D0CC
S11323A0374B1B780620191C00F08EF9FFF7D0FD7F
S11323B060E0354B1B681A78324B1B789A420FD376
S11323C0304B1B780133DAB22E4B1A702F4B1A683C
S11323D02D4B19682B4B1B78CB181B78D37149E014
S11323E02B4B00221A70254B1B7801221343DAB2BF
S11323F0224B1A70254B1A68244B1B68DB78DBB21E
S113240024218B43DBB2D370224B09221A701C4B5C
S11324101B780120191C00F057F91C4B1A681B4B40
S11324201B68DB78DBB224210B43DBB2D370FFF7EC
S11324308FFD1FE07B1D1B78F02B0FD07B1D1B78BD
S1132440E02B0BD07B1D1B78C02B07D07B1D1B788A
S1132450802B03D07B1D1B78002B0AD1FFF778FD5E
S11324600A4B1B685A7902210A435A7101E0C0469B
S113247000E0C046BD4602B080BDC04658FCFF1F08
S113248064FCFF1F5CFCFF1F68FCFF1F00FCFF1FB8
S1132490D2FDFF1F05FCFF1F80B500AF1A4B1A4A7F
S11324A0D26840210A43DA60184B184A126807219F
S11324B00A431A60154B154AD26840210A43DA6070
S11324C0124B124AD26810210A43DA600F4B4E2293
S11324D01A610E4B0D4A126808210A431A600C4A0D
S11324E00B49C0235B00CB588021C9021943C02388
S11324F05B00D150064B064A12688021C9020A4388
S11325001A60BD4680BDC046008004400090034070
S113251000E100E080B500AFFFF766FCBD4680BD7A
S113252080B500AFFFF736FDBD4680BD000000005A
S1132530B0B500AF164BDA6880231340DB09012BDA
S11325401FD1134BDB68124B114AD26880214A40D9
S1132550DA600F4D0E4B1B69181CFFF77DF9031C45
S11325600C1C181C211C094B074AFEF719FA031C02
S11325700C1C181C211CFEF7F3F9031C2B61FFF73C
S1132580C9FFBD46B0BDC0460000000000885340EE
S113259000900340C046C04680B582B000AF021C24
S11325A0FB1D1A70164B1B781A1C164B1B785B000C
S11325B09BB213439AB2124B1978124B1B780B43FC
S11325C0DBB29B009BB213439AB20F4B1B78DB0028
S11325D09BB213439AB20D4B1B789B019BB21343DE
S11325E09AB2FB1D1B781B029BB213439BB29BB296
S11325F0B02293439AB2064B1A80BD4602B080BD06
S11326003C000020150000202C00002086FCFF1F49
S11326103000002090B583B000AF021CFB1D1A707F
S1132620FB1D1A781549131C5B009B189B005B5C0F
S1132630012B1FD0124B1B78114A127811498A5C66
S1132640D2B2114909780120041C8C40211CC9B262
S1132650C943C9B20A40D1B20C4A1278101C0A4AC2
S11326601278041C9440221CD2B20A43D2B2D1B2D2
S1132670044AD154BD4603B090BDC04658BB0000C7
S113268055BB000008FCFF1F56BB00003C000020A7
S113269080B582B000AF021CFB1D1A70FB1D1B78B5
S11326A0181C002100F000FBFB1D1B78181C0021E6
S11326B000F08AFF031C1A1C024B5A70BD4602B07C
S11326C080BDC0464000002080B582B000AF0A1C27
S11326D0FB1D011C1970BB1D1A70FB1D1B78002B00
S11326E005D1BB1D1B78181C00F02AF825E0FB1D42
S11326F01B78012B05D1BB1D1B78181C00F042F977
S11327001BE0FB1D1B78022B05D1BB1D1B78181C7D
S113271000F0C4F811E0FB1D1B78082B05D1BB1D8C
S11327201B78181C00F0F8F907E0FB1D1A78BB1D94
S11327301B78101C191C00F08DF9BD4602B080BD39
S113274080B584B000AF021CFB1D1A704C4B0022F4
S11327501A70FB1D1B78181C00F078FA031C1A1C55
S1132760484B1A70474B1B78FF2B04D13B1C0F338B
S113277000221A7069E03B1C0F3301221A70414B8E
S11327801B781A1C131C5B009B189B003E4A9B1869
S1132790BB60BB681B78012B26D1BB689B681B7888
S11327A03A4AD35C002B1AD0BB689B681B785A1C2E
S11327B0FB1D37498A5C1A70FB1D1B78181C00F03E
S11327C045FA031C1A1C2F4B1A70FB1D1B78181C8E
S11327D0FFF75EFF3B1C0F3302221A7035E03B1CEF
S11327E00F3300221A7030E0BB689B78012B2CD188
S11327F0BB681B78002B0AD1FB1D1B78181C002119
S113280000F052FA3B1C0F3302221A701DE0214BD8
S11328101B78002B04D13B1C0F3300221A7014E0E8
S11328201D4B1B78032B0CD000F00AFA194B1B78B4
S1132830013BDAB2174B1A703B1C0F3302221A7099
S113284003E03B1C0F3300221A703B1C0F331B7830
S1132850012B02D0022B06D00BE0BB685B78181C5E
S113286000F0A2FE08E0BB685B78181C00F076FE5E
S113287002E000F063FEC046BD4604B080BDC04621
S11328802C000020C1FCFF1F58BB000090FCFF1F60
S113289024FCFF1FA4FCFF1F50FCFF1F80B584B065
S11328A000AF021CFB1D1A70324B1B781A1C391C1A
S11328B00F313148131C5B009B189B00C3181B7914
S11328C00B702C4B1B781A1C391C0D312A48131C15
S11328D05B009B189B00C3185B790B70274B01228C
S11328E01A70244B1B781A1C2349131C5B009B1879
S11328F09B005B5C002B06D1FB1D1B78181C01217F
S113290000F0D2F90CE01B4B1B781A1C1A49131C5B
S11329105B009B189B005B5C112B01D100F07CF9E0
S11329203B1C0E3300221A7013E03B1C0F331B7840
S1132930134AFF21D1543B1C0F333A1C0F32127837
S113294001321A703B1C0E333A1C0E3212780132DB
S11329501A703A1C0E323B1C0D3312781B789A42C3
S1132960E3D3FB1D1B78181CFFF716FEBD4604B00D
S113297080BDC046C1FCFF1F58BB000015000020ED
S113298088FCFF1F80B582B000AF021CFB1D1A70CB
S1132990264B01221A70264B1B78012B05D1254B9F
S11329A000221A70224B00221A70FB1D1B78181C7F
S11329B000F04CF9031C1A1C1F4B1A701E4B1B7899
S11329C0181C00F0B9F81C4B1B78181CFFF722FEEA
S11329D0FB1D1B78181CFFF7DFFDFB1D1B783D2B2F
S11329E020D1164B1B88013B9AB2144B1A80134B0F
S11329F01B88002B0CD1124B00221A70114B02229F
S1132A001A70114B02221A70104B00221A7009E03E
S1132A100F4BFA22D2001A80094B01221A700B4B79
S1132A2002221A70BD4602B080BDC04615000020C7
S1132A30C0FCFF1F3C000020C1FCFF1F1000002051
S1132A40340000201300002050FCFF1F98FCFF1FDF
S1132A50A8FFFF1F80B582B000AF0A1CFB1D011C3C
S1132A601970BB1D1A70BB1D1B78181C00F0EEF802
S1132A70031C1A1C1E4B1A70FB1D1B78033B042BF2
S1132A8027D81C4B01221A70BB1D1B783C2B0FD17D
S1132A90194B03221A70194B03221A70184B022285
S1132AA01A71184B00221A70174B00221A700CE08E
S1132AB0BB1D1B783D2B08D1144B03221A70144BF9
S1132AC006221A71104B00221A70124B03221A703C
S1132AD000E0C046064B1B78181CFFF79BFDBB1D8E
S1132AE01B78181CFFF758FDBD4602B080BDC046D8
S1132AF0C1FCFF1F3C000020A6FFFF1FA4FFFF1F17
S1132B0040FCFF1FA4FCFF1F98FCFF1F13000020C4
S1132B1030FCFF1F50FCFF1F80B582B000AF021CC9
S1132B20FB1D1A70FB1D1B78181CFFF735FD00F008
S1132B300DFDBD4602B080BD80B584B000AF021C5F
S1132B40FB1D1A70FB1D1A78391C0F312F48131CFA
S1132B505B009B189B00C3181B790B70FB1D1A7834
S1132B60391C0D312948131C5B009B189B00C318AA
S1132B705B790B70FB1D1A782449131C5B009B18AE
S1132B809B005B5C012B0DD1FB1D1A781F49131CA4
S1132B905B009B189B00CB1808331B681B781C4AEE
S1132BA00021D154FB1D1A781849131C5B009B1893
S1132BB09B005B5C112B25D03B1C0E3300221A704A
S1132BC013E03B1C0F331B78124AFF21D1543B1CEA
S1132BD00F333A1C0F32127801321A703B1C0E3339
S1132BE03A1C0E32127801321A703A1C0E323B1C17
S1132BF00D3312781B789A42E3D3FB1D1B78044AE9
S1132C000021D154BD4604B080BDC04658BB00006D
S1132C1090FCFF1F88FCFF1F80B500AF064B5B785C
S1132C20002B05D1054B01221A7000F08FFC01E046
S1132C3001F0AAFFBD4680BD400000202C0000200A
S1132C4080B500AF01F042FEBD4680BD80B584B0C2
S1132C5000AF021CFB1D1A703B1C0F3306221A70B6
S1132C6015E03B1C0F331B780E4AD35CFA1D127817
S1132C709A4205D13B1C0F331B78013BDBB20CE0BD
S1132C803B1C0F333A1C0F321278013A1A703B1C6A
S1132C900F331B78002BE4D1FF23181CBD4604B06E
S1132CA080BDC04624FCFF1F80B584B000AF0A1C61
S1132CB0FB1D011C1970BB1D1A70414B1B781A1C9B
S1132CC04049131C5B009B189B00CB185A783E4B61
S1132CD01A703B4B1B781A1C391C0F313948131CD2
S1132CE05B009B189B00C318DB780B70BB1D1B7823
S1132CF0002B3DD1324B1B781A1C3249131C5B004C
S1132D009B189B00CB1808331B68BB60BB68002B67
S1132D1008D0BB681A782D4B1B789A4202D12C4BF1
S1132D2001221A703B1C0E3301221A7017E03B1C5F
S1132D300E331B783A1C0F3212782649895C224ADA
S1132D40D1543B1C0E333A1C0E32127801321A70E5
S1132D503B1C0F333A1C0F32127801321A703B1CA1
S1132D600E331A78184B1B7801339A42DFDB24E0C8
S1132D703B1C0E3301221A7017E03B1C0F331B78E7
S1132D803A1C0E3212781049895C124AD1543B1C09
S1132D900E333A1C0E32127801321A703B1C0F3378
S1132DA03A1C0F32127801321A703B1C0E331A7817
S1132DB0054B1B7801339A42DFDBBD4604B080BD6E
S1132DC0C1FCFF1F58BB000040000020BCBB00003A
S1132DD0C0FCFF1F08FCFF1F80B500AF00F0BAFC69
S1132DE00023181CBD4680BD80B582B000AF021C14
S1132DF0FB1D1A7000F098FB031C181CBD4602B0A2
S1132E0080BDC04680B500AF0F4B1B78012B14D199
S1132E100E4B1A880E4B9A4209D90E4B01221A7096
S1132E20094B00221A70094B00221A8005E0074B57
S1132E301B8801339AB2054B1A80064B1A78064B4D
S1132E401A70BD4680BDC046C3FCFF1FC4FCFF1FF3
S1132E50F3010000C2FCFF1FC6FCFF1F80B586B053
S1132E6000AF3A1C10323B1D0233101C191C02F037
S1132E70D5FA3B1D7B613B1C13337A69D2781A70F7
S1132E803B1C10331B88022B37D13B1C13331B789C
S1132E90022B0CD0032B20D0012B28D11020012190
S1132EA0012200F071FC194B01221A702AE0184B20
S1132EB01B78012B08D1102000217F2200F064FC34
S1132EC0124B01221A701DE010200121022200F091
S1132ED05BFC0E4B02221A7014E010200121032225
S1132EE000F052FC094B03221A70C0460AE010207D
S1132EF00021122200F048FC04E0102000211322DB
S1132F0000F042FC181CBD4606B080BDC2FCFF1F89
S1132F10C6FCFF1F80B586B000AF3A1C0E323B1DC5
S1132F200233101C191C02F079FA3B1D7B617B698A
S1132F30DA783B1C12331A803B1C12331B881B02A9
S1132F409AB27B691B7913439AB23B1C10331A80E3
S1132F503B1C0E331B88022B00D89CE03B1C103317
S1132F601B88514A934242D04F4A93421ADC4F4A3B
S1132F70934200D17AE04D4A934208DC4C4A934292
S1132F8000D165E04B4A934200D168E07DE04A4AB3
S1132F9093421ED0494A934222D0494A934200D1D7
S1132FA06BE072E0474A93423DD0464A934206DCC6
S1132FB0454A934229D0454A93422DD065E0444A7C
S1132FC0934237D0434A93423BD0434A934215D06D
S1132FD05BE0394B222001211A1C00F0D5FB5FE095
S1132FE0364B222001211A1C00F0CEFB58E02E4B58
S1132FF0222001211A1C00F0C7FB51E0364B22208D
S113300001211A1C00F0C0FB4AE02F4B22200121B1
S11330101A1C00F0B9FB43E02C4B222001211A1C9E
S113302000F0B2FB3CE0274B222001211A1C00F0E7
S1133030ABFB35E0264B222001211A1C00F0A4FB37
S11330402EE0244B222001211A1C00F09DFB27E0D6
S1133050174B222001211A1C00F096FB20E0154B8F
S1133060222001211A1C00F08FFB19E00F4B2220B3
S113307001211A1C00F088FB12E0114B22200121CF
S11330801A1C00F081FBC0460AE0222000213122F4
S113309000F07AFB04E022200021132200F074FBEC
S11330A0BD4606B080BDC04688F100000A1300008A
S11330B001130000021300000AF1000087F1000070
S11330C00B1300008CF100008AF100008BF100006A
S11330D093F1000095F1000091F1000080B586B0F5
S11330E000AF3A1C0E323B1D0233101C191C02F0B7
S11330F095F93B1D7B617B69DA783B1C12331A809E
S11331003B1C12331B881B029AB27B691B79134345
S11331109AB23B1C10331A803B1C0E331B88022BC3
S113312000D8BFE03B1C10331B88624A934200D195
S11331307BE0604A934206DC5F4A934227D05F4AB1
S113314093424BD0A8E05E4A934200D188E05D4AA6
S1133150934200D0A0E03B1C0E331B88062B05D005
S11331602E200021132200F00FFBA0E07B69053321
S113317080225205101C191C0322012307F098FC1D
S1133180504B2E2001211A1C00F0FEFA8FE03B1C4C
S11331900E331B88042B05D02E200021132200F0AF
S11331A0F3FA84E07B690533474A101C191C012299
S11331B0012307F07DFC7B695B79FF2B03D1434B33
S11331C064221A7003E07B695A79404B1A703A4BB7
S11331D02E2001211A1C00F0D7FA68E03B1C0E33A4
S11331E01B88042B05D02E200021132200F0CCFADA
S11331F05DE07B690533364A101C191C012201234A
S113320007F056FC7B695B79FF2B03D1314B6422B9
S11332101A7003E07B695A792E4B1A70274B2E20C3
S113322001211A1C00F0B0FA41E03B1C0E331B884C
S1133230052B05D02E200021132200F0A5FA36E03C
S11332407B690533244A101C191C0222012307F050
S11332502FFC184B2E2001211A1C00F095FA26E0B1
S11332603B1C0E331B88052B05D02E200021132276
S113327000F08AFA1BE07B690533184A101C191CFC
S11332800222012307F014FC0D4B2E2001211A1CED
S113329000F07AFAC0460AE02E200021312200F024
S11332A073FA04E02E200021132200F06DFABD46CB
S11332B006B080BD0A1300000113000002130000D1
S11332C00B1300008CF100001000001054FDFF1FD0
S11332D01200001044FEFF1F180000101C00001014
S11332E090B587B000AF3B1C163307221A703A1C06
S11332F00C323B1C0233101C191C02F08FF83B1CCF
S11333003B613B1C0F333A69D2781A703B1C16336D
S113331007221A703B1C0F331B780433DAB23B1CB0
S113332017331A7021E03B1C16331B785BB23A69E1
S1133330D35CFF2B0BD03B1C17331B785BB2042BE5
S113334005DDB7200021102200F01EFA63E03B1CCB
S113335016333A1C16321278013A1A703B1C173392
S11333603A1C17321278013A1A703B1C17330022A8
S11333709A563B1C0F331B789A42D4DC3B1C163301
S113338004221A703B1C0F331B780133DAB23B1C46
S113339017331A7034E03B1C16331B785BB23A695E
S11333A0D35C002B02D0FF2B1BD007E03B1C173350
S11333B01B785BB2194AFF21D15413E03B1C17332D
S11333C000241C573B1C16331B785BB23A69D35C50
S11333D0181C012100F0F8F8031C1A1C0F4B1A5595
S11333E000E0C0463B1C16333A1C163212780132F8
S11333F01A703B1C17333A1C1732127801321A70B8
S11334003B1C16331B785BB2072BC4DDB7200121AC
S1133410002200F0B9F9BD4607B090BD24FCFF1F9F
S113342080B586B000AF3A1C10323B1D0233101C2D
S1133430191C01F0F3FF3B1D7B613B1C13337A69BC
S1133440D2781A703B1C13331B78002B05D1B220A1
S11334500121002200F098F905E0B2200021122297
S113346000F092F9C046BD4606B080BD80B582B07A
S113347000AF244BDA68234B1B88DB00D218FB1DFA
S1133480D2781A701F4BDA681E4B1B88DB00D218E7
S1133490BB1D12791A701B4BDA681A4B1B88DB00B0
S11334A0D2187B1D52791A70164BDA68154B1B889B
S11334B0DB00D2183B1D92791A70FB1D1B78002B80
S11334C01CD1BA1D3B1D12781B785340DAB2BB1DC8
S11334D0791D09780A401A70BB1D1B78002B08D18E
S11334E0084BDA68074B1B88DB00D318DA79064BE4
S11334F01A70B3200121002200F046F9BD4602B043
S113350080BDC04640FCFF1F2CFCFF1F80B584B06B
S113351000AF3A1C0E323B1D101C191C01F07EFF3B
S1133520BD4604B080BDC04680B500AF0020FEF7A4
S113353091FB0023181CBD4680BDC04680B500AF7A
S1133540FEF7F6FBC046BD4680BDC04680B500AF61
S1133550FEF7F4FBC046BD4680BDC04680B584B0CE
S113356000AF021CFB1D1A703B1C0F3300221A70A3
S1133570FB1D1B78082B04D93B1C0F3305221A7042
S113358009E0084BFA1D12781A70FEF701FC3B1C87
S11335900F3300221A703B1C0F331B78181CBD46D6
S11335A004B080BD4000002080B582B000AF021C92
S11335B0FB1D1A70FB1D1B78181CFEF7C9FB0023AA
S11335C0181CBD4602B080BD80B584B000AF0A1C93
S11335D0FB1D011C1970BB1D1A70FB1D1A780123F9
S11335E01A40FB1D1B785B08DBB2191C01230B403E
S11335F05A40FB1D1B789B08DBB2191C01230B40AE
S11336005A40FB1D1B781B09DBB2191C01230B401C
S113361053409B01DAB2FB1D1B785B08DBB2191C1B
S113362001231940FB1D1B78DB08DBB2181C0123A6
S113363003405940FB1D1B781B09DBB2181C0123F6
S113364003405940FB1D1B785B09DBB2181C0123A6
S113365003404B40DB43DB01DBB21343DAB23B1CD8
S11336600E331A70BB1D1B78012B15D1FB1D1A7864
S1133670C0231A403B1C0E331B789A4204D03B1CD7
S11336800F33FF221A7010E03B1C0F33FA1D117820
S11336903F220A401A7008E03B1C0F33F91D3A1C04
S11336A00E32097812780A431A703B1C0F331B78C8
S11336B0181CBD4604B080BD80B584B000AF7860EE
S11336C00A1CFB1C1A70FB1C1B783C2B09D0FB1C2E
S11336D01B787D2B05D03B1C0C33FA1C12781A8006
S11336E003E03B1C0C3300221A803B1C0F337A6826
S11336F012781A701FE07B6801337B607B681B784B
S1133700191C3B1C0C333A1C0C3212888A181A8080
S11337103B1C0C331B88FF2B06D93B1C0C333A1C77
S11337200C321288FF3A1A803B1C0F333A1C0F32BA
S11337301278013A1A703B1C0F331B78002BDAD134
S11337403B1C0C331B88DBB2DB43DBB2181CBD46CD
S113375004B080BD80B500AFFEF79EFEBD4680BDBF
S113376080B582B000AF021CFB1D1A70FB1D1B78D4
S1133770072B04D8FB1D1B78024A0021D154BD46F7
S113378002B080BD9CFCFF1F80B596B000AFFB1D4E
S11337901870BB1D19703B1D1A80DC4B1A783B1C3A
S11337A04C331A703B1C4C3303225A703B1C4C3371
S11337B07F229A703B1C4C33FA1D1278DA703B1D41
S11337C01B88DAB23B1C4C331A713B1C4C33FF226E
S11337D05A713B1C4C33FF229A713B1C4C33FF2221
S11337E0DA71FB1D1B78B02B01D100F02AFF0ADC33
S11337F0222B00D177E02E2B01D100F02CFC102BD2
S113380016D001F020F8B32B01D100F0A3FF05DCA2
S1133810B22B01D100F083FD01F015F8B62B01D1D4
S113382000F093FEB72B01D100F013FE01F00BF86A
S1133830BB1D1B78012B25D13B1C4C3302225A7033
S1133840FB1D1B784033DAB23B1C4C339A703B1D92
S11338501B88DAB23B1C4C33DA703B1C4C3301221C
S11338601A713B1C4C33F4225A713B1C4C33092211
S11338709A713B1C4C33C422DA713B1C563306222A
S11338801A7003E03B1C563303221A703B1C573357
S113389000221A7013E03B1C57331B783A1C573232
S11338A012780232391C4C31895C3A1C0C32D154E6
S11338B03B1C57333A1C5732127801321A703B1CA6
S11338C057331B78052BE6D93B1C56331B789AB229
S11338D03B1C0C33101C191C01F0C8FB0420FFF71F
S11338E03FFF00F0EFFFBB1D1B78012B00D06FE3FF
S11338F03B1D1A88864B9A4230D13B1C563310220A
S11339001A70FB1D1B784033DAB23B1C0C331A705F
S11339103B1C0C33F1225A703B1C0C330A229A7064
S11339203B1C573300221A7012E03B1C57331B78A0
S113393003333A1C573212787649895C3A1C0C32AC
S1133940D1543B1C57333A1C5732127801321A7047
S11339503B1C57331B780C2BE7D96DE33B1D1A88AE
S11339606D4B9A4230D13B1C563310221A70FB1D0A
S11339701B784033DAB23B1C0C331A703B1C0C33FB
S1133980F1225A703B1C0C3387229A703B1C57332C
S113399000221A7012E03B1C57331B7803333A1C85
S11339A0573212785B49895C3A1C0C32D1543B1C67
S11339B057333A1C5732127801321A703B1C573372
S11339C01B780C2BE7D937E33B1D1A88534B9A42DB
S11339D030D13B1C56330B221A70FB1D1B7840332D
S11339E0DAB23B1C0C331A703B1C0C33F1225A70B4
S11339F03B1C0C3388229A703B1C573300221A70EC
S1133A0012E03B1C57331B7803333A1C57321278AD
S1133A104349895C3A1C0C32D1543B1C57333A1C41
S1133A205732127801321A703B1C57331B78072B1C
S1133A30E7D901E33B1D1A883A4B9A4230D13B1C2B
S1133A40563308221A70FB1D1B784033DAB23B1C34
S1133A500C331A703B1C0C33F1225A703B1C0C3390
S1133A6091229A703B1C573300221A7012E03B1CBF
S1133A7057331B7803333A1C573212782A49895C2E
S1133A803A1C0C32D1543B1C57333A1C573212782F
S1133A9001321A703B1C57331B78042BE7D9CBE255
S1133AA03B1D1A88214B9A4244D13B1C56330622B3
S1133AB01A70FB1D1B784033DAB23B1C0C331A70AE
S1133AC03B1C0C33F1225A703B1C0C338A229A7033
S1133AD03B1C573300221A7012E03B1C57331B78EF
S1133AE003333A1C573212781149895C3A1C0C3260
S1133AF0D1543B1C57333A1C5732127801321A7096
S1133B003B1C57331B78022BE7D995E22CFCFF1F93
S1133B100AF1000038BA000087F1000088F10000C3
S1133B2048BA000091F1000050BA00008AF1000088
S1133B3058BA00003B1D1A88DE4B9A4230D13B1C18
S1133B40563306221A70FB1D1B784033DAB23B1C35
S1133B500C331A703B1C0C33F1225A703B1C0C338F
S1133B608B229A703B1C573300221A7012E03B1CC4
S1133B7057331B7803333A1C57321278CE49895C89
S1133B803A1C0C32D1543B1C57333A1C573212782E
S1133B9001321A703B1C57331B78022BE7D94BE2D6
S1133BA03B1D1A88C54B9A4230D13B1C56330C221C
S1133BB01A70FB1D1B784033DAB23B1C0C331A70AD
S1133BC03B1C0C33F1225A703B1C0C338C229A7030
S1133BD03B1C573300221A7012E03B1C57331B78EE
S1133BE003333A1C57321278B549895C3A1C0C32BB
S1133BF0D1543B1C57333A1C5732127801321A7095
S1133C003B1C57331B78082BE7D915E23B1D1A8858
S1133C10AC4B9A4230D13B1C56330C221A70FB1D1C
S1133C201B784033DAB23B1C0C331A703B1C0C3348
S1133C30F1225A703B1C0C3393229A703B1C57336D
S1133C4000221A7012E03B1C57331B7803333A1CD2
S1133C50573212789C49895C3A1C0C32D1543B1C73
S1133C6057333A1C5732127801321A703B1C5733BF
S1133C701B78082BE7D9DFE13B1D1A88934B9A4246
S1133C8030D13B1C56330C221A70FB1D1B78403379
S1133C90DAB23B1C0C331A703B1C0C33F1225A7001
S1133CA03B1C0C3395229A703B1C573300221A702C
S1133CB012E03B1C57331B7803333A1C57321278FB
S1133CC08349895C3A1C0C32D1543B1C57333A1C4F
S1133CD05732127801321A703B1C57331B78082B69
S1133CE0E7D9A9E13B1D1A887A4B9A4256D17A4A00
S1133CF03B1C2C33101C191C0122012307F060F813
S1133D003B1C2C331B78FF2B03D1744B64221A7099
S1133D1004E03B1C2C331A78704B1A70704B1A78E1
S1133D203B1C4C331A703B1C4C3304225A70FB1D51
S1133D301B784033DAB23B1C4C339A703B1C4C3337
S1133D401322DA703B1C4C3301221A71634B1A782C
S1133D503B1C4C335A713B1C573300221A7013E03E
S1133D603B1C57331B783A1C573212780232391CE9
S1133D704C31895C3A1C0C32D1543B1C57333A1CED
S1133D805732127801321A703B1C57331B78032BBD
S1133D90E6D93B1C563304221A704DE13B1D1A88A8
S1133DA0504B9A4256D1504A3B1C2C33101C191CC0
S1133DB00122012307F004F83B1C2C331B78FF2B52
S1133DC003D14A4B64221A7004E03B1C2C331A784A
S1133DD0464B1A70424B1A783B1C4C331A703B1CEE
S1133DE04C3304225A70FB1D1B784033DAB23B1C5F
S1133DF04C339A703B1C4C331322DA703B1C4C330B
S1133E0002221A71394B1A783B1C4C335A713B1CF1
S1133E10573300221A7013E03B1C57331B783A1CAB
S1133E20573212780232391C4C31895C3A1C0C32FC
S1133E30D1543B1C57333A1C5732127801321A7052
S1133E403B1C57331B78032BE6D93B1C5633042207
S1133E501A70F1E03B1D1A88254B9A426AD1204B17
S1133E601A783B1C4C331A703B1C4C3305225A7095
S1133E70FB1D1B784033DAB23B1C4C339A703B1C5D
S1133E804C331322DA703B1C4C330A221A71194B3F
S1133E909B69DAB23B1C4C335A71164B9B691B0A63
S1133EA0DAB23B1C4C339A713B1C573300221A7014
S1133EB036E0C0468BF100005CBA00008CF10000D3
S1133EC060BA000093F1000078BA000095F1000098
S1133ED06CBA0000011300001000001054FDFF1F15
S1133EE02CFCFF1F021300001200001044FEFF1FF1
S1133EF00A130000FCFCFF1F3B1C57331B783A1CC1
S1133F00573212780232391C4C31895C3A1C0C321B
S1133F10D1543B1C57333A1C5732127801321A7071
S1133F203B1C57331B78042BE6D93B1C5633052224
S1133F301A7081E03B1D1A88DC4B9A4200D07BE06A
S1133F40DB4B1A783B1C4C331A703B1C4C33052258
S1133F505A70FB1D1B784033DAB23B1C4C339A7009
S1133F603B1C4C331322DA703B1C4C330B221A716A
S1133F70D04BDB69DAB23B1C4C335A71CD4BDB6955
S1133F801B0ADAB23B1C4C339A713B1C5733002298
S1133F901A7013E03B1C57331B783A1C57321278C3
S1133FA00232391C4C31895C3A1C0C32D1543B1C12
S1133FB057333A1C5732127801321A703B1C57336C
S1133FC01B78042BE6D93B1C563305221A7033E0C8
S1133FD03B1D1B88DAB23B1C4C331A713B1C4C331F
S1133FE0FF225A713B1C4C33FF229A713B1C4C3309
S1133FF0FF22DA713B1C573300221A7013E03B1C7A
S113400057331B783A1C573212780232391C4C3120
S1134010895C3A1C0C32D1543B1C57333A1C57323E
S1134020127801321A703B1C57331B78022BE6D9E5
S11340303B1C563303221A703B1C56331B789AB22E
S11340403B1C0C33101C191C01F010F80320FFF763
S113405087FB00F037FCBB1D1B78012B00D00EE161
S1134060FB1D1B784033DAB23B1C4C339A703B1C6B
S11340704C33FF225A713B1D1A888F4B9A422ED122
S11340803B1C4C3303225A703B1C4C33F122DA7034
S11340903B1C4C338C221A713B1C573300221A7080
S11340A013E03B1C57331B783A1C57321278023208
S11340B0391C4C31895C3A1C0C32D1543B1C5733AB
S11340C03A1C5732127801321A703B1C57331B7852
S11340D0022BE6D93B1C563303221A7011E13B1D17
S11340E01A88764B9A422ED13B1C4C3303225A70C9
S11340F03B1C4C331322DA703B1C4C3301221A71E3
S11341003B1C573300221A7013E03B1C57331B78B7
S11341103A1C573212780232391C4C31895C3A1CF1
S11341200C32D1543B1C57333A1C573212780132AB
S11341301A703B1C57331B78022BE6D93B1C5633B1
S113414003221A70DDE03B1D1A885D4B9A422ED182
S11341503B1C4C3303225A703B1C4C331322DA7041
S11341603B1C4C3302221A713B1C573300221A7039
S113417013E03B1C57331B783A1C57321278023237
S1134180391C4C31895C3A1C0C32D1543B1C5733DA
S11341903A1C5732127801321A703B1C57331B7881
S11341A0022BE6D93B1C563303221A70A9E03B1DAF
S11341B01A88444B9A422ED13B1C4C3303225A702A
S11341C03B1C4C331322DA703B1C4C330A221A7109
S11341D03B1C573300221A7013E03B1C57331B78E7
S11341E03A1C573212780232391C4C31895C3A1C21
S11341F00C32D1543B1C57333A1C573212780132DB
S11342001A703B1C57331B78022BE6D93B1C5633E0
S113421003221A7075E03B1D1A88244B9A4270D110
S11342203B1C4C3303225A703B1C4C331322DA7070
S11342303B1C4C330B221A713B1C573300221A705F
S113424013E03B1C57331B783A1C57321278023266
S1134250391C4C31895C3A1C0C32D1543B1C573309
S11342603A1C5732127801321A703B1C57331B78B0
S1134270022BE6D93B1C563303221A7041E03B1D46
S11342801B88DAB23B1C4C331A713B1C4C33FF22A3
S11342905A713B1C4C33FF229A713B1C4C33FF2256
S11342A0DA713B1C573300221A7021E00B13000013
S11342B02CFCFF1FFCFCFF1F8CF10000011300000D
S11342C0021300000A1300003B1C57331B783A1CEE
S11342D0573212780232391C4C31895C3A1C0C3248
S11342E0D1543B1C57333A1C5732127801321A709E
S11342F03B1C57331B78022BE6D93B1C5633032255
S11343001A703B1C56331B789AB23B1C0C33101C9E
S1134310191C00F0ABFE0720FFF722FAD2E2BB1D06
S11343201B78012B53D13B1C4C3306225A70FB1DC6
S11343301B784033DAB23B1C4C339A703B1D1B880C
S1134340002B00D077E0DF4B1B88DAB23B1C4C33E8
S1134350DA70DC4B1B881B0A9BB2DAB23B1C4C3371
S11343601A71D84B5B88DAB23B1C4C335A71D54B6B
S11343705B881B0A9BB2DAB23B1C4C339A71D14B5B
S11343801A793B1C4C33DA713B1C573300221A70E8
S113439013E03B1C57331B783A1C57321278023215
S11343A0391C4C31895C3A1C0C32D1543B1C5733B8
S11343B03A1C5732127801321A703B1C57331B785F
S11343C0052BE6D93B1C563306221A7033E03B1DFD
S11343D01B88DAB23B1C4C331A713B1C4C33FF2252
S11343E05A713B1C4C33FF229A713B1C4C33FF2205
S11343F0DA713B1C573300221A7013E03B1C57330D
S11344001B783A1C573212780232391C4C31895CC1
S11344103A1C0C32D1543B1C57333A1C5732127895
S113442001321A703B1C57331B78022BE6D93B1C14
S1134430563303221A703B1C56331B789AB23B1C2A
S11344400C33101C191C00F011FE0020FFF788F932
S113445038E2BB1D1B78012B35D13B1C4C330122A8
S11344605A70FB1D1B784033DAB23B1C4C339A70F4
S11344703B1C4C33FF22DA703B1C4C33FF221A7175
S11344803B1C573300221A7013E03B1C57331B7834
S11344903A1C573212780232391C4C31895C3A1C6E
S11344A00C32D1543B1C57333A1C57321278013228
S11344B01A703B1C57331B78002BE6D03B1C563339
S11344C001221A7033E03B1D1B88DAB23B1C4C33CB
S11344D01A713B1C4C33FF225A713B1C4C33FF2294
S11344E09A713B1C4C33FF22DA713B1C5733002278
S11344F01A7013E03B1C57331B783A1C573212785E
S11345000232391C4C31895C3A1C0C32D1543B1CAC
S113451057333A1C5732127801321A703B1C573306
S11345201B78022BE6D93B1C563303221A703B1C22
S113453056331B789AB23B1C0C33101C191C00F028
S113454095FD0220FFF70CF9BCE1BB1D1B78012B84
S113455035D13B1C4C3301225A70FB1D1B78403370
S1134560DAB23B1C4C339A703B1C4C33FF22DA709A
S11345703B1C4C33FF221A713B1C573300221A7028
S113458013E03B1C57331B783A1C57321278023223
S1134590391C4C31895C3A1C0C32D1543B1C5733C6
S11345A03A1C5732127801321A703B1C57331B786D
S11345B0002BE6D03B1C563301221A7033E03B1D1E
S11345C01B88DAB23B1C4C331A713B1C4C33FF2260
S11345D05A713B1C4C33FF229A713B1C4C33FF2213
S11345E0DA713B1C573300221A7013E03B1C57331B
S11345F01B783A1C573212780232391C4C31895CD0
S11346003A1C0C32D1543B1C57333A1C57321278A3
S113461001321A703B1C57331B78022BE6D93B1C22
S1134620563303221A703B1C56331B789AB23B1C38
S11346300C33101C191C00F019FD0120FFF790F831
S113464040E1214BDA68204B1B88DB00D318DA7970
S11346501E4B1A70BB1D1B78012B39D13B1C4C33EC
S113466001225A703B1C4C33F0229A703B1C4C3391
S1134670FF22DA703B1C4C33FF221A713B1C573368
S113468000221A7013E03B1C57331B783A1C573234
S113469012780232391C4C31895C3A1C0C32D154E8
S11346A03B1C57333A1C5732127801321A703B1CA8
S11346B057331B78002BE6D03B1C563301221A706B
S11346C03AE0C046B4BB000040FCFF1F2CFCFF1FB7
S11346D03B1D1B88DAB23B1C4C331A713B1C4C3318
S11346E0FF225A713B1C4C33FF229A713B1C4C3302
S11346F0FF22DA713B1C573300221A7013E03B1C73
S113470057331B783A1C573212780232391C4C3119
S1134710895C3A1C0C32D1543B1C57333A1C573237
S1134720127801321A703B1C57331B78022BE6D9DE
S11347303B1C563303221A703B1C56331B789AB227
S11347403B1C0C33101C191C00F090FC0620FFF7D6
S113475007F8B7E0BB1D1B78012B32D13B1C4C334F
S113476001225A703B1C4C33F3229A703B1C4C338D
S1134770FF22DA703B1C4C33FF221A713B1C573367
S113478000221A7013E03B1C57331B783A1C573233
S113479012780232391C4C31895C3A1C0C32D154E7
S11347A03B1C57333A1C5732127801321A703B1CA7
S11347B057331B78002BE6D03B1C563301221A706A
S11347C033E03B1D1B88DAB23B1C4C331A713B1C93
S11347D04C33FF225A713B1C4C33FF229A713B1C11
S11347E04C33FF22DA713B1C573300221A7013E05A
S11347F03B1C57331B783A1C573212780232391C4F
S11348004C31895C3A1C0C32D1543B1C57333A1C52
S11348105732127801321A703B1C57331B78022B23
S1134820E6D93B1C563303221A703B1C56331B78C3
S11348309AB23B1C0C33101C191C00F017FC052009
S1134840FEF78EFF3EE03B1D1B88DAB23B1C4C3367
S11348501A713B1C4C33FF225A713B1C4C33FF2210
S11348609A713B1C4C33FF22DA713B1C57330022F4
S11348701A7013E03B1C57331B783A1C57321278DA
S11348800232391C4C31895C3A1C0C32D1543B1C29
S113489057333A1C5732127801321A703B1C573383
S11348A01B78022BE6D93B1C563303221A703B1C9F
S11348B056331B789AB23B1C0C33101C191C00F0A5
S11348C0D5FBC046BD4616B080BDC04680B584B099
S11348D000AF3A1D124B101C191C002200F032FBD1
S11348E03B1C0F3301221A7011E03B1C0F331B7861
S11348F03A1C0F321278013A391D895C094AD154A5
S11349003B1C0F333A1C0F32127801321A703B1CD5
S11349100F331B78082BE8D9BD4604B080BDC046D0
S113492030FCFF1F4000002080B584B000AF7860E9
S11349307B685A783B1C0F3312091A703B1C0F33E7
S11349401B78012B42D0022B00D1ABE0002B00D00E
S1134950FFE07B685B78191C3B1C0C330F220A4078
S11349601A803B1C0C331B88062B2BD87C4B022251
S11349701A707C4B00221A707B4B01221A707B4BFD
S113498000221A80794B00225A80784B0022DA8068
S1134990764B00221A71764A744B101C191C0122A2
S11349A000F06AFA734B01221A70734B01221A70D9
S11349B0724B1B78062B02D0704B02221A7000F047
S11349C091F9C9E06D4B00221A70C5E07B685B78F1
S11349D01A1C0F2313409BB21B0299B27B689B786D
S11349E01A1C3B1C0C338A181A803B1C0C331B8882
S11349F0062B52D93B1C0C331B88232B4DD8604B00
S1134A00FA22D2001A80574B02221A70574B002206
S1134A101A80564B00225A80544B0022DA80534BA2
S1134A2000221A71524A514B101C191C012200F029
S1134A3023FA3B1C0C331B88053B181C0621FBF78F
S1134A4083FF0B1C002B0CD13B1C0C331B88053B38
S1134A50181C0621FBF722FF031CDAB2464B1A701E
S1134A600DE03B1C0C331B88053B181C0621FBF78F
S1134A7015FF031CDBB20133DAB23F4B1A703D4B16
S1134A8001221A70384B00221A703C4B1B78062BFB
S1134A9007D03A4B04221A7003E0384B00221A70F4
S1134AA05AE059E0364BFA22D2001A802D4B0222EA
S1134AB01A707B6859783B1C0B330F220A401A701A
S1134AC02C4B1B783A1C0B3212789A4221D1294B79
S1134AD01B780133DAB2274B1A70264B1B780F2B45
S1134AE002D9244B00221A70234B1B78013BDAB203
S1134AF0214B1A701E4A1D4B101C191C012200F078
S1134B00BBF91E4B1B78062B0CD01C4B04221A70CD
S1134B1008E0134B06221A701A4B06221A70114B26
S1134B2000221A70144B1B78002B14D10C4B022258
S1134B301A700C4B00221A700B4B01221A700F4B87
S1134B401B78062B02D00D4B02221A7000F0CAF813
S1134B5001E0C04600E0C046BD4604B080BDC0468A
S1134B60A6FFFF1F3400002050FCFF1F40FCFF1F66
S1134B7041000020DCFFFF1F1800002098FCFF1FED
S1134B80A8FFFF1FA4FFFF1F80B582B000AFFB1D6D
S1134B90464A52781A70BB1D444AD2781A70434B65
S1134BA09A787B1D12091A70FB1D1B787F2B1BD072
S1134BB0FB1D1B787E2B17D03D4B1B78FA1D1278FA
S1134BC09A4203D0BB1D1B78B02B09D1394B1B78FB
S1134BD0FA1D12789A4207D0BB1D1B78B02B03D163
S1134BE0354B00221A705EE0344B1B78022B03D045
S1134BF0324B1B78042B12D1FB1D1B787E2B0ED15C
S1134C002F4B1B78002B0AD12E4BFA22D2001A808C
S1134C102D4B02221A70FB1D00221A7043E0FB1D6B
S1134C201B787E2B26D0264B00221A70274B00229D
S1134C305A80264B00221A80244B0022DA80234B10
S1134C4005221A71224B00225A80214B00221A801D
S1134C501F4B0022DA801E4B00221A711D4B0222C8
S1134C601A701D4B00221A701C4B02221A70124B30
S1134C7000221A70124B1B78032B03D17B1D1B7867
S1134C80022B0FD0FB1D1B787E2B03D00B4B042271
S1134C901A7002E0094B06221A70114B181CFFF718
S1134CA043FE00E0C046BD4602B080BD4000002087
S1134CB02CFCFF1FB0BB0000A4FCFF1F98FCFF1FCF
S1134CC050FCFF1FA8FFFF1F3400002030FCFF1F13
S1134CD040FCFF1F13000020A6FFFF1FA4FFFF1FBF
S1134CE04100002080B582B000AF7B1D00221A7005
S1134CF0584BDA68574B1B88DB00D3185A783B1D96
S1134D0012091A70534BDA68524B1B88DB00D21815
S1134D10FB1C12781A70FB1C1B787E2B0ED1FEF73D
S1134D20F5FB4D4B00221A704C4B02221A704C4B6F
S1134D3000221A704B4B00221A7088E03B1D1B782E
S1134D40012B09D1434BDA68424B1B88DB00D21894
S1134D50FB1DD2781A7008E03E4BDA683D4B1B8885
S1134D60DB00D218FB1D92781A70BB1D00221A704A
S1134D7015E0BB1D1B783C4AD35CFA1D12789A429D
S1134D8008D1BB1D1B78394A0121D1547B1D012256
S1134D901A7008E0BB1DBA1D127801321A70BB1DCF
S1134DA01B78072BE5D97B1D1B78012B48D17B1D74
S1134DB000221A70FB1D1B78B02B24D006DC222B9A
S1134DC02AD02E2B2BD0102B0BD038E0B32B20D095
S1134DD002DCB22B08D032E0B62B0BD0B72B06D0B6
S1134DE02DE0FEF73BF832E0FEF71AFB2FE0FEF76A
S1134DF077FA2CE01E4B01221A70B6200121002202
S1134E00FEF7C2FC23E0B02001210022FEF7BCFC27
S1134E101DE0FEF72BFB1AE0FEF77CF817E0154BBC
S1134E201B78012B07D1FB1D1B78181C00217F2246
S1134E30FEF7AAFC0BE0FEF751F9C04607E006E0D6
S1134E40FB1D1B78181C00211122FEF79DFCBD469A
S1134E5002B080BD40FCFF1F98FCFF1F50FCFF1FE9
S1134E6018000020DCFFFF1FC0BB00009CFCFF1FDC
S1134E7086FCFF1FC2FCFF1F80B586B000AFF86040
S1134E80B960FB1D1A70BB68DB683B61BB681B79AA
S1134E90032B54D0BB681B79052B03D0BB681B794B
S1134EA0002B0BD1FB1D1B78002B03D1BB68042204
S1134EB01A7115E0BB6801221A7111E0BB681B89E5
S1134EC01A1CBB685B8801339A4203D1BB68002279
S1134ED05A8005E0BB685B8801339AB2BB685A808C
S1134EE03B1C173300221A7015E0BB685B88DB009B
S1134EF03A69D2183B1C17331B78391C17310978CF
S1134F00F86841180978D1543B1C17333A1C1732FE
S1134F10127801321A703B1C17331B78072BE4D923
S1134F20BB68DB8801339AB2BB68DA80BB68DA8875
S1134F30BB681B899A4202D3BB6803221A71BD461F
S1134F4006B080BD80B588B000AFF860B960FB1DC5
S1134F501A70BB68BB61BB69DB687B61BB691B7989
S1134F60002B60D0BB691B79052B5CD03B1C123332
S1134F70BA6912881A803B1C1F3300221A7016E08B
S1134F803B1C1F331B78FA68D3183A1C1232128860
S1134F90D200796989183A1C1F3212788A5C1A7017
S1134FA03B1C1F333A1C1F32127801321A703B1C0F
S1134FB01F331B78072BE3D9BB68DB88013B9AB20C
S1134FC0BB68DA80BB68DB88002B0BD1FB1D1B7828
S1134FD0002B03D1BB6805221A710EE0BB680022C6
S1134FE01A710AE0FB1D1B78002B03D1BB68042255
S1134FF01A7102E0BB6801221A71BB68DB88002BBE
S113500011D0BB681B881A1CBB681B89013B9A42E0
S113501003D1BB6800221A8005E0BB681B880133FA
S11350209AB2BB681A80BD4608B080BD80B582B014
S113503000AF78607A68044B101C191C0022FFF73B
S11350401BFFBD4602B080BD30FCFF1F80B582B09F
S113505000AF78607A68044B101C191C0122FFF71A
S113506071FFBD4602B080BD40FCFF1F80B586B015
S113507000AF021C3960BB1D1A803B1C1433002294
S11350801A803B1C1233BA1D12881A803B1C103341
S113509001221A80BB4B1B78022B00D0BAE1BA4B19
S11350A001221A70BB1D1B88062B04D83B1C163327
S11350B001221A7024E0BB1D1B88053B181C062125
S11350C0FBF742FC0B1C002B0DD1BB1D1B88053BC1
S11350D0181C0621FBF7E2FB031CDAB23B1C163357
S11350E001321A700CE0BB1D1B88053B181C0621FD
S11350F0FBF7D4FB031CDAB23B1C163302321A70E2
S1135100A24B3A1C163212781A703B1C16331A78CA
S11351109F4B1B89191C9E4BDB88CB1A9A4200DDDE
S113512078E19B4B5A889B4B1A803B1C16331B78A7
S11351309AB2994B1A80934B01221A70974B002212
S11351401A70BB1D1B88062B50D8954B1A783B1C34
S113515008331A70BB1D1B88DAB23B1C08335A7023
S11351603B681A783B1C08339A703B1C17330122A6
S11351701A7013E03B1C17331B7802333A1C1732A6
S1135180127839688A1811783A1C0832D1543B1CB9
S113519017333A1C1732127801321A703B1C17333A
S11351A01B789BB2BA1D12889A42E3D83B1C173372
S11351B0BA1D12881A700EE03B1C17331B78023399
S11351C03A1C0832FF21D1543B1C17333A1C1732C6
S11351D0127801321A703B1C17331B78052BEBD95C
S11351E03B1C0833181CFFF721FF13E16C4B1A78A2
S11351F03B1C08331A70BB1D1B881B0A9BB2DBB215
S11352001A1C0F231340DBB210221343DBB2DAB2B1
S11352103B1C08335A70BB1D1B88DAB23B1C083395
S11352209A703B681A783B1C0833DA703B1C1733BE
S113523001221A7013E03B1C17331B7803333A1C0A
S11352401732127839688A1811783A1C0832D15406
S11352503B1C17333A1C1732127801321A703B1C6C
S113526017331B78042BE6D93B1C14333A1C143235
S1135270128805321A803B1C12333A1C12321288EF
S1135280053A1A803B1C0833181CFFF7CFFE3B1C61
S113529016333A1C16321278013A1A70404B1A78B7
S11352A03B1C08331A70AFE03B1C10331B88DBB285
S11352B01A1C0F231340DBB220221343DBB2DAB2F1
S11352C03B1C08335A703B1C10333A1C10321288B2
S11352D001321A803B1C10331B880F2B03D93B1C53
S11352E0103300221A803B1C12331B88052B44D830
S11352F03B1C173300221A701AE03B1C17331B782F
S113530002333A1C1432128839688A1811783A1C0C
S11353100832D1543B1C14333A1C14321288013223
S11353201A803B1C17333A1C1732127801321A7058
S11353303B1C17331B789BB23A1C123212889A42D8
S1135340DBD83B1C17333A1C123212881A700EE059
S11353503B1C17331B7802333A1C0832FF21D1540B
S11353603B1C17333A1C1732127801321A703B1C5B
S113537017331B78052BEBD93AE03B1C1733022279
S11353801A7029E013000020C7FCFF1FA4FCFF1FB4
S113539030FCFF1F320000201000002050FCFF1FD3
S11353A02CFCFF1F3B1C17331B783A1C1432128849
S11353B039688A1811783A1C0832D1543B1C1433CA
S11353C03A1C1432128801321A803B1C17333A1CDF
S11353D01732127801321A703B1C17331B78072BD3
S11353E0E0D93B1C12333A1C12321288063A1A8056
S11353F03B1C16333A1C16321278013A1A703B1CC5
S11354000833181CFFF712FE3B1C16331B78002BC5
S113541000D049E7BD4606B080BDC04680B588B01F
S113542000AF786039603B1C1C3300221A809A4B11
S113543001221A7010E0994B1B78032B07D0974B6D
S11354401B78062B03D0954B1B78052B04D1934B6B
S11354501A78914B1A701BE1904B1B78022BEAD1FE
S11354603B1C0C33181CFFF7F1FD3B1C0C335A7822
S11354703B1C193312091A703B1C19331B78012B7E
S11354803BD0022B00D1B9E0002B00D0F8E03B1C4C
S11354900C335B78191C3B1C1A330F220A401A8008
S11354A07B683A1C1A3212881A803B1C0C339A7897
S11354B03B681A703B1C1F3301221A7013E03B1C1B
S11354C01F331B783A68D3183A1C1F321278023201
S11354D0391C0C318A5C1A703B1C1F333A1C1F3276
S11354E0127801321A703B1C1F331B789BB23A1C92
S11354F01A3212889A42E2D8C4E03B1C0C335B781F
S11355001A1C0F2313409BB21B0299B23B1C0C3391
S11355109B781A1C3B1C1A338A181A807B683A1C25
S11355201A3212881A803B1C0C33DA783B681A70E2
S11355303B1C1F3301221A7013E03B1C1F331B78E2
S11355403A68D3183A1C1F3212780332391C0C31D2
S11355508A5C1A703B1C1F333A1C1F3212780132CA
S11355601A703B1C1F331B78042BE6D93B1C1A33DF
S11355703A1C1A321288053A1A803B1C1C333A1C16
S11355801C32128805321A8038E03B1C0C33181C7C
S1135590FFF75CFD3B1C0C335B78191C3B1C16337A
S11355A00F220A401A803B1C1F3302221A7019E092
S11355B03B1C1C331B883A68D3183A1C1F321278E0
S11355C0391C0C318A5C1A703B1C1C333A1C1C328B
S11355D0128801321A803B1C1F333A1C1F32127886
S11355E001321A703B1C1F331B78072BE0D93B1C7C
S11355F01A333A1C1A321288063A1A803B1C1A33A0
S11356001B88062BC1D83B1C1A331B88002B38D0AF
S11356103B1C0C33181CFFF719FD3B1C0C335B7847
S1135620191C3B1C16330F220A401A803B1C1F33E3
S113563000221A701AE03B1C1C331B883A68D318EA
S11356403A1C1F3212780232391C0C318A5C1A70EF
S11356503B1C1C333A1C1C32128801321A803B1C3E
S11356601F333A1C1F32127801321A703B1C1F334D
S11356701B789BB23A1C1A3212889A42DBD800E09B
S113568000E0C046054B00221A70034B02221A7038
S1135690BD4608B080BDC046A4FFFF1FA6FFFF1F84
S11356A090B583B000AFFB1D00221A70BB1D002211
S11356B01A70FC1DFDF790FB031C2370FC1D0020D9
S11356C0FDF792FB031C2370BB1D0C221A70104AB9
S11356D00F49C0235B00C958BB1D18781F23034022
S11356E00120041C9C40231C1943C0235B00D1509F
S11356F0074B074A1168BA1D10781F220240012087
S1135700041C9440221C0A431A60BD4603B090BD99
S113571000E100E080B500AF034B00221A70034B98
S113572000221A60BD4680BD85FCFF1F7CFCFF1F64
S113573080B582B000AF694B5B7B1A1C0723134012
S1135740D9B2674B07220A405978072081430A439C
S11357505A70624B9B7A9B09DBB21A1C03231340D9
S1135760DAB25F4B920118783F2101400A431A7064
S11357705A4BDB7B1B019BB21A1C584B9B7B1B09AE
S1135780DBB2D3187B607A68131C5B009B18181C6F
S11357902821FBF735F8031C1A1C524B1A604F4B97
S11357A01B7A1A1C18231340DB08DBB21A1C0323D0
S11357B01340D9B24C4B03220A40D2001978182066
S11357C081430A431A70454B1B7A5B09DBB21A1CEE
S11357D007231340DAB2444B520118781F210140C9
S11357E00A431A703D4B5B7A1A1C0823134001D0FC
S11357F0012200E000223C4B01210A40D2005978EA
S1135800082081430A435A70344B1B7A1A1C07231D
S11358101340D9B2344B07220A4019780720814338
S11358200A431A702D4B5B7A1A1C07231340D9B212
S11358302D4B07220A405978072081430A435A70A6
S1135840264B9B7D1A1C03231340D9B2274B0322FA
S11358500A405978032081430A435A701F4B9B7DA9
S11358601A1C0423134001D0012200E000221F4B24
S113587001210A4092005978042081430A435A7056
S1135880164B1A7D1A4B1A70174B1B781B065B0FAD
S1135890DBB2012B0CD002DC002B05D014E0022B70
S11358A00AD0032B0CD00FE0124B01221A700FE028
S11358B0104B02221A700BE00E4B03221A7007E001
S11358C00C4B04221A7003E00A4B04221A70C046DF
S11358D0094B50221A70BD4602B080BD08FCFF1F60
S11358E03CFEFF1FE8FCFF1F24FDFF1F44FDFF1FBC
S11358F039FDFF1F28FFFF1FC9FCFF1F80B500AF44
S11359008E4B9A698E4B9A4208D08C4BDA698C4B39
S11359109A4203D08B4B1B78012B02D18A4B002275
S11359201A708A4B5A7803231340DBB2012B10D12F
S1135930874B5B785B075B0FDBB2032B09DC844B83
S11359405B785B075B0FDBB2002B02DD814B00222F
S11359501A7003F01BFA03F07DFA03F0E7FA7E4BAA
S11359601B78DBB203229343DAB2774B1B78DBB2AA
S1135970191C03230B40DBB21343DBB2DAB2764BC0
S11359801A70764B01221A70754B1A784023134013
S1135990DBB2002B07D0704B1B7804221343DAB21E
S11359A06D4B1A7006E06C4B1B7804229343DAB2F9
S11359B0694B1A70694B01221A70674B1B780822D5
S11359C09343DAB2644B1A70644B01221A70654B2C
S11359D01B78002B07D0604B1B7810221343DAB2DC
S11359E05D4B1A7006E05C4B1B7810229343DAB2CD
S11359F0594B1A70594B01221A70574B1B78DBB262
S1135A0060229343DAB2584B197803230B40DBB27C
S1135A105B01DBB2DBB21343DBB2DAB24E4B1A707A
S1135A204E4B01221A704E4B1B787F229343DBB2FC
S1135A30002B08D0484B1B78802252421343DAB221
S1135A40454B1A7006E0444B1A787F231340DAB2B0
S1135A50414B1A70414B01221A703F4B5B78012273
S1135A609343DAB23C4B5A703C4B01221A703A4BC6
S1135A705B78DBB206229343DAB23C4B19780323FA
S1135A800B40DBB25B00DBB2DBB21343DBB2DAB256
S1135A90314B5A70314B01221A702F4B5B78DBB2B9
S1135AA030229343DAB2324B197803230B40DBB232
S1135AB01B01DBB2DBB21343DBB2DAB2264B5A7002
S1135AC0264B01221A70244B9B78DBB27F2293432E
S1135AD0DAB2284B1B78DBB2191C7F230B40DBB2F4
S1135AE01343DBB2DAB21C4B9A701C4B01221A70BE
S1135AF0184B1B78002B07D0174B5B7840221343BD
S1135B00DAB2154B5A7006E0134B5B78402293438C
S1135B10DAB2114B5A70114B01221A70164B1A78D3
S1135B200D4B9A710D4B01221A70144B1A780A4BC3
S1135B30DA710A4B01221A70BD4680BDFCFCFF1FBE
S1135B40FFFF000031FFFF1F48FFFF1F44FDFF1F41
S1135B503CFEFF1F45FEFF1F08FCFF1F90FCFF1FBC
S1135B605CFDFF1FF9FCFF1F46FDFF1F18FEFF1F12
S1135B7040FFFF1FB5FDFF1F7EFDFF1F22FFFF1F1C
S1135B8080B500AF084B084AD278D2B201210A434B
S1135B90D2B2DA70044B044AD278D2B201218A43D9
S1135BA0D2B2DA70BD4680BD00A0064080B500AF19
S1135BB0044B044A1278D2B240210A43D2B21A707A
S1135BC0BD4680BD0060074080B500AF044B044A69
S1135BD01278D2B240218A43D2B21A70BD4680BD37
S1135BE00060074080B586B000AFF860B9607A60A5
S1135BF01A1CFB1C1A703B1C1733FA1C127852082F
S1135C001A70BB681A68FB689A4202D97B681B68E1
S1135C10F0E03B1C17331B789B00BA68D3181A6852
S1135C20FB689A4207D13B1C17331B789B007A68A8
S1135C30D3181B68DEE03B1C17331B789B00BA6843
S1135C40D3181A68FB689A426FD23B1C17333A1C6C
S1135C501732127801321A705EE03B1C17331A783F
S1135C60FB1C1B78013B9A4209D03B1C17331B7861
S1135C709B00BA68D3181A68FB689A4245D33B1C48
S1135C8016333A1C17321278013A1A703B1C15333A
S1135C903A1C173212781A703B1C15331B789B0080
S1135CA07A68D3181A683B1C16331B789B007968F2
S1135CB0CB181B68D21A3B1C16331B789B00B9689F
S1135CC0CB181B68F968CB1A5A433B1C15331B7855
S1135CD09B00B968CB1819683B1C16331B789B00D2
S1135CE0B868C3181B68CB1A101C191CFAF788FD76
S1135CF0031C1A1C3B1C16331B789B007968CB18B9
S1135D001B68D3183B613B6974E03B1C17333A1C96
S1135D101732127801321A703B1C17331A78FB1CA5
S1135D201B78013B9A4298DD63E03B1C17333A1C15
S1135D3017321278013A1A703B1C17331B78002B68
S1135D4009D03B1C17331B789B00BA68D3181A6818
S1135D50FB689A4245D83B1C16333A1C173212781A
S1135D601A703B1C15333A1C1732127801321A7020
S1135D703B1C15331B789B007A68D3181A683B1CAC
S1135D8016331B789B007968CB181B68D21A3B1C0E
S1135D9016331B789B00B968CB181B68F968CB1ABB
S1135DA05A433B1C15331B789B00B968CB18196800
S1135DB03B1C16331B789B00B868C3181B68CB1AAE
S1135DC0101C191CFAF71CFD031C1A1C3B1C16336F
S1135DD01B789B007968CB181B68D3183B613B691F
S1135DE008E03B1C17333A1C17321278013A1A7038
S1135DF0A2E7FFE7181CBD4606B080BD90B583B08E
S1135E0000AFF0231B02181C03F06AFE05F000FB30
S1135E10C046544B1A698023DB0113409B0BF8D016
S1135E20022004F0AFFCFF200D2103F0EBFE05205F
S1135E3004F0A8FC4C4B1B780920191C04F090F8C2
S1135E40494B5B780120191C04F08AF8464B9B7877
S1135E501420191C04F084F8434BDB780520191C2A
S1135E6004F07EF8404B1B790620191C04F078F8E6
S1135E703D4BDB790720191C04F072F83B4B1B786F
S1135E800B20191C04F06CF8374B5B790320191CA8
S1135E9004F066F8344B1B7A0820191C04F060F8EF
S1135EA0334B1B780C20191C04F05AF82E4B9B79A9
S1135EB00420191C04F054F82B4B5B7A0A20191C9B
S1135EC004F04EF8284B9B7A0F20191C04F048F874
S1135ED0254BDB7A1020191C04F042F8224B1B7B63
S1135EE01120191C04F03CF81F4B5B7B1220191C79
S1135EF004F036F81C4B9B7B1320191C04F030F87B
S1135F00194BDB7B0E20191C04F02AF8FB1D002220
S1135F101A701FE0FB1D1C7896239B0010200321A0
S1135F201A1C00F029F8011C124BA200D150FB1DD1
S1135F301C7896239B00082003211A1C00F01CF8EF
S1135F40011C0C4BA21D9200D150FB1DFA1D1278AE
S1135F5001321A70FB1D1B78052BDBD9BD4603B03B
S1135F6090BDC04600F00F4084BA000048FDFF1FFA
S1135F7023FFFF1F48FEFF1F80B58AB000AF3A60C1
S1135F80FB1D021C1A70BB1D0A1C1A703B1C1A3321
S1135F9000221A7000237B623B1C0C3300221A601F
S1135FA03B1C0C3300225A603B1C1B3300221A702A
S1135FB08EE005F02DFAFB1D1B78181C04F0F6FA90
S1135FC0CC4B5A68CB4BDB689A4206D9C94B5A680A
S1135FD0C84BDB68D31AFB6105E0C64BDA68C54BD6
S1135FE05B68D31AFB61C44BFA691A60C34B1B7814
S1135FF0012B30D1FA693B689A422AD2BD4B9A6888
S1136000BF4B9A4225D93B1C0C331A68B94B5B68C9
S1136010D2183B1C0C331A603B1C0C335A68B54B2A
S1136020DB68D2183B1C0C335A60B24B9B687A6A0B
S1136030D3187B623B1C1A333A1C1A321278013291
S11360401A703B1C1B333A1C1B32127801321A7033
S11360503EE0002387E1A94B1B783A1C1B32391C14
S11360601B31097811703A1C1A32391C1A3109781B
S11360701170002B2CD19F4B9A68A14B9A4225D9C1
S11360803B1C0C331A689B4B5B68D2183B1C0C33CB
S11360901A603B1C0C335A68964BDB68D2183B1CC5
S11360A00C335A60934B9B687A6AD3187B623B1C0F
S11360B01A333A1C1A32127801321A703B1C1B3301
S11360C03A1C1B32127801321A7001E000234AE1B3
S11360D03A1C1B32BB1D12781B789A4200D268E727
S11360E0FB1D1B78102B5DD13B1C0C331A683B1C29
S11360F01A331B78101C191CFAF782FB031C1A1C98
S11361003B1C0C331A603B1C0C331A687D4B1A6120
S11361103B1C0C335A683B1C1A331B78101C191C8B
S1136120FAF76EFB031C1A1C764B1A62754B1A693C
S1136130754B1B689A4205D8734B1A68714B1B69DF
S1136140D21A04E06F4B1A696F4B1B68D21A6F4B5B
S11361501A606C4B1A6A6E4B1B689A4205D86C4BDA
S11361601A68684B1B6AD21A04E0664B1A6A684BB9
S11361701B68D21A674B1A60624B1A69624B1A6029
S1136180604B1A6A624B1A60604B1A6896235B0074
S11361909A4205D85F4B1A6896235B009A4263D9EA
S11361A00023E0E0FB1D1B78082B5DD13B1C0C3366
S11361B01A683B1C1A331B78101C191CFAF720FBB5
S11361C0031C1A1C3B1C0C331A603B1C0C331A684E
S11361D04C4B5A613B1C0C335A683B1C1A331B78DA
S11361E0101C191CFAF70CFB031C1A1C454B5A62B1
S11361F0444B5A69484B1B689A4205D8464B1A6867
S1136200404B5B69D21A04E03E4B5A69424B1B680F
S1136210D21A424B1A603B4B5A6A414B1B689A4252
S113622005D83F4B1A68374B5B6AD21A04E0354BEA
S11362305A6A3B4B1B68D21A3A4B1A60314B5A6963
S1136240354B1A602F4B5A6A354B1A60334B1A6818
S113625096235B009A4205D8324B1A6896235B005A
S11362609A4201D900237EE03B1C1A331B78786ADA
S1136270191CFAF7C5FA031C7B62204B1B78002B10
S113628002D17B6A3B626DE01C4B1B78012B69D108
S1136290FB1D1B78102B20D11A4B1A6A224B9A42F1
S11362A002D87B6A3B625DE0164B1B6A1F4A9B184F
S11362B07B617A69131C9B009B185B00181C962356
S11362C05900FAF79DFA031C1A1C194B1A60184B53
S11362D01B687A6AD31A3B6244E0FB1D1B78082BC7
S11362E040D1084B5A6A104B9A4223D87B6A3B62CE
S11362F038E0C046E0FDFF1FA0FFFF1F4CFFFF1F5B
S1136300FF7F0000FCFCFF1FD0FCFF1F88FDFF1F68
S11363108CFDFF1F3CFFFF1FD4FDFF1FCCFCFF1FA4
S113632034FEFF1FD4FCFF1FA41F00005CE0FFFF2E
S1136330C8FDFF1F0E4B5B6A0E4A9B187B617A698E
S1136340131C9B009B185B00181C96235900FAF73A
S113635057FA031C1A1C084B5A60074B5B687A6A8D
S1136360D31A3B623B6A181CBD460AB080BDC046C6
S1136370FCFCFF1F5CE0FFFFC8FDFF1F80B582B07F
S113638000AF624B1B68002B03D1614B02221A70D1
S113639012E05E4B1B68282B03D85D4B0A221A704F
S11363A00AE05A4B1B68502B03D8594B09221A7028
S11363B002E0574B07221A70564B1B78052B06D860
S11363C0554B5B687B60544B9B683B6014E0514BBE
S11363D01B780A2B08D8504B5B6810337B604E4BFC
S11363E09B6810333B6007E04B4B5B6821337B6059
S11363F0494B9B6821333B60484B1A780423134074
S1136400DBB2002B47D1464B1A687B689A4217D8F7
S1136410404B1B78022B13D8424B00221A70424B7C
S11364201A783B4B1B789A4203D3404B01221A70D3
