S00A0000524C532E68657891
S1130000000C0020191C0000B11B0000B11B0000F3
S113001000000000000000000000000000000000DC
S1130020000000000000000000000000B11B000000
S11300300000000000000000B11B0000B11B000024
S1130040B11B0000B11B0000B11B0000B11B00007C
S1130050B11B0000B11B0000B11B0000B11B00006C
S1130060B11B0000B11B0000B11B0000B11B00005C
S1130070B5690000B11B0000B11B0000B11B0000FA
S1130080B11B0000118D0000C1690000B11B00000C
S113009081900000B11B0000B11B0000B11B0000E7
S11300A0B11B0000B11B0000B11B0000B11B00001C
S11300B0BD900000B11B0000B11B0000B11B00008B
S1130800002934D00123002210B488422CD30124BF
S11308102407A14204D2814202D209011B01F8E754
S1130820E400A14204D2814202D249005B00F8E70D
S1130830884201D3401A1A434C08A04202D3001B39
S11308405C0822438C08A04202D3001B9C0822436C
S1130850CC08A04202D3001BDC082243002803D0AA
S11308601B0901D00909E3E7101C10BC70470028DC
S113087001D00020C04307B4024802A140180290EE
S113088003BDC046D90000000029F0D003B5FFF72E
S1130890B9FF0EBC4243891A1847C046002941D00B
S11308A010B4041C4C40A44601230022002900D5A6
S11308B04942002800D5404288422CD30124240711
S11308C0A14204D2814202D209011B01F8E7E400EB
S11308D0A14204D2814202D249005B00F8E7884277
S11308E001D3401A1A434C08A04202D3001B5C08EF
S11308F022438C08A04202D3001B9C082243CC084C
S1130900A04202D3001BDC082243002803D01B09A9
S113091001D00909E3E7101C6446002C00D54042CD
S113092010BC7047002806D003DB0020C0434008F9
S113093001E08020000607B4024802A1401802909A
S113094003BDC046190000000029EBD003B5FFF732
S1130950A7FF0EBC4243891A1847C0467047C046D9
S113096038B50E4B0C4A041C0D1C00F0DBFF0028AC
S113097004D1201C291C00F03BFF38BD074B064A5C
S1130980201C291C00F0B8FB00F032FF802319065C
S11309904018F2E7C046C046000000000000E041F5
S11309A0F8B55F4656464D464446F0B40C03460F30
S11309B0640A3443A3465E001C03DB0F9C46630AAF
S11309C098464D00530F44461C436D0DC90F760DD8
S11309D0D2000F1CC000A1469246AB1B614500D15A
S11309E0A2E0002B00DCF0E0002E0CD1261C164304
S11309F000D1C0E0013B002B00D041E15C464B46F6
S1130A00821AE71A21E0D04EB54200D1C8E0802412
S1130A104A4627043A439146382B00DD0AE11F2B4E
S1130A2000DD4BE12026F61A4C4652465746B440A8
S1130A30B740DA4022433E1C4C46771EBE41DC40A0
S1130A403243261C5B46821A9F1B904280414642D9
S1130A50BB1B141C2E1C0F1C180200D4A9E05D0241
S1130A60690A88464246002A00D1D4E0404600F094
S1130A7063FF051C083D1F2D00DDD5E02822131A55
S1130A80201C4146D840A940031C0B43AC40AE4255
S1130A9000DD8BE0AE1B711C1F2900DDFBE01F2075
S1130AA0851B1A1C201CAA40C840AC401043661E7B
S1130AB0B4410443CB40012200260F2020400428E7
S1130AC062D0201DA042A441614201255B182F4041
S1130AD01C0207D59C4EB24200D198E09B4C161CD8
S1130AE0234001325C07C00852050443DB08510D62
S1130AF0012960DD1B0371051B0B4E0D0020002135
S1130B000A0D201C1105924C0B43760575081C40F8
S1130B102C4363005A08FF07111C39433CBC904620
S1130B209946A246AB46F8BD002B00DC8EE0002EB1
S1130B302ED0854EB54200D1A6E080244E46220434
S1130B401643B146382B00DD16E11F2B00DD71E1A1
S1130B502026F61A4A46B240904652464446DA40A7
S1130B6022435446B440261C741EA6414C463243CC
S1130B70DC401218F4E0041C0F206A1C5B462E1C97
S1130B800F1C204004289CD101252F40201C9FE7E6
S1130B90144300D0DEE06A1C5B46041C2E1C8CE768
S1130BA080215B46041C0A012E1C86E7761B674DD8
S1130BB02B40721C81E7251C1D4300D168E2002EE6
S1130BC041D080200203134394E7002B00D088E037
S1130BD0691C4E05740D012C00DC1BE15B46161CE0
S1130BE04C46821A191B90429B415B42C91A8846A3
S1130BF00B0200D49EE0371ABA4592415E46A41B0C
S1130C005342E11A88463C1C2E1C67462AE7161CF0
S1130C100023002472E7201C00F08EFE2030051C07
S1130C20083D1F2D00DC29E7031C283B9C40231CA6
S1130C3000242CE74A4653461A430026002A00D1D2
S1130C4000E70122FEE61D032B0B57E7002B00D023
S1130C5005E16E1C7405630D012B00DCABE03A4921
S1130C608E4200D131E11118814280414B4642420B
S1130C705B449B18DC0749080C435B08AA1C1CE76F
S1130C80314FBD4200D0C7E6041C80205B460F1CD8
S1130C9002012E1C11E7301C1F381A1CC240151CFF
S1130CA0202900D183E03F218E1BB3401C43631EE7
S1130CB09C412C43012200230026FEE61C1C203C00
S1130CC04F46E7403E1C202B73D04022D41A4B469B
S1130CD0A3401A1C57463A43531E9A4132430026F6
S1130CE0B0E65F42002D51D0174DAE4200D156E11F
S1130CF080245A4621040A439346382F00DDDBE062
S1130D001F2F00DD79E12021CC1B051C5A46A2408F
S1130D10FD40A04015435B46421E90412843FB40E2
S1130D2057463C1AA24592414846C11A55424B1BAC
S1130D30674691E6081C104331D1002701220023A5
S1130D4004200026C4E6C046FF070000FFFF7FFF23
S1130D50FFFF0F80013B002B24D153461A184C4649
S1130D60824280415C444342E3182E1C141C180246
S1130D703ED4721C0F1CA0E64A4653461A43002474
S1130D80002A00D1F5E601221218E9E75B46034385
S1130D9000D083E0231C721C544667468DE6141C65
S1130DA02E1C5FE6CD4EB54200D0CBE66CE70023A7
S1130DB07CE700228EE75E460643002D00D0F4E077
S1130DC0002E00D14CE14B46134300D17EE11518AF
S1130DD04E46854280415E444242B3181E0200D40E
S1130DE082E1BF4F2C1C3B4002220F1C012664E60B
S1130DF0BA4D701CA8424BD0B94F0125254062085A
S1130E003B402C1CDF0714433C43B21C5B08061C0C
S1130E100F1C52E65E460643002D2CD1002E00D056
S1130E207DE04E46141C164387D04B46674601228C
S1130E30002642E61E1C203E4C46F440261C202B75
S1130E4000D1D8E04022D41A4B46A3401A1C544681
S1130E502243531E9A4132430024121880E75B4216
S1130E60002D37D15C46044300D0D7E0721C4B46BA
S1130E7054460F1C21E6002E6ED14B46141C13431E
S1130E8000D1DCE080254B4667462A01934E14E6E8
S1130E908021061C0A010023042019E6013F002FCB
S1130EA079D1171A5B46BA45AD414946CA1A684218
S1130EB03C1C131A6746CFE55F4607430023002016
S1130EC0002F00D12CE701202AE780252A010023E6
S1130ED00420FDE5814DAE4200D1D3E080245D467F
S1130EE022041543AB46382B00DDB0E01F2B00DD98
S1130EF0DBE02025ED1A021C5C46AC40DA40A84039
S1130F00451EA841224302435846D840031C554677
S1130F105419544592414B4450421B1827E74A4602
S1130F205646324300D185E0851B5B464C46A842B9
S1130F309241191B56428B1B1E0200D4ADE057464A
S1130F403D1A5B46AA458941E41A4A42A31A6746F8
S1130F502C1C01220026B0E54D46161C154344D036
S1130F605C468021C0086207E3080D0310432B424E
S1130F7000D181E04C46E10829427DD1F70866079B
S1130F803E430B1C6746700FDB008022F4000343D2
S1130F901201524E91E5514DAE4200D0ADE6802093
S1130FA04B4654466746020187E5002E5ED04C4608
S1130FB014431AD0C7088025584643072C03C00899
S1130FC01F43204208D04E46F308234204D1524620
S1130FD0D5087707181C2F43C300FC00780F0F1C9B
S1130FE0802103430A013D4E67E5802632015B46BA
S1130FF0041C3A4E61E5002229E7391C20395C467D
S1131000CC40221C202F67D04023DF1B5D46BD400F
S11310102843431E98411043002381E6013B002BE3
S11310202CD150445C469042AD414C446A42A318D2
S1131030041C9CE65B46041C012200263DE580243A
S1131040042100272201274B4842244E40E55D46F7
S1131050054300230022002D00D158E7012256E762
S1131060141C4B460F1C0122002626E5141C80226A
S11310704B461201194E20E5061C84E7174A964296
S113108000D030E70F1C80214B4654460A0114E57A
S11310907605760D0023002430E5181C284300D182
S11310A04BE62C1C0122002607E51C1C203C5D4657
S11310B0E5402C1C202B1CD04022D31A5A469A40BF
S11310C00243501E82412243002320E75B46041C56
S11310D00F1C01220026F0E4002599E7FF07000019
S11310E0FFFF7FFFFFFF7F002C1C0F1C0122002647
S11310F0E3E40022E4E7C046F0B557464E464546D1
S1131100E0B4071C0D034E00680ACC0F790F0843A6
S11311108446111C18035A00FD00400ADF0F4B0FD0
S11311201843C74BC900760D520D8A469A4200D126
S1131130DEE001235F40B946BC4200D1A6E0B71A05
S1131140002F00DC0BE1002A12D15246024300D1E9
S1131150D2E0013F002F00D05BE151466F1ABD423F
S1131160AD4162466B42101A3D1CC31A371C24E081
S1131170B34A964200D1DEE080210B041843382F95
S113118000DD1EE11F2F00DD60E12021C91B021CD0
S113119053468A40FB401A4353468B40191C4B1E4E
S11311A09941031C0A43FB40AA1A67469542AD4184
S11311B0F81A6B42C31A151C371C1A0200D4C2E079
S11311C05E02710A88464246002A00D1EBE040469E
S11311D000F0B2FB021C083A1F2A00DDECE02823D1
S11311E0181A2E1C4146C6409140331C0B439540AF
S11311F0974200DDA4E0D01B411C1F2900DD0DE156
S11312001F273A1A2E1C181CCE409040954030439C
S11312106A1E9541CB400543012100270F262E402D
S1131220042E00D170E02E1DAE42AD416842012271
S11312301B181440180207D5814FB94200D1AEE003
S1131240804D0F1C2B400131F20849055E073243E3
S1131250DB08480D012800DC77E01B037F051B0B2E
S11312607E0D002000210D0D101C2905764A0B432C
S113127077057E081A40324353005D08291CE407B1
S113128021431CBC90469946A246F0BDB31A002BDC
S113129000DCA3E0002A3BD0694A96424BD080216F
S11312A00F043843382B00DC14E15346184300275D
S11312B00022002800D001225219AA42AD416744FD
S11312C06B42FB18151C371C1E023CD55C487E1C67
S11312D0864200D177E15B4901222A400B4068082D
S11312E0151CD90705430D435B08B91C371C95E74A
S11312F0014300D11DE71EE7711C371C0F2663460E
S11313002E40042E00D08EE7012214402E1C91E7BB
S113131052460243F0D0013B002B09D157467919BC
S1131320A9429241554260444319371C0D1CCBE736
S113133043498E42B6D1802063460101371C6DE7D4
S1131340BF1A404A1340791C68E7151C1D4300D19D
S113135020E2002F3ED0802631030B437DE7002F8F
S113136000D085E0721C51054B0D012B00DCEFE031
S11313705746EA1B95429B416746391A5B42C91A94
S113138088460B0200D49CE05446651BAA45924152
S1131390C01B5742C31B9846371C4C4613E70E1C10
S11313A0002300225DE7281C00F0C6FA2030021C4E
S11313B0083A1F2A00DC12E7283885402B1C002538
S11313C016E75746384300230022002800D1EBE6F5
S11313D00122E9E61803030B002642E7002B00D0A4
S11313E0D8E0771C79054A0D012A00DC94E0144BFF
S11313F09F4200D1FDE051464919A942AD416246E0
S11314006B428018C2184908D5070D435308B11C14
S113141004E70B498E4200D0B1E68CE7061C1F3E60
S11314201F1CF7403E1C202972D03F22101A834013
S11314301D436B1E9D413543012100230027EDE62A
S1131440FF070000FFFF7FFFFFFF0F803B1C203BD7
S1131450011CD9400B1C202F5CD04022D71BB84064
S1131460021C50460243511E8A411A4300239BE644
S11314707F42002E40D0CA4CA24200D11FE18021FD
S113148066460B041E43B446382F00DDA9E01F2F27
S113149000DD3DE12023DE1B291C6446B440F940F5
S11314A0B5406B1E9D41214363460D43FB405746A7
S11314B07D1BC01AAA459B415F42C31B4C46171CA7
S11314C07BE60D1C154320D10024012100230426B2
S11314D00027AFE61F2B4ADC2021C91A071C5246FD
S11314E08F40DA403A4357468F40391C4F1EB9416A
S11314F0D8400A43071CDFE664462C4369D1511CDB
S1131500031C5546171C4C4688E6151C371C5AE626
S113151000238DE70022A4E767462F43002E00D066
S1131520D4E0002F00D126E15346034300D1E4E088
S113153051464F19AF42AD4160446E4283191E02B9
S113154000D44EE197483D1C03400221012765E683
S113155061462943002E29D1002976D15146014301
S1131560B2D0031C55464C460121002756E61F1CE9
S1131570203F011CF9400F1C202B00D1C6E0402263
S1131580D31A9840021C50460243531E9A413A43D0
S1131590002791E65B42002E30D167462F4300D0EE
S11315A0C8E0511C031C5546171C37E6002965D1B9
S11315B05746074300D1C8E0031C802055464C46DB
S11315C00101774F2AE68023371C190104260023E2
S11315D030E6013F002F6ED154466146651B401A28
S11315E068E767463D430023002D00D15FE70125EE
S11315F05DE780263101002304261BE668498A4200
S113160000D1C1E08027664639040E43B446382B26
S113161000DDA2E01F2B00DDD0E02021C91A2E1C22
S113162067468F408D40DE403E43291C67464D1E71
S1131630A941DF40351C0D433E1C554455459B4193
S113164030185E428319171C3EE65646064354D0B2
S11316505746EA1B63469542B641191A7342CB1AA0
S11316601E0200D4A2E07D1B6446AA45BF41001BB4
S11316707A42831A4C4601210027CFE55646064399
S11316803FD0624680215707ED08D3080A033D4343
S1131690134208D0C608164205D15546EC08450742
S11316A02543331C4C46680FDB0080260343ED00C2
S11316B031013B4FB2E53A498A4200D0E4E6802644
S11316C0031C55464C463101171CA7E5002F4CD08E
S11316D05346034315D062468026ED085107D308CC
S11316E037030D433B42DED0C2083A42DBD15546B4
S11316F0E9084507131C0D43D5E76346012100277C
S11317008CE5802739016346254F87E500223AE7B7
S11317103C1C203C6646E640331C202F5FD040240E
S1131720E71B6646BE40311C0D43691E8D411D43B7
S11317300023BCE6013B002B22D155445545BF4153
S11317407B426044C318171CBEE580210422002498
S11317500901154B5642124F6CE563461D430026A2
S1131760002D00D169E7012567E78022031C554657
S113177011010B4F52E5031C5546012100274DE58D
S113178007498A4200D042E78021031C55460901DB
S1131790171C43E57A05560D0023002261E5C04677
S11317A0FF070000FFFF7FFFFFFF7F001D1C1543A5
S11317B000D189E6151C012100272FE51F1C203FBD
S11317C06146F940202B10D04026F31A67469F400B
S11317D03B1C1D436B1E9D410D4300262DE700213C
S11317E0A2E73D1C0121002718E50023F1E7C046CC
S11317F0134A0B0330B5051C48001C0BC90F430DDD
S11318000020934211DD0F4883420FDC80225003F5
S11318100D4A0443D01A1F280BDD0C4DEB1ADC4093
S1131820221C5042002900D1101C30BD084C08195C
S1131830FBE7C54007482A1C1D18AC402243F0E7CB
S1131840FE0300001D040000330400001304000024
S1131850FFFFFF7FEDFBFFFF70B5041E26D000F0F5
S11318606BF814490A1A0A2813DD0B38844056050C
S11318702403720D250B002600200021301C0E0DC0
S113188033050D4C2B4311051C400C4365006908BE
S113189070BD0B23051C181A1535211CC440A94022
S11318A0520525030E1C2D0B520DE5E700220025E1
S11318B00026E1E71E040000FFFF0F808446101C91
S11318C062468C46191C634600E0C0461FB500F012
S11318D003F9002801D40021C8421FBD10B500F04F
S11318E049F84042013010BD10B500F0F5F8002869
S11318F001DB002010BD012010BDC04610B500F072
S1131900EBF8002801DD002010BD012010BDC04609
S113191010B500F06DF8002801DC002010BD012096
S113192010BDC04610B500F063F8002801DA0020AD
S113193010BD012010BDC0461C2101231B04984288
S113194001D3000C10391B0A984201D3000A08394C
S11319501B09984201D30009043902A2105C401803
S11319607047C046040302020101010100000000A7
S113197000000000F0B5944647461A03061C5800C0
S113198080B4170B420D19480D034C00DB0F2D0BCF
S1131990640DC90F9846844208D0144882420DD081
S11319A00120944212D004BC9046F0BD2B1C33435A
S11319B00120002BF7D10D488242F1D163463B430D
S11319C00120002BEFD101209442ECD1BD42EAD199
S11319D06645E8D1414506D0002CE4D1281C3043AB
S11319E0451EA841DFE70020DDE7C046FF070000F1
S11319F0F0B557464E464546E0B4041C4E00080375
S1131A00C90F8A46171C59001A03050B700D160BD3
S1131A104A0D3049DB0F9C46884232D02D498A4218
S1131A2035D000280FD1291C21434B424B41984605
S1131A30002A0BD0002B1AD1E2452CD05546002D9C
S1131A4018D1012018E0002AF6D19046311C394300
S1131A504B424B414146002906D1002BECD056465F
S1131A600120002E08D005E00020002B04D1674699
S1131A70002FE6D1012358421CBC90469946A24649
S1131A80F0BD2B1C2343C9D002214842F4E7331C88
S1131A903B43C6D0F8E7904205DC09DA5246002AF7
S1131AA0E8D00120E8E75446002CE3D10120E3E725
S1131AB0B542C3D807D00020B542DDD25046002835
S1131AC0D8D00120D8E7BC42B8D80020BC42F5D316
S1131AD0D2E7C046FF070000F0B544465F465646CD
S1131AE04D46F0B49446061C1A035800170B420DD9
S1131AF02E480D034C00DB0F2D0B640DC90F9846C7
S1131B00844233D02948824236D0002C19D0002A8E
S1131B1020D1934663463B43584258415B46824634
S1131B20002B1DD051460020002904D14246002A32
S1131B3014D1012460423CBC90469946A246AB466F
S1131B40F0BD2B1C3343584243419B46002AE1D04D
S1131B50002BEBD1414515D00029EAD10120EAE759
S1131B600028F7D001200029E5D0E2E72B1C3343FD
S1131B700220002BDFD1C5E763463B430220002B44
S1131B80D9D1C2E79442E7DC05DBBD42E4D806D0F4
S1131B900020BD42CFD20029CBD00120CBE766453F
S1131BA0DAD800206645F6D3C5E7C046FF07000033
S1131BB080B500AF00BEBD4680BDC04680B500AF55
S1131BC0084A0949094BD150094BA4221A70084B01
S1131BD001225A70064B0F221A71054BA0225A712A
S1131BE0BD4680BD00E000E000000000080D0000DC
S1131BF00020054080B500AF054A064BD31A054ABC
S1131C00101C00211A1C08F031FEBD4680BDC046E0
S1131C1054FFFF1FB4FCFF1F08F0BAFEFFF7CEFF0E
S1131C20FFF7E8FF08F0E8FE08F066FE08F0BEFEE5
S1131C30044B0020191C04F079F9031C181C08F04B
S1131C40E9FDC046B4FCFF1F80B582B000AF7860E8
S1131C50FEE7C04680B582B000AF07F03DFC6B4B99
S1131C60DB7BFF2B02D1694B6422DA73674B1B7C4D
S1131C70FF2B02D1654B64221A74644B5B7CFF2BEF
S1131C8004D1634B1A7C634B1A7003E05F4B5A7C9C
S1131C90604B1A705D4B9B7CFF2B04D15C4B5A7CD0
S1131CA05D4B1A7003E0594B9A7C5B4B1A70FB1D19
S1131CB000221A700EE0FB1D1B78584A0021D154F3
S1131CC0FB1D1B78564A0021D154FB1DFA1D1278C6
S1131CD001321A70FB1D1B78012BECD9514B0022E9
S1131CE01A70504B1B78002B07D04F4B1B7A2022C5
S1131CF01343DAB24C4B1A7206E04B4B1B7A202288
S1131D009343DAB2484B1A72484B01225A70464B3D
S1131D101B7A04229343DAB2434B1A72434B0122D7
S1131D205A70414B1B7A10229343DAB23E4B1A721B
S1131D303E4B01225A703C4B1A7A3F231340DAB2CD
S1131D40394B1A72394B01225A70394B1A780E21C9
S1131D508A4308210A431A70364B01221A70344B05
S1131D601A7840210A431A70334B00221A80334BED
S1131D7000221A70324B01221A70324B00221A8050
S1131D80314B00221A70314B00221A70304B002262
S1131D901A70304B50221A702F4B07221A702F4B97
S1131DA007221A702E4B00221A702E4B00221A7032
S1131DB02D4B00221A702D4B00221A702C4B00223E
S1131DC01A702C4B00221A702B4B00221A802B4BBA
S1131DD000221A702A4B00221A702A4B00221A7011
S1131DE0294B00221A70294B00221A70284B00221A
S1131DF01A80284B00221A70274B00221A70274B96
S1131E0000221A70BD4602B080BDC046D4FEFF1F3A
S1131E1034AA000071FDFF1F78FEFF1F5CFDFF1F49
S1131E20DCFDFF1F47FDFF1F68FCFF1FE4FCFF1FD5
S1131E3070FEFF1F9BFDFF1F40FDFF1FD1FEFF1F14
S1131E4018FDFF1F26FDFF1F24FDFF1FCCFEFF1FF3
S1131E50D0FEFF1F2DFDFF1F80FDFF1F65FDFF1F2F
S1131E6070FDFF1FFBFDFF1FBEFDFF1F96FEFF1F42
S1131E70AAFDFF1F86FDFF1F8AFEFF1F3DFDFF1FFA
S1131E80F4FDFF1F80FEFF1FFAFDFF1F98FDFF1FDB
S1131E907EFEFF1F6CFEFF1FE2FDFF1FF3FDFF1F11
S1131EA080B500AF0F4B1B78012B14D10E4B1A8851
S1131EB00E4B9A4209D90E4B01221A70094B00228B
S1131EC01A70094B00221A8005E0074B1B88013366
S1131ED09AB2054B1A80064B1A78064B1A70BD4607
S1131EE080BDC04624FDFF1F26FDFF1FF301000037
S1131EF018FDFF1F2AFDFF1F80B584B000AF786076
S1131F007B68FB60FB681B88BB60BB689847FEE787
S1131F1080B586B000AF3A1C10323B1D0233101C52
S1131F20191C08F035FB3B1D7B613B1C13337A699C
S1131F30D2781A703B1C10331B88022B53D13B1CE4
S1131F4013331B78022B0CD0032B39D0012B44D133
S1131F5010200121012207F09DFB274B01221A705A
S1131F6046E0264B1B78012B08D1102000217F224C
S1131F7007F090FB204B01221A7039E0204B1B78AC
S1131F80032B14D11F4B5A221A701E4B181C07F036
S1131F9021FB1C4B00221A701A4B181C07F02CFB57
S1131FA0184B1B785A2BEDD10020FFF7A5FF10200A
S1131FB000217F2207F06EFB0F4B01221A7017E0FD
S1131FC00F4B01221A7010200121032207F062FB3B
S1131FD0094B03221A70C0460AE010200021122285
S1131FE007F058FB04E010200021132207F052FBF5
S1131FF0181CBD4606B080BD18FDFF1F2AFDFF1F3B
S11320002BFDFF1F28FDFF1F80B586B000AF786051
S11320103960244BFB607B681B781A067B681B784D
S11320201B04D2187B681B781B02D2187B681B78B0
S1132030D3183B613B1C173300221A7014E03B6930
S1132040002B07DA3B695B003B613A69FB6853404C
S11320503B6102E03B695B003B613B1C17333A1C6C
S11320601732127801321A703B1C17331B78222B5B
S1132070E5D93B691B0EDAB23B681A703B68013341
S11320803A69120CD2B21A703B6802333A69120AE6
S1132090D2B21A703B6803333A69D2B21A70BD46A1
S11320A006B080BDFCEBAD7F80B584B000AF3A1CB8
S11320B00C323B1C101C191C08F06AFA3B1C5B78A0
S11320C0012B24D1354B1B78012B20D1334B022219
S11320D01A7008F0BBFB031CDAB2314B1A7008F01B
S11320E0B5FB031CDAB22E4B5A7008F0AFFB031C8D
S11320F0DAB22B4B9A7008F0A9FB031CDAB2284B16
S1132100DA7027200121402207F0C4FA42E03B1C88
S11321105B78022B39D1214B1B78022B35D1204A15
S1132120204B101C191CFFF76FFF3B1C0F330022C0
S11321301A701CE03B1C0F331B781A4AD25C3B1C00
S11321400F331B780233391CCB5C9A4208D0134BF3
S113215002221A7027200021122207F09BFA19E0AC
S11321603B1C0F333A1C0F32127801321A703B1C9D
S11321700F331B78032BDDD9084B03221A70272059
S11321800121402207F086FA04E0272000211222D0
S113219007F080FABD4604B080BDC0462BFDFF1F8A
S11321A020FDFF1F1CFDFF1F80B586B000AF3A1C49
S11321B00E323B1D0233101C191C08F0E9F93B1DBB
S11321C07B617B69DA783B1C12331A803B1C123327
S11321D01B881B029AB27B691B7913439AB23B1C7E
S11321E010331A803B1C0E331B88022B5AD93B1C1C
S11321F010331B882F4A934247D02E4A934209DC5E
S11322002D4A934235D02D4A934238D02C4A9342DA
S113221029D041E02B4A934213D02A4A934203DC4B
S1132220294A934207D037E0284A93420FD0284ADC
S1132230934212D030E022200121852207F02AFAAD
S113224035E022200121862207F024FA2FE0222003
S11322500121872207F01EFA29E022200121882289
S113226007F018FA23E022200121012207F012FAD4
S11322701DE022200121022207F00CFA17E022209F
S113228001210A2207F006FA11E0222001210B2283
S113229007F000FAC0460AE022200021312207F0AC
S11322A0F9F904E022200021132207F0F3F9BD46D6
S11322B006B080BD0B130000021300000A130000D7
S11322C00113000086F1000085F1000087F1000091
S11322D088F1000080B586B000AF3A1C0E323B1D79
S11322E00233101C191C08F053F93B1D7B617B69F8
S11322F0DA783B1C12331A803B1C12331B881B02F6
S11323009AB27B691B7913439AB23B1C10331A802F
S11323103B1C0E331B88022B00D80FE13B1C1033EF
S11323201B888A4A934200D1E8E0884A93420CDC35
S1132330874A934200D1A3E0864A934200D1C4E085
S1132340854A934200D176E0F2E0844A934227D052
S1132350824A934203DC824A934207D0E8E0814AEE
S1132360934236D0804A93424CD0E1E03B1C0E337A
S11323701B88062B05D02E200021132207F08AF992
S1132380E1E07B69053380225205101C191C0322ED
S113239007F0B2F82E200121852207F07BF9D2E064
S11323A03B1C0E331B88062B05D02E200021132244
S11323B007F070F9C7E07B6905336C4A101C191CDF
S11323C0032207F099F82E200121862207F062F9F2
S11323D0B9E03B1C0E331B88062B05D02E200021B0
S11323E0132207F057F9AEE07B690533604A101CED
S11323F0191C032207F080F82E200121872207F000
S113240049F9A0E03B1C0E331B88062B05D02E2077
S11324100021132207F03EF995E07B690533554A04
S1132420101C191C032207F067F82E2001218822B2
S113243007F030F987E03B1C0E331B88042B05D0D2
S11324402E200021132207F025F97CE07B69053357
S1132450494A101C191C012207F04EF87B695B796C
S1132460FF2B03D1454B6422DA7303E07B695A796D
S1132470424BDA732E200121012207F00BF962E0AE
S11324803B1C0E331B88042B05D02E200021132265
S113249007F000F957E07B690533394A101C191C11
S11324A0012207F029F87B695B79FF2B03D1334BB9
S11324B064221A7403E07B695A79304B1A742E2013
S11324C00121022207F0E6F83DE03B1C0E331B8895
S11324D0052B05D02E200021132207F0DBF832E073
S11324E07B690533274A101C191C022207F004F8E3
S11324F02E2001210A2207F0CDF824E03B1C0E33E4
S11325001B88052B05D02E200021132207F0C2F8CA
S113251019E07B6905331C4A101C191C022206F0C1
S1132520EBFF2E2001210B2207F0B4F8C0460AE08D
S11325302E200021312207F0ADF804E02E200021E6
S1132540132207F0A7F8BD4606B080BD0B130000A8
S1132550021300000A1300000113000086F10000BA
S113256085F1000087F1000088F1000003000010ED
S113257006000010090000100C000010D4FEFF1F1C
S11325800D000010100000101200001090B587B06C
S113259000AF3B1C163307221A703A1C0C323B1C4A
S11325A00233101C191C07F0F3FF3B1C3B613B1C5E
S11325B00F333A69D2781A703B1C163307221A700B
S11325C03B1C0F331B780433DAB23B1C17331A70ED
S11325D021E03B1C16331B785BB23A69D35CFF2BBA
S11325E00BD03B1C17331B785BB2032B05DDB720E4
S11325F00021102207F04EF863E03B1C16333A1C0E
S113260016321278013A1A703B1C17333A1C1732EF
S11326101278013A1A703B1C173300229A563B1C5D
S11326200F331B789A42D4DC3B1C163304221A70F5
S11326303B1C0F331B780133DAB23B1C17331A707F
S113264034E03B1C16331B785BB23A69D35C002B35
S113265002D0FF2B1BD007E03B1C17331B785BB267
S1132660194AFF21D15413E03B1C173300241C5793
S11326703B1C16331B785BB23A69D35C181C0121EE
S113268004F062FE031C1A1C0F4B1A5500E0C046EE
S11326903B1C16333A1C1632127801321A703B1C5A
S11326A017333A1C1732127801321A703B1C163356
S11326B01B785BB2072BC4DDB7200121002206F092
S11326C0E9FFBD4607B090BD80FCFF1F80B586B012
S11326D000AF3A1C10323B1D0233101C191C07F0CA
S11326E057FF3B1D7B613B1C13337A69D2781A7008
S11326F03B1C13331B78002B05D1B220012100228F
S113270006F0C8FF19E03B1C13331B781F2B0ED9AE
S11327103B1C13331B783F2B09D83B1C13331B780A
S1132720B22001211A1C06F0B5FFC04604E0B22015
S11327300021122206F0AEFFC046BD4606B080BDA1
S113274080B582B000AF244BDA68234B1B88DB00D2
S1132750D218FB1DD2781A701F4BDA681E4B1B88E7
S1132760DB00D218BB1D12791A701B4BDA681A4BA6
S11327701B88DB00D2187B1D52791A70164BDA685D
S1132780154B1B88DB00D2183B1D92791A70FB1D78
S11327901B78002B1CD1BA1D3B1D12781B785340AB
S11327A0DAB2BB1D791D09780A401A70BB1D1B786B
S11327B0002B08D1084BDA68074B1B88DB00D318C1
S11327C0DA79064B1A70B3200121002206F062FF69
S11327D0BD4602B080BDC0469CFCFF1F88FCFF1FA5
S11327E080B584B000AF3A1C0E323B1D101C191C7E
S11327F007F0CEFEBD4604B080BDC04680B500AF34
S1132800044B044A1278D2B240210A43D2B21A705D
S1132810BD4680BD0060074080B500AF044B044A4C
S11328201278D2B240218A43D2B21A70BD4680BD1A
S11328300060074080B586B000AFF860B9607A6088
S11328401A1CFB1C1A703B1C1733FA1C1278520812
S11328501A70BB681A68FB689A4202D97B681B88A5
S1132860FDE03B1C17331B789B00BA68D3181A6829
S1132870FB689A4207D13B1C17331B785B007A68CC
S1132880D3181B88EBE03B1C17331B789B00BA68FA
S1132890D3181A68FB689A4200D375E03B1C1733BF
S11328A03A1C1732127801321A7064E03B1C173359
S11328B01A78FB1C1B78013B9A4209D03B1C173346
S11328C01B789B00BA68D3181A68FB689A424BD3EA
S11328D03B1C16333A1C17321278013A1A703B1C0F
S11328E015333A1C173212781A703B1C15331B78B7
S11328F05B007A68D3181B881A1C3B1C16331B78A0
S11329005B007968CB181B88D31A1A1C3B1C16333E
S11329101B789B00B968CB181B68F968CB1A5A431B
S11329203B1C15331B789B00B968CB1819683B1CFA
S113293016331B789B00B868C3181B68CB1A101C8D
S1132940191CFDF75DFF031C99B23B1C16331B7861
S11329505B007A68D3181A883B1C12338A181A80D1
S11329603B1C12331B887AE03B1C17333A1C17328A
S1132970127801321A703B1C17331A78FB1C1B782F
S1132980013B9A4292DD69E03B1C17333A1C173233
S11329901278013A1A703B1C17331B78002B09D0AC
S11329A03B1C17331B789B00BA68D3181A68FB6862
S11329B09A424BD83B1C16333A1C173212781A70C1
S11329C03B1C15333A1C1732127801321A703B1C27
S11329D015331B785B007A68D3181B881A1C3B1CC0
S11329E016331B785B007968CB181B88D31A1A1C22
S11329F03B1C16331B789B00B968CB181B68F9681D
S1132A00CB1A5A433B1C15331B789B00B968CB186F
S1132A1019683B1C16331B789B00B868C3181B68E5
S1132A20CB1A101C191CFDF7EBFE031C99B23B1CBE
S1132A3016331B785B007A68D3181A883B1C123350
S1132A408A181A803B1C12331B8808E03B1C17337E
S1132A503A1C17321278013A1A709CE7FFE7181CE7
S1132A60BD4606B080BDC04690B583B000AFF0232C
S1132A701B02181C04F014FE06F00EFBC046554B56
S1132A801A698023DB0113409B0BF8D0022005F068
S1132A90BFFCFF200D2104F0BDFE052005F0B8FCAD
S1132AA04D4B1B780920191C05F062F84A4B5B78E2
S1132AB00120191C05F05CF8474B9B781420191C65
S1132AC005F056F8444BDB780520191C05F050F846
S1132AD0414B1B790620191C05F04AF83E4BDB7963
S1132AE00720191C05F044F83C4B1B780B20191CDB
S1132AF005F03EF8384B5B790320191C05F038F8D3
S1132B00354B1B7A0820191C05F032F8344B1B781E
S1132B100C20191C05F02CF82F4B9B790420191C50
S1132B2005F026F82C4B5B7A0A20191C05F020F8D6
S1132B30294B9B7A0F20191C05F01AF8264BDB7AD7
S1132B401020191C05F014F8234B1B7B1120191CB1
S1132B5005F00EF8204B5B7B1220191C05F008F8D9
S1132B601D4B9B7B1320191C05F002F81A4BDB7BD1
S1132B700E20191C04F0FCFFFB1D00221A7021E03A
S1132B80FB1D1C78FA239B00102003211A1C00F063
S1132B902BF8031C191C134B6200D152FB1D1C782B
S1132BA0FA239B00082003211A1C00F01DF8031CC3
S1132BB0191C0C4BA21D5200D152FB1DFA1D127898
S1132BC001321A70FB1D1B78052BD9D9BD4603B001
S1132BD090BDC04600F00F4034AA000071FDFF1FF5
S1132BE078FEFF1F04FEFF1F80B588B000AFFB1DF9
S1132BF01870BB1D19703B1D1A803B1C1633002234
S1132C001A700023FB613B1C0C3300221A603B1C2E
S1132C100C3300225A603B1C173300221A7087E0E1
S1132C2006F03AFAFB1D1B78181C05F0E7FAC14BB5
S1132C305A88C04BDB889A4208D9BE4B5988BD4B91
S1132C40DA883B1C18338A1A1A8007E0B94BD988F2
S1132C50B84B5A883B1C18338A1A1A80B64B3A1C54
S1132C60183212881A80B54B1B78002B2CD1B14B2B
S1132C709A88B34B9A4225D93B1C0C331A68AD4B46
S1132C805B88D2183B1C0C331A603B1C0C335A680B
S1132C90A84BDB88D2183B1C0C335A60A54B9B888D
S1132CA0FA69D318FB613B1C16333A1C16321278AE
S1132CB001321A703B1C17333A1C17321278013256
S1132CC01A7035E0002358E13A1C18323B1D128873
S1132CD01B889A422AD2974B9A88994B9A4225D9B3
S1132CE03B1C0C331A68934B5B88D2183B1C0C3387
S1132CF01A603B1C0C335A688E4BDB88D2183B1C81
S1132D000C335A608B4B9B88FA69D318FB613B1CCC
S1132D1016333A1C1632127801321A703B1C1733E0
S1132D203A1C1732127801321A7001E0002324E1B0
S1132D303A1C1732BB1D12781B789A4200D26FE7F7
S1132D40FB1D1B78102B5ED13B1C0C331A683B1CFB
S1132D5016331B78101C191CFDF752FD031C1A1C9A
S1132D603B1C0C331A603B1C0C331B689AB2754B2A
S1132D701A813B1C0C335A683B1C16331B78101CFD
S1132D80191CFDF73DFD031C9AB26E4B1A826D4B64
S1132D901A896D4B1B889A4206D86B4B1A88694B6B
S1132DA01B89D31A9BB205E0664B1A89664B1B88B4
S1132DB0D31A9BB2654A1380624B1A8A644B1B88F0
S1132DC09A4206D8624B1A885E4B1B8AD31A9BB26E
S1132DD005E05C4B1A8A5E4B1B88D31A9BB25D4A92
S1132DE01380584B1A89584B1A80564B1A8A584BE1
S1132DF01A80564B1B88C82B03D8564B1B88C82BEC
S1132E0001D90023B9E0FB1D1B78082B5ED13B1CC4
S1132E100C331A683B1C16331B78101C191CFDF765
S1132E20EFFC031C1A1C3B1C0C331A603B1C0C33B8
S1132E301B689AB2434B5A813B1C0C335A683B1CA7
S1132E4016331B78101C191CFDF7DAFC031C9AB20C
S1132E503C4B5A823B4B5A893F4B1B889A4206D8BB
S1132E603D4B1A88374B5B89D31A9BB205E0354B2F
S1132E705A89394B1B88D31A9BB2384A1380314B79
S1132E805A8A374B1B889A4206D8354B1A882D4BE1
S1132E905B8AD31A9BB205E02A4B5A8A304B1B88B3
S1132EA0D31A9BB22F4A1380264B5A892A4B1A8075
S1132EB0244B5A8A2A4B1A80284B1B88C82B03D8C8
S1132EC0284B1B88C82B01D9002356E03B1C163322
S1132ED01B78F869191CFDF793FC031CFB61174B65
S1132EE01B78002B04D13B1C1A33FA691A8041E089
S1132EF0FB1D1B78102B0ED1124B1A8A1A4B9A42C7
S1132F0004D83B1C1A33FA691A8033E03B1C1A3389
S1132F10FA691A802EE0FB1D1B78082B2AD1094B75
S1132F205A8A114B9A4221D83B1C1A33FA691A80E7
S1132F3020E0C046C4FDFF1FBCFEFF1FCCFEFF1FE8
S1132F40D084000048FDFF1F30FDFF1F8CFDFF1FD4
S1132F508EFDFF1F88FEFF1FBCFDFF1F2EFDFF1F00
S1132F60F8FDFF1F32FDFF1FA41F00003B1C1A3396
S1132F70FA691A803B1C1A331B88181CBD4608B01A
S1132F8080BDC04680B582B000AF644B1B88002B67
S1132F9003D1634B04221A7012E0604B1B88282B68
S1132FA003D85F4B0A221A700AE05C4B1B88502B33
S1132FB003D85B4B09221A7002E0594B07221A709E
S1132FC0584B1B88642B06D8574B5B887B60564B49
S1132FD09B883B6014E0534B1B88962B08D8524BBC
S1132FE05B8819337B60504B9B8819333B6007E047
S1132FF04D4B5B8832337B604B4B9B8832333B6059
S11330004A4B1A7804231340DBB2002B48D1484BB7
S11330101B881A1C7B689A4217D8424B1B88962B34
S113302013D8444B00221A70434B1A783C4B1B783C
S11330309A4203D3414B01221A706BE03E4B1B783A
S11330400133DAB23C4B1A7064E0394B1B881A1C0A
S11330503B689A4203D9334B1B88FA2B04D8344B70
S11330601A88374B9A4214D9334B00221A70314BC9
S11330701A782D4B1B789A4203D3304B00221A70D6
S113308048E02C4B1B780133DAB22A4B1A70C04645
S113309040E0294B00221A70264B00221A7039E0B6
S11330A0234B1B881A1C7B689A4213D8214B00229D
S11330B01A70214B1A781A4B1B789A4203D31F4B70
S11330C001221A7026E01C4B1B780133DAB21A4B2A
S11330D01A701FE0164B1B881A1C3B689A4213D9BE
S11330E0154B00221A70134B1A780F4B1B789A4217
S11330F003D3124B00221A700CE00E4B1B780133E1
S1133100DAB20C4B1A7005E00B4B00221A70094B13
S113311000221A70BD4602B080BDC04640FDFF1FAC
S1133120A4FDFF1F84FDFF1F94AA000078FDFF1F6C
S113313090FEFF1FDCFDFF1F5CFDFF1F47FDFF1F0F
S1133140DC05000080B500AF214B5A88214B9A4220
S11331500FD1214BDB780133DAB21F4BDA701E4BEF
S1133160DB78312B08D91C4B1A7802210A431A70D8
S113317002E0194B0022DA70174BDB78312B04D8AC
S1133180154B1A7802218A431A70114B9B88002B25
S11331900FD1114B1B790133DAB20F4B1A710E4B5D
S11331A01B79312B08D90C4B1A7804210A431A7065
S11331B002E0094B00221A71074B1B79312B04D80A
S11331C0054B1A7804218A431A70BD4680BDC04657
S11331D048FDFF1FFFFF000078FDFF1F80B584B08E
S11331E000AF0023FB600023BB60FB1D00221A70AC
S11331F014E00920032105F08FF8031CBA68D318E2
S1133200BB600820032105F087F8031CFA68D31873
S1133210FB60FB1DFA1D127801321A70FB1D1B782E
S1133220012BE6D9FB685B08FB60BB685B08BB60ED
S1133230FA680F4B9A4203D90E4B0D4A1A8003E0E9
S1133240FB689AB20B4B1A80BA68094B9A4203D9AD
S1133250094B074A1A8003E0BB689AB2064B1A80EE
S1133260FFF770FFFFF78EFEBD4604B080BDC04679
S1133270FE0F000084FDFF1F90FEFF1F80B586B087
S113328000AF00237B6100233B610023FB6000232C
S1133290BB60BB1D00221A807B1D00221A7018E03F
S11332A0072004F0ABFF5A4B5988BB1DBA1D128886
S11332B08A181A80564B9B887A69D3187B61544BC1
S11332C0DB883A69D3183B617B1D7A1D1278013281
S11332D01A707B1D1B78012BE2D9BB1DBA1D128805
S11332E052081A807B695B087B613B695B083B6120
S11332F0484BBA1D12885A807B699AB2454B9A8012
S11333003B699AB2434BDA807B1D01221A7028E094
S11333107B699AB2404BDA813B699AB23E4BDA83BD
S11333207B1D1B78072B17D87B1D1B785A1E7B1D12
S11333301978394B4900C95A374B5200D1527B1D79
S11333401B785A1E7B1D1978334B08314900C95A22
S1133350314B08325200D1527B1D7A1D1278013252
S11333601A707B1D1B78082BD2D97B1D00221A7082
S113337015E07B1D1A78284B5200D35AFA68D318EB
S1133380FB607B1D1A78244B08325200D35ABA686A
S1133390D318BB607B1D7A1D127801321A707B1D15
S11333A01B78072BE5D9FB68DB087B61BB68DB086E
S11333B03B617969194A1A4B081C111C1A1C102309
S11333C0FFF738FA031C7B613969144A144B081C53
S11333D0111C1A1C1023FFF72DFA031C3B617B6997
S11333E0F92B03D90F4BFA221A7003E07B69DAB286
S11333F00C4B1A703B69F92B03D90B4BFA221A7048
S113340003E03B69DAB2084B1A70BD4606B080BDD2
S1133410C4FDFF1F48FDFF1F98FEFF1F00FCFF1F98
S113342040FCFF1F87FDFF1F77FEFF1F80B500AF25
S11334300D4B0D4A526902210A435A610A4B0A4A4A
S1133440526802210A435A60074B074A5269802195
S1133450C9020A435A61044B034A52688021C902D3
S11334600A435A60BD4680BD00F00F4080B500AFEE
S11334700D4B0D4A526902210A435A610A4B0A4A0A
S1133480926802210A439A60074B074A52698021D5
S1133490C9020A435A61044B034A92688021C90253
S11334A00A439A60BD4680BD00F00F4080B582B0EB
S11334B000AF021CFB1D1A70FB1D1B78102B1AD1C8
S11334C0244B1B88002B12D1234B5B780133DAB2D7
S11334D0214B5A70204B5B78632B2AD91E4B6422F4
S11334E05A701D4B1A7801210A431A7021E01A4BB5
S11334F000225A701DE0FB1D1B78082B19D1154BB7
S11335001B88002B12D1144B9B780133DAB2124B77
S11335109A70114B9B78632B0BD90F4B64229A70D2
S11335200D4B1A7801210A431A7002E00A4B00225B
S11335309A70094B5B78632B08D8074B9B78632BF5
S113354004D8054B1A7801218A431A70BD4602B08B
S113355080BDC0467AFEFF1F78FDFF1F80B584B092
S113356000AF021CFB1D1A70BC4B5A7BFB1D197863
S113357096239B00081C111C1A1CFFF735FB031C27
S11335801A1CB74B1A80FB1D1B78181CFFF78EFF03
S1133590FB1D1B78102B00D019E1B14B1B88002BAD
S11335A000D114E1AE4B1A88AE4B9A81AD4B1A8907
S11335B0AD4BDA843B1C0F3301221A701CE0A94B7B
S11335C01A89A94BDA843B1C0F331B78132B0CD8B4
S11335D03B1C0F331B785A1E3B1C0F331978A24B2C
S11335E04900C95AA04B5200D1523B1C0F333A1C1C
S11335F00F32127801321A703B1C0F331B78142BD4
S1133600DDD99A4B1B78002B00D086E03B1C0F338E
S113361001221A701CE0934B9A89954B5A813B1CEA
S11336200F331B78052B0CD83B1C0F331B785A1E09
S11336303B1C0F3319788E4B4900C95A8C4B5200EE
S1133640D1523B1C0F333A1C0F32127801321A70DC
S11336503B1C0F331B78062BDDD9824B1A897F4B19
S11336601B889A4205D27D4B1A7A3B1C0C331A8074
S113367028E07C4B1A89794B5B889A4205D2774BB8
S11336805A7A3B1C0C331A801CE0764B1A89734B14
S11336909B889A4205D2714B9A7A3B1C0C331A8050
S11336A010E0704B1A896D4BDB889A4205D26B4B44
S11336B0DA7A3B1C0C331A8004E0684B1A7B3B1CFF
S11336C00C331A806B4B1B78042B06D13B1C0C3338
S11336D03A1C0C3212881A8023E0664B1B78032BA9
S11336E007D13B1C0C333A1C0C3212881E321A8050
S11336F017E0604B1B78022B07D13B1C0C333A1CA0
S11337000C32128846321A800BE03B1C0C333A1CF4
S11337100C32128864321A8003E03B1C0C33564A84
S11337201A80564B1A7801231340DBB2002B03D0C6
S11337304F4B1A88524B1A804D4B1A88514B1A80A2
S1133740484B9A894F4B1B889A4210D34E4B002208
S11337501A70444B9B891A1C4A4B1B88D21A4B4B38
S11337609A422DDD424B1A89414B5A8128E0454B40
S11337701A883C4B9B89D31A9AB2454B1A80444B06
S11337801A88424B9A4206D8414B1B883A1C0C3289
S113379012889A4207D9364B1A89354B5A813A4BCB
S11337A000221A700CE03A4B1B881A1C394B1B7808
S11337B0101C191CFDF772F8031CDAB2324B1A7094
S11337C02F4B1A88344B1A802F4B1B7845E1FB1D75
S11337D01B78082B00D03FE1214B1B88002B00D124
S11337E03AE11F4B1A881F4BDA811E4B59891E4A36
S11337F04E23D1523B1C0F3301221A701FE0194B88
S11338005989194A4E23D1523B1C0F331B78132B71
S11338100ED83B1C0F331B785A1E3B1C0F331978F0
S1133820114B14314900C95A0F4B14325200D15272
S11338303B1C0F333A1C0F32127801321A703B1CB6
S11338400F331B78142BDAD9084B1B78002B00D0CC
S1133850A8E03B1C0F3301221A703EE048AA000086
S11338607AFEFF1F48FDFF1F1CFEFF1F64FDFF1FA4
S113387004FEFF1F7CFEFF1FB80B000070FEFF1F3D
S113388060FDFF1F76FDFF1FC0FDFF1F88130000B2
S11338906CFDFF1F2DFDFF1F94FDFF1F714BDA8987
S11338A0714BDA823B1C0F331B78052B0ED83B1C63
S11338B00F331B785A1E3B1C0F3319786A4B0631A1
S11338C04900C95A684B06325200D1523B1C0F338F
S11338D03A1C0F32127801321A703B1C0F331B78DA
S11338E0062BDBD95F4B5A89604B1B889A4205D261
S11338F05E4B1A7A3B1C0C331A8028E0594B5A89C8
S11339005A4B5B889A4205D2584B5A7A3B1C0C336B
S11339101A801CE0534B5A89544B9B889A4205D217
S1133920524B9A7A3B1C0C331A8010E04D4B5A8947
S11339304E4BDB889A4205D24C4BDA7A3B1C0C3353
S11339401A8004E0494B1A7B3B1C0C331A80484B09
S11339501B78042B06D13B1C0C333A1C0C32128806
S11339601A8023E0424B1B78032B07D13B1C0C33FA
S11339703A1C0C3212881E321A8017E03C4B1B781A
S1133980022B07D13B1C0C333A1C0C3212884632F2
S11339901A800BE03B1C0C333A1C0C321288643244
S11339A01A8003E03B1C0C33324A1A80324B1A78DB
S11339B001231340DBB2002B03D02B4B9A892F4BEE
S11339C05A80294B9A892E4B1A80264BDA892C4B24
S11339D01B889A4210D32B4B00225A70214BDB894F
S11339E01A1C274B1B88D21A274B9A422DDD1E4BDB
S11339F09A8A1D4BDA8228E0214B1A88194BDB89FD
S1133A00D31A9AB2214B5A80204B5A881E4B9A42A1
S1133A1006D81E4B5B883A1C0C3212889A4207D98E
S1133A20114B9A8A104BDA82164B00225A700CE022
S1133A30164B5B881A1C164B1B78101C191CFCF7C0
S1133A402DFF031CDAB20F4B5A700C4B5A88114BE2
S1133A505A800C4B5B7800E00023181CBD4604B070
S1133A6080BDC04648FDFF1F04FEFF1F48AA00009A
S1133A707CFEFF1FB80B000070FEFF1F60FDFF1FE0
S1133A8092FDFF1FC0FDFF1F881300006CFDFF1F88
S1133A902DFDFF1F94FDFF1F90B585B000AF021CE4
S1133AA0FB1D1A703B1C0F3300221A703B1C0E3393
S1133AB000221A70FB1D1A780823134000D1A2E0DB
S1133AC03C1C0E340820FFF749FD031C23703B1CEB
S1133AD00E331B78002B03D1A14B00225A708EE0C9
S1133AE03B1C0E331B78002B08D03B1C0E331B7879
S1133AF0032B03D89A4B01225A7080E03B1C0E33EF
S1133B001B78032B08D93B1C0E331B78052B03D8D9
S1133B10934B02225A7072E03B1C0E331B78052B28
S1133B2008D93B1C0E331B78072B03D88C4B03227C
S1133B305A7064E03B1C0E331B78072B08D93B1CDE
S1133B400E331B78092B03D8854B04225A7056E098
S1133B503B1C0E331B78092B08D93B1C0E331B78F6
S1133B600A2B03D87E4B05225A7048E03B1C0E33C7
S1133B701B780A2B08D93B1C0E331B780E2B03D859
S1133B80774B06225A703AE03B1C0E331B780E2BFF
S1133B9008D93B1C0E331B78112B03D8704B07221A
S1133BA05A702CE03B1C0E331B78112B08D93B1C9C
S1133BB00E331B78122B03D8694B08225A701EE06F
S1133BC03B1C0E331B78122B08D93B1C0E331B787D
S1133BD0132B03D8624B09225A7010E03B1C0E339E
S1133BE01B78132B08D93B1C0E331B78232B03D8CB
S1133BF05B4B0A225A7002E0594B0B225A70584B05
S1133C005A78584B5A70FB1D1A781023134000D170
S1133C10A2E03C1C0F341020FFF7A0FC031C23700F
S1133C203B1C0F331B78002B03D14D4B00221A7021
S1133C308EE03B1C0F331B78002B08D03B1C0F334A
S1133C401B78032B03D8464B01221A7080E03B1CDF
S1133C500F331B78032B08D93B1C0F331B78052B20
S1133C6003D83F4B02221A7072E03B1C0F331B78BF
S1133C70052B08D93B1C0F331B78072B03D8384B73
S1133C8003221A7064E03B1C0F331B78072B08D9FE
S1133C903B1C0F331B78092B03D8314B04221A70B9
S1133CA056E03B1C0F331B78092B08D93B1C0F3300
S1133CB01B780A2B03D82A4B05221A7048E03B1CB8
S1133CC00F331B780A2B08D93B1C0F331B780E2BA0
S1133CD003D8234B06221A703AE03B1C0F331B789F
S1133CE00E2B08D93B1C0F331B78112B03D81C4B0C
S1133CF007221A702CE03B1C0F331B78112B08D9B8
S1133D003B1C0F331B78122B03D8154B08221A7057
S1133D101EE03B1C0F331B78122B08D93B1C0F33BE
S1133D201B78132B03D80E4B09221A7010E03B1C8E
S1133D300F331B78132B08D93B1C0F331B78232B11
S1133D4003D8074B0A221A7002E0054B0B221A70A3
S1133D50034B1A78034B1A70BD4605B090BDC0469C
S1133D60B8FDFF1FACFDFF1F80B582B000AF5C4BF8
S1133D701A895B4B1B8A9A4208D9594B1A89584BAA
S1133D801B8AD31A9AB2574B1A8007E0544B1A8AEB
S1133D90534B1B89D31A9AB2524B1A80504B5A89EF
S1133DA04F4B5B8A9A4208D94D4B5A894C4B5B8ADC
S1133DB0D31A9AB24B4B5A8007E0494B5A8A484B64
S1133DC05B89D31A9AB2474B5A80474B1B88C82B3E
S1133DD00BD8464B1B88C82B07D8454B1B88C82BD0
S1133DE003D8444B1B88C82B03D9434B00221A70B9
S1133DF002E0414B01221A70FB1D00221A702EE0D2
S1133E003E4B1A88FB1D19783C4B4900CB5A9A4209
S1133E1010D93A4B1B881A1CFB1D1978374B4900E3
S1133E20CB5AD21A96235B009A4213DD324B0022FE
S1133E301A700FE0FB1D1A78304B5200D35A1A1C2B
S1133E402E4B1B88D21A96235B009A4202DD2A4B22
S1133E5000221A70FB1DFA1D127801321A70FB1D24
S1133E601B78132BCCD9FB1D00221A7031E0234B95
S1133E701A8DFB1D1978214B14314900CB5A9A42F3
S1133E8011D91E4B1B8D1A1CFB1D19781B4B1431A9
S1133E904900CB5AD21A96235B009A4214DD164B82
S1133EA000221A7010E0FB1D1A78144B14325200D1
S1133EB0D35A1A1C114B1B8DD21A96235B009A42BB
S1133EC002DD0D4B00221A70FB1DFA1D127801321F
S1133ED01A70FB1D1B78132BC9D9BD4602B080BDD7
S1133EE048FDFF1F38FDFF1F8CFDFF1F88FEFF1FCD
S1133EF02EFDFF1F32FDFF1FEDFDFF1F1CFEFF1FE8
S1133F0080B582B000AF724B1B78012B00D084E0E7
S1133F10704B1A78704B1A70FB1D00221A700DE05A
S1133F20FB1D1B78FA1D127801326A49895C694AC3
S1133F30D154FB1DFA1D127801321A70FB1D1B7837
S1133F40012BEDD9654B5A78644B1B789A4204D9FE
S1133F50624B5A785F4B9A7003E0604B1A785D4B62
S1133F609A705F4B1B78002B29D15B4B1B78042B79
S1133F7004D8594B1A785B4B1A7018E0564B1B78CF
S1133F80053B052B0FD89A00574BD3181B689F4647
S1133F90544B05221A70534B06221A7007E0514BFA
S1133FA006221A7003E04F4B06221A70C0464A4B91
S1133FB01A784E4B1A704A4B01221A7084E0464B11
S1133FC01A784A4B1B789A4200D87DE0424B1B7802
S1133FD0042B04D8404B1A78424B1A7018E03E4B1D
S1133FE01B78053B052B0FD89A00414BD3181B684F
S1133FF09F463C4B05221A703A4B06221A7007E082
S1134000384B06221A7003E0364B06221A70C0465B
S1134010314B1A78354B1A7056E0FB1D00221A708A
S113402013E0FB1D1A78334B5989324B5200D1529D
S1134030FB1D1A782F4BD98A2E4B06325200D152CF
S1134040FB1DFA1D127801321A70FB1D1B78042B1C
S1134050E7D9234B00221A70244B00221A70FB1D4F
S113406000221A702CE0FB1D1B781A4A0021D1543F
S1134070214B1B78002B18D01F4B00221A70194BB0
S11340801B78012B06D9174B1B78023BDAB2154B70
S11340901A7010E0134B1B78002B0CD0114B1B78BB
S11340A0013BDAB20F4B1A7005E0134B1B78013356
S11340B0DAB2114B1A70FB1DFA1D127801321A7014
S11340C0FB1D1B78022BCED9BD4602B080BDC04675
S11340D0EDFDFF1F44FDFF1FB8FEFF1FB8FDFF1FCE
S11340E0BAFDFF1FABFDFF1FA0AA0000EEFDFF1FDE
S11340F0B8AA000004FEFF1F81FDFF1F80B582B037
S113410000AF0A1CFB1D011C1970BB1D1A70BB1DDE
S11341101A78FB1D1B780A3B9A4203DA104B0022E3
S11341201A700FE0BB1D1A78FB1D1B780A3B9A42DC
S113413008DBBA1DFB1D12781B789A4202D8084B83
S113414001221A70BB1D1A78FB1D1B78013B9A4291
S113415001DB012300E00023181CBD4602B080BD32
S11341608CFEFF1F90B585B000AFD74B1B78052B95
S113417001D901F029F99A00D44BD3181B689F4642
S1134180D34B1B78012B05D13B1C0F33D14A927CB6
S11341901A7025E0CE4B1B78022B05D13B1C0F3344
S11341A0CC4A927C1A701BE0C94B1B78032B06D1B6
S11341B0C84B9A7C3B1C0F3314321A7010E0C44B6A
S11341C01B78042B06D1C34B9A7C3B1C0F3314324F
S11341D01A7005E0BF4B9A7C3B1C0F3314321A70E3
S11341E0BD4B1B78002B02D0BC4B01221A70BB4B79
S11341F01B78012B4FD1BA4B00221A703B1C0E3393
S113420000221A7017E03B1C0E331A78B54B9989BB
S1134210B54B5200D1523B1C0E331A78B14BD9899D
S1134220B14B06325200D1523B1C0E333A1C0E32B3
S1134230127801321A703B1C0E331B78042BE2D91E
S11342403B1C0E3300221A700CE03B1C0E331B780F
S1134250A64A0021D1543B1C0E333A1C0E3212786C
S113426001321A703B1C0E331B78022BEDD9A04B84
S113427000221A709F4B1B78132B06D99D4B0022EA
S11342801A70964B00221A7005E09A4B1B78013382
S1134290DAB2984B1A70984B1B783A1C0F3212788A
S11342A09A4209D8954B00221A70934B00221A7037
S11342B0934B00221A7005E08F4B1B780133DAB25E
S11342C08D4B1A708F4B1B78012B17D1844B012215
S11342D01A708D4B1B78092B09D98B4B00221A704D
S11342E0884B00221A70784B02221A7009E0864B20
S11342F01B780133DAB2844B1A7002E0784B002247
S11343001A70824B00221A70814B00221A70784B6B
S11343101B78002B00D180E0774B00221A707D4B74
S113432000221A707C4B1B78002B03D1664B0122B0
S11343301A7005E0794B00221A80724B01221A7020
S1134340634B1B78042B0AD1624BDA7C3B1C0B3386
S113435004321A703B1C0A3301221A7036E05C4B9B
S11343601B78032B0AD15B4BDA7C3B1C0B330432E6
S11343701A703B1C0A3302221A7027E0544B1B7834
S1134380022B0AD1534BDA7C3B1C0B3304321A70D8
S11343903B1C0A3302221A7018E04D4B1B78012B88
S11343A00AD14C4BDA7C3B1C0B3304321A703B1C95
S11343B00A3302221A7009E0464BDA7C3B1C0B33A9
S11343C004321A703B1C0A3302221A70544B1B78B5
S11343D03A1C0B3212789A421FD8514B5B783A1C24
S11343E00B3212789A4218D8454B1B783A1C0A3281
S11343F012789A4211D2344B04221A70464B01228D
S11344001A70464B00221A80464B00221A80464BF3
S113441000221A70454B00221A70414B1A782D4B1A
S11344201B7D9A4222D33E4B5A782A4B1B7D9A42DB
S11344301CD3324B1B78132B12D9304B00221A7029
S1134440354B01221A70354B00221A80354B00225D
S11344501A80354B00221A701B4B05221A7005E096
S1134460264B1B780133DAB2244B1A70304B1B886D
S1134470002B03D12F4B00221A7002E02D4B012296
S11344801A702C4B1A782C4B1B789A4209D9224B60
S11344901B78012B05D10C4B01221A70184B0022FA
S11344A01A701E4B1A88254B9A4249D91B4B00227D
S11344B01A80194B00221A701A4B00221A801A4BC8
S11344C000221A7042E0C04694FEFF1FD0AA0000EA
S11344D07CFEFF1F48AA000042FDFF1FDEFDFF1FF8
S11344E08CFEFF1F48FDFF1F04FEFF1F44FDFF1F3E
S11344F0ABFDFF1FF2FDFF1F99FDFF1FAFFDFF1F67
S1134500FBFDFF1FF4FDFF1F3DFDFF1F86FEFF1F88
S113451090FDFF1F70FDFF1F80FEFF1F8AFEFF1F1F
S1134520B8FDFF1F7EFEFF1F6CFEFF1F72FDFF1F05
S113453040FDFF1FFAFDFF1F98FDFF1F1F03000032
S1134540C24B1B8801339AB2C04B1A80C04B1B78F4
S1134550002B06D1BF4B1B78002B02D1BE4B00228F
S11345601A80BD4B1A88C8239B009A4210D8B94BB5
S11345701B78012B0CD9B84B00221A80B54B0022B2
S11345801A70B24B00221A80B14B01221A7011E04A
S1134590B14B1B8801339AB2AF4B1A80AE4B1A88C9
S11345A0C8239B009A4205D9AB4B00221A80A94B21
S11345B000221A70A94B00221A70A94B1A78A94B31
S11345C01A7000F004FFA84B00221A70A74B0022B7
S11345D01A70A74B00221A70A64B00221A70A64B21
S11345E000221A70A54B1B780133DAB2A34B1A7060
S11345F0A34B5A7DA14B1B789A4203D9A14B0022AD
S11346001A702FE09E4B5A7D9C4B1B789A420BD814
S11346109A4B1B781A1C9A4B5B7D0A339A4203DA35
S1134620984B01221A701DE0944B1B78452B07D937
S1134630924B1B78812B03D8924B00221A7011E005
S11346408E4B1B78812B07D98C4B1B788B2B03D873
S11346508C4B01221A7005E08A4B00221A708A4B97
S113466000221A707D4B03221A7000F0B0FE774BC3
S113467000221A80854B00221A70804B00221A7087
S11346807C4B00221A70824B00221A707D4B01224F
S11346901A70804B1B780133DAB27E4B1A70764B5A
S11346A000221A707B4B1B78092B17D97A4B0022F6
S11346B01A707A4B00221A70724B00221A70724BD5
S11346C000221A70684B1B780133DAB2664B1A70F9
S11346D0604B1B780133DAB25E4B1A70704B1B7857
S11346E0042B29D16F4B1B78042B11D9604B1B78F9
S11346F00133DAB25E4B1A70614BDA7D5C4B1B7886
S11347009A4205D25A4B00221A705F4B04221A7047
S11347105B4B9A7D544B1B789A4200D990E0624BD4
S113472000221A70504B00221A70574B02221A7042
S1134730524B00221A7083E0594B1B78032B28D16B
S1134740584B1B78042B11D9494B1B780133DAB22F
S1134750474B1A704A4BDA7D454B1B789A4205D277
S1134760434B00221A70484B04221A70444B9A7D22
S11347703D4B1B789A4263D84B4B00221A703A4B3C
S113478000221A70404B02221A703C4B00221A700D
S113479056E0434B1B78022B28D1424B1B78042B49
S11347A011D9334B1B780133DAB2314B1A70344BC5
S11347B0DA7D2F4B1B789A4205D22D4B00221A70BA
S11347C0314B04221A702E4B9A7D274B1B789A4248
S11347D036D8354B00221A70234B00221A702A4B0C
S11347E002221A70254B00221A7029E02D4B1B78E7
S11347F0042B11D91E4B1B780133DAB21C4B1A70EF
S11348001F4BDA7D1A4B1B789A4205D2184B0022B3
S11348101A701D4B04221A70134B1B781A1C184B68
S11348209B7D01339A420BDB1F4B00221A700E4B07
S113483000221A70144B02221A70104B00221A70B4
S1134840064B01221A7000F0C2FDC0468AFEFF1F0B
S113485080FEFF1F6CFEFF1F7EFEFF1F42FDFF1F39
S1134860FAFDFF1F98FDFF1FFBFDFF1F99FDFF1FB2
S1134870BAFEFF1F2CFDFF1F90FDFF1F86FEFF1FCA
S113488048AA00008CFEFF1F94FEFF1F72FDFF1F4D
S1134890A0FDFF1F70FDFF1F3DFDFF1FF4FDFF1F67
S11348A07CFEFF1FABFDFF1FAFFDFF1FCC4B0122A2
S11348B01A70CC4B00221A70CB4B00221A70CB4BCF
S11348C000221A70CA4B1B780133DAB2C84B1A7033
S11348D0C84B00221A70C84B00221A70C74B002222
S11348E01A80C74B00221A70C64B00221A70C64B9E
S11348F000221A80C54B00221A70C54B1B78042B6A
S11349004AD1C44B1B88092B03D8C34B03221A700A
S11349100AE0C04B1B884F2B03D8BF4B04221A70EC
S113492002E0BD4B05221A70BA4B1B88092B09D82B
S1134930BA4B50221A70BA4B1A7E3B1C08330A3207
S11349401A7023E0B34B1B88312B09D8B34B502288
S11349501A70B34B1A7E3B1C083305321A7015E0EB
S1134960AC4B1B884F2B09D8AC4B3C221A70AC4B78
S11349701A7E3B1C083302321A7007E0A74B282228
S11349801A703B1C0833A64A127E1A703B1C09336A
S1134990A34A527E1A70DAE09D4B1B78032B4BD14D
S11349A09C4B1B88092B03D89B4B03221A700AE0EB
S11349B0984B1B884F2B03D8974B04221A7002E0A4
S11349C0954B04221A70934B1B88092B09D8934BDF
S11349D050221A70924B1A7E3B1C08330F321A7005
S11349E024E08C4B1B88312B09D88C4B64221A7021
S11349F08B4B1A7E3B1C08330A321A7016E0854B27
S1134A001B884F2B09D8854B50221A70844B1A7E71
S1134A103B1C083307321A7008E0804B3C221A70A2
S1134A207F4B1A7E3B1C083305321A703B1C09333A
S1134A307B4A527E1A708AE0754B1B78022B43D155
S1134A40744B1B88092B03D8734B03221A7002E0A2
S1134A50714B04221A706F4B1B88092B09D86F4BBA
S1134A605A221A706E4B1A7E3B1C083314321A7089
S1134A7024E0684B1B88312B09D8684B6E221A70CE
S1134A80674B1A7E3B1C08330F321A7016E0614BD9
S1134A901B884F2B09D8614B5A221A70604B1A7E1F
S1134AA03B1C08330A321A7008E05C4B46221A7029
S1134AB05B4B1A7E3B1C083307321A703B1C0933CC
S1134AC0574A527E1A7042E0524B1B88092B03D876
S1134AD0514B03221A7002E04F4B03221A704D4BC4
S1134AE01B88092B09D84D4B64221A704C4B1A7E33
S1134AF03B1C083319321A7024E0464B1B88312BB7
S1134B0009D8464B78221A70454B1A7E3B1C083351
S1134B1014321A7016E03F4B1B884F2B09D83F4BB9
S1134B2064221A703E4B1A7E3B1C08330F321A70F3
S1134B3008E03A4B50221A70394B1A7E3B1C08335A
S1134B400A321A703B1C0933354A527E1A70354BAF
S1134B501A78274B1B789A4202D8254B00221A70E8
S1134B60314B1B78002B0ED02E4B1A78204B1B7820
S1134B70FC1D101C191CFFF7C1FA031C23702B4BDE
S1134B8002221A7007E0244B1A78274B1A70234B21
S1134B901A78244B1A70FB1D1B78002B4CD0224B27
S1134BA01B78013BDAB2204B1A701F4B1B78002B89
S1134BB05AD11F4B00221A701E4B00221A701A4B36
S1134BC000221A70174B00221A70144B00221A701C
S1134BD0114B00221A70154B00221A7044E0C04693
S1134BE080FEFF1FBAFEFF1F2CFDFF1FFBFDFF1FF2
S1134BF086FEFF1FA0FDFF1F72FDFF1F8AFEFF1F21
S1134C003DFDFF1FF4FDFF1F7EFEFF1F6CFEFF1F17
S1134C107CFEFF1F40FDFF1FF6FDFF1F91FDFF1FE0
S1134C2048AA0000AEFDFF1F68FDFF1F94FEFF1F92
S1134C30AFFDFF1F8CFEFF1FD14B1B78032B10D938
S1134C40D04B1B88042B08D9CF4B1A78CF4B1A7042
S1134C50CF4B1A78CF4B1A7003E0CD4B1A78CD4B5B
S1134C601A70CD4B02221A70CC4B1B78042B03D143
S1134C70BB1D78221A7012E0C84B1B78032B03D19A
S1134C80BB1D7D221A700AE0C44B1B78022B03D192
S1134C90BB1D8C221A7002E0BB1DA0221A70B84BF7
S1134CA01B783A1C093212789A4225D8BC4B1B78DF
S1134CB00133DAB2BA4B1A70BA4B00221A80B84BDD
S1134CC01B783A1C083212789A4228D8AF4B00223B
S1134CD01A70B04B00221A70AD4B00221A70AA4B06
S1134CE000221A70B04B00221A70AD4B00221A70C9
S1134CF0A94B04221A7012E0AA4B1B8801339AB202
S1134D00A84B1A80BB1D1B789AB2A64B1B889A42EB
S1134D1005D8A44B00221A80A14B00221A70A34B81
S1134D201A78A34B1B7D9A4222D3A04B5A78A04BEE
S1134D301B7D9A421CD39F4B1B78272B12D9934B74
S1134D4000221A70934B00221A70914B00221A70A1
S1134D508D4B00221A70974B00221A708E4B05223D
S1134D601A7005E0934B1B780133DAB2914B1A7039
S1134D70914B02221A702AE3904B01221A708D4B38
S1134D8000221A708E4B00221A70874B00221A7070
S1134D908C4B00221A708C4B00221A708B4B012210
S1134DA01A708B4B1B78C72B06D9894B00221A70BB
S1134DB0884B00221A7005E0854B1B780133DAB268
S1134DC0834B1A70754B1B78042B66D16D4B1B8873
S1134DD0042B0AD83B1C0F33754A927E1A703B1C75
S1134DE00C33734AD27E1A7018E0664B1B884F2B23
S1134DF00AD83B1C0F336E4A127F1A703B1C0C33CB
S1134E006B4A527F1A7009E03B1C0F33684A927F49
S1134E101A703B1C0C33664AD27F1A70584B1B78AD
S1134E20032B17D86C4B1B783A1C0F3212789A421A
S1134E3009D8694B00221A705B4B00221A70564B3A
S1134E4002221A7020E0644B1B780133DAB2624B01
S1134E501A7019E04A4B1B78032B15D95D4B1B784C
S1134E600133DAB25B4B1A705B4B00221A70594B58
S1134E701B783A1C0C3212789A4205D8554B002202
S1134E801A70454B05221A703D4B1B78012B00D834
S1134E9081E1514B00221A707DE1404B1B78032BBA
S1134EA000D09BE0374B1B88042B0CD83B1C0F33E2
S1134EB03F4920228A5C1A703B1C0C333C49212256
S1134EC08A5C1A701CE02F4B1B884F2B0CD83B1CA0
S1134ED00F33374922228A5C1A703B1C0C33344945
S1134EE023228A5C1A700BE03B1C0F3330492422C6
S1134EF08A5C1A703B1C0C332D4925228A5C1A707B
S1134F001F4B1B78032B17D8334B1B783A1C0F32DB
S1134F1012789A4209D8304B00221A70224B002290
S1134F201A701D4B02221A7020E02B4B1B780133A0
S1134F30DAB2294B1A7019E0114B1B78032B15D9DF
S1134F40244B1B780133DAB2224B1A70224B002215
S1134F501A70204B1B783A1C0C3212789A4205D8EE
S1134F601C4B00221A700C4B05221A70044B1B7840
S1134F70012B00D80FE1184B00221A700BE1C04638
S1134F80ABFDFF1F40FDFF1FF6FDFF1F68FDFF1F68
S1134F9091FDFF1FAEFDFF1F94FEFF1F7CFEFF1F50
S1134FA090FDFF1FF0FDFF1F86FEFF1FB8FDFF1FD2
S1134FB048AA0000AFFDFF1F42FDFF1F80FEFF1F38
S1134FC070FDFF1FFBFDFF1F9EFDFF1F8CFEFF1FDB
S1134FD072FDFF1F2CFDFF1FA0FDFF1FD24B1B788E
S1134FE0022B00D06CE0D14B1B88042B0CD83B1C4B
S1134FF00F33CF4926228A5C1A703B1C0C33CC49F0
S113500027228A5C1A701CE0C84B1B884F2B0CD8D3
S11350103B1C0F33C64928228A5C1A703B1C0C3394
S1135020C34929228A5C1A700BE03B1C0F33C04928
S11350302A228A5C1A703B1C0C33BD492B228A5CE1
S11350401A70BC4B1B78032B17D8BB4B1B783A1C2C
S11350500F3212789A4209D8B74B00221A70B74B14
S113506000221A70B64B02221A7020E0B24B1B7851
S11350700133DAB2B04B1A7019E0AE4B1B78032B34
S113508015D9B04B1B780133DAB2AE4B1A70AA4B68
S113509000221A70AB4B1B783A1C0C3212789A42DD
S11350A005D8A84B00221A70A54B05221A70A14BF3
S11350B01B78012B00D86EE09F4B00221A706AE027
S11350C09A4B1B88042B0CD83B1C0F3398492C2279
S11350D08A5C1A703B1C0C3395492D228A5C1A7029
S11350E01CE0924B1B884F2B0CD83B1C0F33904970
S11350F02E228A5C1A703B1C0C338D492F228A5C49
S11351001A700BE03B1C0F33894930228A5C1A70F9
S11351103B1C0C33864931228A5C1A70854B1B7800
S1135120032B17D8844B1B783A1C0F3212789A42FF
S113513009D8814B00221A70804B00221A70804BD0
S113514002221A7020E07C4B1B780133DAB27A4BCE
S11351501A7019E0774B1B78032B15D9794B1B7800
S11351600133DAB2774B1A70734B00221A70754B05
S11351701B783A1C0C3212789A4205D8714B0022E3
S11351801A706F4B05221A706A4B1B78012B02D9D7
S1135190694B00221A706A4B1A786B4B1A7016E12D
S11351A06A4B01221A706A4B03221A70694B00225F
S11351B01A705D4B1B78042B2ED15C4B1B88042B7F
S11351C00CD83B1C0F335A4932228A5C1A703B1CA0
S11351D00D33574933228A5C1A70C9E0534B1B883C
S11351E04F2B0CD83B1C0F33514934228A5C1A7064
S11351F03B1C0D334E4935228A5C1A70B8E03B1CC7
S11352000F334B4936228A5C1A703B1C0D334849D4
S113521037228A5C1A70ABE0434B1B78032B2ED1E8
S1135220424B1B88042B0CD83B1C0F3340493822BB
S11352308A5C1A703B1C0D333D4939228A5C1A7012
S113524096E03A4B1B884F2B0CD83B1C0F33384944
S11352503A228A5C1A703B1C0D3335493B228A5C26
S11352601A7085E03B1C0F3331493C228A5C1A706A
S11352703B1C0D332E493D228A5C1A7078E02A4B80
S11352801B78022B2ED1294B1B88042B0CD83B1CDA
S11352900F3327493E228A5C1A703B1C0D33244984
S11352A03F228A5C1A7063E0204B1B884F2B0CD87A
S11352B03B1C0F331E4940228A5C1A703B1C0D3381
S11352C01B4941228A5C1A7052E03B1C0F33184977
S11352D042228A5C1A703B1C0D33154943228A5CB6
S11352E01A7045E0114B1B88042B0CD83B1C0F3360
S11352F00F4944228A5C1A703B1C0D330C49452229
S11353008A5C1A7034E0094B1B884F2B24D83B1C51
S11353100F33074946228A5C1A703B1C0D3304493B
S113532047228A5C1A7023E07CFEFF1F40FDFF1FAA
S113533048AA0000ABFDFF1FA0FDFF1F86FEFF1F54
S113534094FEFF1F2CFDFF1F42FDFF1F80FEFF1F69
S11353508CFEFF1F72FDFF1F3B1C0F331D494822AB
S11353608A5C1A703B1C0D331A4949228A5C1A70F4
S1135370194B00221A70194B00221A70184B1B7813
S11353800133DAB2164B1A70154B1B783A1C0F32E4
S113539012789A4206D8134B04221A70104B00223A
S11353A01A700CE0104B1B783A1C0D3212789A429A
S11353B005D80E4B03221A70094B00221A70094BB0
S11353C01A780B4B1A7002E0064B00221A70BD4685
S11353D005B090BD48AA0000A0FDFF1F2CFDFF1FD3
S11353E09EFDFF1F94FEFF1FABFDFF1F8CFEFF1FE2
S11353F042FDFF1F80B500AF1A4B1A7801231340FA
S1135400DBB2002B25D0184B1B780133DAB2164BD4
S11354101A70164B1B78052B0DD1154B9A7B124B2A
S11354201B789A4203D3134B00221A7017E0114BD6
S113543001221A7013E00E4B1A7C0B4B1B789A4214
S113544003D30C4B00221A7009E00A4B01221A7094
S113545005E0084B00221A70034B00221A70BD4667
S113546080BDC04670FEFF1F95FEFF1F94FEFF1F08
S113547048AA000064FDFF1F80B500AF1820FEF7A6
S11354800BFBFEF771FCFEF73BFDFEF76BFEBD4622
S113549080BDC04680B582B000AFB54B00221A7003
S11354A0B44B1B7ADBB203229343DAB2B04B1B78C2
S11354B0DBB2191C03230B40DBB21343DBB2DAB2B9
S11354C0AC4B1A72AC4B01225A70AA4B1B7A2022A5
S11354D09343DAB2A74B1A72A74B01225A70FB1DF1
S11354E000221A7015E003F0D7FD96239B001020CC
S11354F001211A1CFDF778FB031C1A1C9F4B1A8010
S11355009E4B1B88002B09D1FB1DFA1D127801321A
S11355101A70FB1D1B78132BE5D900E0C046974B8E
S11355201A88974B9A4244D8FB1D00221A702EE029
S113553003F0B2FD934B1B780133DAB2914B1A702E
S1135540904B1B780B20191C02F012FB052002F073
S11355505FFFFA239B00102003211A1CFDF744FB74
S1135560031C1A1C854B1A80844B1A88844B9A425C
S113557004D9824B1A88844B9A420CD9814B1B78EC
S1135580EF2B08D8FB1DFA1D127801321A70FB1D8F
S11355901B78FD2BCCD97B4B1B78EF2B02D9794B95
S11355A0F0221A70774B1B780B20191C02F0E0FADA
S11355B048E0724B1A88744B9A4243D9FB1D00226F
S11355C01A702EE003F068FD6E4B1B78013BDAB2D3
S11355D06C4B1A706B4B1B780B20191C02F0C8FA29
S11355E0052002F015FFFA239B00102003211A1C4A
S11355F0FDF7FAFA031C1A1C604B1A805F4B1A88D9
S11356005F4B9A4204D95D4B1A885F4B9A420CD97E
S11356105C4B1B78102B08D9FB1DFA1D1278013244
S11356201A70FB1D1B78FD2BCCD9564B1B78102B05
S113563002D8544B10221A70524B1B780B20191CA1
S113564002F096FA4D4B1A88504B1A80FB1D00222B
S11356501A700BE0FB1D1A78484B19884C4B52000A
S1135660D152FB1DFA1D127801321A70FB1D1B78F2
S1135670052BEFD9434B1A783B1D1A70454A3B1D45
S1135680101C191C012203F037FFFB1D00221A70A5
S113569015E003F001FDFA239B00082001211A1CE8
S11356A0FDF7A2FA031C1A1C344B1A80334B1B88D7
S11356B0002B09D1FB1DFA1D127801321A70FB1D53
S11356C01B78132BE5D900E0C0462C4B1A882C4BD1
S11356D09A4244D8FB1D00221A702EE003F0DCFC31
S11356E02D4B1B780133DAB22B4B1A702A4B1B78E3
S11356F00C20191C02F03CFA052002F089FEFA2362
S11357009B00082003211A1CFDF76EFA031C1A1CC7
S11357101A4B1A80194B1A88194B9A4204D9174B01
S11357201A88194B9A420CD91B4B1B78EF2B08D8BB
S1135730FB1DFA1D127801321A70FB1D1B78FD2B1C
S1135740CCD9154B1B78EF2B02D9134BF0221A70CE
S1135750114B1B780C20191C02F00AFA5EE0074B6F
S11357601A88094B9A4259D9FB1D00221A7044E049
S11357708CFEFF1F68FCFF1FE4FCFF1F7AFEFF1F67
S1135780D3AD000071FDFF1FBCB1000088FDFF1FF9
S113579004FEFF1F0E00001078FEFF1F03F07CFCC8
S11357A03F4B1B78013BDAB23D4B1A703C4B1B78E4
S11357B00C20191C02F0DCF9052002F029FEFA2362
S11357C09B00082003211A1CFDF70EFA031C1A1C67
S11357D0344B1A80334B1A88334B9A4204D9314BD9
S11357E01A88324B9A420CD92D4B1B78102B08D9AE
S11357F0FB1DFA1D127801321A70FB1D1B78FD2B5C
S1135800CCD9274B1B78102B02D8254B10221A70A9
S1135810234B1B780C20191C02F0AAF9214B1A887F
S1135820234B1A80FB1D00221A700CE0FB1D1A7812
S11358301C4B19881F4B06325200D152FB1DFA1D16
S1135840127801321A70FB1D1B78052BEED9144B0C
S11358501A783B1D1A70184A3B1D101C191C012292
S113586003F04AFEFB1D00221A7009E0FB1D1B78A1
S1135870124A0021D154FB1DFA1D127801321A700C
S1135880FB1D1B78022BF1D90D4B01221A700D4B15
S113589000221A700C4B00221A70BD4602B080BD63
S11358A078FEFF1F7AFEFF1FD3AD0000BCB10000DD
S11358B0A6FDFF1F04FEFF1F0F00001044FDFF1F85
S11358C0CCFEFF1FFBFDFF1FBAFEFF1F80B582B099
S11358D000AF294B1B78042B09D0284B1A780E23D0
S11358E01340DBB2082B02D1254B01221A70234B43
S11358F01B781B075B0FDBB21A1C1F4B1A70204B63
S11359001B78012B34D11F4B1B78012B30D11E4B3C
S113591001221A701D4B00221A701D4B1B78013393
S1135920DAB21B4B1A701A4B1B780A2B08D9184B86
S113593000221A70124B00221A70134B00221A70A4
S1135940FB1D00221A7009E0FB1D1B78114A00217F
S1135950D154FB1DFA1D127801321A70FB1D1B78FD
S1135960022BF1D90C4B01221A700C4B00221A7035
S1135970BD4602B080BDC0469BFDFF1F70FEFF1FE9
S113598066FDFF1FE2FDFF1F8CFEFF1FFBFDFF1FD7
S113599076FEFF1F44FDFF1F42FDFF1F94FEFF1F05
S11359A080B582B000AF2D4B5B785B075B0FDBB239
S11359B01A1C2B4B1B789A4202DD2A4B01221A70C7
S11359C0264B5B785B075B0FDBB21A1C244B1A7007
S11359D0244B1B78012B3AD1234B1B78002B03D08B
S11359E0214B1B78012B32D1204B1B78012B2ED15C
S11359F01F4B01221A701F4B00221A701E4B1B787A
S1135A000133DAB21C4B1A701B4B1B780A2B05D9D5
S1135A10144B00221A70164B00221A70FB1D002230
S1135A201A7009E0FB1D1B78144A0021D154FB1D98
S1135A30FA1D127801321A70FB1D1B78022BF1D962
S1135A400F4B01221A70084B00221A7002E00A4B15
S1135A5000221A70BD4602B080BDC04670FEFF1F12
S1135A6065FDFF1FB9FEFF1F94FEFF1FE2FDFF1F30
S1135A708CFEFF1FFBFDFF1F97FEFF1F44FDFF1F52
S1135A8042FDFF1F80B582B000AF0B20032102F05E
S1135A9043FC031C7B607B68074A5343181C0D219D
S1135AA0FAF7AEFE031C1B0B9BB208339AB2034BEE
S1135AB01A80BD4602B080BD910E0000A2FDFF1FFA
S1135AC080B500AFFFF7DEFF1E4B1B884B2B10D8B1
S1135AD01D4B00221A701D4B1B780133DAB21B4B8D
S1135AE01A701A4B1B78132B29D9194B01221A70DF
S1135AF025E0144B1B884F2B0DD9124B1B88B42B5C
S1135B0009D8124B00221A700F4B00221A70104B46
S1135B1000221A7013E00B4B1B88B92B0FD90B4BC7
S1135B2000221A70084B1B780133DAB2064B1A7044
S1135B30054B1B78132B02D9054B02221A70BD4664
S1135B4080BDC046A2FDFF1F9FFDFF1F9AFDFF1FE2
S1135B5081FEFF1F80B500AF094B1B780E2B03D9C4
S1135B60084B01221A7008E0064B00221A70044BFD
S1135B701B780133DAB2024B1A70BD4680BDC046B1
S1135B80F3FDFF1FE2FDFF1F80B500AF574B1B68FD
S1135B905A1C564B1A60564B1B78012B2AD0022BE9
S1135BA069D0002B00D095E0FFF766FC514B1B78C1
S1135BB0002B08D04E4B01221A704F4B00221A7052
S1135BC003F01CFA0AE0494B1A684C4B9A4205D977
S1135BD0474B01221A70484B00221A70484B1B781D
S1135BE0012B00D07BE0474B00221A70464B012268
S1135BF01A7074E0454B00221A70414B1B78012B3C
S1135C0006D1434B00221A80394B02221A7068E0F5
S1135C10394B1B780133DAB2374B1A70364B1B7889
S1135C20092B0BD8344B1B78181C0321FAF72CFED4
S1135C300B1CDBB2002B01D103F038FC2E4B1B787C
S1135C401D2B4ED92C4B00221A70314B1B8801336B
S1135C509AB22F4B1A802E4B1B88272B41D92C4BE1
S1135C6000221A802B4B01221A702B4B1A78202108
S1135C708A431A7035E0254B00221A70244B1B8886
S1135C8001339AB2224B1A80244B01221A7003F07A
S1135C9027FB1F4B1A88224B9A420DD91C4B00221A
S1135CA01A801E4B00221A701B4B1A7820218A433B
S1135CB01A70154B01221A70174B1A7820231340BF
S1135CC0DBB2002B0FD1154B00221A700E4B0122B0
S1135CD01A7008E0064B00221A70C04604E0C04661
S1135CE002E0C04600E0C046BD4680BDC8FEFF1FBE
S1135CF067FDFF1F8CFEFF1F87FEFF1F7F970600B7
S1135D007EFDFF1FAAFDFF1FCCFEFF1FC1FEFF1F6C
S1135D10B4FDFF1F86FDFF1F70FEFF1FB8FCFF1FB1
S1135D20AF04000080B582B000AFFDF79FFB72B6F0
S1135D30E1231B02181C01F0B3FCA3231B02181C53
S1135D4001F0AEFCFCF768FD3A4B1B789B06DB0FB9
S1135D50DBB2002B08DD03F045F9374B02221A7041
S1135D60364B00221A7001E003F048F9344B344AF0
S1135D705279D2B240210A43D2B25A71304B304ADE
S1135D801278D2B240210A43D2B21A702D4B2D4A56
S1135D909268802109020A439A60FB1D00221A704E
S1135DA00EE0FB1D1B78284A0021D154FB1D1B78F3
S1135DB0264A0021D154FB1DFA1D127801321A70B3
S1135DC0FB1D1B78012BECD9214B00221A70214BAF
S1135DD000221A70204B00221A70204B00221A80D5
S1135DE01F4B00221A701F4B00221A701E4B0022F8
S1135DF01A701E4B00221A801D4B00221A7003F0E9
S1135E006FFA1C4B1B4A1278D2B21C218A43D2B2BD
S1135E101A70194A1849D1231B01CB58042119437C
S1135E20D1231B01D15062B630BF03F0E7F8BD4661
S1135E3002B080BD70FEFF1FCCFEFF1F67FDFF1F79
S1135E4000A0064000F00F405CFDFF1FDCFDFF1FBB
S1135E5047FDFF1FECFDFF1F7EFDFF1F8AFEFF1F96
S1135E603DFDFF1FF4FDFF1F80FEFF1F7EFEFF1F91
S1135E706CFEFF1F00D0074000E000E080B500AFDB
S1135E80124B124A5268802109020A435A60104B8D
S1135E901B681A1C64320E4B1A60FDF7C7FA0D4BCF
S1135EA000221A700C4B00221A7001F0E7F900204E
S1135EB001F0ECF9FCF7A2FC02F0E8FEE4231B027B
S1135EC0181C01F0EDFBBD4680BDC04600F00F403C
S1135ED0C8FEFF1FE2FDFF1FF3FDFF1F80B500AFEB
S1135EE00B4B01221A700B4B00221A700A4B002232
S1135EF01A700A4B00221A70094B00221A70094BBF
S1135F0000221A70084B00221A70BD4680BDC0469C
S1135F10C2FEFF1FC5FEFF1FC4FEFF1FC0FEFF1F02
S1135F20C1FEFF1FC3FEFF1FCCFEFF1F80B500AFE5
S1135F3002F02CFA02F0AAFE02F0B6F902F01CFFFD
S1135F40624B181C02F0B4FA03F01AF801F0FCFAE0
S1135F50FBF780FEFFF7C2FF03F0BEF8FCF784FDF9
S1135F6003F058F803F098F8594B1B78072B0BD81B
S1135F70584B1B78012B07D0574B1B78012B03D0B0
S1135F80564B1B78012B11D1524B00221A70524BE5
S1135F9000221A70514B00221A704D4B00221A70C5
S1135FA0FFF7C0FEFFF76AFFFFF798FF4C4B1B7823
S1135FB0012B05D0022B4AD0002B00D17BE07DE0E1
S1135FC0484B00221A60484B1B78012B00D079E023
S1135FD0454B00221A70454B1B780133DAB2434B10
S1135FE01A70FBF75DFF414B1B78042B6AD93F4BBA
S1135FF000221A703E4B1B780133DAB23C4B1A7004
S1136000FFF73AFA3A4B1B78012B1DD9384B002283
S11360101A70384B1B780133DAB2364B1A70FFF71B
S11360204FFDFDF7DBF8FFF795FDFDF727F9314B41
S11360301B78042B08D92F4B00221A70244B1B7891
S11360400133DAB2224B1A7003F04AF93AE0264BD4
S11360501B78012B38D1244B00221A70234B1B7858
S11360600133DAB2214B1A70204B1B78042B2BD945
S11360701E4B00221A701E4B1B780133DAB21C4BE4
S11360801A70FFF781FD1A4B1B78012B1CD9184B92
S113609000221A70184B1B780133DAB2164B1A70AF
S11360A0154B1B78052B0FD9134B00221A700A4B82
S11360B001221A7008E0FFF7EDF906E0084B01220F
S11360C01A7002E0C04600E0C0464BE7002D3101E3
S11360D0C3FEFF1F96FEFF1FAAFDFF1F86FDFF1FC5
S11360E0CCFEFF1FC8FEFF1FC2FEFF1FC5FEFF1F21
S11360F0C4FEFF1FC0FEFF1FC1FEFF1F80B584B09A
S113610000AF021CFB1D1A702D4BFA1D12781A7079
S11361102C4B2D4A1A602D4B34221A803B1C0E3313
S113612041221A802A4B2A4AD268802149030A4311
S1136130DA60284B1B683A1C0E321288120A92B29B
S1136140D1B21F220A40D2B21A70224B1B683A1CE9
S11361500E321288D2B25A701E4B1B6800229A70FB
S11361601C4B1B682C22DA701A4B1A68194B1B68DB
S11361705B79DBB27A2149420B43DBB25371154B95
S11361801A68144B1B689B79DBB202210B43DBB208
S11361909371104B1A680F4B1B681B78DBB280217C
S11361A049420B43DBB213700A4B1B685A79102126
S11361B08A435A7100F020F9BD4604B080BDC04640
S11361C064FCFF1FCCFCFF1F48FFFF1FD0FCFF1F18
S11361D00080044060FCFF1F80B500AF00F00CF9A4
S11361E0BD4680BD80B500AF024B0A221A70BD4681
S11361F080BDC04665FCFF1F80B582B000AF021CA5
S1136200FB1D1A70084B1B68FA1D12781A70074B95
S113621000221A70044B1A68054B1A60054B0622BB
S11362201A70BD4602B080BDCCFCFF1FC0FCFF1F2E
S1136230C4FCFF1F65FCFF1F98B500AF0F4B1A6825
S11362400E4B1B681B780133D4180C4B1A680C4B8B
S11362501B78101C191C01F0EFF8031C2370094B68
S113626001221A70084B1A68044B1B685B78D371BF
S1136270064B07221A70BD4698BDC046CCFCFF1FD2
S113628066FCFF1FC0FCFF1F60FCFF1F65FCFF1FB7
S113629080B500AF464B1B78022B18D1454B1B88A9
S11362A0013B9AB2434B1A80424B1B88002B0ED100
S11362B0414B03221A70414B05221A70404B0522B0
S11362C01A703B4B00221A703E4B00221A70384B56
S11362D01B78012B15D1374B1B88013B9AB2354BE8
S11362E01A80344B1B88002B0BD1334B03221A70BA
S11362F0354B04221A702E4B00221A70314B0022A7
S11363001A70324B1B78092B50D89A00304BD31893
S11363101B689F462F4B1B88002B13D12E4B012249
S11363201A700820FF2100F017FC2A4B2B4A1A8010
S11363302B4B1B685A7902218A435A71234B0A2238
S11363401A7033E0234B1B88013B9AB2214B1A800D
S11363502CE0244B1B88002B02D100F04DF825E0E3
S1136360204B1B88013B9AB21E4B1A801EE01E4B29
S11363701B88002B13D11D4B1B78002B0CD01C4BFE
S11363801B7802221343DAB2194B1A70194B1B788B
S11363900720191C00F0E0FB00F02EF805E0124B7A
S11363A01B88013B9AB2104B1A80C046BD4680BD83
S11363B03CFFFF1FF0FEFF1FACFCFF1FEEFEFF1FA4
S11363C0ECFEFF1FECFCFF1F1BFFFF1F65FCFF1F04
S11363D0E8AA0000D6FCFF1F34FFFF1F10270000AF
S11363E060FCFF1FD2FCFF1FD4FCFF1FC0FCFF1F7B
S11363F0BCFCFF1FC8FCFF1F80B500AF0A4B1B7815
S113640004229343DAB2084B1A70084B084A1A80E4
S1136410084B00221A70084B1B685A7902210A4360
S11364205A71BD4680BDC046BCFCFF1FD6FCFF1F91
