S00A0000524C532E68657891
S1130000000C002009090000A1080000A10800005C
S113001000000000000000000000000000000000DC
S1130020000000000000000000000000A108000023
S11300300000000000000000A1080000A10800006A
S1130040A1080000A1080000A1080000A108000008
S1130050A1080000A1080000A1080000A1080000F8
S1130060A1080000A1080000A1080000A1080000E8
S1130070A1080000A1080000A1080000A1080000D8
S1130080A1080000A1080000A1080000A1080000C8
S1130090A1080000A1080000A1080000A1080000B8
S11300A0A1080000A1080000A1080000A1080000A8
S11300B065170000A1080000A1080000A1080000C5
S1130800002934D00123002210B488422CD30124BF
S11308102407A14204D2814202D209011B01F8E754
S1130820E400A14204D2814202D249005B00F8E70D
S1130830884201D3401A1A434C08A04202D3001B39
S11308405C0822438C08A04202D3001B9C0822436C
S1130850CC08A04202D3001BDC082243002803D0AA
S11308601B0901D00909E3E7101C10BC70470028DC
S113087001D00020C04307B4024802A140180290EE
S113088003BDC046190000000029F0D003B5FFF7EE
S1130890B9FF0EBC4243891A1847C0467047C04688
S11308A080B500AF00BEBD4680BDC04680B500AF78
S11308B0084A0949094BD150094BA4221A70084B24
S11308C001225A70064B0F221A71054BA0225A714D
S11308D0BD4680BD00E000E000000000080D0000FF
S11308E00020054080B500AF054A064BD31A054ADF
S11308F0101C00211A1C00F0FFFFBD4680BDC0463D
S113090028FFFF1F04FCFF1F01F088F8FFF7CEFF4C
S1130910FFF7E8FF01F0B6F801F034F801F08CF8C5
S1130920044B0020191C00F02BFF031C181C00F0C2
S1130930C7FFC04604FCFF1F80B582B000AF7860DB
S1130940FEE7C04680B500AF1C4B1C4A1278D2B2F9
S113095002210A43D2B21A70194B1B78FF2B12D012
S1130960164B174A12789A70144B144AD278D2B2A2
S113097001218A43D1B2134A107801220240D2B233
S11309800A43D2B2DA70C0460C4B1B79DBB21A1C94
S113099040231340F8D0094B084A5278D2B22021A0
S11309A00A43D2B25A70054B044A1279D2B240219A
S11309B00A43D2B21A71BD4680BDC046004006400B
S11309C0FF030000FE03000080B584B000AF786030
S11309D00023FB607B68181C2C49FFF711FF031CE4
S11309E0DAB23B1C0B33013A1A70294B9B79DBB208
S11309F0DBB25BB2002B05DBFB68264A1343FB60CA
S1130A00FB683FE0224B1B78DBB21A1C40231340E7
S1130A1028D11F4B1B78DBB2DBB25BB2002B10DAA0
S1130A201B4B1B78DBB21A1C3B1C0B331B785A4044
S1130A303F23134005D0FB68174A1343FB60FB6850
S1130A4020E0134B124A1278D2B23F218A43D1B22A
S1130A503A1C0B3210783F220240D2B20A43D2B27F
S1130A601A700EE00A4B1B78DBB21A1C3B1C0B33CA
S1130A701B785A403F23134003D0FB68064A1343B4
S1130A80FB60FB68181CBD4604B080BD40420F00EB
S1130A9000000240143000001830000080B584B01B
S1130AA000AF78603B1C0E3300221A807A6803235F
S1130AB0134007D03B1C0E33324A1A803B1C0E33C2
S1130AC01B885BE0304B30229A712F4B00229A70C6
S1130AD02D4B0A229A722C4B7A68120CD2B2DA721B
S1130AE0294B01229A70284B7A68D2B2DA72264BCB
S1130AF07A68120AD2B29A72012000F04FF8224B9F
S1130B009B79DBB21A1C2023134007D03B1C0E3305
S1130B103A1C0E3212881D490A431A801A4B9B79DB
S1130B20DBB21A1C1023134007D03B1C0E333A1CB3
S1130B300E32128816490A431A80134B9B79DBB292
S1130B401A1C0323134007D03B1C0E333A1C0E32ED
S1130B50128810490A431A800B4B9B79DBB21A1C8A
S1130B600323134007D03B1C0E333A1C0E32128869
S1130B7009490A431A803B1C0E331B88181CBD46C6
S1130B8004B080BD013000000000024008300000C5
S1130B9010300000113000001230000080B582B027
S1130BA000AF021CFB1D1A700C4B0C4AD26880214A
S1130BB049020A43DA600A4B80229A71FB1D1B78B2
S1130BC0002B07D0C046064B9B79DBB2DBB25BB28D
S1130BD0002BF8DABD4602B080BDC046003000F0FC
S1130BE00000024080B586B000AFF860B9607A605A
S1130BF000237B61FA680323134003D0414B7B61DC
S1130C007B697BE0404B30229A713F4B00229A7003
S1130C103D4B06229A723C4BFA68120CD2B2DA723D
S1130C20394B01229A70384BFA68D2B2DA72364BD9
S1130C30FA68120AD2B29A72334B02229A70324B79
S1130C40BA68120AD2B29A722F4BBA68D2B2DA7266
S1130C502D4B03229A702C4BBA68120ED2B29A72A0
S1130C60294BBA68120CD2B2DA72274B04229A705A
S1130C70254B7A68120AD2B29A72234B7A68D2B29E
S1130C80DA72214B05229A701F4B7A68120ED2B287
S1130C909A721D4B7A68120CD2B2DA720120FFF7F5
S1130CA07DFF194B9B79DBB21A1C2023134003D020
S1130CB07B69164A13437B61134B9B79DBB21A1C85
S1130CC01023134003D07B69114A13437B610E4BFD
S1130CD09B79DBB21A1C0323134003D07B690D4AB2
S1130CE013437B61084B9B79DBB21A1C032313402B
S1130CF003D07B69084A13437B617B69181CBD469A
S1130D0006B080BD01300000000002400830000041
S1130D1010300000113000001230000080B58EB099
S1130D2000AFF860B9607A6000237B637B68DB08FE
S1130D303B627B68D9B23B1C1F3307220A401A70FE
S1130D403B1C1F331B789B08DBB2BB61FB683B6316
S1130D50BB68BB62FA680323134003D0454B7B6333
S1130D607B6B82E000237B621EE0BB6A1B68FB6234
S1130D70BB6A0433BB62BB6A1B687B61BB6A043316
S1130D80BB62396BFA6A7B69081C111C1A1CFFF7D9
S1130D9029FF031C7B637B6B002B62D13B6B083305
S1130DA03B637B6A01337B627A6A3B6A9A42DCD397
S1130DB000237B6216E0BB6A1B68FB62BB6A0433D8
S1130DC0BB623A6BFB6A101C191C00F055F8031C3B
S1130DD07B637B6B002B46D13B6B04333B637B6AA9
S1130DE001337B627A6ABB699A42E4D3BB69DBB2A2
S1130DF09B00DAB23B1C1F33391C1F3109788A1A55
S1130E001A703B1C1F331B78002B01D17B6B2CE029
S1130E1001235B42FB623B1C1F331B78013BBA6A14
S1130E20D318BB603B1C1F331B787B620DE0FB6A4D
S1130E301B02FB62BB681B78FA6A1343FB62BB6844
S1130E40013BBB607B6A013B7B627B6A002BEEDC6F
S1130E503A6BFB6A101C191C00F00EF8031C7B6330
S1130E6002E0C04600E0C0467B6B181CBD460EB0D5
S1130E7080BDC0460130000080B584B000AF78600A
S1130E8039603B1C0E3300221A807A680323134016
S1130E9007D03B1C0E333F4A1A803B1C0E331B8881
S1130EA074E03D4B30229A713B4B00229A703A4BCE
S1130EB006229A72384B7A68120CD2B2DA72364B26
S1130EC001229A70344B7A68D2B2DA72324B7A6861
S1130ED0120AD2B29A72304B02229A702E4B3A689E
S1130EE0120AD2B29A722C4B3A68D2B2DA722A4BF4
S1130EF003229A70284B3A68120ED2B29A72264B89
S1130F003A68120CD2B2DA720120FFF747FE224B84
S1130F109B79DBB21A1C2023134007D03B1C0E33F1
S1130F203A1C0E3212881D490A431A801A4B9B79C7
S1130F30DBB21A1C1023134007D03B1C0E333A1C9F
S1130F400E32128816490A431A80134B9B79DBB27E
S1130F501A1C0323134007D03B1C0E333A1C0E32D9
S1130F60128810490A431A800B4B9B79DBB21A1C76
S1130F700323134007D03B1C0E333A1C0E32128855
S1130F8009490A431A803B1C0E331B88181CBD46B2
S1130F9004B080BD013000000000024008300000B1
S1130FA010300000113000001230000080B584B011
S1130FB000AF78600023FB60264B30229A71254BEA
S1130FC000229A70234B12229A72224B7A68120CD6
S1130FD0D2B2DA721F4B01229A701E4B7A68D2B2D7
S1130FE0DA721C4B7A68120AD2B29A720120FFF7A5
S1130FF0D5FD184B9B79DBB21A1C2023134003D078
S1131000FB68154A1343FB60124B9B79DBB21A1C35
S11310101023134003D0FB68104A1343FB600D4BAD
S11310209B79DBB21A1C0323134003D0FB680C4AE0
S11310301343FB60074B9B79DBB21A1C0323134059
S113104003D0FB68074A1343FB60FB68181CBD46CA
S113105004B080BD000002400830000010300000E1
S1131060113000001230000080B584B000AF786009
S113107039600023FB602E4B30229A712C4B0022E6
S11310809A702B4B11229A72294B7A68120CD2B2A5
S1131090DA72274B01229A70254B7A68D2B2DA723F
S11310A0234B7A68120AD2B29A72214B02229A70A6
S11310B01F4B3A68120AD2B2DA721D4B03229A709D
S11310C01B4B3A68D2B2DA720120FFF767FD184B66
S11310D09B79DBB21A1C2023134003D0FB68154A0A
S11310E01343FB60124B9B79DBB21A1C1023134091
S11310F003D0FB68104A1343FB600D4B9B79DBB2B2
S11311001A1C0323134003D0FB680C4A1343FB60EF
S1131110074B9B79DBB21A1C0323134003D0FB68F3
S1131120074A1343FB60FB68181CBD4604B080BD2E
S113113000000240083000001030000011300000B0
S11311401230000080B58AB000AFF860B9607A60F0
S11311501A1CFB1C1A703B1C273300221A703B1C00
S1131160103300221A8000237B61BB68002B02D05D
S11311707B68002B01D1002363E1FA68B34B9A42E8
S113118006D9FA687B68D3185A1EB14B9A4201D922
S1131190002356E1FB1C1B78012B02D17B68013331
S11311A07B60FB1C1B78012B1CD10023FB610DE031
S11311B0BA68FB69D31819783B1C27333A1C2732C9
S11311C012788A181A70FB690133FB617B685A1E16
S11311D0FB699A42ECD83B1C27333A1C273212781D
S11311E052421A70FB68012293433B62FB68D9B2F6
S11311F03B6ADAB23B1C1B338A1A1A703A6A3B1CEC
S11312001033101C191C0222002300F023F9031CC4
S1131210002B01D1002314E13B1C1B331B78022259
S1131220D31A1A1C7B689A4234D33B1C1B331B7899
S1131230BA6811783A1C1032D1543B1C1B333A1C47
S11312401B32127801321A70BB680133BB607B68B1
S1131250013B7B607B68012B18D1FB1C1B78012BA5
S113126009D13B1C1B331B783A1C1032391C273123
S11312700978D15407E03B1C1B331B78BA681178FA
S11312803A1C1032D1547B68013B7B607B68002B95
S1131290CBD117E03B1C1B331B78FB610FE0BB6811
S11312A01A78391C1031FB69CB181A70BB680133EA
S11312B0BB607B68013B7B60FB690133FB61FB69BD
S11312C0012BECD93B1C10331B787B617B691A0220
S11312D03B1C10335B7813437B613B6A181CFFF79C
S11312E065FE031C002B01D00023AAE03A6A7B6947
S11312F0101C191CFFF7B8FE031C002B01D000239F
S11313009FE03B6A02333B6237E00023FB610CE061
S1131310BB681A78391C1031FB69CB181A70BB688A
S11313200133BB60FB690133FB61FB69012BEFD91E
S11313303B1C10331B787B617B691A023B1C103306
S11313405B7813437B613B6A181CFFF72FFE031C79
S1131350002B01D0002374E03A6A7B69101C191C2D
S1131360FFF782FE031C002B01D0002369E03B6AD7
S113137002333B627B68023B7B607B68022BC4D8F0
S11313800023FB617B68002B5AD03A6A3B1C103364
S1131390101C191C0222002300F05CF8031C002B13
S11313A02CD100234DE07B68012B17D1FB1C1B784B
S11313B0012B08D13A1C1032FB69D3183A1C27328E
S11313C012781A7006E0BB681A78391C1031FB6970
S11313D0CB181A707B68013B7B6012E0BB681A78FB
S11313E0391C1031FB69CB181A70FB690133FB619E
S11313F0BB680133BB607B68013B7B607B68002B6F
S1131400D1D13B1C10331B787B617B691A023B1CD6
S113141010335B7813437B613B6A181CFFF7C6FDEE
S1131420031C002B01D000230BE03A6A7B69101CDB
S1131430191CFFF719FE031C002B01D0002300E048
S11314400123181CBD460AB080BDC046FFFFFF0F34
S1131450FF00001080B586B000AFF860B9607A6014
S11314601A1CFB1C1A703B1C173300221A70FB1C3D
S11314701B78012B02D17B6801337B60BB68002B96
S113148002D07B68002B01D100235CE0FA68304B6A
S11314909A4206D9FA687B68D3185A1E2D4B9A4291
S11314A04DD900234FE02C4B9B79DBB2DBB25BB20E
S11314B0002B01DB002346E0FB681B78DAB2BB6833
S11314C01A70BB680133BB60FB680133FB60BB6807
S11314D0013B19783B1C17333A1C173212788A18CF
S11314E01A707B68013B7B607B68012B27D11A4B08
S11314F09B79DBB2DBB25BB2002B01DB002322E081
S1131500FB1C1B78012B15D1FB681B78D9B23B1C43
S113151017333A1C173212788A181A70FB68013391
S1131520FB603B1C17331B78002B01D101230AE01D
S1131530002308E0FB681B78DAB2BB681A707B688A
S1131540002BB0D10123181CBD4606B080BDC04697
S1131550FFFFFF0FFF0000100000024080B500AF46
S1131560724B724A5269802109020A435A616F4BD5
S11315706E4A5268802109020A435A606B4B6B4AD7
S113158051696B4A0A405A61684B684A9169684AD2
S11315900A409A61654B654A5169664A0A405A6134
S11315A0624B624A9169634A0A409A615F4B5F4A9F
S11315B0526940210A435A615C4B5C4A526840219B
S11315C00A435A60594B594A526980210A435A6165
S11315D0564B564A526880210A435A60564B564A23
S11315E0526880210A435A60504B504A5269802104
S11315F089010A435A614D4B4C4A52688021890142
S11316000A435A604C4B4C4A5268802189010A4370
S11316105A604A4B494A526802218A435A60434BF2
S1131620424A526901218A435A61404B3F4A9269B6
S113163001218A439A613D4B3C4A526902218A4303
S11316405A613A4B394A926902218A439A61374B6B
S1131650364A51693A4A0A405A61344B334A9169CD
S1131660374A0A409A61314B304A5169354A0A4037
S11316705A612E4B2D4A9169324A0A409A612B4B8A
S11316802A4A5169304A0A405A61284B274A9169CB
S11316902D4A0A409A61254B244A51692B4A0A4033
S11316A05A61224B214A9169284A0A409A611F4B88
S11316B01E4A5169264A0A405A611C4B1B4A9169C9
S11316C0234A0A409A61194B184A5169214A0A402F
S11316D05A61164B154A91691E4A0A409A61134B86
S11316E0124A51691C4A0A405A61104B0F4A9169C7
S11316F0194A0A409A610D4B0C4A5169174A0A402B
S11317005A610A4B094A9169144A0A409A61074B83
S1131710064A5169124A0A405A61044B034A9169C4
S11317200F4A0A409A61BD4680BDC04600F00F4092
S1131730FFBFFFFFFFFFFFF700900440008004405D
S1131740FFFFFEFFFFFFFDFFFFFFFBFFFFFFDFFFCC
S1131750FFFFBFFFFFFF7FFFFFFFFFFEFFFFFFFD58
S1131760FFFFFFFB80B500AF044B044A5278D2B2AE
S113177040210A43D2B25A70BD4680BD00200540C4
S113178080B582B000AFFFF7DDF8FFF7E7FE454B09
S1131790181CFFF719F9444A444B101C191C012268
S11317A00123FFF757FE414B1B78012B0CD0404B14
S11317B01B681B681A1C3F4B1A603E4B1B689847FA
S11317C03B6801333B60FBE7C0235B01181CFFF758
S11317D065F900233B6008E03B68DAB236493B68B0
S11317E0CB181A703B6801333B603B68FF2BF3D97D
S11317F0C0235901304A80235B00081C111C1A1CA9
S1131800FFF78CFAC82359012B4A80235B00081C7C
S1131810111C1A1CFFF782FA00233B601FE0FB1D1A
S113182000221A7014E03B681A01FB1D1B78D318C0
S11318303A681101FA1D12788A18C0214901521818
S113184011781E4AD154FB1DFA1D127801321A7008
S1131850FB1D1B780F2BE6D93B6801333B603B68CB
S11318601F2BDCD9114B00221A7015E00E4A0F4BC6
S1131870101C191C01220123FFF764FC0A4A0B4BBC
S1131880101C191C01220123FFF7E4FD074B1B78F0
S11318900133DAB2054B1A70044B1B78312BE5D9AE
S11318A0FEE7C046002D31012000001020FCFF1F80
S11318B000FCFF1F24FDFF1F24FCFF1F28FDFF1F4A
S11318C038B5051C00F09CF800F080F8084C23683B
S11318D0002B02D0984700202060064C2168002984
S11318E002D0884700222260281CFFF725F838BD63
S11318F008FCFF1F0CFCFF1F10B5041C00F002F8CD
S1131900201C10BD30B5C9B2031C1F2A31D9444272
S11319100323234005D0D21AC51801700130A84210
S1131920FBD1002905D00D060C042C430B022143E6
S113193019435409031C002C0ED0251C013D1960C9
S113194059609960D960196159619961D9612033ED
S1131950002DF3D16301C318D006400F07D0041C37
S11319601D1C013C02C5002CFBD180001B18032464
S113197022409D18002A03D019700133AB42FBD1D9
S113198030BD000010B50B4C0B4B9C4202D001CC77
S11319908047F9E7094C0A48844202D008CC9847AA
S11319A0F9E7084C08498C4202D004CC9047F9E787
S11319B010BDC046B81A0000B81A0000B81A0000DA
S11319C0B81A0000B81A0000B81A000010B5084C84
S11319D0084B9C4202D004CC9047F9E7064C0748D8
S11319E0844203D0043C21688847F8E710BDC04610
S11319F0B81A0000B81A0000B81A0000B81A00009B
S1131A00054B10B51C68002C04D0A0686168884799
S1131A102468F8E710BDC04610FCFF1F054B181CD6
S1131A20002805D0854681B00020C043009001B055
S1131A30F7467047000C0020F746704700B588420F
S1131A401FD0002A1DD00323194207D1184205D103
S1131A509A4203D908C9043A08C0F2E7012319429B
S1131A6009D1184207D19A4205D90B88023A03805A
S1131A7002310230E5E70B78013A0370013101309D
S1131A80DFE700BD38B50B4D002D11D000242B1914
S1131A901968002906D02B1958689A68FFF7CEFFF9
S1131AA00C34F4E75A68002AF5D198680028F2D17A
S10B1AB038BDC046BC1A000059
S1071AB804300000F2
S1131ABCB81A000000FCFF1F040000000000000026
S10B1ACC00000000000000000E
S9030909EA
