S00A0000524C532E53313919
S11350005005002081AD0000C3AA0000C3AA00001F
S1135010000000000000000000000000000000008C
S1135020000000000000000000000000C3AA00000F
S11350300000000000000000C3AA0000C3AA000092
S1135040C3AA0000C3AA0000C3AA0000C3AA0000A8
S1135050C3AA0000C3AA0000C3AA0000C3AA000098
S1135060C3AA0000C3AA0000C3AA0000C3AA000088
S113507047760000C3AA0000C3AA0000C3AA000028
S1135080C3AA0000F558000053760000C3AA00002C
S11350906B9F0000C3AA0000C3AA0000C3AA0000BB
S11350A0C3AA0000C3AA0000C3AA0000C3AA000048
S11350B0BDA700002E480168802292050A430260C1
S11350C02C480168802212010A43026038202A49D0
S11350D008600020BD490860704700B52749C0B288
S11350E0086008680006FCD5B948006880B200BDB5
S11350F0F8B505000C000026370005E02800C0B212
S1135100FFF7EBFF3F18761C30002100C0B2C9B294
S11351108842F3D338002100C9B205F080FB80B285
S1135120F2BD10B51648017802220A4302701548F0
S11351300178FF290DD000781349087013480178CD
S1135140FE220A40124909780B00DB07DB0F1343E8
S1135150037040200F490A780242FAD0CA4A1378F1
S113516020241C4314700A781043087010BD0000FA
S11351700C80044018B0034008B0034000B0034062
S113518000400640FF030000024006400340064082
S1135190FE0300000440064030B50023190008E077
S11351A000BF521C1400A4B2C8252D01AC42F7DB89
S11351B0491C0A00040092B2A4B2A24201D21A000D
S11351C0F0E730BD00B5002101E000BF491C0A0032
S11351D00300D2B2DBB29A42F7D300BDF8B57D4CDE
S11351E00123012221007C4800F012FB2078FF28D3
S11351F001D164202070794C0123012221007848D8
S113520000F006FB2078FF2801D1642020700123E0
S113521001226946734800F0FBFA68460078FF28CB
S113522004D18D48007C8D49087003E068460078FD
S11352308A490870012301226946894800F0E8FA86
S113524068460078FF2804D18348407C8F49087061
S113525003E0684600788D4908708D4900200200FB
S11352600A7002004A708B4C010021708A4D0121A2
S11352700A002A70894A03001370894B0E001E70BD
S11352802478002C06D0874C66780827374367704B
S1135290647805E0834C6678F72737406770647854
S11352A0814C0E0026702D78002D06D07D4D6E7831
S11352B0102737436F706D7805E07A4D6E78EF27CD
S11352C037406F706D780D0025701278002A06D073
S11352D0744A557840262E435670527805E0714A38
S11352E05578BF262E40567052780A0022701A78DC
S11352F0002A06D06B4A537880251D435570527896
S113530005E0684A53785B065B0E537052780A00D6
S11353102270644A931C9578FB262E401E70957863
S11353200D0025709578F7262E401E7092780A009D
S11353302270784A137808241C431470764A531C4C
S11353401024557826002E431E700D00734E3570C0
S1135350157826002E43167055782C431C700300D4
S1135360137102006E4B1A708C4A117001008C4A42
S1135370118001008B4A117001008B4A11700100E9
S11353808A4A117050218A4A11700921894A117080
S1135390894A11700100894A11700100884A11700C
S11353A00100884A11700100874A11700100874A80
S11353B011700100864A11700100864A11700100C3
S11353C0854A117085490870F1BD00000CB0034096
S11353D010B00340380300201000001039030020EF
S11353E0120000101400001030B500247C4905F0B0
S11353F016FA401E80217B4A12780A4203D17A4869
S1135400204380B226E0794A13785B0616D41378D9
S11354100B420BD03F2113780B400500EDB229401D
S11354208B4203D07248204380B213E01178C0232A
S11354300B408006800E1843107009E03F2112785B
S11354400A40C0B201408A4202D02000684C0443A2
S1135450200080B230BD000050AD00001B030020CE
S11354601600001000B563490A6880235B021343E9
S11354700B605C4980220A70C0B2002802D0087810
S11354801042FCD000BD0000014006401C03002077
S1135490F00200203C0300203D0300203E030020D6
S11354A03F030020C00000206C02002070B50022E1
S11354B014004C4D302129704F490A704F4A122371
S11354C013704F4B0600360C1E7001260E7001003F
S11354D01970000A10700120FFF7C4FF28788006B5
S11354E002D52000474C04432878C00602D520008A
S11354F0454C044303202978014202D02100434C47
S11355000C432978014202D02000C04C04432000FF
S113551080B270BD490300207402002032030020D1
S1135520FB020020F8B500231C002E4D30222A7007
S1135530314A1370314B11261E70314F0600360C60
S11355403E700126167006003E70000A1870022094
S11355501070080080B2000A387003261670397083
S11355600120FFF77FFF2878800602D52000254C14
S113557004432878C00602D52000234C044328782D
S1135580304202D02000214C04432878304202D01B
S113559020009E4C0443200080B2F2BD0C03002086
S11355A0BA0200200E0300202E030020FC0200207B
S11355B02F030020130300203603002025030020BE
S11355C02203002040030020420300204303002064
S11355D04103002046030020470300204803002025
S11355E040420F0006000240143000000000024058
S11355F0183000000C3000F0020002400A000240A3
S11356000B00024008300000103000001130000090
S1135610FEB50D00002600A9891C00240C80002181
S1135620002D04D01400210089B2002901D10020EA
S1135630EBE0010080204005814206D3200080B2C7
S11356400818401EAA4A904201D30020DDE06846B3
S1135650037068460078012800D1641C684600780D
S113566001280CD1002002E02A5CB618401C22005C
S113567092B2521E9042F7D3F0430600761C4808BB
S11356804000019001980F1A0023022200A9891CEE
S1135690019800F0BDF8002801D10020B5E00220F7
S11356A03900C9B2401A210089B288421FDB00A820
S11356B0801C29783A00D2B281546D1C7F1CBA49EF
S11356C06418220092B2012A0CD16A461278012A87
S11356D003D13A00D2B2865403E02A783B00DBB20D
S11356E0C2546418200080B20028E0D10AE0FFB25E
S11356F006E0287800A9891CC8556D1C641E7F1C0F
S1135700022FF6D300AFBF1C387800027978084323
S1135710694608810198FFF7C9FE002801D00020DE
S113572073E0684601890198FFF7FCFE002801D068
S113573000206AE00198801C01900AE06846018913
S11357400198FFF7EFFE00281CD10198801C0190FE
S1135750A41E200080B2032816DB002003E0297871
S113576039546D1C401C0228F9D33878000279782A
S11357700843694608810198FFF798FE0028DDD0A8
S1135780002042E0002040E000200290200080B28F
S1135790002839D00023022200A9891C019800F0B6
S11357A037F8002809D100202FE02878029978548E
S11357B06D1C0298401C0290641E200080B20028D8
S11357C00ED0200080B20128EFD16846007801286D
S11357D002D102983E5402E0287802997854601E5F
S11357E038780402787804430198FFF75FFE0028B4
S11357F001D0002009E0210089B20198FFF792FE50
S1135800002801D0002000E00120FEBD123000007D
S1135810F0B5040000201D00EDB2012D00D1521C92
S1135820002903D01500ADB2002D01D1002039E0CC
S113583080256D05AC4206D31500ADB265196D1E09
S11358402B4EB54203D300202CE025780D701500B3
S1135850ADB2002D25D08025C74E37782F4201D117
S113586000201FE02778641C0F70491C4F1E3F78EE
S1135870C019521E1700BFB2012FE8D136782E424C
S113588001D100200EE01D00EDB2012DDDD1217803
S1135890641C4018C0B2002801D1012002E000209D
S11358A000E00120F0BD4148016820220A43026063
S11358B03F48016807220A4302609B490A68402363
S11358C013430B600A68102313430B609749984AEB
S11358D01160016808220A43026080208002954911
S11358E00A6802430A60A5490A68104308607047C1
S11358F000010010F8B501248B480168C909214052
S113590000294FD00168016880224A400260884D16
S1135910286804F0DBFF0022994B04F0E7FF05F050
S1135920B9F8286097480178491C017096490A78AB
S1135930521C0A70954A13785B1C1370944B1D78A3
S11359406D1C1D70934D2E88761C2E80C826760003
S11359502F88B74204DB2E8025008F4E357002E07D
S113596000258D4E35700578002D04D00025057076
S113597020008A4D28700878052804DB0020087070
S113598020008749087010780A2804DB0020107072
S11359902000844908701878322803DB002018702E
S11359A0BB480470F1BD0000FFFF00000C80044000
S11359B00080034070B480221202AC480168114395
S11359C00160AB490B681A430A60AA4B02681A408B
S11359D00260A94A146823401360AE4B04681C405B
S11359E00460146823401360402304681C4304606B
S11359F00C6823430B6080240368234303600B6813
S1135A0023430B60A44B1D682C431C608024A40119
S1135A100568254305600D6825430D601D682C430A
S1135A201C60802424010568254305600D68254316
S1135A300D601D682C431C600224E443A34D2E68B2
S1135A4026402E60A24D06682E400660166835403A
S1135A5015608025ED0006682E4306600E682E430F
S1135A600E6019680D431D600168012399430160AC
S1135A701168012399431160016821400160116894
S1135A800C4014600421C94303680B40036013688D
S1135A90194011600821C94303680B40036013686F
S1135AA0194011608B4903680B4003601368194067
S1135AB01160894903680B40036013681940116041
S1135AC0864903680B4003601368194011608449D8
S1135AD003680B400360136819401160814903682F
S1135AE00B4003601368194011607F4903680B4041
S1135AF003601368194011607C4903680B4003601C
S1135B001368194011607A4903680B4003601368F5
S1135B1019401160774903680B4003601068014025
S1135B20116070BC704700000C800340F305000056
S1135B301080034080E200E080B5002001F024FEE4
S1135B40002002BD80B501F061FE01BD80B501F009
S1135B5061FE01BD10B5002421000100C9B209296C
S1135B6001DB052403E06449087001F071FE2000A4
S1135B70C0B210BD000000000600024000E100E0D9
S1135B80C0CD9740F2020020F3020020F40200206E
S1135B90F5020020B0020020FA020020F6020020E4
S1135BA0F7020020F802002080B5C0B201F038FEF0
S1135BB0002002BD10B502000120030013401400B0
S1135BC0E4B2640804405C401300DBB29B08034069
S1135BD063401400E4B224092040584083011000BB
S1135BE0C0B240081400E4B2E40844401000C0B25B
S1135BF0000960401400E4B264094440E043C00179
S1135C001843C9B201290BD11100C9B2C0230B40FA
S1135C10C0B2834201D0FF2003E09006800E00E072
S1135C201043C0B210BD00B50A00D2B23C2A05D060
S1135C300A00D2B27D2A01D0C9B200E00021027864
S1135C4008E0401C0378C9180B009BB2FF2B00DD51
S1135C50FF39521E1300DBB2002BF2D189B2C843C4
S1135C60C0B200BD80B501F065FD01BD14F00F4068
S1135C7004F00F40FFBFFFFF18F00F4001208549DB
S1135C80087000200100844A11708449088070471C
S1135C90F9020020FFFFFFF70490044000B580489C
S1135CA001780F2902DB0021017002E00178491C10
S1135CB001707C490A78F023134000780007000F34
S1135CC01843087001207849087000BD048004401E
S1135CD0FFEFFFFFFFFFFEFFFFFFFDFFFFFFFBFFE7
S1135CE0FFFFDFFFFFFFBFFFFFFF7FFFFFFFFFFEA1
S1135CF0FFFFFFFDFFFFFFFB4C020020F8B5102063
S1135D00EF216A4C674F22780A403B7A05001D4018
S1135D1015432570664E627811407A7AD2B25208E1
S1135D20104008433070387B2071217989B24020BB
S1135D304843192104F070FD5E4908802078C006AC
S1135D40C00E397A49094901014321700125A0781F
S1135D50FE210140B87A2A0002400A43A270A079C9
S1135D60F8210140B87B4007400F0843A071F72099
S1135D70A1790140BA7B08231A400A43A2716278D0
S1135D80F02111407A7A1207120F0A433270A17976
S1135D908F220A40B97B70230B401343A371A84997
S1135DA004260A78FB2313409C463B7C32001A40AD
S1135DB063461A430A700A7810403A7C08231A4052
S1135DC002430A700A78FE2010403A7C2B001340EC
S1135DD003430B7003F0FCFC60780101A079C0B2AE
S1135DE000094007400F0843C0B2112810D01328FF
S1135DF014D0522818D053281CD0952820D0D2284B
S1135E0025D0D3282AD0D5282FD0D62833D038E08F
S1135E1028009D4908709D48057037E002209A4982
S1135E2008709A48057031E0032097490870974834
S1135E3005702BE09448067002209449087025E010
S1135E400520914908700320904908701EE006203F
S1135E508D49087003208D49087017E007208A498E
S1135E60087003208949087010E0082086490870EA
S1135E70864806700AE00920834908708348067042
S1135E8004E0092080490870804806705020804949
S1135E900870F1BDFC020020FA020020B0020020CC
S1135EA0FB020020C00000206C02002074020020CD
S1135EB075020020C602002070B5764876498A89AA
S1135EC0824202D0C989814202D1002073490870FC
S1135ED003F06CFE03F0CEFE71480178C906C90ECA
S1135EE06E4A127852010A43027001216D4A0B0076
S1135EF013706D4B1B78002B05D0437808241C438A
S1135F004470437804E04378F7241C404470437899
S1135F100B001370654B1B78002B05D043781024BD
S1135F201C434470437804E04378EF241C404470DD
S1135F3043780B001370A54B1B78002B05D04378D6
S1135F4040241C434470437804E04378BF241C403D
S1135F50447043780B0013709D4B1B78002B05D0C5
S1135F60437880241C434470437804E043785B0600
S1135F705B0E437043780B001370431D954C4679B8
S1135F80FC2535402688B6B2360AB607B60F2E432E
S1135F901E70248804710C0014708F4C2478C47013
S1135FA00C001470AA4C247884710C001470A94C51
S1135FB025780A2D01DB0A2400E0247845792D0791
S1135FC02D0F24012C431C700B001370A24B1C7862
S1135FD00D002540EDB2002D05D08478022525431F
S1135FE08570847804E08478FD2525408570847864
S1135FF00C0014701C782500EDB26D080C002C40C8
S11360001B78DBB29B080D001D402543EDB2002D2B
S113601005D0837804241C438470807804E083785A
S1136020FB241C4084708078117070BDAA480178EC
S113603001220A4302700178FE220A40027070476E
S11360404903002000B5020052201300DBB2202BCC
S11360500ED11000401C08701000801C4870100005
S1136060C01C88701000001DC870521D0A71542095
S1136070C0B200BD80B5FFF7F5FD002002BD80B5BC
S1136080FFF75AFD02BD0000130300201203002095
S11360902F030020FFFF0000180200202D03002022
S11360A0C00000206C0200203C0300203D030020BF
S11360B080B50200D2B2002A04D10800C0B200F0B8
S11360C021F81EE00200D2B2012A04D10800C0B2B5
S11360D000F0C4F815E00200D2B2022A04D108008C
S11360E0C0B200F07BF80CE00200D2B2082A04D15E
S11360F00800C0B200F038F903E0C9B2C0B200F041
S1136100EDF801BDF8B50700002528009149087095
S1136110914E3800C0B200F07DF930703078FF281D
S113612001D128003FE001208C4932780C235A43E6
S11361308C182178012917D18948A1680978405C15
S113614000280FD08748A1680978401845782800AE
S1136150C0B200F05FF930702800C0B201F0D6FA86
S1136160022020E028001EE0A17801291BD120781C
S1136170002806D100213800C0B200F067F90220DF
S113618011E09A4E3078002801D128000BE0AC4889
S11361900078032806D000F039F93078401E3070BA
S11361A0022000E02800C0B2012802D0022804D056
S11361B007E06078FFF7F8FC05E06078FFF7CAFCB9
S11361C001E0FFF7BFFCF1BD000000003E0300202A
S11361D03F030020C80200201503002070B504000E
S11361E05D485E4902780C235A438A18157902786F
S11361F00C235A438A1856790122924B1A7002785A
S11362000C235A438A5C002A05D101212000C0B224
S113621000F01CF907E000780C225043085C1128B8
S113622001D100F0E5F8002006E0FF21B24A2B007E
S1136230DBB2D1546D1C401C01003200C9B2D2B291
S11362409142F2D32000C0B201F022FA70BD0000E6
S1136250140300202B0300207C02002070B50125CC
S113626078490D7078490A78012A04D10022130074
S1136270984C23700A700400374E2000C0B200F01E
S1136280C9F83070307800F076F8307801F022FAEE
S11362902000C0B201F0FCF9E4B23D2C1BD18E48C1
S11362A00188491E0180008800280BD100200100CC
S11362B08A4A117002218A4A1170614A11708F4909
S11362C0087008E0FA20C0008649088083480570F9
S11362D002208A49087070BD03A0064070B505000D
S11362E00C001D4E2000C0B200F094F83070EDB2E6
S11362F0ED1E042D25D80120764908702000C0B277
S11363003C280DD103207849087078490870022090
S113631077490871002035490870784908700CE005
S11363202000C0B23D2808D103206D490870062022
S11363307649087100207149087003206D4908707E
S1136340FFE7307801F0C6F92000C0B201F0A0F9EF
S113635070BD0000000300200B03002014AC0000FB
S11363606C020020F800002080B5C0B201F090F962
S1136370FFF7ECFB01BDF0B565490200D2B20C2376
S11363805A438A1812790300DBB20C246343CB18F6
S11363905B790400E4B20C256C430C5D012C09D13B
S11363A05C4C0500EDB20C2675434D19AD682D7893
S11363B0002666550400E4B20C256C43095D1129DE
S11363C012D000210C0006E0FF254B4E1700FFB24F
S11363D0F555521C641C25001E00EDB2F6B2B54200
S11363E0F2D34C4AC0B21154F0BD0000090300209E
S11363F080B549484078002805D1012047490870F4
S1136400FFF7A4FB01E000F051FC01BD80B500F0F2
S113641055FB01BD00B5052100E0491E0A00D2B2BA
S1136420002A0AD03E4A0B00DBB2D25C0300DBB286
S11364309A42F2D1481EC0B200E0FF2000BD000025
S11364400D010020FE0200200A03002030B532486E
S1136450344A2F4B14780C256C431C19647804704F
S113646014780C256C431C19E478C9B200291FD197
S113647011780C22514359188968002907D00978EA
S1136480294A1278914202D10121284A117001212E
S11364900A00D2B203785B1C9A421ADA244A230017
S11364A0DBB2D25C0B00DBB2C254491C641CEFE7C4
S11364B0012108E00A00D2B2825C1D4B2500EDB236
S11364C05A55491C641C0A00D2B203785B1C9A42D8
S11364D0F0DB30BDFF020020B602002004030020E0
S11364E008030020B8020020060300200703002050
S11364F0E80000200D0100206402002005030020B4
S113650080B501220B4900F033FD01BDD800002005
S113651014AC00006C0200204C0200200003002098
S1136520F80000200B0300203AAD00000A0300200D
S1136530C0000020E8000020F3B583B0002401204F
S11365404C4908704C4D287802280CD02878032830
S113655005D02878062802D028780528F2D1287892
S11365604449087084E06846FFF7CAFF6E467078B5
S11365700100C9B209090398C9B2002903D002294C
S113658047D01AD36FE071780907090F0180B078FA
S1136590049A1070012008E00200D2B2B218927876
S11365A0049B0400E4B21A55401C0200D2B20B0052
S11365B092B29BB29A42EFD355E071780907090F62
S11365C0802252005143B27889180180F078049AED
S11365D01070012008E00200D2B2B218D278049BF5
S11365E00700FFB2DA55401C0200D2B2052AF2DBE2
S11365F04F1F641D0DE00100C9B2715C049A2300B1
S11366009BB2D154641C401C0100C9B20829F2DBBE
S1136610BF1F380080B2072807DB6846FFF770FF0A
S113662070780007000F0220EEE7380080B20028DF
S113663018D06846FFF764FF70780007000F002049
S113664009E00100C9B271188978049A23009BB249
S1136650D154641C401C0100C9B23A0089B292B200
S11366609142EED3FFE70020287002200149087010
S113667005B0F0BD0703002006030020F8B596B06E
S113668003001000C64A04AC1578257003252E00BB
S113669066707F26A670E3702071FF266671A6716E
S11366A0E6711F00FFB2102F17D0222F1FD0272F03
S11366B000D1BBE12E2F00D1FAE0B02F00D19FE131
S11366C0B22F00D151E1B32F00D1A8E1B62F00D1F0
S11366D08CE1B72F00D17FE1C2E1C9B2012905D114
S11366E0022161704033A370E0702671B8E1C9B231
S11366F0012900D0DBE04033A3700100C9B2852931
S113670014D10123032206A980204005FFF780F855
S113671006206070F120E0708520207106A80178C1
S113672061714178A1718078E071C0E00100C9B263
S1136730862913D10123032206A99A48FFF768F892
S113674006206070F120E0708620207106A8017890
S113675061714178A1718078E071A8E00100C9B24B
S1136760872913D10123032206A9C148FFF750F852
S113677006206070F120E0708720207106A801785F
S113678061714178A1718078E07190E00100C9B233
S1136790882913D10123032206A9C548FFF738F835
S11367A006206070F120E0708820207106A801782E
S11367B061714178A1718078E07178E00100C9B21B
S11367C001291AD10123012206A9BA48FFF720F8AA
S11367D006A80178FF2903D16420B749087002E0B4
S11367E00078B5490870042060701320E07001201F
S11367F02071B1480078607159E00100C9B20229E2
S11368001AD10123012206A9B848FFF701F806A806
S11368100178FF2903D16420B549087002E00078AB
S1136820B3490870042060701320E07002202071C6
S1136830AF48007860713AE00100C9B20A290DD16D
S1136840052060701320E0700A202071A948818916
S113685089B2090A61718089A07128E00100C9B276
S11368600B290DD1052060701320E0700B202071DE
S1136870A048C18989B2090A6171C089A07116E072
S11368800100C9B22039202911D202A9C0B2FFF7F0
S1136890D9FBC0B254280AD102A80178E17041782A
S11368A0217181786171C178A1710079E071D7E0BB
S11368B0C9B2012958D14033A37066710100C9B22D
S11368C0852906D128006070F120E07085202071B0
S11368D04AE00100C9B2862906D128006070F1207F
S11368E0E070862020713FE00100C9B2872906D1FB
S11368F028006070F120E0708720207134E00100EE
S1136900C9B2882906D128006070F120E07088207F
S1136910207129E00100C9B2012906D12800607064
S11369201320E070012020711EE00100C9B2022989
S113693006D1280060701320E0700220207113E05B
S11369400100C9B20A2906D1280060701320E07042
S11369500A20207108E0C0B20B2805D1280060701D
S11369601320E0700B2020717AE0C9B2012932D1E2
S1136970062161704033A3700100C9B2002913D10C
S11369805D480188E170018889B2090A2171418852
S11369906171418889B2090AA1710079E0711AE034
S11369A00C010020040000100100C9B22039202984
S11369B011D26946C0B2FFF745FBC0B254280AD1D0
S11369C068460178E1704178217181786171C178FC
S11369D0A1710079E07143E0C9B2012905D1012018
S11369E060704033A370E670267139E0C9B20129A2
S11369F005D1012060704033A370E67026712FE04A
S1136A00A348C168008808234343C818C07910709C
S1136A1001206070F020A070E670267120E0012053
S1136A206070F320A070E670267119E0C9B20129E4
S1136A3015D19848007802280FD1082060701800FA
S1136A404030A0700120E0709348017821714178B2
S1136A5061718178A171C078E0714033A370FFE760
S1136A608E48057101210A00C28000220EE000BF99
S1136A7008000010C368058808266E439B1915009A
S1136A80EDB21600F6B2A65D5E55521C1300DBB2E1
S1136A90082BEFDB4088824A10800800814A10806E
S1136AA00800814A1070BB48017017B0F0BD0000A7
S1136AB00C0000101000001038030020E0B5002284
S1136AC07649684600F054FA01200AE0694602005B
S1136AD0D2B28918491E0978AF4A0300DBB2D154F7
S1136AE0401C0100C9B20929F0DB07BD12000010E7
S1136AF0390300201802002094AD000070B54178DD
S1136B00C9B20909C9B2002903D002297BD02FD305
S1136B10BDE040780007000F80B2072824DA022580
S1136B2028009E490870002001009D4A117001242C
S1136B3021009C4A1170564902000A8002004A80D2
S1136B400200CA8008710122974800F0D7F920009A
S1136B50A94908709548047095480178062900D021
S1136B60057000F029F902E00020914908708EE0D8
S1136B7041780907090F80225200514380780C188C
S1136B80200080B2C01F052839D2FA20C0008949EC
S1136B90088002208249087000253D4928000880A9
S1136BA0280048802800C8802800087101227E48F7
S1136BB000F0A4F90626200080B2401F310003F043
S1136BC02BFE002907D1A4B2601F310003F024FE7C
S1136BD07649087007E0A4B2601F310003F01CFE80
S1136BE0401C724908700120834908706D48057083
S1136BF06F480178062905D00421017002E00020C5
S1136C006B49087043E0FA21C9006A4A11800224E2
S1136C10634D2100297040780007000F76490A78F7
S1136C20C0B2904217D10878401C08700878102828
S1136C3001DB002008705D480178491E01700122C3
S1136C401349594800F05AF95948017806290AD0DD
S1136C500421017007E006200100504A1170A04988
S1136C600870002028705148007800280ED12000B8
S1136C704A4908700020287001204A4908704C488D
S1136C800178062900D0047000F096F8FFE770BD83
S1136C90E80000200F03002084020020D800002018
S1136CA0B4020020B602002008030020F8B53A4AD6
S1136CB05078D3789178C9B209090400E4B27F2CE2
S1136CC01AD00400E4B27E2C16D0864C2478050039
S1136CD0EDB2AC4203D01C00E4B2B02C08D1824C1B
S1136CE024780500EDB2AC4206D0DBB2B02B03D160
S1136CF00020284908704BE02D4B1C78022C02D050
S1136D001C78042C10D10400E4B27E2C0CD1254C48
S1136D102478002C08D1FA20C000264908800220DB
S1136D201F490870002033E01C78022C1ED1040097
S1136D30E4B27E2C1AD0002425001A4E35706B4D17
S1136D406C802C80EC8005262E71694D6C802C8023
S1136D50EC8026002E7102252E00664F3E70260020
S1136D600E4F3E705E4E35700A4D2C700D4C2478DB
S1136D70032C02D1C9B202290AD0C0B27E2802D0A3
S1136D800420187001E006201870501CFFF7B6FEAE
S1136D90F1BD0000090300204C020020060300207E
S1136DA0040300200D0100204D02002002030020F6
S1136DB005030020B802002070B5002421004C48CF
S1136DC0C268038808255D4352195278D2B2120969
S1136DD0C368058808266E439B5DDBB27E2B0DD10C
S1136DE000F02AFC4448047002209249087092483A
S1136DF004700148047071E003030020D2B2012A38
S1136E0006D1C268008808234343D018C07805E03F
S1136E10C268008808234343D0188078220000E029
S1136E20521C1300DBB2092B0CDA844B1500EDB2B3
S1136E305B5D0500EDB2AB42F2D101210B00804D48
S1136E40D2B2AB54C9B2012943D10100C9B210294D
S1136E5013D022292CD027290CD02E292BD0B029AD
S1136E601DD0B2290CD0B3291FD0B6290ED0B72912
S1136E7009D02DE000F07AF930E000F0E7F82DE0D9
S1136E8000F084FB2AE000F033FB27E00120A44952
S1136E90087000220121B620FFF7F0FB1EE000225B
S1136EA00121B020FFF7EAFB18E000F093FB15E0A6
S1136EB000F0B4F912E0AC490978012905D17F2228
S1136EC00021C0B2FFF7DAFB01E000F015FA05E09B
S1136ED004E011220021C0B2FFF7D0FB70BD000016
S1136EE0070300200C0100202FAD0000D800002073
S1136EF0E8000020080300200503002070B5CB68DB
S1136F000C79032C33D00C79052C02D00C79002C8D
S1136F1008D1D2B2002A02D104220A710DE0012262
S1136F200A710AE00A894C88641CA24202D1002238
S1136F304A8002E04A88521C4A8000220AE04C88B7
S1136F40082565435C191500EDB21600F6B2865D9E
S1136F506655521C1400E4B2082CF0DBC888401CAF
S1136F60C880C8880A89904201D30320087170BD83
S1136F70FCB50B00DC6800941C79002C3DD01C7916
S1136F80052C3AD01D8800231C0001900DE00098C8
S1136F902E00B6B208277743C0192600F6B2805DEA
S1136FA0019E2700FFB2F055641C2000C0B20828DF
S1136FB0EDDBC888401EC880C888002808D1D2B23A
S1136FC0002A02D1052008710AE01800087107E0C0
S1136FD0D2B2002A02D10420087101E00120087114
S1136FE0C888002809D008880A89521E904201D115
S1136FF00B8002E00888401C0880F3BD00B585487A
S11370000178012910D184490A88FA235B009A4245
S113701007DB0122544B1A700022130003700A800C
S113702002E00888401C08804F480078AB4908708B
S113703000BD00000D0100200203002074AD00001B
S11370405802002080B500888047FEE738B584B038
S113705001A8811C6846FFF76FFA01A8C078694649
S11370600988022954D1C0B2012804D04AD3032884
S11370703CD009D346E0012201211020FFF7FEFA9B
S113708001203949087048E094480078012808D163
S11370907F2200211020FFF7F1FA01203249087005
S11370A023E08F480078032817D18E4C5A20207093
S11370B08D4D0123022221002800FEF7A9FA0020A9
S11370C020700123022221002800FEF7A1FB207872
S11370D05A28EAD10020FFF7B5FF7F2200211020B3
S11370E0FFF7CCFA01202049087016E001207C4902
S11370F00870032201211020FFF7C0FA03201A4967
S113710008700AE0122200211020FFF7B7FA04E009
S1137110132200211020FFF7B1FA05B030BD0000A2
S11371200103002010B5714A03781B060478240477
S11371301B19047824021B1900781818002306E090
S1137140400003E00028FBD5400050405B1C1C00BD
S1137150E4B2232CF6DB020E0A700200120C4A7011
S1137160020A8A70C87010BD0C0300207FB501A903
S11371706846FFF7E1F901AC6078012818D1584856
S11371800178012914D102210170594C03F09AFCB1
S1137190207003F097FC607003F094FCA07003F07F
S11371A091FCE070402201212720FFF767FA30E0CC
S11371B06078022828D14A4D2878022824D14D4EDF
S11371C031004B48FFF7AEFF002000E0401C0100F7
S11371D0C9B2042910DA0100C9B2715C0200D2B24A
S11371E0A21892789142F1D0022028701222002134
S11371F02720FFF743FA0CE00320287040220121E6
S11372002720FFF73BFA04E0122200212720FFF792
S113721035FA7FBD0E030020BA020020F8B501A89C
S1137220811C6846FFF788F901A9C878000209792A
S1137230084369460988032949DB80B2AA49401AF0
S113724027D0401E2BD008382FD0401E33D0A7495A
S1137250401A06D0401E0AD0401E0ED0401E12D046
S11372602FE0852201212220FFF708FA34E086224C
S113727001212220FFF702FA2EE087220121222099
S1137280FFF7FCF928E0882201212220FFF7F6F914
S113729022E0012201212220FFF7F0F91CE0022262
S11372A001212220FFF7EAF916E00A220121222017
S11372B0FFF7E4F910E00B2201212220FFF7DEF9A9
S11372C00AE0312200212220FFF7D8F904E013223A
S11372D000212220FFF7D2F905B000BD0D030020E4
S11372E00F030020BC02002020000010FCEBAD7F47
S11372F084020020880200201FB501A8811C684672
S1137300FFF71AF901ACE0780002217908436946D5
S11373100988032900DAE1E080B27349401A6BD08E
S1137320401E00D188E0083800D1A5E0401E00D1FD
S1137330B8E06E49401A06D0401E1BD0401E2FD024
S1137340401E43D0C4E068460088062805D01322B6
S113735000212E20FFF792F90BE001230322611D87
S113736080204005FEF754F9852201212E20FFF7E5
S113737085F9B8E068460088062805D01322002164
S11373802E20FFF77BF90AE001230322611DA9489F
S1137390FEF73EF9862201212E20FFF76FF9A2E0C5
S11373A068460088062805D0132200212E20FFF706
S11373B065F90AE001230322611DB348FEF728F9A9
S11373C0872201212E20FFF759F98CE068460088B6
S11373D0062805D0132200212E20FFF74FF90AE0DA
S11373E001230322611DA948FEF712F98822012115
S11373F02E20FFF743F976E068460088042805D07C
S1137400132200212E20FFF739F914E00123012271
S1137410611DAE48FEF7FCF86079FF2803D16420B3
S1137420AB49087002E06079A94908700122012182
S11374302E20FFF723F956E068460088042805D07B
S1137440132200212E20FFF719F914E00123012251
S1137450611DAD48FEF7DCF86079FF2803D1642094
S1137460B249087002E06079B04908700222012133
S11374702E20FFF703F936E068460088052805D07A
S1137480132200212E20FFF7F9F80AE0012302223B
S1137490611DA748FEF7BCF80A2201212E20FFF740
S11374A0EDF820E068460088052805D01322002165
S11374B02E20FFF7E3F80AE001230222611DAF4802
S11374C0FEF7A6F80B2201212E20FFF7D7F80AE0D9
S11374D0312200212E20FFF7D1F804E013220021ED
S11374E02E20FFF7CBF81FBD011300007ADE000049
S11374F07FB50724200001A8811C6846FFF71CF80B
S113750001AEF5782800001D01E0641E401E29002C
S1137510C9B2020052B209B212B291420EDA21008B
S113752049B2715CFF29F0D0010049B20429ECDBB7
S113753010220021B720FFF7A1F826E004246D1CD7
S11375400CE00121200040B2305CFEF733FBAC4973
S11375502A0052B28854FFE7641C6D1C200040B21C
S113756008280DDA200040B2305C002802D0FF2841
S1137570F2D0E6E7FF20A2492A0052B28854EBE792
S113758000220121B720FFF779F87FBDF8B501A8E3
S1137590811C6846FEF7D0FF01A8C2781000C0B273
S11375A0002805D100220121B220FFF767F80FE07F
S11375B01000C0B22038202805D2D2B20121B22056
S11375C0FFF75CF804E012220021B220FFF756F81E
S11375D005B000BD70B58B48C168028808235343C9
S11375E0C918C978C268038808245C43121912793F
S11375F0C3680488082565435B195B79C4680588FA
S113760008266E43A419A479C9B2002911D15440A3
S11376102340DBB2002B07D1C16800880822424313
S11376208818C0799649087000220121B320FFF719
S113763025F870BD04000010F8B501A96846FEF7EE
S11376407BFF05B000BD80B500F0F0F9FEF716FB36
S113765001BD10B56C4801680A001206D20F002A59
S113766011D00168016880224A4002606B4C206896
S113767003F02CF90022834B03F038F903F00AFAE3
S1137680206000F07DF810BD080000100C00001010
S113769010B46A496A4A13780C7864001C4312785F
S11376A00978114389002143664A1278D2000A43BB
S11376B06549097889011143C0B20002084363494E
S11376C001407148018010BC704700001000001098
S11376D03803002030B56D49C0B20C225043085C19
S11376E001280FD06A486B496B4A0B78D35C01249C
S11376F00578AC40A343524C2478007884401C4362
S11377000878145430BD00001200001010B50400B5
S113771000212000C0B2FEF799FE00212000C0B273
S1137720FEF748FA5D49487010BD00003903002097
S11377301800001040215A4802680A430260594860
S113774002680723134303602F4A13681943116027
S1137750116810230B4313604C21304A11600168F7
S113776008220A4302608020C0024F490A6802438B
S11377700A6090490A681043086070471C000010B2
S113778080B500F099F801BD80B5484908704348B8
S1137790474908603420474908803F2040490A6827
S11377A080235B0313430B608D49020092B21212D3
S11377B0D206D20E0B681A700A68507000200A684C
S11377C090702C200A68D0700868407986220243A1
S11377D0086842710868807902220243086882714D
S11377E008680078802202430868027008684079BB
S11377F0EF2202400868427100F0DEF801BD00008B
S1137800F8000020E80000200C90034080B500F050
S1137810D3F801BD0A2073490870704710900340E3
S113782023490A68107000206F4A107008686F4975
S1137830086006206B49087070470000FE020020B3
S1137840FF02002000030020010300204FFF00007E
S113785010B5174C664801782068FEF7E4F92168F2
S1137860226812788918487001205F4908702068DE
S113787040785B490968C87107205A49087010BDEF
S11378800C010020000B5340B202002014AC000095
S11378902EAD0000C7AB0000C00000204C02002049
S11378A00C8004400090034080E200E00E010020C0
S11378B094020020BE02002038B54F480178022906
S11378C014D14E490A88521E0A80098800290DD114
S11378D003214B4A117005210A004A4B1A704A4A87
S11378E0117000210A000270484A117001780129C0
S11378F011D142490A88521E0A80098800290AD1F6
S113790003213F4A11700421414A117000210A00E9
S113791002703E480170334C207800280AD0801E43
S1137920022822D9001F2BD0401E01281DD9801EF9
S11379303FD03EE0374D2888002812D10120364937
S11379400870FF210820FEF7B3FB34482880244840
S113795001684979FD220A40006842710A202070BA
S113796002E02888401E288023E02D480188002951
S113797002D100F021F802E00188491E018018E0DC
S113798028480188002910D117480078002809D018
S11379901848017802220A4302702348017807201C
S11379A0FEF786FB00F008F802E00188491E01801A
S11379B0FFE731BD00E100E00E480178FB220A40F8
S11379C002701648134908800020064908700448CC
S11379D00168497902220A43006842717047000035
S11379E0080100200F010020100300209002002055
S11379F0100100208C02002004030020B8020020A3
S1137A000D010020060300200703002005030020C9
S1137A1008030020C40200200003002010270000F7
S1137A20C0020020C202002011030020F8B5B04DAE
S1137A302868047928684779C0203840402820D134
S1137A4028684079402101432868417128680078FA
S1137A50BF21014028680170A64800780A2804D193
S1137A60FFF7AAFF0020A449087028680078802145
S1137A7001432868017028684079EF210140286893
S1137A8041710226300004421DD02868007931007B
S1137A900143286801712868C079BE4801780A2228
S1137AA00A43027093480178062905D00178072912
S1137AB002D00078082804D1C24801780420FEF7D7
S1137AC0F7FAFFF779FF802001000F422CD02968D4
S1137AD04979084329684871402029680978014395
S1137AE02A681170296809784906490E2A681170B4
S1137AF080490A780A2A02D1FFF75EFF48E104228E
S1137B00A44B1A70A44AD289A44B1A802A6812780A
S1137B1010432A6810700320087028684079FD21FA
S1137B2001402868417133E1286800792968CC79DB
S1137B30810600D42CE16F49097803290AD004296D
S1137B401AD006294CD0072900D1B7E00A2900D160
S1137B5003E11DE1E4B2552C06D104206549087007
S1137B6001209949087006E0964801780620FEF73E
S1137B709FFAFFF721FF0BE1924D01212000C0B2D3
S1137B80FEF718F828709148047028783C2802D031
S1137B9028783D2805D100208D49088001208D4991
S1137BA008702878FF280FD029780020FEF780FA83
S1137BB07948894909680978022251434018801E8E
S1137BC00088864908800AE07248017840220A4306
S1137BD00270FF210320FEF76BFAFFF7EDFED7E0FA
S1137BE07F480168491C0160006804707A4E7D4832
S1137BF000783168097888425BD17448017830682C
S1137C00FEF711F8E4B2A04247D1FEF777F8012459
S1137C106048017822000A4302702868C078DB219A
S1137C2001402868C170334F0920387065480178D5
S1137C300220FEF73DFA2868C07824210143286811
S1137C40C17038780A2801D0FFF7B6FE5D48007885
S1137C503C282ED13068407800282AD130688078BA
S1137C60FF2826D13068C078FF2822D130680079F7
S1137C70FF281ED130684079FF281AD13068407936
S1137C80FF2816D13068C079FF2812D13068C07936
S1137C90FF280ED1544804700BE03E4801781222AC
S1137CA00A430270474801780520FEF701FAFFF7FE
S1137CB083FE4C480178491C017069E0400607D4F2
S1137CC0404801780620FEF7F3F9FFF775FE5FE000
S1137CD0444841490A680378D25CE4B294420DD026
S1137CE0384801780620FEF7E3F9FFF765FE4FE018
S1137CF0080100200F010020000300200A68127808
S1137D0003789A4208D30278521C027009680078FA
S1137D10085C2968C8711FE000209A490870FDF7C3
S1137D20BDFF1C48017801220A4302702868C0780C
S1137D30DB2101402868C17009209349087021485B
S1137D4001780120FEF7B4F92868C07824210143A2
S1137D502868C170FFF730FE1AE02000C0B2F02896
S1137D600ED02000C0B2E0280AD02000C0B2C02843
S1137D7006D02000C0B2802802D0E4B2002C06D184
S1137D80FFF71AFE28684079064328684671FFE722
S1137D90F1BD00008C02002064AD0000C002002090
S1137DA07A487B49086023207A49087001207A497F
S1137DB008700F2079490870A020794908700120C3
S1137DC0704700001103002044030020100100202C
S1137DD0BA0200200E03002094020020C2020020F8
S1137DE0900200201003002046030020FEB500246A
S1137DF020002000FDF795F9FDF755FDFDF75AF930
S1137E00FDF7D8FD6748FDF7EFFA00F0A3F8FDF79A
S1137E10E5F900F073F902F087F8FEF72BF900207A
S1137E20FEF72DF90C2069460871202601255E4FC6
S1137E303868009068460079310002F0EDFC2A00B1
S1137E408A40009802433A60584F38680090684668
S1137E500079310002F0E0FC2A008A4000980243D5
S1137E603A60BF480068800B28400028F9D002F02F
S1137E709DFC4F48017801290AD12100017020009E
S1137E804C4908804C480078002801D101F0C6FF15
S1137E904A480178012907D049490978012903D0C2
S1137EA048490978012912D10178012901D1210019
S1137EB0017043480178012901D121000170414832
S1137EC00178012901D12100017001F0A7FF3A488E
S1137ED00178012901D1210001703B480178012971
S1137EE003D12100017001F0F1FFC7480178002996
S1137EF02AD001292BD1C5480178012909D12100B3
S1137F000170FFF77BF8C2480078012801D101F025
S1137F1033FFC0480178012903D12100017001F029
S1137F20EAFEBD480178012907D12100017000F063
S1137F30B1FB01F09DFCFDF7BFFFB84801780129B2
S1137F4001D12100017092E701F09DFC8FE7290027
S1137F5001708CE7B24800210170017801220A43C4
S1137F6002700178F7220A4002700178EF220A4079
S1137F7002700178DF220A400270007880210840F4
S1137F8070470000160300200F010020005000007D
S1137F9008ED00E0002005400120054004200540D4
S1137FA005200540002D310180E200E000E100E001
S1137FB0FA020020B0020020FC0200204603002048
S1137FC04703002048030020FD020020F0B5040010
S1137FD00D0016001F003800C0B2022102F01CFC84
S1137FE029688C4201D2308886E00100C9B204229B
S1137FF0514369588C4204D1C0B202214843305ADB
S11380007AE00100C9B2042251436958A1423FD227
S1138010401C00E0401C3900C9B2491E0200D2B223
S1138020914234DB0100C9B23A00D2B2521E9142ED
S113803006D00100C9B2042251436958A142E9D3D0
S1138040471E01000800C0B202225043305A3A00D1
S1138050D2B202235A43B25A801A3A00D2B204234B
S11380605A43AA58A21A5043C9B204225143695828
S11380703A00D2B204235A43AA58891A02F0CFFB19
S1138080FFB202214F43F15B401880B234E033E089
S1138090411E00E0491E0800C0B2002806D00800B6
S11380A0C0B20422504328588442F3D30F00491C21
S11380B00800C0B202225043305A3A00D2B202231E
S11380C05A43B25A801A3A00D2B204235A43AA58E5
S11380D0A21A5043C9B20422514369583A00D2B299
S11380E004235A43AA58891A02F099FBFFB20221C9
S11380F04F43F15B401880B2F0BD000070B5F02032
S1138100000201F04FFF1648006801004904C90F3E
S11381100029F8D00220FDF73FF80D21FF2001F0DF
S1138120E3FF0520FDF738F83E4C2178092002F0E2
S113813025F96178012002F021F9A178142002F0D8
S11381401DF9E178052002F019F92179062002F0E1
S113815015F9E179072002F011F9334802E000BF74
S113816010F00F4001780B2002F008F96179032028
S113817002F004F9217A082002F000F92B48017872
S11381800C2002F0FBF8A179042002F0F7F8617AE0
S11381900A2002F0F3F8A17A0F2002F0EFF8E17A56
S11381A0102002F0EBF8217B112002F0E7F8617B4C
S11381B0122002F0E3F8A17B132002F0DFF8E17B48
S11381C00E2002F0DBF8002518E0AA4C9626B60033
S11381D032000321102000F02BF82900C9B202223A
S11381E05143605232000321082000F021F8290095
S11381F0C9B202225143611888816D1C2800C0B2A3
S11382000628E2DB70BD00002E030020F6020020E9
S113821040030020F7020020F8020020F9020020A9
S113822000D0074050AD00001B0300201C030020B9
S1138230F6B583B007000026340035000196029697
S11382400BE001994288891801910299C288891822
S1138250029180882D18641C761C30006946097BC5
S1138260C0B2884238D202F0A1FA3800C0B202F09B
S113827072FA8148C1884288914203D24188C288F7
S1138280891A02E0C1884288891A7C4A11807C4A92
S11382901378012B0AD16A46128A89B2914203D219
S11382A08188784A9142CCDA0020E1E011780029F3
S11382B0D3D18188734A91420CDB01994288891891
S11382C001910299C2888918029180882D18641C32
S11382D0761CC2E70020CBE03800C0B210283CD1A5
S11382E001982100C9B202F09AFA0190664E0198F1
S11382F0308102982100C9B202F091FA30826348B9
S113830001883289914205D301883289891A604AE9
S1138310118004E031890288891A5D4A11805D491F
S11383200A88338A9A4205D30A88338AD21A5A4B66
S11383301A8004E0328A0B88D21A574B1A80328989
S11383400280308A088052480088C92803DA5248DB
S11383500088C92842DB00208AE03800C0B208281F
S11383603CD101982100C9B202F059FA0190464E5D
S11383700198708102982100C9B202F050FA70820B
S1138380944801887289914205D301887289891AB7
S1138390914A118004E071890288891A8E4A1180F9
S11383A08E490A88738A9A4205D30A88738AD21A34
S11383B08B4B1A8004E0728A0B88D21A884B1A807D
S11383C072890280708A088083480088C92803DA89
S11383D083480088C92801DB002049E02800E4B272
S11383E0210002F01CFA040025480178002902D17A
S11383F0684604803AE00078012837D13800C0B2DA
S1138400102818D12048018A9B4A914202DA684612
S113841004802BE0008A9949411A994D89B20A20B7
S113842048439621490002F0F7F928802888201A49
S1138430694608801AE0FFB2082F17D11248418A12
S11384408D4A914202DA684604800FE0408A8B49E3
S1138450411A8B4D89B20A2048439621490002F003
S1138460DBF968806888201A6946088068460088B5
S113847005B0F0BDE801002000020020E602002063
S11384802E030020D184000018020020D402002012
S1138490CC020020D6020020CE02002030B579485C
S11384A00188002903D10A207749087010E0018867
S11384B0292903DA0A207449087009E00088512840
S11384C003DA09207049087002E007206E49087039
S11384D06E480188642041436D4843789C4A14786F
S11384E063438B4202D301239A4C2370837814781C
S11384F063438B4202D20023964C2370C3781478D2
S113850063438B4202D30123924C63700379127844
S113851053438B4202D200218E4A51708E498D4AB8
S113852013780C78A34223D01378012B10D1AE4BCF
S11385301C78641C1C701C78534D2D78AC421AD3E3
S1138540002425001D7001230B7084490C7012E077
S1138550A54B1C78641C1C701C780578AC420AD3AB
S1138560002425001D700C7001217C4B197002E061
S113857000219D4B19709D4953780C78A34225D056
S11385805278012A11D1984A501C53785B1C03700D
S113859052783D4B1B789A421BD300221300037080
S11385A0012008709248027013E08F4B5A1C5C78CB
S11385B0641C14705B78007883420AD300200300A3
S11385C01370087001208A49087002E0002086496F
S11385D0487030BDD8020020D0020020DA0200200A
S11385E0D202002010B583484188834A91420BD1BE
S11385F08249CA78521CCA70CA780A2A07DB0A78E8
S1138600022313430B7002E000217C4AD1707B49A2
S1138610CA780A2A03DA0A78FD2313400B70784AD1
S1138620838893420ADA0B795B1C0B710B790A2B52
S113863006DB0B7804241C430C7001E000230B714F
S1138640C08890420ADA4879401C487148790A285F
S113865006DB0878042202430A7001E00020487116
S113866008790A2806DA48790A2803DA0878FB2206
S113867002400A7010BD0000A51F0000A41F0000E6
S1138680AC020020C602002030030020C8020020F3
S11386908CAD0000FEB500273C003D003E000AE022
S11386A0072002F058F857484188641881886D18EB
S11386B0C08836187F1C3800C0B20228F0DB60087E
S11386C001906808710800914A49019A4A800200A1
S11386D08A80009ACA804C4F4C4E102332003900D5
S11386E0FFF774FC64254A4C21784843290002F0C2
S11386F096F8FE2803D3FD204649087001E0454959
S113870008701023320039000098FFF75FFC2178CD
S11387104843290002F083F8FE2803D3FD203E4994
S1138720087001E03C49087010233C4A3C49019818
S1138730FFF74CFC3B49884203D33B483B49088044
S113874001E03A490880FFF74DFFFFF7A7FEF7BDA8
S113875038030020EE0200203C0300203D030020EB
S113876000B50100C9B2102917D131480088224947
S113877088420ED12148411C4278521C0A7042782A
S11387800A2A24DB0A220A70017801220A430270B1
S11387901DE000201949487019E0C0B2082816D11C
S11387A023480088144988420ED11448811C8278D9
S11387B0521C0A7082780A2A09DB0A220A7001789C
S11387C001220A43027002E000200C4988700B4821
S11387D041780A2906DA81780A2903DA0178FE2227
S11387E00A40027000BD0000F00200203E03002099
S11387F03F03002018020020FFFF00007C0200203D
S1138800B80B00000002002040000020A00000205F
S113881039030020140300201503002080000020E9
S113882000000020FE030000FD030000C802002039
S1138830CA020020F8B50500AE4EAF4C9622920055
S1138840617B2800C0B2FFF7F3FC30802800C0B27F
S1138850FFF786FF2800C0B2102800D0A1E03088BE
S1138860002800D19DE0A54831888181A4490A00EF
S113887026320389138001231D0014E00689168023
S11388802E00F6B2142E0DDA2E00F6B202277E4325
S11388908F5BBC462F00FFB202267743CE19B61E6B
S11388A0674637806D1C2E00F6B2152EE6DB95491F
S11388B00978002919D11A0013E0934985894D815B
S11388C01500EDB2062D0BDA1500EDB20226754344
S11388D04D5B1700FFB202267743C919891E0D802C
S11388E0521C1100C9B20729E7DB88490978C9B2CB
S11388F0C9080B40DBB2002B1DD083490988844A88
S1138900118001892288914201D2237A14E00189DD
S11389106288914201D2637A0EE00189A288914271
S113892001D2A37A08E00189E288914201D2E37A74
S113893002E0237B00E0E37A7649734A14880C80D2
S113894084890D88AC420BD30023734C2370808937
S11389500988401A714988421CDB1089508119E04A
S11389606F4C09888089081A208020886B498842C6
S113897003DA20889BB2984205D2108950810020E6
S11389806549087006E020886649097801F044FFCB
S1138990614908705E480088634908805E48007831
S11389A0A6E0EDB2082D00D0A1E03088002800D167
S11389B09DE052483188C18151490A004E324389B1
S11389C0138001231D0014E0468916802E00F6B2A0
S11389D0142E0DDA2E00F6B202277E438E19378D3F
S11389E0BC462F00FFB202267743CE196746F784B0
S11389F06D1C2E00F6B2152EE6DB424909780029DB
S1138A0019D11A0013E04049C589CD821500EDB291
S1138A10062D0BDA1500EDB2022675434D19AD890A
S1138A201700FFB202267743C9194D81521C110069
S1138A30C9B20729E7DB35490978C9B2C9080B402F
S1138A40DBB2002B1DD030498989314A51804189DC
S1138A502288914201D2237A14E0418962889142AA
S1138A6001D2637A0EE04189A288914201D2A37AAD
S1138A7008E04189E288914201D2E37A02E0237B53
S1138A8000E0E37A9E49204A94890C80C4890D88C9
S1138A90AC420BD30023204C6370C0890988401A70
S1138AA01E4988421CDB908AD08219E01C4C09883C
S1138AB0C089081A608060881849884203DA60888F
S1138AC09BB2984205D2908AD08200201249487005
S1138AD006E060881349097801F09EFE0E4948704B
S1138AE00B484088104948800B48407800E000203B
S1138AF0F2BD0000CA020020C8AB0000180200202A
S1138B009801002020030020E801002049030020F0
S1138B10A4020020DE020020DC02002089130000F1
S1138B20A00200202F030020A802002070B504003A
S1138B3000252800280008262000C0B23040002864
S1138B406DD00820FFF776FE0100C9B2002903D1D9
S1138B5028006C4948705EE00100C9B2002907D0C2
S1138B600100C9B2052903DA01206649487052E0C0
S1138B700100C9B2491F032903D202206149487088
S1138B8049E00100C9B20839022903D203205D4932
S1138B90487040E00100C9B20A39022903D2042016
S1138BA05849487037E00100C9B20C39012903D291
S1138BB00520544948702EE00100C9B20D3901293D
S1138BC003D206204F49487025E00100C9B20E398E
S1138BD0042903D207204B4948701CE00100C9B2A4
S1138BE01239012903D230004649487013E00100CC
S1138BF0C9B21339012903D20920424948700AE055
S1138C00C0B21438062803D20A203E49487002E054
S1138C100B203C4948703B48407884494870E4B292
S1138C20E0066BD51020FFF705FE0100C9B200294C
S1138C3002D1344805705DE00100C9B2002907D0B3
S1138C400100C9B2052903DA01202E49087051E058
S1138C500100C9B2491F032903D20220294908701F
S1138C6048E00100C9B20839022903D2032025498A
S1138C7008703FE00100C9B20A39022903D2042076
S1138C802049087036E00100C9B20C39012903D229
S1138C9005201C4908702DE00100C9B20D390129D5
S1138CA003D206201749087024E00100C9B20E3926
S1138CB0042903D20720134908701BE00100C9B23C
S1138CC01239012902D20F48067013E00100C9B21B
S1138CD01339012903D209200A4908700AE0C0B2F5
S1138CE01438062803D20A200649087002E00B2033
S1138CF004490870034800784C49087070BD0000AE
S1138D00E0020020E202002030B5A248018A028974
S1138D10914205D20189028A891A9F4A118004E08E
S1138D20018A0289891A9C4A1180418A42899142A6
S1138D3005D24189408A081A9749488004E0418A4B
S1138D404089081A9449488094480088C9280BDA55
S1138D5093480088C92807DA92480088C92803DAAA
S1138D6091480088C92803DB00209049087002E07C
S1138D7001208E4908700020010024E00B00DBB2C2
S1138D8002246343D35A12889A1AFF232E339A4239
S1138D9018DB864A107015E0854A0B00DBB202240A
S1138DA06343D35A1488A342E8D213880C00E4B274
S1138DB002256C43125B9A1AFF232E339A4201DB7D
S1138DC07A4A1070491C0A00D2B2142AE4DB01006A
S1138DD027E00B00DBB202246343D3181B8D128DF2
S1138DE09A1AFF232E339A421ADB704A107017E046
S1138DF06F4A0B00DBB202246343D3181B8D148D1E
S1138E00A342E6D2138D0C00E4B202256C4312197E
S1138E10128D9A1AFF232E339A4201DB634A107093
S1138E20491C0A00D2B2142AE2DB30BDE40200205D
S1138E3030B55E48007801286BD15E485E490A78F7
S1138E400270002207E01300DBB2CB185B78140039
S1138E50E4B20B55521C1300DBB2022BF3DB574A6E
S1138E6013785478A34202D252788A7001E01278BF
S1138E708A7053490A78002A24D10278052A03DA31
S1138E800278504B1A7017E00278521F022A05D953
S1138E90D21E012A05D9921E07D00AE00522494BA9
S1138EA01A700622474B1A7006E00622454B1A70C8
S1138EB002E00622434B1A700078434A10700120E6
S1138EC0087030BD40490A7803789A42F9D2027892
S1138ED0052A03DA02783B4B1A7017E00278521F16
S1138EE0022A05D9D21E012A05D9921E07D00AE00A
S1138EF00522344B1A700622324B1A7006E0062201
S1138F00304B1A7002E006222E4B1A70007808705B
S1138F10D7E7002001000EE02C4A53890C00E4B28C
S1138F2002256C431353D38A0C00E4B202256C432C
S1138F3012199381491C0A00D2B2052AECDB010004
S1138F401F4A11700100204A1170010003E01378D8
S1138F505B1C1370491C0A00D2B2032AB1DA020066
S1138F60154B0C00E4B21A55194A1378002BEED0B5
S1138F7003001370134A1378022B03DB13789B1E30
S1138F801370E7E71378002BE4D013785B1E13709B
S1138F90E0E700001802002098020020CC02002024
S1138FA0CE020020D0020020D20200202A0300209A
S1138FB0980100202B0300209C020020E2020020E4
S1138FC0160300202C0300201D030020E8010020CC
S1138FD01E030020F0B58248017800290DD0022933
S1138FE000D1B3E100D2FDE0042900D11AE200D29D
S1138FF0C7E0052900D150E3E3E3BA490978012920
S113900003D1B949897C0A3116E0B6490A78022AA3
S113901003D1B549897C0A310EE00A78032A03D1C9
S1139020B149897C0A3107E00978042902D1AE49A3
S1139030897C01E0AC49897CAC4A1278002A02D0D0
S11390400122AB4B1A70AA4A1278012A36D10022A7
S11390501300A84C2370130011E0A74CA74DAE8950
S1139060B4461F00FFB2022677436646E653ED89F5
S11390701E00F6B202277E43A419A5815B1C1C00C6
S1139080E4B2052CE9DB130005E014009C4D1E003E
S1139090F6B2AC555B1C1C00E4B2032CF5DB1300E8
S11390A0984C2370984B1C78082C04DB14001C701B
S11390B08F4B1A7002E01A78521C1A70C34A137844
S11390C0C9B28B4205D300210B001370C04B197039
S11390D002E01178491C117000210B00854C2370AB
S11390E00B00BC4C23700B00BB4C2370854B1C78CD
S11390F0002C43D00C0014700122140004700C00E6
S1139100B64D2C70774C2578042D03D1764CE47C35
S1139110A41C1AE02578032D04D1734AD47CE41CE2
S1139120022212E02578022D04D16F4AD47C241D3A
S113913003220AE02478012C04D16B4AD47C241D38
S1139140032202E0684CE47C241D1B78E4B2A342B1
S113915007D39F4B1B781400E4B2A34201D304232A
S11391600370AD4B1B78604C247DA34206D3984B0F
S11391701B78D2B2934201D3052202705B4801707E
S113918021E300210A00924B1A700A008F4B1A70D7
S11391900A00A24B1A700A00A14B1A708D4A137868
S11391A05B1C1370504B14785D7DAC4202D2514865
S11391B0017010E014785D7DAC4208D312785B7DB9
S11391C05B1D9A4203DA01204A49087003E00A0051
S11391D0484B1A700170032044490870F3E200BF41
S11391E0170300207B4B00221100197011008C4CD6
S11391F021701100C04C217001213E4C0D002570DE
S1139200764D2E78761C2E702D78052D07DB1500F3
S11392102570140004706E4C25786D1C2570314C3B
S11392202578042D1CD1374C2478052C0CDB7B4C81
S113923025786D1C25702C4DED7D2678B54203D222
S11392401500257004240470614C2578264EB67DE3
S1139250B54278D315002570022404701A7072E0A8
S11392602578032D1DD1274C2478052C0CDB6B4C61
S113927025786D1C25701C4DED7D2678B54203D2F2
S11392801500257004240470514C2578164EB67DC3
S1139290761CB54257DB15002570022404701A7041
S11392A051E02478022C31D1164C2478052C0CDBA7
S11392B05A4C25786D1C25700B4DED7D2678B542F2
S11392C003D21500257004240470414C2578064E01
S11392D0B67DB61CB54236DB150025700224047039
S11392E01A7030E012030020C8AB000018030020FD
S11392F0190300202D030020E8010020180200209B
S11393009C0200202C0300201A030020C44C247863
S1139310052C0CDB414C25786D1C2570774DED7DBB
S11393202678B54203D21500257004240470284C15
S11393302578724EB67DB61CB54204DB1500257047
S1139340022404701A70B74801703CE200210A003C
S1139350324B1A700A00324B1A700A001C4B1A70F6
S11393601C4A13785B1C13700B00634C2370137836
S11393701E2B03DA0B00AC4C237036E013781E3B33
S1139380052B03D20123A84C23702EE01378233B32
S11393901E2B03D20B00A44C237026E01378413B10
S11393A0052B03D20123A04C23701EE01378463B07
S11393B01E2B03D20B009C4C237016E01378643BE5
S11393C0052B0DD20123984C23700EE021030020BD
S11393D02203002026030020290300202503002067
S11393E00B00914C23700B000370444B8C4C24787D
S11393F05D7EAC420CD38D4C25786D1C2570257890
S11394001B7E9D4204D30B00137021700421017054
S1139410022084490870D6E12B0300202303002096
S11394202703002000210A00814B1A70814A0B0097
S113943013700B00804C23700B00804C23700323AB
S11394401C00794D2C707E4C2578042D3DD1C04CE8
S11394502588052D03DA294DAC7EED7E09E02488AC
S11394603C2C03DA254D2C7F6D7F02E0234DAC7F2D
S1139470ED7F6B4E3778042F13DA1F4D2F78E4B24B
S1139480A74205D30C002C700C001470037002E08A
S11394902A78521C2A703278022A00DAF9E02970FC
S11394A0F7E03278052A00DAF3E0AA4A13785B1C65
S11394B013700B00104C23701378EDB2AB4200D242
S11394C0E7E0117005210170E3E02578032D48D110
S11394D09F4C2588052D05DA084D20242C5D212676
S11394E0AD5D12E024883C2C0ADA044D22242C5D64
S11394F02326AD5D09E000BF24030020C8AB0000B3
S1139500B14D24242C5D2526AD5D454E3778042FBE
S113951013DAAE4D2F78E4B2A74205D30C002C70B9
S11395200C001470037002E02A78521C2A703278FE
S1139530022A00DAADE02970ABE03278052A00DABD
S1139540A7E0844A13785B1C13700B009F4C2370B4
S11395501378EDB2AB4200D29BE01170052101708B
S113956097E02478022C40D1794C2588052D05DA22
S1139570954D26242C5D2726AD5D0DE024883C2CDA
S113958005DA914D28242C5D2926AD5D04E08E4D2D
S11395902A242C5D2B26AD5D214E3778042F12DA58
S11395A08A4D2F78E4B2A74205D30C002C700C002E
S11395B01470037002E02A78521C2A703278022A4E
S11395C067DB297065E03278052A62DB614A13782B
S11395D05B1C13700B007D4C23701378EDB2AB420F
S11395E057D311700521017053E0594C2588052D7E
S11395F005DA754D2C242C5D2D26AD5D0DE02488F7
S11396003C2C05DA704D2E242C5D2F26AD5D04E034
S11396106D4D30242C5D3126AD5D014E12E000BF4E
S11396202C030020180300202D0300202903002010
S11396302503002026030020220300202803002005
S1139640120300203778042F12DA604D2F78E4B229
S1139650A74205D30C002C700C001470037002E0B8
S11396602A78521C2A703278022A12DB297010E000
S11396703278052A0DDB374A13785B1C13700B0014
S1139680524C23701378EDB2AB4202D31170052112
S1139690017000786B49087095E06B4906220A70E6
S11396A06A4B1C78042C18D1294B1C88052C05DA2C
S11396B0454C3223E35C3325645D64E01B883C2B1A
S11396C005DA414C3423E35C3525645D5BE03E4CB4
S11396D03623E35C3725645D55E01C78032C18D1F0
S11396E01B4B1C88052C05DA374C3823E35C3925E1
S11396F0645D48E01B883C2B05DA334C3A23E35C79
S11397003B25645D3FE0304C3C23E35C3D25645DD8
S113971039E01B78022B18D10D4B1C88052C05DA77
S1139720294C3E23E35C3F25645D2CE01B883C2BE5
S113973005DA254C4023E35C4125645D23E0224C9B
S11397404223E35C4325645D1DE0014B04E000BF5C
S1139750C6020020270300201C88052C05DA1A4CB9
S11397604423E35C4525645D0DE01B883C2B05DA4E
S1139770154C4623E35C4725645D04E0124C482302
S1139780E35C4925645D00252E00104F3E702E00D9
S11397902F4F3E702F4E37787F1C37703778DBB2EF
S11397A09F4203D304210170357006E02A4B1B78D5
S11397B0E4B2A34201D30A703570007821490870DD
S11397C001E000210170F0BDC8AB000024030020BB
S11397D010B5012021490978C9B2C9080140C9B2AC
S11397E0002927D11E490A78521C0A701D4A127892
S11397F0052A0FD11C4A937B0C78A34203D2097823
S1139800D27B914203D300201849087018E017490D
S1139810087015E0144A137C0C78A34203D209782B
S1139820527C914203D300201049087008E00F498C
S1139830087005E0002001000C4A11700849087006
S113984010BD0000180300202D0300201203002087
S113985027030020280300202C03002049030020B4
S11398601F03002017030020C8AB000020030020C2
S113987080B51820FFF75AF9FFF746FAFFF7D8FA30
S1139880FFF7A8FB01BDF8B50027BF4839000170F8
S1139890BE490978C906C90E007840010843BB498E
S11398A008700120BA490870BA48B8494978F722C3
S11398B00A400270B54949780121B54A1170B3498B
S11398C0497810220A430270B04949780121B04A0C
S11398D01170AE494978BF220A400270AB494978F9
S11398E00121AB4A1170A949497880220A430270C8
S11398F0A64840780120A64908703C0000E0641C9A
S11399002000C0B214280CDA00F050FFA24D9622B9
S1139910920001211020FEF78BFC28802888002863
S1139920EDD09D4E30889D4988422EDA3D0000E0FE
S11399306D1C2800C0B2FE281CDA00F037FF984CDA
S11399402078401C207021780B2000F017FD0520A2
S1139950FBF722FC9622920003211020FEF768FCFC
S1139960308030888D49401A8E49884202D320784D
S1139970E028DDDB8A480178E02901DBE021017081
S113998001780B2000F0FAFC31E0308886498842E7
S11399902DDB3D0000E06D1C2800C0B2FE281CDA5F
S11399A000F004FF7E4C2078401E207021780B20AC
S11399B000F0E4FC0520FBF7EFFB96229200032164
S11399C01020FEF735FC308030887449401A754900
S11399D0884202D320782128DDDA714801782129D0
S11399E001DA2021017001780B2000F0C7FC3088D7
S11399F09C490880380007E031889B4A0300DBB2A9
S1139A0002246343D152401C0100C9B20629F3DB8E
S1139A106348007869460870012301226946934827
S1139A20FBF7F6FD3C0000E0641C2000C0B21428E3
S1139A300BDA00F0BBFE9622920001210820FEF70B
S1139A40F7FB308030880028EED0308853498842B4
S1139A502EDA3D0000E06D1C2800C0B2FE281CDA9E
S1139A6000F0A4FE824C2078401C207021780C2049
S1139A7000F084FC0520FBF78FFB96229200032163
S1139A800820FEF7D5FB308030884449401A454908
S1139A90884202D32078E028DDDB75480178E0298C
S1139AA001DBE021017001780C2000F067FC31E05B
S1139AB030883D4988422DDB3D0000E06D1C2800C4
S1139AC0C0B2FE281CDA00F071FE694C2078401EFA
S1139AD0207021780C2000F051FC0520FBF75CFB82
S1139AE09622920003210820FEF7A2FB30803088E2
S1139AF02A49401A2B49884202D320782128DDDAEA
S1139B005B480178212901DA2021017001780C20B9
S1139B1000F034FC308891490880380008E031882E
S1139B20514A0300DBB202246343D2189181401CE2
S1139B300100C9B20629F2DB4D4800786946087075
S1139B400123012269468648FBF762FD380005E0DF
S1139B503900844A0300DBB2D154401C0100C9B26D
S1139B600329F5DB012001007F4A117039007F4A87
S1139B7011707F490F7005490A78102313430B7045
S1139B80097803490870F1BD2D030020C0000020AE
S1139B906C020020C1000020CA020020D4AD0000E5
S1139BA01B030020E9030000BDB1000070B50120D3
S1139BB070494A78D2B2120903001340DBB2002B79
S1139BC011D10022130005E01400664D1E00F6B208
S1139BD0AC555B1C1C00E4B2032CF5DB0E23894C52
S1139BE02370894B1A70894A1378002B0AD14B7859
S1139BF0DBB21B0904001C40E4B2002C02D00300B9
S1139C00834C23704978C9B2090903000B401370CF
S1139C107F490A78012A23D17B4A03001370002369
S1139C201C00524D2C707B4C25786D1C25702578BA
S1139C30062D05DB1D0025701C000C701900117029
S1139C40190005E01A00474C0D00EDB26255491C9D
S1139C500A00D2B2032AF5DB6F490870B0480370DA
S1139C6070BD0000E8020020E8010020140000108C
S1139C701C03002030B5924892490A7803789A422E
S1139C8002D20122904B1A70007808708E48017835
S1139C9001291ED15C4B012119700022334C227022
S1139CA0B54C25786D1C25702478062C01DB0270D8
S1139CB01A70100004E02B4B0400E4B21A55401C47
S1139CC00300DBB2032BF6DB5348017094480270A7
S1139CD002E00020A849087030BD80B503210B20A4
S1139CE0FBF706FA8F4948430D2100F098FD000B5D
S1139CF0A249088001BD80B5FFF7EFFF9F480188A6
S1139D004C290DDA00209E4908709E480178491CB0
S1139D100170007814281FDB01209B4908701BE0A8
S1139D2001885039652907D2002096490870944962
S1139D300870954908700FE00088BA280CDB0020F1
S1139D40904908708E480178491C017000781428E5
S1139D5002DB02208C49087001BD0000EA020020E9
S1139D60160000109C0200202E0300202203002075
S1139D702303002074020020F8B5844F38780128AA
S1139D8005D100200100824A1170824908701E48E2
S1139D900178002903D001217F4A11700BE07C492E
S1139DA00A78521C0A700A78062A04DB00220A7018
S1139DB001217A4A1170784C2178012920D101259A
S1139DC00570002630007249087075480178491CF6
S1139DD001700178022913DB31000170FCF726F9C8
S1139DE0B4480178022904DB31000170B2480570DF
S1139DF002E00178491C01703878012800D12670EE
S1139E00F1BD00002B0300202D03002032030020AD
S1139E1031030020330300201803002038B5012447
S1139E202000A64908704020A5490A7802430A7018
S1139E30A4490A7810430870A348016880221202DA
S1139E400A430260E120000200F0ACF89F4D28684C
S1139E50800B20400028F9D0A320000200F0A2F8D3
S1139E602868800B20400028FAD099480178C9B2AC
S1139E704909C9B200290DD00078C0B24009C0B266
S1139E80052807DA00F03FF84248047000204249F0
S1139E90087004E000203F49087000F03AF8002000
S1139EA03A4908708B480178E3220A4002708A48D4
S1139EB0016804220A43026030BF00F02AF831BD71
S1139EC013030020360300203503002038B58348EF
S1139ED00168802212020A430260FCF7CBF80020DA
S1139EE0FCF7CDF80124794D2868800B2040002828
S1139EF0F8D0E420000200F055F82868800B2040D8
S1139F000028FAD031BD7648016840220A43026035
S1139F107047734801684022914301607047000014
S1139F2017030020360F000080B56E480168012237
S1139F300A4302606A4801688022D2010A4302602F
S1139F400168C022D2000A4302608C20DA4908600A
S1139F5080204003D9490A6802430A60D8490A6844
S1139F6010430860FFF7D5FF01BD5D4801688022FA
S1139F700A4302607047000034030020EC02002012
S1139F803B0300203A030020370300204403002051
S1139F904103002040030020450300204703002024
S1139FA042030020F0B5002211001300110001004B
S1139FB0010089B2F02424020C40D02109028C4211
S1139FC02AD101210400A4B265100C002C40050024
S1139FD0ADB2AE100D00354065400400A4B2E610E9
S1139FE00C0034406C400500ADB22E110D0035401C
S1139FF065400400A4B266110C0034406C400500B6
S113A000ADB2AE110D00354065400400A4B2E411B8
S113A01021406940C9B208432C490C6825006D04ED
S113A020ED0F002DF8D0284C24688025AD01254380
S113A030254C256028E02E6880273F0137432F6098
S113A04012E08024E400204D2E6826432E608026F2
S113A050360216410700BFB23742ECD01F4D2E68BE
S113A06080273F0137432F601C4D2E6834432C60FA
S113A0700C68250B2C00E407E40FA4B20F25AD1ADD
S113A080AC401C432300521C1400E4B2102CD8DB57
S113A09012490A688024A40114430C609BB2D9B20B
S113A0A080B2000A80B2814201D1012000E0002088
S113A0B0F0BD00004303002048030020FD020020FF
S113A0C005A0064000A0064008F00F4010F00F4025
S113A0D07402002000D0074010ED00E004F00F40AF
S113A0E000D003400C800440F8B500220092130015
S113A0F013001400140001240600F6B2F60905004A
S113A100EDB2AD11254075400600F6B27611264039
S113A1106E400500EDB22D11254075400600F6B2E3
S113A120F61026406E400500EDB2AD102540754096
S113A1300600F6B2761026406E400500EDB22540CA
S113A14075400E00F6B2F61026406E400D00EDB2DA
S113A150AD10254075400E00F6B2761026406E40D4
S113A1600F00FFB22740774001257D4026000640BE
S113A170B4460600F6B276082700374066467740B4
S113A180BC460700FFB2BF0826003E4067467E403B
S113A190B4460600F6B2F608270037406646774014
S113A1A0BC460700FFB23F0926003E4067467E409A
S113A1B0B4460600F6B27609270037406646774073
S113A1C0BC460700FFB2BF0926003E4067467E40FA
S113A1D00700FFB2FF097740BC460F00FFB2FF083B
S113A1E026003E4067467E40B4460E00F6B2B608EE
S113A1F02700374066467740BC460F00FFB27F0811
S113A20026003E4067467E4027000F407740009E70
S113A210C0B230430001C9B201434800EDB2054366
S113A2206800FFB20743B800872109040143009185
S113A2304F480168890B21400029F9D04D4909682C
S113A2408025AD010D434B490D6025E02E68802724
S113A2503F0137432F6012E08021C900454D2E682D
S113A2600E432E60009E80273F0417413740002F85
S113A270ECD0414D2E6880273F0137432F603E4D7F
S113A2802E68314329600168090B21401725AD1A56
S113A290A94019430B00521C1100C9B21829DBDB79
S113A2A035480168802292010A430260180201D4F1
S113A2B0012000E00020F2BD04D0034080E200E071
S113A2C000E100E0FCB500210A000B00009112013E
S113A2D0C0B2104300038E221204024301920120F3
S113A2E0234A13689B0B0340002BF8D0214B1C68B6
S113A2F08025AD0125431D6025E01D6880263601BB
S113A3002E431E6011E08024E4001D6825431D6077
S113A310019D802636040E412E40002EEDD0164DB0
S113A3202E6880273F0137432F60134D2E68344336
S113A3302C601468240B0440009D1726761AB44040
S113A3402C430094491C0C00E4B2182CDBDB0A48B3
S113A3500168802292010A43026000980099090A68
S113A360C9B28E2901D1C0B200E0AA20F6BD000016
S113A37010F00F4008F00F4004F00F4038B50D0006
S113A3800100C9B201292AD000D2FFE003294CD030
S113A3903DD305295DD048D3072970D059D3092965
S113A3A000D181E06BD30B2900D196E000D287E085
S113A3B00D2900D19DE000D28FE00F2900D1A7E044
S113A3C000D297E0112900D1BBE000D2ACE0132900
S113A3D000D1CFE000D2C0E014290CD0D6E0002098
S113A3E0FFF770FF0107090F280108430021C0B2DD
S113A3F0FFF77AFECBE00020FFF764FFF92101406C
S113A400680008430021C0B2FFF76EFEBFE00020E1
S113A410FFF758FFFE2101402800C007C00F084382
S113A4200021C0B2FFF760FEB1E0C0B2032801D141
S113A430022400E004242000C0B2FFF743FFC10659
S113A440C90E680108432100C9B2C0B2FFF74CFE2F
S113A4509DE0C0B2052801D1022400E004242000BC
S113A460C0B2FFF72FFFE3210140AA001C201040D7
S113A47008432100C9B2C0B2FFF736FE87E0C0B27C
S113A480072801D1022400E004242000C0B2FFF711
S113A49019FFFC210140A807800F08432100C9B21D
S113A4A0C0B2FFF721FE72E00520FFF70BFF0107A2
S113A4B0090F280108430521C0B2FFF715FE66E025
S113A4C00520FFF7FFFEF82101406807400F08430D
S113A4D00521C0B2FFF708FE59E0C0B20B2801D134
S113A4E0012100E00321C9B22800C0B2FFF7FCFD3E
S113A4F04DE04CE00520FFF7E5FEF7210140E800C0
S113A5000822104008430521C0B2FFF7EDFD3EE0EC
S113A5100720FFF7D7FE0107090F28010843072189
S113A520C0B2FFF7E1FD32E00820FFF7CBFEF021D7
S113A53001402807000F08430821C0B2FFF7D4FDEB
S113A54025E00920FFF7BEFE0107090F2801084393
S113A5500921C0B2FFF7C8FD19E00920FFF7B2FED8
S113A560F02101402807000F08430921C0B2FFF77A
S113A570BBFD0CE00E20FFF7A5FE0107090F280123
S113A58008430E21C0B2FFF7AFFD00E0002032BD4A
S113A590F8B500240021002500216A4651700021ED
S113A5A08A4AD180010600D5641CC10600D5E41C8A
S113A5B0010700D5E41C410700D5641C810700D5C0
S113A5C0641CC00700D5641C81480068010049046C
S113A5D0C90F0029F8D07F48006880218901014310
S113A5E07C480160002732E07A4801688022120129
S113A5F00A43026017E08026F6007648006830437C
S113A600744908600120FAF7DDFD8020000238411A
S113A610C321090201400029E6D06F480168802265
S113A62012010A4302606C4801680E43066001206F
S113A630FAF7C8FD66480068010B0800C007C00FA0
S113A64080B20F21C91B8840284305007F1C3800B5
S113A650C0B21028CFDB280080B2000A5B49087022
S113A6605A4845705B4800688021090101435948F4
S113A670016000250020694608702DE08026F60060
S113A68054480168314301600120FAF79BFD5248A8
S113A69001680E4306600120FAF794FD4C480068F7
S113A6A0010B0800C007C00F80B20F21C91B8840EE
S113A6B0284305007F1C3800C0B21028DEDB434865
S113A6C069460978022251434018458000256846AE
S113A6D00078401C69460870684600782100C9B2B9
S113A6E0884201D20027E6E700241FE08025ED0020
S113A6F038480168294301600120FAF763FD3648B0
S113A70001680D4305600120FAF75CFD30480068DC
S113A710010B0800C007C00F6946497880B20722C0
S113A720121B9040084369464870641C2000C0B264
S113A7300828DBDB25496846407888752648026886
S113A74080239B0113430360887D002801D10120ED
S113A75000E00020F2BD10B5040000202000C0B2CB
S113A760802101406007400F002802D008004021EA
S113A77001432000C0B2C00602D5080034210143C1
S113A7802000C0B2000702D508002A210143D020CE
S113A7900002084380B2FFF705FC0120FAF7FCFC35
S113A7A02000C0B2FFF7F4FE10BD000072B60B48E3
S113A7B00C4901800C49018062B670470848017851
S113A7C040220A430270704700000000000200208B
S113A7D010F00F4008F00F4004F00F400220054035
S113A7E001200540A6020000B4800000F4460028C1
S113A7F004D4494200F013F8404260474042002923
S113A80005D45FD000F00BF840424942604749420A
S113A81000F005F84942604703460B43E6D40022A2
S113A820030A8B420BD203098B4219D243088B4291
S113A8302ED2411A00D20146524110467047FF22DF
S113A84009023FD012068B4205D3121209028B4231
S113A85001D31212090203098B4219D300E0090A39
S113A860C3098B4201D3CB01C01A524183098B42E5
S113A87001D38B01C01A524143098B4201D34B01CE
S113A880C01A524103098B4201D30B01C01A524131
S113A890C3088B4201D3CB00C01A524183088B42B8
S113A8A001D38B00C01A524143088B4201D34B00A1
S113A8B0C01A5241884200D3401A5241CFD20146B5
S113A8C01046704708B500F07DF908BD010042222A
S113A8D01201D21E004207D002D4521E0018FCD529
S113A8E0C10A40051205891870470000F0B401251B
S113A8F0ED070F005F404FD48B4200D1824205D94F
S113A9008446100062468C4619006346DF184C18D2
S113A910640D7F0D3AD0661C760537D0E61B352EC4
S113A92034DCDB022B43DB0A0C0DC9022943C912B8
S113A930202E0DDB1700203E06D01F00F741F34008
S113A9405F400026012A7741C01871410DD217E0FB
S113A9501700F741F2405740F3415A40B340F340E7
S113A9605A400026801859410AD3A21C52050FD020
S113A970C207012F724117004008CB07184349084A
S113A980641C24054208AF4170416141F0BC70472A
S113A990641C21050020F9E76B400AE06B40ABE73B
S113A9A0F742F3D1E943F1E72442EFD1002000213B
S113A9B0ECE70C00871A9C4105D2C01BA141D219B7
S113A9C0634169406B40AE0ADF184C18F442E7D289
S113A9D0640D7F0DE8D0E61B362ED7DCDB022B435B
S113A9E0DB0AA4460C0DC9022943C90A012E28DC3E
S113A9F004D1D6075208DF073A435B08EF0A7642D0
S113AA009041994114D039423BD1B6194041494152
S113AA10761C394204D1761C001849413942FAD0D7
S113AA20B9436746B74208D9A41B24052143ADE7BF
S113AA300042EAD13642E8D1A8E7E40AE10700205F
S113AA40A4E7202E0BDD203E1F00F340F7415F40BA
S113AA50012A002257417E42984191410BE01700A0
S113AA60F741F2405740F3415A40B340F3405A4053
S113AA707E42904199410A0303D2641EB6194041B3
S113AA8049410027641E24054208AE4178416141D2
S113AA90F0BC70474A1812D2400DC9020843012184
S113AAA0C9070843520D40210901521A521C06D409
S113AAB052421F3201D4D0407047C0177047002063
S113AAC07047FEE7F0B53A480078002859D1384875
S113AAD0406838494843384940183849FFF79FFED1
S113AAE034484143344808183449FFF798FE314844
S113AAF04143314808183149FFF791FE2D4841433D
S113AB002D4808182D49FFF78AFE2A4841432A4850
S113AB1008182A49FFF783FE2648414326480818A7
S113AB202649FFF77CFE234841432348081823495C
S113AB30FFF775FE1F4841431F4808181F49FFF7D8
S113AB406EFE1B4841601E4D102604461A4F606875
S113AB5018494843C0191949FFF761FE616029602B
S113AB6014484143C8191549FFF759FE61606960EB
S113AB700835761EEBD11248C16F80228150012026
S113AB8020700B4C60680B4948430B4940180B4933
S113AB90FFF745FE61600A4B180080300278D20648
S113ABA0520E9A1813680360116098008008F0BD73
S113ABB0000100200D6619005FF36E3CFFFFFF7F6C
S113ABC01401002070471302DC1E3421C4228C239C
S113ABD0506496C8FA100410041A28020B1E031EAF
S113ABE00502141E461E5A141428461E5A1414280C
S113ABF0461E5A141428461E5A141E053C034603C6
S113AC001E053C0346031E053C0346031E053C0388
S113AC10460300000008010000020000C6AB00006B
S113AC2000081008020200000000000000061010D6
S113AC3004010000000000001108100000000000E2
S113AC4000000000110801000000000000000000E6
S113AC5070B40123002413E00168001D194202D0DE
S113AC604D466D1E49190C60091D121F042AFAD2A3
S113AC700D00960701D50C80AD1C1A4000D02C7035
S113AC800268001D002AE7D170BC704730B401226D
S113AC900168001D00290FD00368C31844680830F8
S113ACA0144202D04D466D1E64191D6825601B1D9B
S113ACB0241D091FECD0F8E730BC704710B50749D4
S113ACC079441831064C7C44163404E0081D0A68A3
S113ACD0891888470100A142F8D110BD080000007E
S113ACE0280000006DFFFFFF38020000140100205F
