S00A0000524C532E53313919
S1130000B0040020DD5D00001701000017010000AE
S113001000000000000000000000000000000000DC
S113002000000000000000000000000017010000B4
S1130030000000000000000017010000170100008C
S1130040170100001701000017010000170100004C
S1130050170100001701000017010000170100003C
S1130060170100001701000017010000170100002C
S11300700328000017010000170100001701000009
S113008017010000490C00000F28000017010000B0
S1130090275100001701000017010000170100009C
S11300A017010000170100001701000017010000EC
S11300B07959000010B50400080011000200200066
S11300C000F02CF8200010BD010042221201D21EC3
S11300D0004207D002D4521E0018FCD5C10A4005C4
S11300E012058918704700004A1812D2400DC9023F
S11300F008430121C9070843520D40210901521A3E
S1130100521C06D452421F3201D4D0407047C0174B
S1130110704700207047FEE7704713021206130A67
S11301201A43130C1A4300BF094205D0830705D0B4
S11301300270401C491EF9D17047000013001039A9
S113014006D330B41400150010393CC0FCD230BCC6
S1130150490700D30CC000D504C0890002D3028033
S1130160801C002900D50270704703169A13000002
S11301700B2B00001D30000077350000943B00007D
S1130180A23F0000E84400006F4A0000E74D000071
S11301902050000033520000C7530000E654000012
S11301A028550000F0550000EA56000046520000B1
S11301B08D6A0000F0730000B27700000E7A000030
S11301C0617E00000B81000089830000248500000B
S11301D0F8850000DC870000B888000094890000DE
S11301E0F8890000DE8A0000D88B000000001400AB
S11301F02A004F00B300E70013015F019F01FF01D4
S113020037027702AD02EE026203FD03000009002B
S113021015001D00230033004400550066007300E0
S113022086009400A700B600C800FD00E000F000BE
S1130230000000FF00E0FEFF00FF80FFF0FFFFFF73
S1130240FFFF0000000000000500000002000000A5
S1130250A0010020000000000500000002000000D2
S1130260B0010020002331323C3DFF0000A00640D5
S10B02701602FFFF80000000EC
S11304102E480168802292050A4302602C48016834
S1130420802212010A43026038202A490860002011
S1130430BD490860704700B52749C0B20860086824
S11304400006FCD5B948006880B200BDF8B50500C7
S11304500C000026370005E02800C0B2FFF7EBFFD0
S11304603F18761C30002100C0B2C9B28842F3D3D1
S113047038002100C9B205F0B0FA80B2F2BD10B55F
S11304801648017802220A43027015480178FF29B0
S11304900DD000781349087013480178FE220A40F1
S11304A0124909780B00DB07DB0F1343037040206C
S11304B00F490A780242FAD0CA4A137820241C430E
S11304C014700A781043087010BD00000C800440BA
S11304D018B0034008B0034000B003400040064099
S11304E0FF0300000240064003400640FE030000F4
S11304F00440064030B50023190008E000BF521C38
S11305001400A4B2C8252D01AC42F7DB491C0A0033
S1130510040092B2A4B2A24201D21A00F0E730BDA4
S113052000B5002101E000BF491C0A000300D2B25B
S1130530DBB29A42F7D300BDF8B57D4C012301220A
S113054021007C4800F00EFB2078FF2801D16420B4
S11305502070794C012301222100784800F002FB2D
S11305602078FF2801D164202070012301226946EC
S1130570734800F0F7FA68460078FF2804D18D48E4
S1130580007C8D49087003E0684600788A49087049
S1130590012301226946894800F0E4FA684600789C
S11305A0FF2804D18348407C8F49087003E06846E3
S11305B000788D4908708D49002002000A700200FD
S11305C04A708B4C010021708A4D01210A002A7067
S11305D0894A03001370894B0E001E702478002C86
S11305E006D0874C6678082737436770647805E03F
S11305F0834C6678F727374067706478814C0E0027
S113060026702D78002D06D07D4D6E781027374347
S11306106F706D7805E07A4D6E78EF2737406F7014
S11306206D780D0025701278002A06D0744A55782A
S113063040262E435670527805E0714A5578BF26FD
S11306402E40567052780A0022701A78002A06D07A
S11306506B4A537880251D435570527805E0684AEB
S113066053785B065B0E537052780A002270644A1A
S1130670931C9578FB262E401E7095780D002570EE
S11306809578F7262E401E7092780A002270784AD8
S1130690137808241C431470764A531C102455788C
S11306A026002E431E700D00734E357015782600FB
S11306B02E43167055782C431C70030013710200EE
S11306C06E4B1A708C4A117001008C4A1180010023
S11306D08B4A117001008B4A117001008A4A117013
S11306E050218A4A11700921894A1170894A11706E
S11306F00100894A11700100884A11700100884A7A
S113070011700100874A11700100874A11700100BD
S1130710864A11700100864A11700100854A1170E1
S113072085490870F1BD00000CB0034010B00340CF
S11307309D020020100000109E02002012000010F4
S11307401400001030B500247C4905F046F9401E21
S113075080217B4A12780A4203D17A48204380B22E
S113076026E0794A13785B0616D413780B420BD033
S11307703F2113780B400500EDB229408B4203D092
S11307807248204380B213E01178C0230B408006E6
S1130790800E1843107009E03F2112780A40C0B25D
S11307A001408A4202D02000684C0443200080B2F9
S11307B030BD0000B85D000080020020160000106B
S11307C000B563490A6880235B0213430B605C49EC
S11307D080220A70C0B2002802D008781042FCD0EF
S11307E000BD0000014006408102002056020020A6
S11307F0A1020020A2020020A3020020A4020020E3
S1130800C0000020D401002070B5002214004C4D1B
S1130810302129704F490A704F4A122313704F4BED
S11308200600360C1E7001260E7001001970000AB5
S113083010700120FFF7C4FF2878800602D520003D
S1130840474C04432878C00602D52000454C044395
S113085003202978014202D02100434C0C4329781B
S1130860014202D02000BE4C0443200080B270BD7F
S1130870AE020020E4010020970200206102002063
S1130880F8B500231C002E4D30222A70314A137013
S1130890314B11261E70314F0600360C3E70012676
S11308A0167006003E70000A1870022010700800CE
S11308B080B2000A38700326167039700120FFF7E1
S11308C07FFF2878800602D52000254C0443287831
S11308D0C00602D52000234C04432878304202D0BD
S11308E02000214C04432878304202D020009C4C44
S11308F00443200080B2F2BD7202002022020020D4
S1130900740200209302002062020020940200205E
S1130910780200209B0200208A0200208702002027
S1130920A5020020A7020020A8020020A6020020A1
S1130930AB020020AC020020AD02002040420F00B8
S1130940060002401430000000000240183000008D
S11309500C3000F0020002400A0002400B0002408A
S1130960083000001030000011300000FCB583B0E6
S113097007000D00140000260222002101A8FFF741
S113098099FB0020002D03D0200080B2002801D163
S11309900020E3E080204005874206D3200080B297
S11309A03818401EA749884201D30020D6E0684683
S11309B0007C012800D1641C6846007C01280CD10D
S11309C0002002E0295C7618401C210089B2491EEF
S11309D08842F7D3F0430600761C78084000009064
S11309E000983F1A0023022201A9009800F0BAF8E7
S11309F0002801D10020B1E002203900C9B2401A18
S1130A00210089B288421EDB01A829783A00D2B2BB
S1130A1081546D1C7F1CB9496418220092B2012ACA
S1130A200CD16A46127C012A03D13A00D2B2865410
S1130A3003E02A783B00DBB2C2546418200080B281
S1130A400028E1D109E0FFB205E0287801A9C855E2
S1130A506D1C641E7F1C022FF7D301AF387800028F
S1130A60797808436946C8800098FFF7CDFE0028CE
S1130A7001D0002072E06846C1880098FFF700FFAB
S1130A80002801D0002069E00098801C00900AE052
S1130A906846C1880098FFF7F3FE00281CD100982F
S1130AA0801C0090A41E200080B2032816DB0020C6
S1130AB003E0297839546D1C401C0228F9D3387896
S1130AC00002797808436946C8800098FFF79CFEC5
S1130AD00028DDD0002041E000203FE0002002900B
S1130AE0200080B2002838D00023022201A90098F7
S1130AF000F038F8002809D100202FE02878029966
S1130B0078546D1C0298401C0290641E200080B230
S1130B1000280ED0200080B20128EFD16846007C66
S1130B20012802D102983E5402E0287802997854B0
S1130B30601E38780402787804430098FFF764FE56
S1130B40002801D0002009E0210089B20098FFF7B5
S1130B5097FE002801D0002000E0012005B0F0BD80
S1130B6012300000F0B5040000201D00EDB2012D8C
S1130B7000D1521C002903D01500ADB2002D01D1C3
S1130B80002039E080256D05AC4206D31500ADB2D6
S1130B9065196D1E2B4EB54203D300202CE0257839
S1130BA00D701500ADB2002D25D08025C74E3778C5
S1130BB02F4201D100201FE02778641C0F70491CCC
S1130BC04F1E3F78C019521E1700BFB2012FE8D143
S1130BD036782E4201D100200EE01D00EDB2012D29
S1130BE0DDD12178641C4018C0B2002801D1012055
S1130BF002E0002000E00120F0BD4148016820220D
S1130C000A4302603F48016807220A4302609B4985
S1130C100A68402313430B600A68102313430B60D4
S1130C209749984A1160016808220A4302608020AB
S1130C30800295490A6802430A60A5490A6810437C
S1130C400860704700010010F8B501248B48016862
S1130C50C909214000294FD00168016880224A4017
S1130C600260884D2868FFF72FFA0022994B04F0A0
S1130C700BFFFFF739FA286097480178491C017087
S1130C8096490A78521C0A70954A13785B1C1370B3
S1130C90944B1D786D1C1D70934D2E88761C2E80F0
S1130CA0C82676002F88B74204DB2E8025008F4E9D
S1130CB0357002E000258D4E35700578002D04D086
S1130CC00025057020008A4D28700878052804DB6B
S1130CD00020087020008749087010780A2804DB77
S1130CE0002010702000844908701878322803DB33
S1130CF000201870BB480470F1BD0000FFFF000025
S1130D000C8004400080034070B480221202AC487E
S1130D10016811430160AB490B681A430A60AA4B8E
S1130D2002681A400260A94A146823401360AE4B5B
S1130D3004681C4004601468234013604023046862
S1130D401C4304600C6823430B6080240368234322
S1130D5003600B6823430B60A44B1D682C431C6089
S1130D608024A4010568254305600D6825430D60B2
S1130D701D682C431C6080242401056825430560FC
S1130D800D6825430D601D682C431C600224E44358
S1130D90A34D2E6826402E60A24D06682E400660A4
S1130DA01668354015608025ED0006682E43066000
S1130DB00E682E430E6019680D431D6001680123FF
S1130DC0994301601168012399431160016821402E
S1130DD0016011680C4014600421C94303680B408E
S1130DE003601368194011600821C94303680B406C
S1130DF003601368194011608B4903680B4003605A
S1130E00136819401160894903680B400360136833
S1130E1019401160864903680B4003601368194048
S1130E201160844903680B40036013681940116022
S1130E30814903680B4003601368194011607F49BE
S1130E4003680B4003601368194011607C49036810
S1130E500B4003601368194011607A4903680B4022
S1130E600360136819401160774903680B400360FD
S1130E7010680140116070BC704700000C80034092
S1130E80F30500001080034080E200E080B50020FC
S1130E9001F058FD002002BD80B501F095FD01BDB3
S1130EA080B501F095FD01BD10B5002421000100BD
S1130EB0C9B2092901DB052403E06449087001F083
S1130EC0A5FD2000C0B210BD0000000006000240D5
S1130ED000E100E0C0CD97405802002059020020F4
S1130EE05A0200205B020020180200206002002049
S1130EF05C0200205D0200205E02002080B5C0B2CA
S1130F0001F06CFD002002BD10B5020001200300B9
S1130F1013401400E4B2640804405C401300DBB2E4
S1130F209B08034063401400E4B224092040584065
S1130F3083011000C0B240081400E4B2E408444045
S1130F401000C0B2000960401400E4B264094440D7
S1130F50E043C0011843C9B201290BD11100C9B241
S1130F60C0230B40C0B2834201D0FF2003E09006AF
S1130F70800E00E01043C0B210BD00B50A00D2B22A
S1130F803C2A05D00A00D2B27D2A01D0C9B200E0C1
S1130F900021027808E0401C0378C9180B009BB2BA
S1130FA0FF2B00DDFF39521E1300DBB2002BF2D100
S1130FB089B2C843C0B200BD80B501F099FC01BD3F
S1130FC014F00F4004F00F40FFBFFFFF18F00F4074
S1130FD001208549087000200100844A1170844969
S1130FE0088070475F020020FFFFFFF70490044071
S1130FF000B5804801780F2902DB0021017002E06E
S11310000178491C01707C490A78F0231340007868
S11310100007000F1843087001207849087000BDCC
S113102004800440FFEFFFFFFFFFFEFFFFFFFDFF13
S1131030FFFFFBFFFFFFDFFFFFFFBFFFFFFF7FFFA0
S1131040FFFFFFFEFFFFFFFDFFFFFFFBC0010020CE
S1131050F8B51020EF216A4C674F22780A403B7A9A
S113106005001D4015432570664E627811407A7A5A
S1131070D2B25208104008433070387B2071217975
S113108089B240204843192104F0A4FC5E49088039
S11310902078C006C00E397A4909490101432170FC
S11310A00125A078FE210140B87A2A0002400A43B3
S11310B0A270A079F8210140B87B4007400F084393
S11310C0A071F720A1790140BA7B08231A400A4392
S11310D0A2716278F02111407A7A1207120F0A4342
S11310E03270A1798F220A40B97B70230B401343DD
S11310F0A371A84904260A78FB2313409C463B7C31
S113110032001A4063461A430A700A7810403A7C47
S113111008231A4002430A700A78FE2010403A7CE1
S11311202B00134003430B7003F030FC6078010183
S1131130A079C0B200094007400F0843C0B211288B
S113114010D0132814D0522818D053281CD0952816
S113115020D0D22825D0D3282AD0D5282FD0D628BD
S113116033D038E028009D4908709D48057037E069
S113117002209A4908709A48057031E00320974983
S11311800870974805702BE0944806700220944933
S1131190087025E0052091490870032090490870E3
S11311A01EE006208D49087003208D49087017E061
S11311B007208A49087003208949087010E0082034
S11311C086490870864806700AE009208349087039
S11311D08348067004E0092080490870804806703E
S11311E0502080490870F1BD620200206002002096
S11311F01802002061020020C0000020D401002059
S1131200E4010020E50100202C02002070B576489E
S113121076498A89824202D0C989814202D100205A
S11312207349087003F0A0FD03F002FE71480178D1
S1131230C906C90E6E4A127852010A43027001218E
S11312406D4A0B0013706D4B1B78002B05D043784F
S113125008241C434470437804E04378F7241C407A
S1131260447043780B001370654B1B78002B05D03A
S1131270437810241C434470437804E04378EF24FB
S11312801C40447043780B001370A54B1B78002B53
S113129005D0437840241C434470437804E04378E9
S11312A0BF241C40447043780B0013709D4B1B7883
S11312B0002B05D0437880241C434470437804E019
S11312C043785B065B0E437043780B001370431D39
S11312D0954C4679FC2535402688B6B2360AB607C1
S11312E0B60F2E431E70248804710C0014708F4CAA
S11312F02478C4700C001470AA4C247884710C00F7
S11313001470A94C25780A2D01DB0A2400E0247806
S113131045792D072D0F24012C431C700B001370ED
S1131320A24B1C780D002540EDB2002D05D0847829
S1131330022525438570847804E08478FD252540C2
S1131340857084780C0014701C782500EDB26D084B
S11313500C002C401B78DBB29B080D001D4025437C
S1131360EDB2002D05D0837804241C43847080786A
S113137004E08378FB241C4084708078117070BD75
S1131380AA48017801220A4302700178FE220A4029
S113139002707047AE02002000B502005220130014
S11313A0DBB2202B0ED11000401C08701000801CF2
S11313B048701000C01C88701000001DC870521DB9
S11313C00A715420C0B200BD80B5FFF7F5FD0020BE
S11313D002BD80B5FFF75AFD02BD0000780200206F
S11313E07702002094020020FFFF00008C010020FF
S11313F092020020C0000020D4010020A10200209D
S1131400A202002080B50200D2B2002A04D1080052
S1131410C0B200F021F81EE00200D2B2012A04D1C9
S11314200800C0B200F0C4F815E00200D2B2022AEB
S113143004D10800C0B200F07BF80CE00200D2B284
S1131440082A04D10800C0B200F038F903E0C9B298
S1131450C0B200F0EDF801BDF8B507000025280082
S113146091490870914E3800C0B200F07DF9307097
S11314703078FF2801D128003FE001208C493278E0
S11314800C235A438C182178012917D18948A16863
S11314900978405C00280FD08748A1680978401873
S11314A045782800C0B200F05FF930702800C0B25F
S11314B001F00AFA022020E028001EE0A1780129A8
S11314C01BD12078002806D100213800C0B200F0DA
S11314D067F9022011E09A4E3078002801D12800E3
S11314E00BE0AC480078032806D000F039F93078D6
S11314F0401E3070022000E02800C0B2012802D053
S1131500022804D007E06078FFF7F8FC05E0607873
S1131510FFF7CAFC01E0FFF7BFFCF1BD00000000CB
S1131520A3020020A40200202E0200207A02002040
S113153070B504005D485E4902780C235A438A184A
S1131540157902780C235A438A1856790122924B52
S11315501A7002780C235A438A5C002A05D10121AF
S11315602000C0B200F01CF907E000780C225043C0
S1131570085C112801D100F0E5F8002006E0FF2105
S1131580B24A2B00DBB2D1546D1C401C0100320066
S1131590C9B2D2B29142F2D32000C0B201F056F9DE
S11315A070BD00007902002090020020EC010020B0
S11315B070B5012578490D7078490A78012A04D15B
S11315C000221300984C23700A700400374E200048
S11315D0C0B200F0C9F83070307800F076F8307896
S11315E001F056F92000C0B201F030F9E4B23D2C0C
S11315F01BD18E480188491E0180008800280BD128
S1131600002001008A4A117002218A4A1170614A3D
S113161011708F49087008E0FA20C00086490880DC
S11316208348057002208A49087070BD03A00640F3
S113163070B505000C001D4E2000C0B200F094F8F7
S11316403070EDB2ED1E042D25D8012076490870C6
S11316502000C0B23C280DD1032078490870784995
S113166008700220774908710020354908707849CC
S113167008700CE02000C0B23D2808D103206D4959
S1131680087006207649087100207149087003200B
S11316906D490870FFE7307801F0FAF82000C0B215
S11316A001F0D4F870BD0000660200207102002031
S11316B07C5C0000D4010020F800002080B5C0B29A
S11316C001F0C4F8FFF7ECFB01BDF0B56549020079
S11316D0D2B20C235A438A1812790300DBB20C24C9
S11316E06343CB185B790400E4B20C256C430C5DB6
S11316F0012C09D15C4C0500EDB20C2675434D1943
S1131700AD682D78002666550400E4B20C256C43C0
S1131710095D112912D000210C0006E0FF254B4E73
S11317201700FFB2F555521C641C25001E00EDB2D3
S1131730F6B2B542F2D34C4AC0B21154F0BD000027
S11317406F02002080B549484078002805D1012067
S113175047490870FFF7A4FB01E000F031FC01BD2C
S113176080B500F035FB01BD00B5052100E0491E40
S11317700A00D2B2002A0AD03E4A0B00DBB2D25C85
S11317800300DBB29A42F2D1481EC0B200E0FF204F
S113179000BD00000501002064020020700200204A
S11317A030B53248344A2F4B14780C256C431C193D
S11317B06478047014780C256C431C19E478C9B25D
S11317C000291FD111780C22514359188968002926
S11317D007D00978294A1278914202D10121284A76
S11317E0117001210A00D2B203785B1C9A421ADA02
S11317F0244A2300DBB2D25C0B00DBB2C254491C86
S1131800641CEFE7012108E00A00D2B2825C1D4BA0
S11318102500EDB25A55491C641C0A00D2B2037863
S11318205B1C9A42F0DB30BD650200201E020020E2
S11318306A0200206E020020200200206C020020B8
S11318406D020020E800002005010020CC010020EA
S11318506B02002080B501220B4900F00DFD01BD93
S1131860D80000207C5C0000D4010020C0010020CE
S113187066020020F800002071020020965D00003E
S113188070020020C0000020E8000020F3B583B0FF
S1131890002401204C4908704C4D287802280CD0B3
S11318A02878032805D02878062802D02878052827
S11318B0F2D128784449087084E06846FFF7CAFFEB
S11318C06E4670780100C9B209090398C9B20029AB
S11318D003D0022947D01AD36FE071780907090FA2
S11318E00180B078049A1070012008E00200D2B29E
S11318F0B2189278049B0400E4B21A55401C02000A
S1131900D2B20B0092B29BB29A42EFD355E07178F7
S11319100907090F802252005143B27889180180C7
S1131920F078049A1070012008E00200D2B2B218D4
S1131930D278049B0700FFB2DA55401C0200D2B2F1
S1131940052AF2DB4F1F641D0DE00100C9B2715C72
S1131950049A23009BB2D154641C401C0100C9B2F8
S11319600829F2DBBF1F380080B2072807DB68466E
S1131970FFF770FF70780007000F0220EEE73800D1
S113198080B2002818D06846FFF764FF707800071B
S1131990000F002009E00100C9B271188978049A87
S11319A023009BB2D154641C401C0100C9B23A000C
S11319B089B292B29142EED3FFE700202870022050
S11319C00149087005B0F0BD6D0200206C020020D2
S11319D0F8B596B003001000C54A04AC157825701C
S11319E003252E0066707F26A670E3702071FF2603
S11319F06671A671E6711F00FFB2102F14D0222F5A
S1131A001CD02E2F00D1FAE0B02F00D19EE1B22FCE
S1131A1000D151E1B32F00D1A7E1B62F00D18BE162
S1131A20B72F00D17EE1A7E1C9B2012905D1022176
S1131A3061704033A370E07026719DE1C9B2012941
S1131A4000D0DBE04033A3700100C9B2852914D172
S1131A500123032206A980204005FFF783F806200E
S1131A606070F120E0708520207106A80178617112
S1131A704178A1718078E071C0E00100C9B2862983
S1131A8013D10123032206A9BF48FFF76BF80620F0
S1131A906070F120E0708620207106A801786171E1
S1131AA04178A1718078E071A8E00100C9B287296A
S1131AB013D10123032206A9C348FFF753F80620D4
S1131AC06070F120E0708720207106A801786171B0
S1131AD04178A1718078E07190E00100C9B2882951
S1131AE013D10123032206A9B848FFF73BF80620C7
S1131AF06070F120E0708820207106A8017861717F
S1131B004178A1718078E07178E00100C9B20129BF
S1131B101AD10123012206A9B948FFF723F806A820
S1131B200178FF2903D16420B649087002E00078E7
S1131B30B4490870042060701320E0700120207103
S1131B40B0480078607159E00100C9B202291AD185
S1131B500123012206A9AC48FFF704F806A801787E
S1131B60FF2903D16420A949087002E00078A7493D
S1131B700870042060701320E07002202071A348D4
S1131B80007860713AE00100C9B20A290DD105203C
S1131B9060701320E0700A2020719D48818989B209
S1131BA0090A61718089A07128E00100C9B20B297A
S1131BB00DD1052060701320E0700B202071944833
S1131BC0C18989B2090A6171C089A07116E0010056
S1131BD0C9B22039202911D202A9C0B2FFF7DCFB17
S1131BE0C0B254280AD102A80178E1704178217169
S1131BF081786171C178A1710079E071BCE0C9B2EA
S1131C00012958D14033A37066710100C9B28529F6
S1131C1006D128006070F120E070852020714AE030
S1131C200100C9B2862906D128006070F120E07055
S1131C30862020713FE00100C9B2872906D128001F
S1131C406070F120E0708720207134E00100C9B297
S1131C50882906D128006070F120E0708820207166
S1131C6029E00100C9B2012906D1280060701320BF
S1131C70E070012020711EE00100C9B2022906D1E2
S1131C80280060701320E0700220207113E001002E
S1131C90C9B20A2906D1280060701320E0700A2016
S1131CA0207108E0C0B20B2805D128006070132011
S1131CB0E0700B2020715FE0C9B2012931D1062107
S1131CC061704033A3700100C9B2002912D1B64833
S1131CD00188E170018889B2090A21714188617122
S1131CE0418889B2090AA1710079E07119E000BF45
S1131CF0040100200100C9B22039202911D269460B
S1131D00C0B2FFF749FBC0B254280AD16846017833
S1131D10E1704178217181786171C178A171007994
S1131D20E07129E0C9B2012905D101206070403376
S1131D30A370E67026711FE0C9B2012905D1012004
S1131D4060704033A370E670267115E09748C1684F
S1131D50008808234343C818C079107001206070BC
S1131D60F020A070E670267106E001206070F32078
S1131D70A070E6702671FFE78D48057101210A0005
S1131D80C28000220EE000BF04000010C368058872
S1131D9008266E439B191500EDB21600F6B2A65D37
S1131DA05E55521C1300DBB2082BEFDB4088814ADE
S1131DB010800800804A10800800804A1070BA48D9
S1131DC0017017B0F0BD0000080000100C000010F6
S1131DD0E0B500227649684600F04EFA01200AE098
S1131DE069460200D2B28918491E0978AF4A030035
S1131DF0DBB2D154401C0100C9B20929F0DB07BD94
S1131E00100000109D020020120000109E0200200D
S1131E108C01002070B54178C9B20909C9B2002902
S1131E2003D002297BD02FD3BDE040780007000FF8
S1131E3080B2072824DA022528009D490870002072
S1131E4001009C4A1170012421009B4A11705749DA
S1131E5002000A8002004A800200CA80087101223E
S1131E60964800F0CFF92000C549087094480470E2
S1131E7094480178062900D0057000F027F902E0A3
S1131E800020904908708EE041780907090F8022EC
S1131E905200514380780C18200080B2C01F0528DE
S1131EA039D2FA20C000884908800220814908708C
S1131EB000253E4928000880280048802800C88062
S1131EC02800087101227D4800F09CF906262000B4
S1131ED080B2401F310003F07DFD002907D1A4B278
S1131EE0601F310003F076FD7549087007E0A4B265
S1131EF0601F310003F06EFD401C71490870012021
S1131F009F4908706C4805706E480178062905D011
S1131F100421017002E000206A49087043E0FA21BC
S1131F20C900694A11800224624D21002970407859
S1131F300007000F92490A78C0B2904217D108787E
S1131F40401C08700878102801DB002008705C48E9
S1131F500178491E017001221449584800F052F9D1
S1131F605848017806290AD00421017007E00620A8
S1131F7001004F4A11709C49087000202870504895
S1131F80007800280ED120004949087000202870EC
S1131F900120494908704B480178062900D0047093
S1131FA000F094F8FFE770BDF05D0000E800002049
S1131FB0D80000201C0200201E0200206E02002017
S1131FC0F8B53A4A5078D3789178C9B2090904002F
S1131FD0E4B27F2C1AD00400E4B27E2C16D0834CD9
S1131FE024780500EDB2AC4203D01C00E4B2B02C5E
S1131FF008D17F4C24780500EDB2AC4206D0DBB2A8
S1132000B02B03D10020284908704BE02D4B1C78DD
S1132010022C02D01C78042C10D10400E4B27E2CD3
S11320200CD1254C2478002C08D1FA20C000264974
S1132030088002201F490870002033E01C78022C1D
S11320401ED10400E4B27E2C1AD0002425001A4EBE
S11320503570684D6C802C80EC8005262E71664DA1
S11320606C802C80EC8026002E7102252E00634F9C
S11320703E7026000E4F3E705B4E35700A4D2C703C
S11320800D4C2478032C02D1C9B202290AD0C0B263
S11320907E2802D00420187001E006201870501C1D
S11320A0FFF7B8FEF1BD00006F020020C001002060
S11320B06C0200206A02002005010020C1010020FA
S11320C0680200206B0200202002002070B500246A
S11320D021004948C268038808255D435219527893
S11320E0D2B21209C368058808266E439B5DDBB231
S11320F07E2B0BD100F07EFB4148047002208F49F7
S113210008708F4804701E4804706CE0D2B2012A33
S113211006D1C268008808234343D018C07805E07C
S1132120C268008808234343D0188078220000E066
S1132130521C1300DBB2082B0CDAA74B1500EDB2CE
S11321405B5D0500EDB2AB42F2D101210B00A34D62
S1132150D2B2AB54C9B2012940D10100C9B210298D
S113216010D0222929D02E292AD0B0291CD0B22956
S11321700BD0B3291ED0B6290DD0B72908D02CE036
S11321806902002000F0DEF82DE000F0DDFA2AE01C
S113219000F08CFA27E00120914908700022012107
S11321A0B620FFF715FC1EE000220121B020FFF746
S11321B00FFC18E000F0ECFA15E000F013F912E05F
S11321C0B8490978012905D17F220021C0B2FFF75F
S11321D0FFFB01E000F06EF905E004E011220021AC
S11321E0C0B2FFF7F5FB70BD6D02002004010020B2
S11321F06B010000D8000020E80000206E020020DF
S11322006B02002070B5CB680C79032C33D00C79A9
S1132210052C02D00C79002C08D1D2B2002A02D1AC
S113222004220A710DE001220A710AE00A894C882D
S1132230641CA24202D100224A8002E04A88521C55
S11322404A8000220AE04C88082565435C19150081
S1132250EDB21600F6B2865D6655521C1400E4B267
S1132260082CF0DBC888401CC880C8880A899042C2
S113227001D30320087170BDFCB50B00DC68009429
S11322801C79002C3DD01C79052C3AD01D880023E4
S11322901C0001900DE000982E00B6B20827774389
S11322A0C0192600F6B2805D019E2700FFB2F055EA
S11322B0641C2000C0B20828EDDBC888401EC8801A
S11322C0C888002808D1D2B2002A02D1052008719A
S11322D00AE01800087107E0D2B2002A02D10420F3
S11322E0087101E001200871C888002809D0088815
S11322F00A89521E904201D10B8002E00888401CDA
S11323000880F3BD00B568480178012910D16749F8
S11323100A88FA235B009A4207DB0122614B1A7098
S11323200022130003700A8002E00888401C088021
S11323305C4800785E49087000BD0000050100207B
S113234068020020F8B501A8811C6846FFF79EFAD0
S113235001A8C07869460988022935D1C0B201288C
S113236004D02BD3032820D009D327E00122012154
S11323701020FFF72DFB01204A49087029E04C4842
S11323800078012808D17F2200211020FFF720FBCC
S113239001204449087007E0022201211020FFF7C0
S11323A017FB02203F49087013E00322012110208B
S11323B0FFF70EFB03203B4908700AE012220021BC
S11323C01020FFF705FB04E0132200211020FFF783
S11323D0FFFA05B000BD0000F85D0000DC0100203C
S11323E067020020F8B501A8811C6846FFF74EFA81
S11323F001A9C878000209790843694609880329B4
S113240049DB80B2A749401A27D0401E2BD0083898
S11324102FD0401E33D0A449401A06D0401E0AD003
S1132420401E0ED0401E12D02FE085220121222012
S1132430FFF7CEFA34E0862201212220FFF7C8FA02
S11324402EE0872201212220FFF7C2FA28E0882209
S113245001212220FFF7BCFA22E0012201212220DF
S1132460FFF7B6FA1CE0022201212220FFF7B0FA9E
S113247016E00A2201212220FFF7AAFA10E00B221B
S113248001212220FFF7A4FA0AE0312200212220B0
S1132490FFF79EFA04E0132200212220FFF798FAA6
S11324A005B000BD72020020740200202202002048
S11324B0730200201FB501A8811C6846FFF7E6F9E6
S11324C001ACE078000221790843694609880329B0
S11324D000DAE1E080B27349401A6BD0401E00D1AB
S11324E088E0083800D1A5E0401E00D1B8E06E496C
S11324F0401A06D0401E1BD0401E2FD0401E43D091
S1132500C4E068460088062805D0132200212E2046
S1132510FFF75EFA0BE001230322611D80204005D2
S1132520FEF724FA852201212E20FFF751FAB8E0A4
S113253068460088062805D0132200212E20FFF7C4
S113254047FA0AE001230322611DA948FEF70EFAA7
S1132550862201212E20FFF73BFAA2E0684600887C
S1132560062805D0132200212E20FFF731FA0AE0B5
S113257001230322611DB348FEF7F8F987220121E4
S11325802E20FFF725FA8CE068460088062805D03F
S1132590132200212E20FFF71BFA0AE00123032255
S11325A0611DA948FEF7E2F9882201212E20FFF7D8
S11325B00FFA76E068460088042805D0132200212B
S11325C02E20FFF705FA14E001230122611DAE4815
S11325D0FEF7CCF96079FF2803D16420AB49087079
S11325E002E06079A9490870012201212E20FFF739
S11325F0EFF956E068460088042805D0132200212C
S11326002E20FFF7E5F914E001230122611DAD48F6
S1132610FEF7ACF96079FF2803D16420B249087051
S113262002E06079B0490870022201212E20FFF7F0
S1132630CFF936E068460088052805D0132200212A
S11326402E20FFF7C5F90AE001230222611DA748E5
S1132650FEF78CF90A2201212E20FFF7B9F920E0B8
S113266068460088052805D0132200212E20FFF794
S1132670AFF90AE001230222611DAF48FEF776F9A3
S11326800B2201212E20FFF7A3F90AE031220021B9
S11326902E20FFF79DF904E0132200212E20FFF7DE
S11326A097F91FBD011300007ADE00007FB50724EF
S11326B0200001A8811C6846FFF7E8F801AEF57810
S11326C02800001D01E0641E401E2900C9B202005A
S11326D052B209B212B291420EDA210049B2715CCF
S11326E0FF29F0D0010049B20429ECDB10220021BB
S11326F0B720FFF76DF926E004246D1C0CE00121DE
S1132700200040B2305CFEF7FFFBAC492A0052B215
S11327108854FFE7641C6D1C200040B208280DDAC1
S1132720200040B2305C002802D0FF28F2D0E6E757
S1132730FF20A2492A0052B28854EBE7002201216B
S1132740B720FFF745F97FBDF8B501A8811C68469D
S1132750FFF79CF801A8C2781000C0B2002805D188
S113276000220121B220FFF733F90FE01000C0B2BC
S11327702038202805D2D2B20121B220FFF728F94F
S113278004E012220021B220FFF722F905B000BDB7
S113279070B58B48C168028808235343C918C978A7
S11327A0C268038808245C4312191279C368048838
S11327B0082565435B195B79C468058808266E4360
S11327C0A419A479C9B2002911D154402340DBB221
S11327D0002B07D1C1680088082242438818C079B9
S11327E09649087000220121B320FFF7F1F870BD6B
S11327F004000010F8B501A96846FFF747F805B0D2
S113280000BD80B500F0F0F9FEF7E2FB01BD10B5A4
S11328106C4801680A001206D20F002A11D0016820
S1132820016880224A4002606B4C2068FDF74CFC32
S11328300022834B03F028F9FDF756FC206000F0DA
S11328407DF810BD080000100C00001010B46A4997
S11328506A4A13780C7864001C431278097811438F
S113286089002143664A1278D2000A4365490978EF
S113287089011143C0B20002084363490140714811
S1132880018010BC70470000100000109D02002061
S113289030B56D49C0B20C225043085C01280FD0FA
S11328A06A486B496B4A0B78D35C01240578AC40C9
S11328B0A343524C2478007884401C430878145471
S11328C030BD00001200001010B5040000212000EB
S11328D0C0B2FEF765FF00212000C0B2FEF714FB72
S11328E05D49487010BD00009E02002018000010D1
S11328F040215A4802680A43026059480268072383
S1132900134303602F4A136819431160116810239D
S11329100B4313604C21304A1160016808220A43BA
S113292002608020C0024F490A6802430A6090494D
S11329300A681043086070471C00001080B500F05E
S113294099F801BD80B54849087043484749086073
S11329503420474908803F2040490A6880235B03AC
S113296013430B608D49020092B21212D206D20EAA
S11329700B681A700A68507000200A6890702C2046
S11329800A68D07008684079862202430868427158
S11329900868807902220243086882710868007816
S11329A0802202430868027008684079EF220240DE
S11329B00868427100F0DEF801BD0000F800002054
S11329C0E80000200C90034080B500F0D3F801BD6E
S11329D00A207349087070471090034023490A681D
S11329E0107000206F4A107008686F490860062054
S11329F06B490870704700006402002065020020E3
S1132A0066020020670200204FFF000010B5174C3B
S1132A10664801782068FEF7B0FA216822681278C7
S1132A208918487001205F490870206840785B4924
S1132A300968C87107205A49087010BD04010020B4
S1132A40000B53401A0200207C5C00006A01000065
S1132A501B010000C0000020C00100200C800440C5
S1132A600090034080E200E006010020FC01002009
S1132A702402002038B54F480178022914D14E4968
S1132A800A88521E0A80098800290DD103214B4A65
S1132A90117005210A004A4B1A704A4A117000212C
S1132AA00A000270484A11700178012911D1424983
S1132AB00A88521E0A80098800290AD103213F4A44
S1132AC011700421414A117000210A0002703E482D
S1132AD00170334C207800280AD0801E022822D9A5
S1132AE0001F2BD0401E01281DD9801E3FD03EE080
S1132AF0374D2888002812D1012036490870FF215B
S1132B000820FEF77FFC344828802448016849796E
S1132B10FD220A40006842710A20207002E02888E1
S1132B20401E288023E02D480188002902D100F0AE
S1132B3021F802E00188491E018018E02848018834
S1132B40002910D117480078002809D018480178C6
S1132B5002220A430270234801780720FEF752FC40
S1132B6000F008F802E00188491E0180FFE731BD4A
S1132B7000E100E00E480178FB220A40027016488A
S1132B8013490880002006490870044801684979FF
S1132B9002220A43006842717047000000010020CD
S1132BA00701002075020020F80100200801002020
S1132BB0F40100206A020020200200200501002008
S1132BC06C0200206D0200206B0200206E020020C7
S1132BD02A0200206602002010270000260200209E
S1132BE02802002076020020F8B5B04D2868047948
S1132BF028684779C0203840402820D12868407987
S1132C00402101432868417128680078BF210140B0
S1132C1028680170A64800780A2804D1FFF7AAFFA3
S1132C200020A4490870286800788021014328689E
S1132C30017028684079EF2101402868417102261B
S1132C40300004421DD0286800793100014328680F
S1132C5001712868C079BE4801780A220A430270CB
S1132C6093480178062905D00178072902D0007815
S1132C70082804D1C24801780420FEF7C3FBFFF7FB
S1132C8079FF802001000F422CD02968497908433C
S1132C902968487140202968097801432A6811701D
S1132CA0296809784906490E2A68117080490A780A
S1132CB00A2A02D1FFF75EFF48E10422A44B1A70EE
S1132CC0A44AD289A44B1A802A68127810432A682D
S1132CD010700320087028684079FD21014028689D
S1132CE0417133E1286800792968CC79810600D4E0
S1132CF02CE16F49097803290AD004291AD006293E
S1132D004CD0072900D1B7E00A2900D103E11DE125
S1132D10E4B2552C06D10420654908700120994974
S1132D20087006E0964801780620FEF76BFBFFF773
S1132D3021FF0BE1924D01212000C0B2FEF7E4F81F
S1132D4028709148047028783C2802D028783D28BF
S1132D5005D100208D49088001208D49087028780C
S1132D60FF280FD029780020FEF74CFB79488949C9
S1132D7009680978022251434018801E0088864958
S1132D8008800AE07248017840220A430270FF2159
S1132D900320FEF737FBFFF7EDFED7E07F4801681D
S1132DA0491C0160006804707A4E7D4800783168DF
S1132DB0097888425BD1744801783068FEF7DDF801
S1132DC0E4B2A04247D1FEF743F9012460480178F8
S1132DD022000A4302702868C078DB210140286879
S1132DE0C170334F09203870654801780220FEF71E
S1132DF009FB2868C078242101432868C170387809
S1132E000A2801D0FFF7B6FE5D4800783C282ED191
S1132E103068407800282AD130688078FF2826D18D
S1132E203068C078FF2822D130680079FF281ED18D
S1132E3030684079FF281AD130684079FF2816D1CC
S1132E403068C079FF2812D13068C079FF280ED1CC
S1132E50544804700BE03E48017812220A43027081
S1132E60474801780520FEF7CDFAFFF783FE4C486A
S1132E700178491C017069E0400607D44048017894
S1132E800620FEF7BFFAFFF775FE5FE044484149AC
S1132E900A680378D25CE4B294420DD038480178D1
S1132EA00620FEF7AFFAFFF765FE4FE000010020B1
S1132EB007010020660200200A68127803789A420B
S1132EC008D30278521C027009680078085C2968EB
S1132ED0C8711FE000209A490870FEF789F81C4861
S1132EE0017801220A4302702868C078DB2101407E
S1132EF02868C1700920934908702148017801208D
S1132F00FEF780FA2868C078242101432868C1703C
S1132F10FFF730FE1AE02000C0B2F0280ED02000E7
S1132F20C0B2E0280AD02000C0B2C02806D02000D9
S1132F30C0B2802802D0E4B2002C06D1FFF71AFEFA
S1132F4028684079064328684671FFE7F1BD000010
S1132F50F4010020CC5D0000260200207A487B4961
S1132F60086023207A49087001207A4908700F20EC
S1132F7079490870A0207949087001207047000041
S1132F8076020020A902002008010020220200206D
S1132F9074020020FC01002028020020F801002017
S1132FA075020020AB020020FEB5002420002000A2
S1132FB0FDF765FAFDF721FEFDF72AFAFDF7A4FEF9
S1132FC06748FDF7BFFB00F0A3F8FDF7B5FA00F082
S1132FD073F902F087F8FEF7F7F90020FEF7F9F924
S1132FE00C2069460871202601255E4F3868009040
S1132FF068460079310002F0EDFC2A008A4000980E
S113300002433A60584F38680090684600793100AE
S113301002F0E0FC2A008A40009802433A60BF486C
S11330200068800B28400028F9D002F09DFC4F482E
S1133030017801290AD12100017020004C4908803F
S11330404C480078002801D101F0C6FF4A480178B5
S1133050012907D049490978012903D04849097849
S1133060012912D10178012901D1210001704348BD
S11330700178012901D12100017041480178012919
S113308001D12100017001F0A7FF3A48017801291C
S113309001D1210001703B480178012903D12100AD
S11330A0017001F0F1FFC748017800292AD00129F5
S11330B02BD1C5480178012909D121000170FFF7FE
S11330C021F9C2480078012801D101F033FFC0483A
S11330D00178012903D12100017001F0EAFEBD4805
S11330E00178012907D12100017000F0B1FB01F042
S11330F09DFCFEF78BF8B8480178012901D1210025
S1133100017092E701F09DFC8FE7290001708CE7C4
S1133110B24800210170017801220A43027001784B
S1133120F7220A4002700178EF220A400270017807
S1133130DF220A40027000788021084070470000B6
S11331407B020020070100200000000008ED00E0E1
S113315000200540012005400420054005200540CD
S1133160002D310180E200E000E100E06002002077
S11331701802002062020020AB020020AC020020F2
S1133180AD02002063020020F0B504000D0016001B
S11331901F003800C0B2022102F01CFC29688C42D6
S11331A001D2308886E00100C9B204225143695833
S11331B08C4204D1C0B202214843305A7AE0010063
S11331C0C9B2042251436958A1423FD2401C00E0D5
S11331D0401C3900C9B2491E0200D2B2914234DB0C
S11331E00100C9B23A00D2B2521E914206D0010087
S11331F0C9B2042251436958A142E9D3471E0100D0
S11332000800C0B202225043305A3A00D2B202231C
S11332105A43B25A801A3A00D2B204235A43AA58E3
S1133220A21A5043C9B20422514369583A00D2B297
S113323004235A43AA58891A02F0CFFBFFB2022191
S11332404F43F15B401880B234E033E0411E00E0AC
S1133250491E0800C0B2002806D00800C0B20422EB
S1133260504328588442F3D30F00491C0800C0B2CD
S113327002225043305A3A00D2B202235A43B25A7D
S1133280801A3A00D2B204235A43AA58A21A5043CD
S1133290C9B20422514369583A00D2B204235A43B2
S11332A0AA58891A02F099FBFFB202214F43F15B3D
S11332B0401880B2F0BD000070B5F020000201F0AB
S11332C04FFF1648006801004904C90F0029F8D0CF
S11332D00220FDF70FF90D21FF2001F0E3FF052087
S11332E0FDF708F93E4C2178092002F025F96178B0
S11332F0012002F021F9A178142002F01DF9E178EF
S1133300052002F019F92179062002F015F9E17976
S1133310072002F011F9334802E000BF10F00F401B
S113332001780B2002F008F96179032002F004F916
S1133330217A082002F000F92B4801780C2002F0D1
S1133340FBF8A179042002F0F7F8617A0A2002F070
S1133350F3F8A17A0F2002F0EFF8E17A102002F0DE
S1133360EBF8217B112002F0E7F8617B122002F0D8
S1133370E3F8A17B132002F0DFF8E17B0E2002F0DA
S1133380DBF8002518E0AA4C9626B600320003218B
S1133390102000F02BF82900C9B2022251436052D8
S11333A032000321082000F021F82900C9B20222CA
S11333B05143611888816D1C2800C0B20628E2DBE5
S11333C070BD0000930200205C020020A5020020D2
S11333D05D0200205E0200205F02002000D0074052
S11333E0B85D00008002002081020020F6B583B0A1
S11333F00700002634003500019602960BE001997F
S11334004288891801910299C2888918029180889A
S11334102D18641C761C30006946097BC0B28842B2
S113342038D202F0A1FA3800C0B202F072FA814830
S1133430C1884288914203D24188C288891A02E035
S1133440C1884288891A7C4A11807C4A1378012BEE
S11334500AD16A46128A89B2914203D28188784A93
S11334609142CCDA0020E1E011780029D3D181889F
S1133470734A91420CDB019942888918019102999F
S1133480C2888918029180882D18641C761CC2E7B2
S11334900020CBE03800C0B210283CD101982100B4
S11334A0C9B202F09AFA0190664E019830810298EE
S11334B02100C9B202F091FA30826348018832894E
S11334C0914205D301883289891A604A118004E047
S11334D031890288891A5D4A11805D490A88338AD4
S11334E09A4205D30A88338AD21A5A4B1A8004E0C6
S11334F0328A0B88D21A574B1A8032890280308A5A
S1133500088052480088C92803DA52480088C9282C
S113351042DB00208AE03800C0B208283CD1019880
S11335202100C9B202F059FA0190464E0198708107
S113353002982100C9B202F050FA708294480188BE
S11335407289914205D301887289891A914A11803E
S113355004E071890288891A8E4A11808E490A888A
S1133560738A9A4205D30A88738AD21A8B4B1A80BB
S113357004E0728A0B88D21A884B1A8072890280FE
S1133580708A088083480088C92803DA8348008841
S1133590C92801DB002049E02800E4B2210002F040
S11335A01CFA040025480178002902D168460480E9
S11335B03AE00078012837D13800C0B2102818D179
S11335C02048018A9B4A914202DA684604802BE033
S11335D0008A9949411A994D89B20A204843962193
S11335E0490002F0F7F928802888201A69460880E3
S11335F01AE0FFB2082F17D11248418A8D4A91422E
S113360002DA684604800FE0408A8B49411A8B4DE8
S113361089B20A2048439621490002F0DBF9688008
S11336206888201A694608806846008805B0F0BD9D
S11336305C010020740100204C0200209302002051
S1133640D18400008C0100203A02002032020020C4
S11336503C0200203402002030B57948018800295A
S113366003D10A207749087010E00188292903DA78
S11336700A207449087009E00088512803DA0920F7
S11336807049087002E007206E4908706E4801888E
S1133690642041436D4843789C4A147863438B42C9
S11336A002D301239A4C23708378147863438B42AA
S11336B002D20023964C2370C378147863438B4260
S11336C002D30123924C63700379127853438B42E3
S11336D002D200218E4A51708E498D4A13780C789B
S11336E0A34223D01378012B10D1AE4B1C78641C59
S11336F01C701C78534D2D78AC421AD3002425003D
S11337001D7001230B7084490C7012E0A54B1C78CA
S1133710641C1C701C780578AC420AD30024250074
S11337201D700C7001217C4B197002E000219D4B2F
S113373019709D4953780C78A34225D05278012AF8
S113374011D1984A501C53785B1C037052783D4B3E
S11337501B789A421BD300221300037001200870C7
S11337609248027013E08F4B5A1C5C78641C1470EE
S11337705B78007883420AD300200300137008703A
S113378001208A49087002E000208649487030BD53
S11337903E020020360200204002002038020020B1
S11337A010B583484188834A91420BD18249CA7833
S11337B0521CCA70CA780A2A07DB0A780223134308
S11337C00B7002E000217C4AD1707B49CA780A2A36
S11337D003DA0A78FD2313400B70784A83889342F6
S11337E00ADA0B795B1C0B710B790A2B06DB0B785D
S11337F004241C430C7001E000230B71C088904228
S11338000ADA4879401C487148790A2806DB0878A6
S1133810042202430A7001E00020487108790A2852
S113382006DA48790A2803DA0878FB2202400A708B
S113383010BD0000A51F0000A41F000014020020FA
S11338402C020020950200202E020020E85D0000DA
S1133850FEB500273C003D003E000AE0072002F0D0
S113386058F857484188641881886D18C0883618FC
S11338707F1C3800C0B20228F0DB600801906808A1
S1133880710800914A49019A4A8002008A80009A8C
S1133890CA804C4F4C4E102332003900FFF774FCA1
S11338A064254A4C21784843290002F096F8FE2802
S11338B003D3FD204649087001E0454908701023F0
S11338C0320039000098FFF75FFC21784843290053
S11338D002F083F8FE2803D3FD203E49087001E07E
S11338E03C49087010233C4A3C490198FFF74CFCC2
S11338F03B49884203D33B483B49088001E03A49AD
S11339000880FFF74DFFFFF7A7FEF7BD9D020020DB
S113391054020020A1020020A202002000B50100F0
S1133920C9B2102917D131480088224988420ED1E2
S11339302148411C4278521C0A7042780A2A24DB2E
S11339400A220A70017801220A4302701DE0002055
S11339501949487019E0C0B2082816D123480088D4
S1133960144988420ED11448811C8278521C0A7072
S113397082780A2A09DB0A220A70017801220A43A2
S1133980027002E000200C4988700B4841780A2933
S113399006DA81780A2903DA0178FE220A400270E5
S11339A000BD000056020020A3020020A402002053
S11339B08C010020FFFF0000EC010020B80B000088
S11339C07401002040000020A00000209E0200207E
S11339D0790200207A0200208000002000000020EC
S11339E0FE030000FD0300002E0200203002002030
S11339F0F8B50500AE4EAF4C96229200617B2800CC
S1133A00C0B2FFF7F3FC30802800C0B2FFF786FF96
S1133A102800C0B2102800D0A1E03088002800D1CE
S1133A209DE0A54831888181A4490A002632038992
S1133A30138001231D0014E0068916802E00F6B2BF
S1133A40142E0DDA2E00F6B202277E438F5BBC469D
S1133A502F00FFB202267743CE19B61E6746378081
S1133A606D1C2E00F6B2152EE6DB95490978002967
S1133A7019D11A0013E0934985894D811500EDB2DF
S1133A80062D0BDA1500EDB2022675434D5B1700C7
S1133A90FFB202267743C919891E0D80521C1100FA
S1133AA0C9B20729E7DB88490978C9B2C9080B40BC
S1133AB0DBB2002B1DD083490988844A1180018917
S1133AC02288914201D2237A14E0018962889142CA
S1133AD001D2637A0EE00189A288914201D2A37ACD
S1133AE008E00189E288914201D2E37A02E0237B73
S1133AF000E0E37A7649734A14880C8084890D883F
S1133B00AC420BD30023734C237080890988401A7C
S1133B10714988421CDB1089508119E06F4C098877
S1133B208089081A208020886B49884203DA20881B
S1133B309BB2984205D210895081002065490870D3
S1133B4006E020886649097801F044FF614908705D
S1133B505E480088634908805E480078A6E0EDB2BC
S1133B60082D00D0A1E03088002800D19DE0524803
S1133B703188C18151490A004E324389138001239F
S1133B801D0014E0468916802E00F6B2142E0DDABC
S1133B902E00F6B202277E438E19378DBC462F00C5
S1133BA0FFB202267743CE196746F7846D1C2E00B8
S1133BB0F6B2152EE6DB42490978002919D11A001C
S1133BC013E04049C589CD821500EDB2062D0BDA0C
S1133BD01500EDB2022675434D19AD891700FFB2E9
S1133BE002267743C9194D81521C1100C9B2072915
S1133BF0E7DB35490978C9B2C9080B40DBB2002BB1
S1133C001DD030498989314A5180418922889142A5
S1133C1001D2237A14E041896288914201D2637A05
S1133C200EE04189A288914201D2A37A08E0418939
S1133C30E288914201D2E37A02E0237B00E0E37A56
S1133C409E49204A94890C80C4890D88AC420BD3C8
S1133C500023204C6370C0890988401A1E49884299
S1133C601CDB908AD08219E01C4C0988C089081A90
S1133C70608060881849884203DA60889BB2984261
S1133C8005D2908AD08200201249487006E06088EC
S1133C901349097801F09EFE0E4948700B4840888C
S1133CA0104948800B48407800E00020F2BD000035
S1133CB030020020305C00008C0100200C01002048
S1133CC0850200205C010020AE0200200C020020CE
S1133CD04402002042020020891300000802002050
S1133CE0940200201002002070B504000025280072
S1133CF0280008262000C0B2304000286DD00820DB
S1133D00FFF776FE0100C9B2002903D128006C49EF
S1133D1048705EE00100C9B2002907D00100C9B2B1
S1133D20052903DA01206649487052E00100C9B24E
S1133D30491F032903D202206149487049E0010068
S1133D40C9B20839022903D203205D49487040E012
S1133D500100C9B20A39022903D204205849487023
S1133D6037E00100C9B20C39012903D205205449B6
S1133D7048702EE00100C9B20D39012903D2062092
S1133D804F49487025E00100C9B20E39042903D215
S1133D9007204B4948701CE00100C9B212390129BF
S1133DA003D230004649487013E00100C9B2133908
S1133DB0012903D20920424948700AE0C0B21438EC
S1133DC0062803D20A203E49487002E00B203C49F1
S1133DD048703B48407884494870E4B2E0066BD5AB
S1133DE01020FFF705FE0100C9B2002902D13448B2
S1133DF005705DE00100C9B2002907D00100C9B215
S1133E00052903DA01202E49087051E00100C9B2E6
S1133E10491F032903D202202949087048E0010000
S1133E20C9B20839022903D20320254908703FE0AA
S1133E300100C9B20A39022903D2042020490870BA
S1133E4036E00100C9B20C39012903D205201C490E
S1133E5008702DE00100C9B20D39012903D20620F2
S1133E601749087024E00100C9B20E39042903D2AD
S1133E700720134908701BE00100C9B21239012957
S1133E8002D20F48067013E00100C9B213390129A8
S1133E9003D209200A4908700AE0C0B2143806287F
S1133EA003D20A200649087002E00B200449087076
S1133EB0034800784C49087070BD00004602002099
S1133EC04802002030B5A248018A0289914205D2F5
S1133ED00189028A891A9F4A118004E0018A0289B1
S1133EE0891A9C4A1180418A4289914205D24189AA
S1133EF0408A081A9749488004E0418A4089081A90
S1133F009449488094480088C9280BDA934800886B
S1133F10C92807DA92480088C92803DA914800883A
S1133F20C92803DB00209049087002E001208E4973
S1133F3008700020010024E00B00DBB2022463437C
S1133F40D35A12889A1AFF232E339A4218DB864AD0
S1133F50107015E0854A0B00DBB202246343D35A88
S1133F601488A342E8D213880C00E4B202256C43FF
S1133F70125B9A1AFF232E339A4201DB7A4A10709D
S1133F80491C0A00D2B2142AE4DB010027E00B002A
S1133F90DBB202246343D3181B8D128D9A1AFF23BC
S1133FA02E339A421ADB704A107017E06F4A0B00E6
S1133FB0DBB202246343D3181B8D148DA342E6D2D3
S1133FC0138D0C00E4B202256C431219128D9A1A57
S1133FD0FF232E339A4201DB634A1070491C0A0006
S1133FE0D2B2142AE2DB30BD4A02002030B55E486A
S1133FF0007801286BD15E485E490A78027000227D
S113400007E01300DBB2CB185B781400E4B20B5565
S1134010521C1300DBB2022BF3DB574A137854789B
S1134020A34202D252788A7001E012788A7053490E
S11340300A78002A24D10278052A03DA0278504B40
S11340401A7017E00278521F022A05D9D21E012ADB
S113405005D9921E07D00AE00522494B1A700622A0
S1134060474B1A7006E00622454B1A7002E00622FE
S1134070434B1A700078434A10700120087030BD19
S113408040490A7803789A42F9D20278052A03DA79
S113409002783B4B1A7017E00278521F022A05D9A6
S11340A0D21E012A05D9921E07D00AE00522344BFC
S11340B01A700622324B1A7006E00622304B1A7030
S11340C002E006222E4B1A7000780870D7E7002011
S11340D001000EE02C4A53890C00E4B202256C4323
S11340E01353D38A0C00E4B202256C431219938152
S11340F0491C0A00D2B2052AECDB01001F4A1170E8
S11341000100204A1170010003E013785B1C137056
S1134110491C0A00D2B2032AB1DA0200154B0C0082
S1134120E4B21A55194A1378002BEED00300137029
S1134130134A1378022B03DB13789B1E1370E7E7F3
S11341401378002BE4D013785B1E1370E0E70000B3
S11341508C010020000200203202002034020020E2
S113416036020020380200208F0200200C010020BB
S11341709002002004020020480200207B0200205C
S113418091020020820200205C01002083020020B2
S1134190F0B58248017800290DD0022900D1B3E19D
S11341A000D2FDE0042900D11AE200D2C7E00529BB
S11341B000D150E3E3E3BA490978012903D1B949AD
S11341C0897C0A3116E0B6490A78022A03D1B54936
S11341D0897C0A310EE00A78032A03D1B149897C2B
S11341E00A3107E00978042902D1AE49897C01E04B
S11341F0AC49897CAC4A1278002A02D00122AB4B2C
S11342001A70AA4A1278012A36D100221300A84C47
S11342102370130011E0A74CA74DAE89B4461F00CC
S1134220FFB2022677436646E653ED891E00F6B2D6
S113423002277E43A419A5815B1C1C00E4B2052C53
S1134240E9DB130005E014009C4D1E00F6B2AC55EA
S11342505B1C1C00E4B2032CF5DB1300984C2370A8
S1134260984B1C78082C04DB14001C708F4B1A70BC
S113427002E01A78521C1A70C34A1378C9B28B42EE
S113428005D300210B001370C04B197002E01178A4
S1134290491C117000210B00854C23700B00BC4C91
S11342A023700B00BB4C2370854B1C78002C43D02F
S11342B00C0014700122140004700C00B64D2C7014
S11342C0774C2578042D03D1764CE47CA41C1AE0A9
S11342D02578032D04D1734AD47CE41C022212E015
S11342E02578022D04D16F4AD47C241D03220AE0D0
S11342F02478012C04D16B4AD47C241D032202E0CF
S1134300684CE47C241D1B78E4B2A34207D39F4B82
S11343101B781400E4B2A34201D304230370AD4B11
S11343201B78604C247DA34206D3984B1B78D2B2F1
S1134330934201D3052202705B48017021E30021FE
S11343400A00924B1A700A008F4B1A700A00A24B93
S11343501A700A00A14B1A708D4A13785B1C1370F3
S1134360504B14785D7DAC4202D25148017010E08C
S113437014785D7DAC4208D312785B7D5B1D9A4254
S113438003DA01204A49087003E00A00484B1A7016
S11343900170032044490870F3E200BF7C0200204E
S11343A07B4B00221100197011008C4C21701100FC
S11343B0C04C217001213E4C0D002570764D2E78A5
S11343C0761C2E702D78052D07DB15002570140042
S11343D004706E4C25786D1C2570314C2578042DA5
S11343E01CD1374C2478052C0CDB7B4C25786D1CB8
S11343F025702C4DED7D2678B54203D2150025702D
S113440004240470614C2578264EB67DB54278D3D9
S113441015002570022404701A7072E02578032DAB
S11344201DD1274C2478052C0CDB6B4C25786D1C96
S113443025701C4DED7D2678B54203D215002570FC
S113444004240470514C2578164EB67D761CB54272
S113445057DB15002570022404701A7051E024788B
S1134460022C31D1164C2478052C0CDB5A4C2578BF
S11344706D1C25700B4DED7D2678B54203D21500D9
S1134480257004240470414C2578064EB67DB61C74
S1134490B54236DB15002570022404701A7030E032
S11344A077020020305C00007D0200207E020020A4
S11344B0920200205C0100208C01002004020020F4
S11344C0910200207F020020C44C2478052C0CDBD0
S11344D0414C25786D1C2570774DED7D2678B542CD
S11344E003D21500257004240470284C2578724EDC
S11344F0B67DB61CB54204DB150025700224047099
S11345001A70B74801703CE200210A00324B1A705D
S11345100A00324B1A700A001C4B1A701C4A13789A
S11345205B1C13700B00634C237013781E2B03DA8F
S11345300B00AC4C237036E013781E3B052B03D2E2
S11345400123A84C23702EE01378233B1E2B03D2A7
S11345500B00A44C237026E01378413B052B03D2B7
S11345600123A04C23701EE01378463B1E2B03D27C
S11345700B009C4C237016E01378643B052B0DD282
S11345800123984C23700EE086020020870200204D
S11345908B0200208E0200208A0200200B00914C26
S11345A023700B000370444B8C4C24785D7EAC422A
S11345B00CD38D4C25786D1C257025781B7E9D426F
S11345C004D30B001370217004210170022084496C
S11345D00870D6E190020020880200208C0200209E
S11345E000210A00814B1A70814A0B0013700B00E2
S11345F0804C23700B00804C237003231C00794DE6
S11346002C707E4C2578042D3DD1C04C2588052D79
S113461003DA294DAC7EED7E09E024883C2C03DAD4
S1134620254D2C7F6D7F02E0234DAC7FED7F6B4EDB
S11346303778042F13DA1F4D2F78E4B2A74205D33D
S11346400C002C700C001470037002E02A78521CC9
S11346502A703278022A00DAF9E02970F7E0327819
S1134660052A00DAF3E0AA4A13785B1C13700B00E6
S1134670104C23701378EDB2AB4200D2E7E0117016
S113468005210170E3E02578032D48D19F4C25884E
S1134690052D05DA084D20242C5D2126AD5D12E0A0
S11346A024883C2C0ADA044D22242C5D2326AD5D9B
S11346B009E000BF89020020305C0000B14D2424D1
S11346C02C5D2526AD5D454E3778042F13DAAE4DAB
S11346D02F78E4B2A74205D30C002C700C001470A0
S11346E0037002E02A78521C2A703278022A00DA17
S11346F0ADE02970ABE03278052A00DAA7E0844AFD
S113470013785B1C13700B009F4C23701378EDB26D
S1134710AB4200D29BE011700521017097E0247830
S1134720022C40D1794C2588052D05DA954D262497
S11347302C5D2726AD5D0DE024883C2C05DA914DD7
S113474028242C5D2926AD5D04E08E4D2A242C5DA1
S11347502B26AD5D214E3778042F12DA8A4D2F783F
S1134760E4B2A74205D30C002C700C001470037043
S113477002E02A78521C2A703278022A67DB2970F8
S113478065E03278052A62DB614A13785B1C13709A
S11347900B007D4C23701378EDB2AB4257D31170EC
S11347A00521017053E0594C2588052D05DA754D16
S11347B02C242C5D2D26AD5D0DE024883C2C05DADF
S11347C0704D2E242C5D2F26AD5D04E06D4D3024FC
S11347D02C5D3126AD5D014E12E000BF9102002038
S11347E07D020020920200208E0200208A02002016
S11347F08B020020870200208D0200207702002017
S11348003778042F12DA604D2F78E4B2A74205D32B
S11348100C002C700C001470037002E02A78521CF7
S11348202A703278022A12DB297010E03278052AC5
S11348300DDB374A13785B1C13700B00524C23704A
S11348401378EDB2AB4202D31170052101700078E8
S11348506B49087095E06B4906220A706A4B1C7814
S1134860042C18D1294B1C88052C05DA454C32231D
S1134870E35C3325645D64E01B883C2B05DA414C22
S11348803423E35C3525645D5BE03E4C3623E35C16
S11348903725645D55E01C78032C18D11B4B1C880C
S11348A0052C05DA374C3823E35C3925645D48E090
S11348B01B883C2B05DA334C3A23E35C3B25645DCF
S11348C03FE0304C3C23E35C3D25645D39E01B78DC
S11348D0022B18D10D4B1C88052C05DA294C3E23DC
S11348E0E35C3F25645D2CE01B883C2B05DA254CFA
S11348F04023E35C4125645D23E0224C4223E35CD6
S11349004325645D1DE0014B04E000BF2C02002040
S11349108C0200201C88052C05DA1A4C4423E35C25
S11349204525645D0DE01B883C2B05DA154C4623B8
S1134930E35C4725645D04E0124C4823E35C4925AD
S1134940645D00252E00104F3E702E002F4F3E70E8
S11349502F4E37787F1C37703778DBB29F4203D3F2
S113496004210170357006E02A4B1B78E4B2A3429F
S113497001D30A70357000782149087001E00021E4
S11349800170F0BD305C00008902002010B50120E8
S113499021490978C9B2C9080140C9B2002927D1FF
S11349A01E490A78521C0A701D4A1278052A0FD132
S11349B01C4A937B0C78A34203D20978D27B9142A0
S11349C003D300201849087018E01749087015E04F
S11349D0144A137C0C78A34203D20978527C914286
S11349E003D300201049087008E00F49087005E05F
S11349F0002001000C4A11700849087010BD000025
S1134A007D02002092020020770200208C02002008
S1134A108D02002091020020AE02002084020020BA
S1134A207C020020305C00008502002080B5182044
S1134A30FFF75AF9FFF746FAFFF7D8FAFFF7A8FB92
S1134A4001BDF8B50027BF4839000170BE49097897
S1134A50C906C90E007840010843BB49087001200B
S1134A60BA490870BA48B8494978F7220A4002702E
S1134A70B54949780121B54A1170B34949781022E2
S1134A800A430270B04949780121B04A1170AE4915
S1134A904978BF220A400270AB4949780121AB4AE8
S1134AA01170A949497880220A430270A6484078C7
S1134AB00120A64908703C0000E0641C2000C0B23C
S1134AC014280CDA00F050FFA24D96229200012126
S1134AD01020FEF78BFC288028880028EDD09D4EFE
S1134AE030889D4988422EDA3D0000E06D1C280084
S1134AF0C0B2FE281CDA00F037FF984C2078401C26
S1134B00207021780B2000F017FD0520FBF7F2FC44
S1134B109622920003211020FEF768FC3080308832
S1134B208D49401A8E49884202D32078E028DDDB83
S1134B308A480178E02901DBE021017001780B202B
S1134B4000F0FAFC31E03088864988422DDB3D00D4
S1134B5000E06D1C2800C0B2FE281CDA00F004FF3F
S1134B607E4C2078401E207021780B2000F0E4FC5D
S1134B700520FBF7BFFC9622920003211020FEF7CC
S1134B8035FC308030887449401A7549884202D314
S1134B9020782128DDDA71480178212901DA2021E1
S1134BA0017001780B2000F0C7FC30889C49088014
S1134BB0380007E031889B4A0300DBB202246343D8
S1134BC0D152401C0100C9B20629F3DB63480078C6
S1134BD0694608700123012269469348FBF7C6FE23
S1134BE03C0000E0641C2000C0B214280BDA00F082
S1134BF0BBFE9622920001210820FEF7F7FB3080CD
S1134C0030880028EED03088534988422EDA3D009F
S1134C1000E06D1C2800C0B2FE281CDA00F0A4FEDF
S1134C20824C2078401C207021780C2000F084FCF9
S1134C300520FBF75FFC9622920003210820FEF773
S1134C40D5FB308030884449401A4549884202D314
S1134C502078E028DDDB75480178E02901DBE021DC
S1134C60017001780C2000F067FC31E030883D4988
S1134C7088422DDB3D0000E06D1C2800C0B2FE28F8
S1134C801CDA00F071FE694C2078401E20702178F7
S1134C900C2000F051FC0520FBF72CFC962292001E
S1134CA003210820FEF7A2FB308030882A49401AED
S1134CB02B49884202D320782128DDDA5B48017829
S1134CC0212901DA2021017001780C2000F034FC44
S1134CD0308891490880380008E03188514A03003F
S1134CE0DBB202246343D2189181401C0100C9B293
S1134CF00629F2DB4D480078694608700123012239
S1134D0069468648FBF732FE380005E03900844ADC
S1134D100300DBB2D154401C0100C9B20329F5DB06
S1134D20012001007F4A117039007F4A11707F49C8
S1134D300F7005490A78102313430B70097803494F
S1134D400870F1BD92020020C0000020D4010020B0
S1134D50C100002030020020D4AD000080020020F9
S1134D60E9030000BDB1000070B5012070494A7824
S1134D70D2B2120903001340DBB2002B11D100227E
S1134D80130005E01400664D1E00F6B2AC555B1C22
S1134D901C00E4B2032CF5DB0E23894C2370894BF1
S1134DA01A70894A1378002B0AD14B78DBB21B099D
S1134DB004001C40E4B2002C02D00300834C237096
S1134DC04978C9B2090903000B4013707F490A7876
S1134DD0012A23D17B4A0300137000231C00524D87
S1134DE02C707B4C25786D1C25702578062D05DBF1
S1134DF01D0025701C000C7019001170190005E0CD
S1134E001A00474C0D00EDB26255491C0A00D2B29B
S1134E10032AF5DB6F490870B048037070BD0000C9
S1134E204E0200205C0100201400001081020020CA
S1134E3030B5924892490A7803789A4202D2012204
S1134E40904B1A70007808708E48017801291ED1A1
S1134E505C4B012119700022334C2270B54C25782B
S1134E606D1C25702478062C01DB02701A7010006A
S1134E7004E02B4B0400E4B21A55401C0300DBB2DF
S1134E80032BF6DB534801709448027002E00020C3
S1134E90A849087030BD80B503210B20FBF7D6FA72
S1134EA08F4948430D2100F098FD000BA24908806A
S1134EB001BD80B5FFF7EFFF9F4801884C290DDA4B
S1134EC000209E4908709E480178491C01700078B2
S1134ED014281FDB01209B4908701BE0018850390E
S1134EE0652907D2002096490870944908709549AD
S1134EF008700FE00088BA280CDB00209049087085
S1134F008E480178491C01700078142802DB0220C5
S1134F108C49087001BD00005002002016000010EA
S1134F20040200209302002087020020880200204F
S1134F30E4010020F8B5844F3878012805D1002019
S1134F400100824A1170824908701E4801780029C4
S1134F5003D001217F4A11700BE07C490A78521C6E
S1134F600A700A78062A04DB00220A7001217A4AB0
S1134F701170784C2178012920D101250570002673
S1134F8030007249087075480178491C0170017835
S1134F90022913DB31000170FCF7F2F9B4480178FF
S1134FA0022904DB31000170B248057002E0017887
S1134FB0491C01703878012800D12670F1BD000029
S1134FC09002002092020020970200209602002006
S1134FD0980200207D02002038B501242000A64953
S1134FE008704020A5490A7802430A70A4490A7847
S1134FF010430870A3480168802212020A43026029
S1135000E120000200F0ACF89F4D2868800B20409E
S11350100028F9D0A320000200F0A2F82868800B31
S113502020400028FAD099480178C9B24909C9B288
S113503000290DD00078C0B24009C0B2052807DAB3
S113504000F03FF84248047000204249087004E030
S113505000203F49087000F03AF800203A490870EF
S11350608B480178E3220A4002708A4801680422CE
S11350700A43026030BF00F02AF831BD78020020F4
S11350809B0200209A02002038B5834801688022E0
S113509012020A430260FCF797F90020FCF799F921
S11350A00124794D2868800B20400028F8D0E420A2
S11350B0000200F055F82868800B20400028FAD040
S11350C031BD7648016840220A4302607047734844
S11350D00168402291430160704700007C02002077
S11350E0360F000080B56E48016801220A43026051
S11350F06A4801688022D2010A4302600168C02222
S1135100D2000A4302608C20DA4908608020400300
S1135110D9490A6802430A60D8490A6810430860FA
S1135120FFF7D5FF01BD5D48016880220A43026094
S1135130704700009902002052020020A0020020C3
S11351409F0200209C020020A9020020A602002049
S1135150A5020020AA020020AC020020A702002021
S1135160F0B500221100130011000100010089B202
S1135170F02424020C40D02109028C422AD10121BE
S11351800400A4B265100C002C400500ADB2AE10B2
S11351900D00354065400400A4B2E6100C00344014
S11351A06C400500ADB22E110D0035406540040081
S11351B0A4B266110C0034406C400500ADB2AE11CF
S11351C00D00354065400400A4B2E411214069405B
S11351D0C9B208432C490C6825006D04ED0F002D5D
S11351E0F8D0284C24688025AD012543254C256042
S11351F028E02E6880273F0137432F6012E0802487
S1135200E400204D2E6826432E6080263602164187
S11352100700BFB23742ECD01F4D2E6880273F01F4
S113522037432F601C4D2E6834432C600C68250BCB
S11352302C00E407E40FA4B20F25AD1AAC401C43C4
S11352402300521C1400E4B2102CD8DB12490A6863
S11352508024A40114430C609BB2D9B280B2000A2A
S113526080B2814201D1012000E00020F0BD0000A5
S1135270A8020020AD0200206302002005A0064021
S113528000A0064008F00F4010F00F40E401002099
S113529000D0074010ED00E004F00F4000D00340C0
S11352A00C800440F8B5002200921300130014008F
S11352B0140001240600F6B2F6090500EDB2AD11A2
S11352C0254075400600F6B2761126406E40050072
S11352D0EDB22D11254075400600F6B2F6102640B9
S11352E06E400500EDB2AD10254075400600F6B2E3
S11352F0761026406E400500EDB2254075400E0044
S1135300F6B2F61026406E400D00EDB2AD10254009
S113531075400E00F6B2761026406E400F00FFB2C4
S11353202740774001257D4026000640B44606000C
S1135330F6B276082700374066467740BC46070039
S1135340FFB2BF0826003E4067467E40B4460600D2
S1135350F6B2F6082700374066467740BC46070099
S1135360FFB23F0926003E4067467E40B446060031
S1135370F6B276092700374066467740BC460700F8
S1135380FFB2BF0926003E4067467E400700FFB2D9
S1135390FF097740BC460F00FFB2FF0826003E40DD
S11353A067467E40B4460E00F6B2B6082700374082
S11353B066467740BC460F00FFB27F0826003E4099
S11353C067467E4027000F407740009EC0B23043BE
S11353D00001C9B201434800EDB205436800FFB2C1
S11353E00743B80087210904014300914F4801682D
S11353F0890B21400029F9D04D4909688025AD0168
S11354000D434B490D6025E02E6880273F0137434B
S11354102F6012E08021C900454D2E680E432E6096
S1135420009E80273F0417413740002FECD0414DA8
S11354302E6880273F0137432F603E4D2E6831434D
S113544029600168090B21401725AD1AA9401943A9
S11354500B00521C1100C9B21829DBDB3548016866
S1135460802292010A430260180201D4012000E064
S11354700020F2BD04D0034080E200E000E100E03F
S1135480FCB500210A000B0000911201C0B21043C8
S113549000038E221204024301920120234A13685E
S11354A09B0B0340002BF8D0214B1C688025AD01D9
S11354B025431D6025E01D68802636012E431E60AD
S11354C011E08024E4001D6825431D60019D8026B1
S11354D036040E412E40002EEDD0164D2E68802746
S11354E03F0137432F60134D2E6834432C601468FA
S11354F0240B0440009D1726761AB4402C430094D4
S1135500491C0C00E4B2182CDBDB0A480168802239
S113551092010A43026000980099090AC9B28E29CF
S113552001D1C0B200E0AA20F6BD000010F00F4087
S113553008F00F4004F00F4038B50D000100C9B267
S113554001292AD000D2FFE003294CD03DD30529FC
S11355505DD048D3072970D059D3092900D181E0FF
S11355606BD30B2900D196E000D287E00D2900D13E
S11355709DE000D28FE00F2900D1A7E000D297E090
S1135580112900D1BBE000D2ACE0132900D1CFE057
S113559000D2C0E014290CD0D6E00020FFF770FF41
S11355A00107090F280108430021C0B2FFF77AFE62
S11355B0CBE00020FFF764FFF921014068000843B5
S11355C00021C0B2FFF76EFEBFE00020FFF758FFD6
S11355D0FE2101402800C007C00F08430021C0B2CB
S11355E0FFF760FEB1E0C0B2032801D1022400E05D
S11355F004242000C0B2FFF743FFC106C90E6801AE
S113560008432100C9B2C0B2FFF74CFE9DE0C0B20E
S1135610052801D1022400E004242000C0B2FFF7D1
S11356202FFFE3210140AA001C2010400843210061
S1135630C9B2C0B2FFF736FE87E0C0B2072801D175
S1135640022400E004242000C0B2FFF719FFFC216B
S11356500140A807800F08432100C9B2C0B2FFF778
S113566021FE72E00520FFF70BFF0107090F280157
S113567008430521C0B2FFF715FE66E00520FFF7D9
S1135680FFFEF82101406807400F08430521C0B21E
S1135690FFF708FE59E0C0B20B2801D1012100E058
S11356A00321C9B22800C0B2FFF7FCFD4DE04CE075
S11356B00520FFF7E5FEF7210140E800082210402D
S11356C008430521C0B2FFF7EDFD3EE00720FFF7D8
S11356D0D7FE0107090F280108430721C0B2FFF7CD
S11356E0E1FD32E00820FFF7CBFEF021014028075E
S11356F0000F08430821C0B2FFF7D4FD25E00920BC
S1135700FFF7BEFE0107090F280108430921C0B2B3
S1135710FFF7C8FD19E00920FFF7B2FEF0210140B0
S11357202807000F08430921C0B2FFF7BBFD0CE0B6
S11357300E20FFF7A5FE0107090F280108430E21DB
S1135740C0B2FFF7AFFD00E0002032BDF8B5002481
S11357500021002500216A46517000218A4AD18027
S1135760010600D5641CC10600D5E41C010700D560
S1135770E41C410700D5641C810700D5641CC007E4
S113578000D5641C8148006801004904C90F002940
S1135790F8D07F4800688021890101437C4801607A
S11357A0002732E07A480168802212010A4302602D
S11357B017E08026F6007648006830437449086094
S11357C00120FAF7ADFE802000023841C32109020E
S11357D001400029E6D06F480168802212010A4383
S11357E002606C4801680E4306600120FAF798FED7
S11357F066480068010B0800C007C00F80B20F2183
S1135800C91B8840284305007F1C3800C0B21028FB
S1135810CFDB280080B2000A5B4908705A48457003
S11358205B48006880210901014359480160002553
S11358300020694608702DE08026F600544801686F
S1135840314301600120FAF76BFE524801680E43B0
S113585006600120FAF764FE4C480068010B08005A
S1135860C007C00F80B20F21C91B88402843050020
S11358707F1C3800C0B21028DEDB43486946097833
S11358800222514340184580002568460078401C98
S113589069460870684600782100C9B2884201D27E
S11358A00027E6E700241FE08025ED003848016862
S11358B0294301600120FAF733FE364801680D439D
S11358C005600120FAF72CFE30480068010B08003F
S11358D0C007C00F6946497880B20722121B904066
S11358E0084369464870641C2000C0B20828DBDB0A
S11358F025496846407888752648026880239B01BC
S113590013430360887D002801D1012000E00020BA
S1135910F2BD10B5040000202000C0B28021014077
S11359206007400F002802D00800402101432000F6
S1135930C0B2C00602D50800342101432000C0B221
S1135940000702D508002A210143D02000020843A1
S113595080B2FFF705FC0120FAF7CCFD2000C0B2AD
S1135960FFF7F4FE10BD000072B60B480C4901802D
S11359700C49018062B670470848017840220A4306
S113598002707047000000007401002010F00F4006
S113599008F00F4004F00F400220054001200540AC
S11359A0A6020000B4800000F446002804D4494252
S11359B000F013F8404260474042002905D45FD00C
S11359C000F00BF8404249426047494200F005F8B4
S11359D04942604703460B43E6D40022030A8B4244
S11359E00BD203098B4219D243088B422ED2411A9F
S11359F000D20146524110467047FF2209023FD0AF
S1135A0012068B4205D3121209028B4201D31212E1
S1135A10090203098B4219D300E0090AC3098B4226
S1135A2001D3CB01C01A524183098B4201D38B01AC
S1135A30C01A524143098B4201D34B01C01A52414F
S1135A4003098B4201D30B01C01A5241C3088B4294
S1135A5001D3CB00C01A524183088B4201D38B007F
S1135A60C01A524143088B4201D34B00C01A524121
S1135A70884200D3401A5241CFD2014610467047A3
S1135A8008B5FAF749FB08BDF0B40125ED070F008E
S1135A905F404FD48B4200D1824205D98446100026
S1135AA062468C4619006346DF184C18640D7F0D5E
S1135AB03AD0661C760537D0E61B352E34DCDB0283
S1135AC02B43DB0A0C0DC9022943C912202E0DDB1E
S1135AD01700203E06D01F00F741F3405F40002628
S1135AE0012A7741C01871410DD217E01700F74120
S1135AF0F2405740F3415A40B340F3405A40002625
S1135B00801859410AD3A21C52050FD0C207012F95
S1135B10724117004008CB0718434908641C240548
S1135B204208AF4170416141F0BC7047641C2105DB
S1135B300020F9E76B400AE06B40ABE7F742F3D192
S1135B40E943F1E72442EFD100200021ECE70C0007
S1135B50871A9C4105D2C01BA141D21963416940F7
S1135B606B40AE0ADF184C18F442E7D2640D7F0D87
S1135B70E8D0E61B362ED7DCDB022B43DB0AA44637
S1135B800C0DC9022943C90A012E28DC04D1D60709
S1135B905208DF073A435B08EF0A76429041994185
S1135BA014D039423BD1B61940414941761C39429F
S1135BB004D1761C001849413942FAD0B9436746EA
S1135BC0B74208D9A41B24052143ADE70042EAD11A
S1135BD03642E8D1A8E7E40AE1070020A4E7202E32
S1135BE00BDD203E1F00F340F7415F40012A0022F5
S1135BF057417E42984191410BE01700F741F24032
S1135C005740F3415A40B340F3405A407E429041DA
S1135C1099410A0303D2641EB61940414941002741
S1135C20641E24054208AE4178416141F0BC7047CE
S1135C30DC1E3421C4228C23506496C8FA1004104C
S1135C40041A28020B1E031E0502141E461E5A14B3
S1135C501428461E5A141428461E5A141428461E84
S1135C605A141E053C0346031E053C0346031E0549
S1135C703C0346031E053C034603000000080100E4
S1135C80000200001A0100000008100802020000CF
S1135C9000000000000610100401000000000000D5
S1135CA011081000000000000000000011080100AD
S1135CB0000000000000000070B40123002413E081
S1135CC00168001D194202D04D466D1E49190C6031
S1135CD0091D121F042AFAD20D00960701D50C8063
S1135CE0AD1C1A4000D02C700268001D002AE7D1B8
S1135CF070BC704730B401220EE00368C3184468D6
S1135D000830144202D04D466D1E64191D6825608A
S1135D101B1D241D091FF9D10168001D0029ECD1A8
S1135D2030BC704710B5074979441831064C7C449F
S1135D30163404E0081D0A68891888470100A14246
S1135D40F8D110BD08000000280000006DFFFFFF1F
S1135D50A40100000C0100200000000099FFFFFFD7
S1135D600C01000008A4FFFF000000200000000058
S1135D70FDF7F4F8002801D0FFF7D4FF00BF00BFFF
S1135D80002000BF00BFFDF70FF900F000F880B558
S1135D9000F002F801BD13000746384600F002F88F
S1135DA0FBE7000080B500BF00BF024A11001820C5
S1135DB0ABBEFBE7260002000B0202000001010358
S1135DC00304030504020101A8A80000060007005B
S1135DD009000A000C000D000F00100000BF00BFF6
S1135DE000BF00BFFFF7C4FF37647882960000004D
S1135DF023002300FF000000B2B6B72210B3B02E78
S9035DDDC2
