S00A0000524C532E53313919
S113000080FFFF1FE924000043210000432100007A
S113001000000000000000000000000000000000DC
S11300200000000000000000000000004321000068
S113003000000000000000004321000043210000F4
S1130040432100004321000043210000432100001C
S1130050432100004321000043210000432100000C
S113006043210000432100004321000043210000FC
S11300701B1B00004321000043210000432100001A
S11300804321000043210000231B00004321000002
S113009043210000432100004321000043210000CC
S11300A043210000432100004321000043210000BC
S11300B043210000F446002804D4494200F013F818
S11300C0404260474042002905D45FD000F00BF85D
S11300D0404249426047494200F005F849426047BE
S11300E003460B43E6D40022030A8B420BD20309D6
S11300F08B4219D243088B422ED2411A00D20146B8
S1130100524110467047FF2209023FD012068B422B
S113011005D3121209028B4201D3121209020309F8
S11301208B4219D300E0090AC3098B4201D3CB01E6
S1130130C01A524183098B4201D38B01C01A524128
S113014043098B4201D34B01C01A524103098B422C
S113015001D30B01C01A5241C3088B4201D3CB0017
S1130160C01A524183088B4201D38B00C01A5241FA
S113017043088B4201D34B00C01A5241884200D33A
S1130180401A5241CFD201461046704708B502F0DA
S1130190D5F808BD000000000500000006000000BE
S11301A01CFDFF1F000016000000000000000200FC
S11301B0000000000000000000000000000000003B
S11301C0000000000100000000000000000000002A
S11301D0000000000000000000111203103C3DFF6D
S11301E0000000000000000000000000000000000B
S11301F000000000000000000000000000000000FB
S1130200000000FF0000008000000000000000006B
S11302100000000005000000060000004CFDFF1F68
S11302200000000000000000000000000000FFFFCC
S1130230FFFF00000008007F00000000A55AA44A48
S11304108F48017802220A430270B4494A78FF2ABD
S113042008D08270C278FE2313400978CA07D20F1D
S11304301A43C270402102790A42FBD04278202339
S113044013434370027911430171704772B68148B6
S113045081490180A649018062B6704730B5002405
S11304607E49FFF740FE401E7D4980228B7913426E
S113047001D17C4830BD3F230D786D0611D40D7831
S1130480154207D00A781A403F250540AA4201D0F8
S1130490B74830BD0A78C025154003402B430B7084
S11304A005E0097819400340994200D0B04C20007F
S11304B030BD30B40100002400200322114201D0D9
S11304C08C482DE08C4B30251D711C700A241C7245
S11304D00C0C5C7201241C705972090A1972874948
S11304E00C6880256D0225430D60802119711C79EB
S11304F00C42FCD01979890600D581481979C906BE
S113050002D501007F4808431979114202D0010045
S1130510984808431979114202D00100B3480843AE
S113052030BC7047F0B41300002400220325284295
S113053001D0704842E0704E302737713470062481
S11305403472040C7472012434707072000A3072B4
S113055002203070080A307271723570080E3072E1
S1130560080C707204203070180A307273720520FF
S11305703070180E3072180C7072604801682304D1
S11305800B4303608020307131790142FCD0307913
S1130590800600D55A4A3079C00602D51000594A5F
S11305A002433079284202D01000724A0243307963
S11305B0284202D010008D4A02431000F0BC70475C
S11305C0F8B503000020D6085207520F009297088E
S11305D01A009B0701D04748F2BD002E0EDD15001E
S11305E00C002168626808342800FFF79BFF0100B3
S11305F02BD10835761EF4D12A002100002F0EDD00
S11306003E0014000D0029682D1D200000F02CF878
S113061001001AD1241D761EF5D122002900009B69
S1130620BC001B1BDBB2002B0FD00020C043C91839
S1130630491E002B05DD040208782043491E5B1E79
S1130640F9D10100100000F00FF8F2BD0000000025
S11306500040064002200540A602000040420F0070
S1130660000002401430000070B402000025002095
S113067003231A4201D01F4836E01F4C302626714E
S1130680257006252572150C657201252570627288
S1130690120A2272022222700A0A227261722370E2
S11306A00A0E2272090C617214490A682D0415435A
S11306B00D608021217122790A42FCD021798906BA
S11306C000D50F482179C90602D501000D48084319
S11306D02179194202D001002648084321791942A0
S11306E002D001004148084370BC7047FE0300007B
S11306F0B480000001300000020002400C3000F021
S1130700083000001030000010B401000020A04A9E
S1130710302313711070122313720B0C53720123C4
S113072013705172090A11729A490B688024640289
S11307301C430C608021117113790B42FCD0117998
S1130740890600D594481179C90602D50100B0483C
S11307500843032113790B4202D0030005481843D0
S113076012790A4202D001002048084310BC7047A5
S1130770183000001130000030B402000020844B17
S113078030241C71187011241C72140C5C72012426
S11307901C705A72120A1A7202221A700A0A5A72C7
S11307A003221A7059727B490C6880256D02254317
S11307B00D60802119711C790C42FCD019798906CD
S11307C000D575481979C90602D501009048084337
S11307D01979114202D00100AF4808431979114236
S11307E002D001000148084330BC704712300000B9
S11307F0FEB504000F0016001D0000200190022227
S11308000021684601F06CFC002F00D1BDE03000EF
S113081000D1BAE0200080214905884200D2B4E02A
S11308208119491E9D4A914200D3AEE069468D70FC
S1130830012D0FD1761CB1B24A1E07D03B0001999D
S11308401C7809195B1C521EFAD101910199CA4303
S1130850521C019244086400051BEDB200230222DD
S11308606946200000F09AF8002800D18DE00220AB
S1130870401BB1B28842694616DB387848557F1C64
S11308806D1CEDB2761EB0B2012802D03004F4D152
S113089018E0684640198978012901D1019900E0DE
S11308A03978017000260DE0012D0BD8A81E3618EA
S11308B0684640190221491B3A7802707F1C401C8B
S11308C0491EF9D168460078050268464078054318
S11308D02000FFF719FF002857D129002000FFF757
S11308E04BFF002851D1A51CB0B202281ADD3C00F0
S11308F020786946087060784870A41C09780F0253
S113090007432800FFF700FF00283ED139002800E4
S1130910FFF732FF002838D1AD1CB61EB0B2022852
S1130920E6DC27000024300423D000230222694699
S1130930280000F033F8002827D068460019B1B227
S1130940012919D0397801707F1C641C761E30048B
S1130950F3D1684601780C02407804432800FFF77D
S1130960D3FE002811D121002800FFF705FF00283D
S11309700BD1012003B0F0BD69468978012902D169
S113098001990170E5E73978FBE70020F2E7000000
S1130990020002400C3000F008300000F0B40C00FB
S11309A00021012B00D1521C002C0BD0150409D0BE
S11309B080256D05A84205D395B245196D1E374EA5
S11309C0B5421FD3002002E015041BD10120F0BC66
S11309D070470020FBE700780918C8B2401E804128
S11309E0C00FF4E70778401C2770641CC919521E15
S11309F097B2012FE8D12D783542EAD0012BEAD005
S1130A000578257080266E4D2F783742EAD1E0E7CD
S1130A101030000038B5012404220021684601F09A
S1130A205FFB684869467B4A13780B7003780D783E
S1130A30AB4200D0002453784B7045789D4200D0DF
S1130A40002493788B7085789D4200D00024D2785E
S1130A50CA70C078904200D00024200032BD80B516
S1130A600123022269468248FFF798FF684601780D
S1130A7040780002084302BD7E48802109020269D1
S1130A800A4302610268114301607B480168022243
S1130A909143016070470000113000000001001014
S1130AA010B50024092801DB052403E087490870F8
S1130AB001F0DEF8200010BD70B40A0004094108FA
S1130AC00D00454086086E4025007540AD01402666
S1130AD03540C6084E40744041096140CC01E143B1
S1130AE07F24A1432943012A09D1C0220240C9B26B
S1130AF08A4201D0FF2103E08106890E00E0014310
S1130B00C8B270BC704710B43C2901D07D2900D113
S1130B100021027813000AD080235B00401C047873
S1130B2009198CB29C4200DBFF39521EF6D1C8432E
S1130B30C0B210BC704770B504008C4E00207074B5
S1130B40200000F0F6F8F077FF2831D0A2494200E7
S1130B50101880000D182878012813D1A86800788F
S1130B609C490A18127D002A22D0491C0C5C2000E2
S1130B7000F0DFF8F077200001F016F86878FFF74E
S1130B808FFF70BDA978012915D1002804D1002157
S1130B90200000F0EDF8F1E7B07F002808D0B07E27
S1130BA0032805D000F03AFAB07F401EB077E5E79D
S1130BB001F0D6F870BD687801F04BF870BD000004
S1130BC006000240A8FCFF1FF8B5060082486749EA
S1130BD0C97F4A00511889004018077944797D4D2E
S1130BE0012129720078002803D1300000F0C0F8F8
S1130BF003E0112801D100F08EF8012C06DBFF2060
S1130C00F9B2691808737F1C641EF9D1300000F032
S1130C10A3FFF1BDFCFF0000F8B56E4901240C727E
S1130C20524D8A7A012A02D100222A748A7207005C
S1130C3000F07FF80600EE7700F04AF8300000F08C
S1130C40A2FF380000F088FF3D2F10D1688D401EB0
S1130C506885022180B2002804D128766977A976B4
S1130C606876F1BDFA20C000A8852C766976F1BDBE
S1130C702000001004F00F400480044038B5050043
S1130C800C00200000F055F83849C877ED1E042DFB
S1130C9016D801220A743C2C08D10322CA760A779A
S1130CA00222514B1A7100228A7706E03D2C05D1AD
S1130CB003224A7706220A7100224A7603228A76A0
S1130CC000F061FF200000F047FF31BD60FCFF1F12
S1130CD070B441494200121892008E183179737928
S1130CE034783C4A012C06D1002415001435B6682A
S1130CF03678AC5501E0112C0BD0012B06DBFF2418
S1130D00CDB255192C73491C5B1EF9D10021143244
S1130D10115470BC704780B534484178002905D11E
S1130D200121334A51740A21C17301BD00F088F9CD
S1130D3001BD01000520274A93798B4214D0042079
S1130D4053798B4210D0032013798B420CD00220AC
S1130D50D3788B4208D0012093788B4204D00020B2
S1130D6052788A4200D0FF207047000000FCFF1F29
S1130D7030B419481E4AD27F53009A18920084183E
S1130D8063781A4A1370E078002915D1A168002904
S1130D9005D00978092902D101210E4B997201214C
S1130DA0144BCCB215786D1CAC4211DAC5B25D5D42
S1130DB01555491C401CF4E7591C012908DD521C37
S1130DC00C491478C5B24C55401C521C5B1EF8D11A
S1130DD030BC704744FCFF1F9023000080B5012203
S1130DE0014900F0A4FA01BD7CFCFF1F60FCFF1F59
S1130DF000FCFF1F94FCFF1FF0B583B007000E003A
S1130E00002401208C490877C87E022807D00328D3
S1130E1003D0062801D00528FDD1087720E06846D4
S1130E20FFF7DCFF6D466878010903D002292ED054
S1130E3018D310E00007000F3880A978317001281A
S1130E4009DD711C6A46521C401E93780B70521CBB
S1130E50491C401EF9D178480021C176022101774E
S1130E6003B0F0BD0002F02109010140A878081880
S1130E703880E9783170297971706979B170A9790C
S1130E80F170E9793171401F80B202900524370076
S1130E90029E1EE001226949684600F048FAA878DB
S1130EA0A1B27854641CE878A1B27854641C2879FF
S1130EB0A1B27854641C6879A1B27854641CA879EE
S1130EC0A1B27854641CE879A1B27854641CB61FAA
S1130ED0B6B2072EDEDA002EBDD06846FFF77EFFDD
S1130EE0002EB8DD68468178A2B2B954641C401C57
S1130EF0761EF8D1AFE7F5B482B00C004E48817C81
S1130F006A461171032503217F23127A6E463270DB
S1130F106A46127BFF266F46FE70BE707E703F7A73
S1130F20102F0CD0222F14D0272F38D0312F2ED0B1
S1130F30342F1FD0362F21D0372F2CD032E0012C64
S1130F4030D1022150236A46127B6C462270FF2264
S1130F5028E0012C26D162230621F1226C4622705E
S1130F608522A4796F46FC706C466479BC706C462B
S1130F70667017E0012C01D1062101E0012C11D18A
S1130F803B464033028E140A6E4634700AE0012C4C
S1130F9008D1712306E0012C04D1772302E0012C4F
S1130FA000D1672305710124C4806D462F79C5687B
S1130FB00688F600AF55C5680688F600AD19697055
S1130FC0C1680588ED0049198B70C1680388DB008E
S1130FD0C9186B461B78CB70C1680388DB00C9183D
S1130FE00A71C1680288D20089186A46D2784A71A7
S1130FF0C1680288D20089186A4692788A71C168E9
S11310000288D20089186A465278CA7141880185DB
S113101044854477847704B0F0BC7047E0B500227F
S11310200549684600F083F908226946884801F0BA
S11310307BF803B000BD000000FCFF1F7CFCFF1F19
S1131040F8B58448437881780A09834CA67C9E428B
S113105002D00020A077F1BD667E022E01D0042EBE
S11310601CD17E2B08D1A67E002E17D1FA20C000F9
S1131070A08502202076F1BD022E0FD10023A37695
S11310802360E38005252571744D2B60EB802B7163
S113109002256577E3762577A37707E0A67E032EFE
S11310A002D1022A00D184E07E2B01D0042300E087
S11310B006236376002A5FD0022A01D02FD3F1BD24
S11310C0FA22D200A28502252576E27D0907090FBE
S11310D0914213D1521CD1B2102900DB0022E275D7
S11310E0A17D491EA17501225C49401C00F0B8F89D
S11310F0607E062807D00420607604E00620E076AF
S1131100207700202076A07D002852D1E576207635
S11311100120A076607E062846D0657644E0090268
S1131120F02212010A40C1785618B6B2F11F1D29E7
S11311303DD2FA21C900A185022121764749002523
S11311400D60CD800D710122401C00F089F8701FE4
S11311500621FEF7C5FF0700701F0621FEF7C0FF3A
S1131160002900D07F1CA7750120E075A576607E5C
S113117006281ED004201BE00907090F062916DCE7
S11311800226E67622760125A57634490A804A802D
S1131190CA800A710122401C00F062F8E575A57549
S11311A0607E062800D0667600F004F8F1BD0020C9
S11311B06076F1BD80B52948C1680288D2008918DB
S11311C00A787E2A06D124480021417602228276BA
S11311D0C18201BD4A781209012A01D1CB7800E00D
S11311E08B78102B04D10121017400F0F2F801BDB9
S11311F0222B04D10121417400F032F901BD272BC7
S113120004D10121817400F04AF901BD312B04D1CC
S11312100121C17400F0F6FA01BD342B04D101217F
S1131220017500F055F901BD362B04D1012141753A
S113123000F0F4F901BD372B04D10121817500F0D0
S1131240FBFB01BD112200211800FFF754FE01BD74
S113125061FCFF1F60FCFF1F00FCFF1F7CFCFF1FE5
S113126038B4CB680C79032C5FD0052C01D0002C4A
S113127006D1002A01D1042200E001220A7108E00B
S11312804A880C89551CAC4201D1002200E0521C52
S11312904A8002786C4622706A4612784C88E400D0
S11312A01A5542786C4622704A88D2009A182478DB
S11312B0547082786C4622709A1C4C88E4006D4607
S11312C02D781555C2786C4622704A88D2009A1837
S11312D02478D47002796C4622701A1D4C88E4007C
S11312E06D462D78155542796C4622704A88D20095
S11312F09A182478547182796C4622709A1D4C880D
S1131300E4006D462D781555C0796A4610704888FA
S1131310C00018181278C271C888401CC8800A8995
S113132080B2904201D30320087131BC704738B4B5
S1131330CB680C79002C4AD0052C48D00C88E400EA
S11313401B191C786D462C706C46247804705C78EC
S11313502C706C46247844709C782C706C462478ED
S11313608470DC782C706C462478C4701C792C70E2
S11313706C46247804715C792C706C462478447132
S11313809C792C706C4624788471DB796C462370CC
S11313906B461B78C371C888401EC880030405D1FE
S11313A0002A01D1052206E0002204E0002A01D12E
S11313B0042200E001220A71000408D008880B8985
S11313C05B1E984201D1002000E0401C088031BC23
S11313D0704710B584B001ACA11C6846FFF70CFD42
S11313E068460088022834D1E078012806D0022813
S11313F00BD003281CD0812823D028E0012201210E
S11314001020FFF778FD012018E0834C607B012851
S113141006D17F2200211020FFF76DFD012005E099
S1131420022201211020FFF766FD0220207315E03F
S1131430032201211020FFF75EFD03207649087383
S11314400CE00120744988758122012103E01222F5
S113145000E0132200211020FFF74DFD04B010BD61
S113146010B584B001ACA11C6846FFF7C5FC684602
S1131470008802280CDDE078000221790843FF216E
S1131480C231884202D14022012103E0312200E02E
S1131490132200212220FFF72EFD04B010BD80B5D9
S11314A084B001A96846FFF7A7FC01A84078012889
S11314B002D14022012106E0022802D1402201216A
S11314C001E0122200212720FFF715FD05B000BD21
S11314D0F8B586B001ACA11C6846FFF78DFCE67830
S11314E0C64920200E54887CFF2301220325012EA7
S11314F01ED10C8E260A0D71CA80CD680F88FF009C
S1131500E855C8680D88ED00401906254570C8687F
S1131510801C0D88ED0074274755C8680D88ED00C0
S11315204019C670C868001D0D88ED0044555DE083
S113153066793602A779F6190E87267A3602647A16
S113154034194C870C8FA026F601B44231D10C8E8D
S1131550260A0D71CA80CD680F88FF00E855C86857
S11315600D88ED00401906254570C868801C0D885B
S1131570ED0074274755C8680D88ED004019C67002
S1131580C868001D0D88ED004455C8680C88E40047
S113159000194371C868801D0C88E4000355C868AD
S11315A00C88E4000019C3714888022320240B55D9
S11315B02CE00D71CA80CC680E88F600A055C8686E
S11315C00C88E40000194570C868801C0C88E4008D
S11315D07F250555C8680C88E40000193424C470BC
S11315E0C868001D0C88E40031250555C8680C88BE
S11315F0E40000194371C868801D0C88E400035599
S1131600C8680C88E4000019C37148888A774A774F
S11316104A85088507B0F0BD60FCFF1FF8B58EB0A1
S1131620764C2020205C012820D1A27C238E180A2D
S1131630032121710121E180E5682688F600AA557D
S1131640E268521C2588ED0003265655E268921C78
S11316502588ED0076265655E2682588ED00521956
S1131660D070E068001D2288D200AFE0022800D0CC
S11316708DE001A96846FFF7BFFB68460088C01EDD
S11316806946088001A84178090282788918218670
S11316905B4D298F228E4E1CB2423FD16E78694633
S11316A00A88002A04D0C11CE248801900F03CFDDD
S11316B06846008880196946088068460088800862
S11316C02870684600888007800F68702878820038
S11316D0D849208FFEF774FF00222B1D268FD54892
S11316E003E0521C401C761C5B1C297889008A424A
S11316F005D2317819700778B942F2D047E0208FCB
S113170040182087687800280AD0CA4A51180B78F4
S11317101370491C521C401E02D0F8E78A4236D18D
S1131720218E2987A77C080A032222710123E380E2
S1131730E6682588ED007755E5686D1C2688F60077
S1131740AA55E268921C2588ED0076265655E26873
S11317502588ED005219D070E068001D2288D2005F
S11317608154FF20E1682288D20089184871E16819
S1131770891D2288D2008854E1682288D200891801
S1131780C8716088208563856377A37734E0A27C81
S1131790032020710121E180E3682588ED005A557A
S11317A0E268521C2388DB00D054E068801C228845
S11317B0D2007F238354E0682288D2008018362226
S11317C0C270E068001D2288D20013238354FF20D6
S11317D0E2682388DB00D2185071E268921D2388E6
S11317E0DB00D054E2682388DB00D218D071608813
S11317F0208561856177A1770FB0F0BD00FCFF1FE4
S1131800ACFCFF1FF8B586B001ACA11C6846FFF71D
S1131810F3FAE0780121CF4A0323012800D08BE0BA
S1131820907C6679FF243125002E30D11371D1804C
S1131830D6681788FF00F055D0681688F60080191E
S11318404370D068801C1388DB007126C654D068AE
S1131850C01C1388DB00C554D068001D1388DB004E
S11318604025C554D068401D1388DB00C454D0689B
S1131870801D1388DB00C454D0681388DB00C018B3
S1131880C4715088CE4B197500245C75CBE0012ED1
S11318901371D180D668178827D1FF00F055D0681E
S11318A01688F60080194370D068801C1388DB000A
S11318B07126C654D068C01C1388DB00C554D06898
S11318C0001D1388DB004025C554D068401D1388D3
S11318D0DB00C454D068801D1388DB00C454D06876
S11318E01388DB00C018C4719CE0FF00F055D06879
S11318F01688F600801943707F20D3689B1C1688D5
S1131900F6009855D368DB1C1688F6009D55D368FD
S11319101B1D1588ED005855D068401D1388DB0049
S1131920C454D068801D1388DB00C454D068138865
S1131930DB00C018C47175E0032846D16079002823
S113194022D19F48007D02283FD1907C1371D18021
S1131950D4681588ED006055D0681488E400001937
S11319604370D068801C1388DB007124C454D06891
S1131970C01C1388DB003124C454D068001D1388B4
S1131980DB004024C4543DE001281ED1907C137137
S1131990D180D4681588ED006055D0681488E400BF
S11319A000194370D068801C1388DB007124C45470
S11319B0D068C01C1388DB003124C454D068001DD7
S11319C01388DB004024C4541CE0907C1371D18044
S11319D0D4681588ED006055D0681488E4000019B7
S11319E043707F20D3689B1C1488E4001855D36887
S11319F0DB1C1488E40031251D55D3681B1D148895
S1131A00E4001855FF20D3685B1D1488E4001855C2
S1131A10D3689B1D1488E4001855D3681488E40027
S1131A201B19D8715088108591775177518507B06B
S1131A30F0BD0000E8FCFF1F38B5464C2020205CB8
S1131A40012814D0022832D18749884802780A70C4
S1131A5042784A7082788A70C078C8708E4820872D
S1131A600422FEF7ADFDFEF7D5FF00281FD0A27CAF
S1131A70032020710121E180E3682588ED005A5597
S1131A80E2682388DB00D2185070E068801C22884A
S1131A90D20077238354E0682288D200801837224A
S1131AA0C270E068001D2288D20040231EE0A27CA0
S1131AB0032020710121E180E3682588ED005A5557
S1131AC0E2682388DB00D2185070E068801C22880A
S1131AD0D2007F238354E0682288D2008018372202
S1131AE0C270E068001D2288D20013238354FF20B3
S1131AF0E2682388DB00D2185071E268921D2388C3
S1131B00DB00D054E2682388DB00D218D0716088EF
S1131B10208561856177A17731BD80B500F046F9F4
S1131B2001BD10B55D4C20680106C90F10D02068B6
S1131B302068802141402160606800F003FB00229E
S1131B408F4B00F00FFB00F0E1FB606000F0ACF89D
S1131B5010BD000000FCFF1F30B451490B7A514AFC
S1131B60147C5D00254323439B002B43547CE400F9
S1131B701C43497A890121430002084381490140F9
S1131B80518430BC70477549420010188000085CCD
S1131B90012808D07C48417BEF220A407B49097C1C
S1131BA0090111434173704710B504000021FFF788
S1131BB0DFF800212000FEF77FFF7549487010BD53
S1131BC060FCFF1F4021734802680A4302607248A8
S1131BD00268072313430360C2681143C160C168EC
S1131BE010220A43C2604E210161016808220A439F
S1131BF002608020C00269490A6802430A60684999
S1131C000A6810430860704780B561482549086434
S1131C1060480168802252030A430260614800213F
S1131C2001704122427081702C21C1704179862259
S1131C300A434271817902220A4382710178802227
S1131C400A4302704179EF220A40427100F088F899
S1131C5001BD14490A6C10704D4800234374CA63D3
S1131C600621C17370470000E8FCFF1FA8FCFF1F9A
S1131C7038B50C48046C464DE97C2000FEF743FF60
S1131C80611C227888540120687460784649087081
S1131C900720E87331BD0000FCFF00000C900340F6
S1131CA044FCFF1F00FCFF1F38B5384C217EA08D7B
S1131CB0022909D1401E82B2002A11D10321A17642
S1131CC00521E176217709E0012909D1401E82B27C
S1131CD0002A05D10321A1760421617700216276CF
S1131CE0A08521762A4DE87B002808D0801E022892
S1131CF01AD9001F1ED0401E012815D931BDE08E0F
S1131D0000280ED101206074FF20FFF725FF0A2070
S1131D10E873B948E086C2480178FD220A4002709F
S1131D2031BD401EE08631BD608E002810D0401EBB
S1131D30608631BDA08E00280DD1687C002807D0B4
S1131D40287C022101432974A97C0720FEF796FF11
S1131D5000F006F831BD401EA08631BD902300007E
S1131D600B48017CFB220A400274A349074AD1862E
S1131D700021C173AA48017802220A430270704705
S1131D80008853404FFF000094FCFF1F00FCFF1F1E
S1131D9060FCFF1F0C8004400090034080E200E0E0
S1131DA000E100E000A0064007A00640F8B59D4C05
S1131DB0267967799C4DC0203840402817D1607936
S1131DC04021014361712078BF2101402170E87BEB
S1131DD00A2804D1FFF7C4FF0020B54948742078CD
S1131DE08021014321706079EF2101406171B007C6
S1131DF015D52079022101432171E079287C0A213B
S1131E0001432974E87B062803D0072801D0082859
S1131E1003D1A97C0420FEF731FFFFF7A1FF802046
S1131E2007401DD061790843607140202178402229
S1131E300A43227021784906490E2170E97B0A2958
S1131E4000D1ABE0042129741021994A51862178EC
S1131E50084320700320E8736079FD210140AFE05E
S1131E602079E679810600D4ABE0E97B032909D027
S1131E7004290CD0062938D0072967D00A2900D1B3
S1131E808FE0F1BD552E69D10420E873F1BD012125
S1131E903000FEF711FEA874EE74854C3C2801D086
S1131EA03D2803D10021E1850121A973FF280AD02F
S1131EB0FEF741FE7F48216C097849004018801ED6
S1131EC00088A086F1BD287C402101432974FF20AD
S1131ED0FEF72FFFE077012121740321A176FFF79C
S1131EE052FEFF20FFF738FE58E07148C16B491CD1
S1131EF0C1630E70006C697C0278914222D12F7C00
S1131F00E97CFEF700FEB04213D101203843287467
S1131F10E078DB210140E1700920E873A87CFEF73A
S1131F2053FEE07824210143E170E87B0A2809D0BC
S1131F3006E0122038432874A97C0520FEF79EFE93
S1131F40FFF70EFF687C401C6874F1BD400605D5A0
S1131F50687C5749096C0A5C964204D0A97C062027
S1131F60FEF78CFE1AE00A78824205D3401C68749E
S1131F70C0B2085CE071F1BD01206875297C08439A
S1131F802874E078DB210140E1700920E873A87C23
S1131F90FEF742FEE07824210143E170FFF7E0FE02
S1131FA0F1BDF02E07D0E02E05D0C02E03D0802E38
S1131FB001D0002E05D1FFF7D3FE60790221014341
S1131FC06171F1BD3C483D4908603D4823210170E1
S1131FD0012141700F210171A0214171012070473D
S1131FE010B4002010498882314A9063202410558F
S1131FF0887510BC704700001027000080B5FFF7FB
S1132000E1FD0020FFF700FE802040012D490A6811
S113201002430A602C490A681043086001BD0000AD
S113202005A0064000A0064060FCFF1FF8B5002490
S1132030FEF7EEF9FEF720FD2448FEF70FFAFFF74E
S1132040CFFFFEF70CFD2349884206D0FEF7E2FCE1
S1132050012802D11E488047FEE7FFF7CFFF1E4F3D
S1132060FF251C4EFEF7F2F9387D01281CD1787D3E
S1132070012819D1582C10D3002402203875684641
S1132080057045700123022269461448FEF7B0FB2F
S1132090FEF7E5FCB04207D1F1E72000283040020A
S11320A0FEF707FA641C3883B87D0128DAD1FEE70D
S11320B000FCFF1FD82400000000000008ED00E031
S11320C00020054080E200E000E100E0002D310145
S11320D004500000A55A000060FCFF1F20000010FF
S11320E010B50400080011000200200000F028F9D7
S11320F0200010BD70B4103A03D378C9103A78C0E8
S1132100FBD2530701D318C918C001D508C908C0A8
S1132110D20704D30B880380891C801C002A01D5B4
S11321200B78037070BC70478B0701D18307E1D033
S1132130124205D00B78491C0370401C521EF9D181
S11321407047FEE7010042221201D21E004207D06E
S113215002D4521E0018FCD5C10A40051205891884
S113216070470000F0B40125ED070F005F404FD425
S11321708B4200D1824205D98446100062468C46C7
S113218019006346DF184C18640D7F0D3AD0661CA5
S1132190760537D0E61B352E34DCDB022B43DB0A15
S11321A00C0DC9022943C912202E0DDB1700203E55
S11321B006D01F00F741F3405F400026012A774113
S11321C0C01871410DD217E01700F741F240574093
S11321D0F3415A40B340F3405A4000268018594115
S11321E00AD3A21C52050FD0C207012F7241170057
S11321F04008CB0718434908641C24054208AF4132
S113220070416141F0BC7047641C21050020F9E76E
S11322106B400AE06B40ABE7F742F3D1E943F1E7E7
S11322202442EFD100200021ECE70C00871A9C41E6
S113223005D2C01BA141D219634169406B40AE0A6B
S1132240DF184C18F442E7D2640D7F0DE8D0E61B8A
S1132250362ED7DCDB022B43DB0AA4460C0DC90265
S11322602943C90A012E28DC04D1D6075208DF0706
S11322703A435B08EF0A76429041994114D03942BF
S11322803BD1B61940414941761C394204D1761CF0
S1132290001849413942FAD0B9436746B74208D9D0
S11322A0A41B24052143ADE70042EAD13642E8D11C
S11322B0A8E7E40AE1070020A4E7202E0BDD203E76
S11322C01F00F340F7415F40012A002257417E423C
S11322D0984191410BE01700F741F2405740F34118
S11322E05A40B340F3405A407E42904199410A0318
S11322F003D2641EB619404149410027641E2405D7
S11323004208AE4178416141F0BC70474A1812D28C
S1132310400DC90208430121C9070843520D402159
S11323200901521A521C06D452421F3201D4D04021
S11323307047C017704700207047090070470000BD
S11323401206130A1A43130C1A4300BF094205D09C
S1132350830705D00270401C491EF9D17047000064
S11323601300103906D330B41400150010393CC0E2
S1132370FCD230BC490700D30CC000D504C089008E
S113238002D30280801C002900D50270704700002F
S1132390000410000002000000000000000210040D
S11323A00201000000000000000801060301000013
S11323B03A2300000004010E0402000000000000A3
S11323C011081000000000000000000011080100C6
S11323D0000000000000000070B40123002413E09A
S11323E00168001D194202D04D466D1E49190C604A
S11323F0091D121F042AFAD20D00960701D50C807C
S1132400AD1C1A4000D02C700268001D002AE7D1D0
S113241070BC704730B401220EE00368C3184468EE
S11324200830144202D04D466D1E64191D682560A3
S11324301B1D241D091FF9D10168001D0029ECD1C1
S113244030BC704710B5074979441831064C7C44B8
S1132450163404E0081D0A68891888470100A1425F
S1132460F8D110BD08000000280000006DFFFFFF38
S1132470D0000000ACFCFF1F0000000099FFFFFF2C
S1132480AC00000010DDFFFF00FCFF1F0000000097
S1132490FFF798FD002801D0FFF7D4FF00BF00BF6D
S11324A0002000BF00BFFFF7C1FD00F000F880B5B9
S11324B000F002F801BD00000746384600F002F8BB
S11324C0FBE7000080B500BF00BF024A11001820DE
S11324D0ABBEFBE7260002000600070009000A0065
S11324E00C000D000F00100000BF00BF00BF00BFB4
S10724F0FFF7CEFF21
S90324E9EF
