S00A0000524C532E53313919
S113000070040020D52B0000772A0000772A000016
S113001000000000000000000000000000000000DC
S1130020000000000000000000000000772A00002B
S11300300000000000000000772A0000772A00007A
S1130040772A0000772A0000772A0000772A000028
S1130050772A0000772A0000772A0000772A000018
S1130060772A0000772A0000772A0000772A000008
S11300701D1E0000772A0000772A0000772A00005E
S1130080772A0000772A0000251E0000772A000046
S1130090772A0000772A0000772A0000772A0000D8
S11300A0772A0000772A0000772A0000772A0000C8
S11300B0772A0000000000000000FFFFFFFF00009F
S11300C00008007F000000000000000005000000A0
S11300D006000000A0010020000000000500000050
S11300E006000000D001002000111203103C3DFF67
S11300F00000000001000000A55AA44A00A0064028
S10B01002202FFFF8000000051
S113041010B58448017802220A43027082480178A8
S1130420FF290DD000788149087081480178FE22A7
S11304300A40804909780B00DB07DB0F1343037084
S113044040207D490A780242FAD0B24A1378202427
S11304501C4314700A781043087010BD72B67748B4
S113046077490180AC49018062B6704730B50024F9
S1130470744902F02EF9401E8021734A12780A4210
S113048003D1A648204380B226E0A54A13785B0630
S113049016D413780B420BD03F2113780B40050080
S11304A0EDB229408B4203D0C848204380B213E008
S11304B01178C0230B408006800E1843107009E0A9
S11304C03F2112780A40C0B201408A4202D0200083
S11304D0BE4C0443200080B230BDF8B500221600A3
S11304E00325284202D08F4880B22FE0564C302199
S11304F021708D490A708D4A0A2313708C4B0700B2
S11305003F0C1F7001270F7001001970000A107052
S1130510012000F01CF82078800602D53000854EBA
S113052006432078C00602D53000A94E0643207841
S11305302900084202D03000A64E06432078284203
S113054002D03000BF4E0643300080B2F2BD00B589
S1130550A1490A6880235B0213430B603A49802255
S11305600A70C0B2002802D008781042FCD000BD46
S1130570F8B500231C000325284202D0694880B244
S11305804EE000913021304E317067490B70674B5B
S113059006261E70664E07003F0C377001270F7049
S11305A007003770000A1870022008700098000ACB
S11305B0187000983070280008700098000E1870A9
S11305C00098000C307004200870100A1870100095
S11305D0307005200870100E18701000000C307078
S11305E00120FFF7B4FF18480078800602D52000E8
S11305F0504C044314480178C90602D52100744CB8
S11306000C4301782A00114202D02100714C0C43A2
S11306100078284202D020008A4C0443200080B293
S1130620F2BD000000400640FF0300000240064007
S113063003400640FE03000004400640022005403B
S1130640A602000040420F0006000240FEB503006F
S1130650002738001400A4B2E4086D46AC805207A9
S1130660520F6C4622706A461278D2B29208D2B205
S11306706C4662801D000C009907890F002902D086
S11306808F4880B244E03E0001E00835761C69469C
S113069089888E420BDA2168201D0268041D280017
S11306A0FFF766FF010089B20029EED02FE03E007B
S11306B001E02D1D761C694649888E4209DA2168BD
S11306C0241D280000F038F8010089B20029F0D078
S11306D01DE0694609786A46528892008A1A110018
S11306E0C9B2002901D180B212E00021C94310002F
S11306F0C0B22018401ED2B204E00B0201781943A4
S1130700401E521E012AF8DA280000F015F880B2C3
S1130710FEBD000001400640B4800000143000001B
S11307200000024001300000020002400A000240C2
S11307300B00024008300000F8B500221400032525
S1130740284202D05E4880B23EE030235D4E3370D2
S11307505D4B1A705D4A062616705D4E07003F0C0D
S1130760377001271F7007003770000A10700220CD
S11307701870080A10700800307028001870080EED
S113078010700800000C30700120FFF7E0FE4D48A7
S11307900078800602D520004E4C04434948017875
S11307A0C90602D521000A4C0C4301782A001142E3
S11307B002D02100074C0C430078284202D02000CC
S11307C0204C0443200080B2F2BD00001830000029
S11307D010300000113000000C3000F070B5002221
S11307E01400384D3021297037490A70374A1223D2
S11307F01370374B0600360C1E7001260E70010074
S11308001970000A10700120FFF7A1FE28788006F5
S113081002D520002F4C04432878C00602D52000BE
S1130820AC4C044303202978014202D02100AA4C95
S11308300C432978014202D02000024C04432000DA
S113084080B270BD12300000F8B500231C001D4DAD
S113085030222A701C4A13701C4B11261E701C4F28
S11308600600360C3E700126167006003E70000A23
S1130870187002201070080080B2000A3870032635
S1130880167039700120FFF762FE2878800602D5C1
S11308902000104C04432878C00602D520008D4C5B
S11308A004432878304202D020008B4C044328783B
S11308B0304202D02000B74C0443200080B2F2BD85
S11308C00130000006000240020002400A0002401B
S11308D00B00024008300000FEB50D00002600A900
S11308E0891C00240C800021002D04D01400210058
S11308F089B2002901D10020EBE0010080204005ED
S1130900814206D3200080B20818401EA24A9042B9
S113091001D30020DDE068460370684600780128B2
S113092000D1641C6846007801280CD1002002E044
S11309302A5CB618401C220092B2521E9042F7D391
S1130940F0430600761C48084000019001980F1AF5
S11309500023022200A9891C019800F0BFF8002896
S113096001D10020B5E002203900C9B2401A2100AB
S113097089B288421FDB00A8801C29783A00D2B2D1
S113098081546D1C7F1C95496418220092B2012A7F
S11309900CD16A461278012A03D13A00D2B28654A5
S11309A003E02A783B00DBB2C2546418200080B212
S11309B00028E0D10AE0FFB206E0287800A9891CEB
S11309C0C8556D1C641E7F1C022FF6D300AFBF1CDC
S11309D03878000279780843694608810198FFF75E
S11309E0FDFE002801D0002073E0684601890198CB
S11309F0FFF72AFF002801D000206AE00198801C3C
S1130A0001900AE0684601890198FFF71DFF00285C
S1130A101CD10198801C0190A41E200080B20328E0
S1130A2016DB002003E0297839546D1C401C022891
S1130A30F9D3387800027978084369460881019827
S1130A40FFF7CCFE0028DDD0002042E0002040E08B
S1130A5000200290200080B2002839D00023022216
S1130A6000A9891C019800F039F8002809D1002058
S1130A702FE02878029978546D1C0298401C02904B
S1130A80641E200080B200280ED0200080B201280D
S1130A90EFD168460078012802D102983E5402E062
S1130AA0287802997854601E3878040278780443D0
S1130AB00198FFF793FE002801D0002009E02100EF
S1130AC089B20198FFF7C0FE002801D0002000E0A1
S1130AD00120FEBD1030000011300000F0B504000C
S1130AE000201D00EDB2012D00D1521C002903D0BD
S1130AF01500ADB2002D01D1002039E080256D052F
S1130B00AC4206D31500ADB265196D1E224EB54236
S1130B1003D300202CE025780D701500ADB2002D14
S1130B2025D08025954E37782F4201D100201FE033
S1130B302778641C0F70491C4F1E3F78C019521E41
S1130B401700BFB2012FE8D136782E4201D1002020
S1130B500EE01D00EDB2012DDDD12178641C40189A
S1130B60C0B2002801D1012002E0002000E00120F1
S1130B70F0BD8020000282490A6802430A6081496C
S1130B800A68104308609E4801680222914301608C
S1130B9070470000123000000001001080B50020F2
S1130BA001F0D8F9002002BD80B501F011FA01BDB1
S1130BB080B501F011FA01BD10B500242100010037
S1130BC0C9B2092901DB052403E0AD49087001F02D
S1130BD023FA2000C0B210BD00000000FFFF000097
S1130BE080B5C0B201F002FA002002BD10B50200C7
S1130BF00120030013401400E4B2640804405C4084
S1130C001300DBB29B08034063401400E4B22409E0
S1130C102040584083011000C0B240081400E4B2E0
S1130C20E40844401000C0B2000960401400E4B27B
S1130C3064094440E043C0011843C9B201290BD1FF
S1130C401100C9B2C0230B40C0B2834201D0FF20BF
S1130C5003E09006800E00E01043C0B210BD00B562
S1130C600A00D2B23C2A05D00A00D2B27D2A01D0B1
S1130C70C9B200E00021027808E0401C0378C918DA
S1130C800B009BB2FF2B00DDFF39521E1300DBB2B9
S1130C90002BF2D189B2C843C0B200BD80B501F0C7
S1130CA031F901BD80B5FFF7F9FF002002BD80B521
S1130CB0FFF774FF02BDF8B50700002528008F492F
S1130CC008708F4E3800C0B200F078F93070307878
S1130CD0FF2801D128003FE001208A4932780C2303
S1130CE05A438C182178012917D18748A1680978BB
S1130CF0405C00280FD08548A168097840184578E1
S1130D002800C0B200F05AF930702800C0B201F0D7
S1130D10E7F8022020E028001EE0A17801291BD179
S1130D202078002806D100213800C0B200F062F912
S1130D30022011E09E4E3078002801D128000BE0FB
S1130D40A9480078032806D000F034F93078401E12
S1130D503070022000E02800C0B2012802D002282E
S1130D6004D007E06078FFF73BFF05E06078FFF709
S1130D7023FF01E0FFF718FFF1BD00000600024069
S1130D8014F00F4004F00F4070B504005C485D4956
S1130D9002780C235A438A18157902780C235A4393
S1130DA08A1856790122914B1A7002780C235A43FF
S1130DB08A5C002A05D101212000C0B200F01AF992
S1130DC007E000780C225043085C112801D100F0A0
S1130DD0E0F8002006E0FF21B14A2B00DBB2D15439
S1130DE06D1C401C01003200C9B2D2B29142F2D350
S1130DF02000C0B201F038F801F074FB70BD0000AF
S1130E000480044070B5012578490D7078490A784A
S1130E10012A04D100221300984C23700A700400A4
S1130E20374E2000C0B200F0C9F83070307800F0BE
S1130E3076F8307801F035F82000C0B201F014F8EB
S1130E40E4B23D2C1BD18E480188491E01800088E4
S1130E5000280BD1002001008A4A117002218A4A1D
S1130E601170614A11708F49087008E0FA20C000BF
S1130E70864908808348057002208A49087070BD3D
S1130E800002002070B505000C001D4E2000C0B209
S1130E9000F094F83070EDB2ED1E042D25D8012039
S1130EA0764908702000C0B23C280DD1032078494F
S1130EB008707849087002207749087100203C497D
S1130EC00870784908700CE02000C0B23D2808D1B1
S1130ED003206D4908700620764908710020714985
S1130EE0087003206D490870FFE7307800F0D9FFDF
S1130EF02000C0B200F0B8FF70BD0000580200200E
S1130F00630200207C2A0000140200203400002028
S1130F1080B5C0B200F0A8FFFFF74AFE01BDF0B5EE
S1130F2065490200D2B20C235A438A18127903008D
S1130F30DBB20C246343CB185B790400E4B20C25C8
S1130F406C430C5D012C09D15C4C0500EDB20C2600
S1130F5075434D19AD682D78002666550400E4B23A
S1130F600C256C43095D112912D000210C0006E008
S1130F70FF254B4E1700FFB2F555521C641C25008B
S1130F801E00EDB2F6B2B542F2D34C4AC0B21154CF
S1130F90F0BD80B54A484078002805D10120494970
S1130FA00870FFF705FE01E000F0D0FA01BD000073
S1130FB06102002080B500F0D8F901BD00B506211A
S1130FC000E0491E0A00D2B2002A0AD03E4A0B00B1
S1130FD0DBB2D25C0300DBB29A42F2D1481EC0B24B
S1130FE000E0FF2000BD00004D000020560200205C
S1130FF06202002030B53248344A2F4B14780C2555
S11310006C431C196478047014780C256C431C1907
S1131010E478C9B200291FD111780C225143591820
S11310208968002907D00978294A1278914202D1A7
S11310300121284A117001210A00D2B203785B1CF5
S11310409A421ADA244A2300DBB2D25C0B00DBB2E8
S1131050C254491C641CEFE7012108E00A00D2B223
S1131060825C1D4B2500EDB25A55491C641C0A00D4
S1131070D2B203785B1C9A42F0DB30BD57020020E9
S11310803C0200205C020020600200203E0200209E
S11310905E0200205F020020240000204D0000209A
S11310A00C0200205D02002080B501220B4900F0F3
S11310B077FB01BD140000207C2A000014020020EC
S11310C000020020580200203400002063020020A7
S11310D0A32B000062020020000000202400002056
S11310E0F3B583B0002401204C4908704C4D287896
S11310F002280CD02878032805D02878062802D0A6
S113110028780528F2D128784449087084E0684694
S1131110FFF7CAFF6E4670780100C9B20909039847
S1131120C9B2002903D0022947D01AD36FE07178DD
S11311300907090F0180B078049A1070012008E0B3
S11311400200D2B2B2189278049B0400E4B21A5599
S1131150401C0200D2B20B0092B29BB29A42EFD36F
S113116055E071780907090F802252005143B27883
S113117089180180F078049A1070012008E00200B8
S1131180D2B2B218D278049B0700FFB2DA55401CE1
S11311900200D2B2052AF2DB4F1F641D0DE00100EC
S11311A0C9B2715C049A23009BB2D154641C401CE4
S11311B00100C9B20829F2DBBF1F380080B207283A
S11311C007DB6846FFF770FF70780007000F022006
S11311D0EEE7380080B2002818D06846FFF764FFB5
S11311E070780007000F002009E00100C9B27118EF
S11311F08978049A23009BB2D154641C401C0100DA
S1131200C9B23A0089B292B29142EED3FFE700200C
S1131210287002200149087005B0F0BD5F0200206B
S11312205E02002070B592B06B465D4C24781C7051
S1131230032425005D707F259D70D8701A71FF25E9
S11312405D719D71DD710600F6B2102E0CD0222E58
S113125014D0272E4BD0312E3DD0342E21D0362E13
S11312602CD0372E3DD05CE0C9B2012905D1022132
S1131270597040309870DA701D7152E0C9B201297A
S11312800ED14030987006205870F120D870852017
S1131290187102A801785971417899718078D871D0
S11312A03FE00A00D2B2012A08D1020040329A700B
S11312B006225A701022DA7023221A71C9B2012947
S11312C008D1403098709C48018889B2090AD970C5
S11312D00088187125E0C9B2012901D14030987005
S11312E01FE0C9B2012901D14030987019E0C9B298
S11312F0012915D19149097808290FD1082159707C
S11313000100403199700121D9708D490A781A7110
S11313104A785A718A789A71C978D971403098702C
S1131320FFE78848047101210A00C28000220BE013
S1131330C468058808266E43A4191500EDB216008A
S1131340F6B29E5D6655521C1400E4B2082CEFDB25
S113135040887D4A10800800AB4A108008000F4A7C
S11313601070AA48017012B070BDE0B50022754932
S1131370684600F015FA01200AE069460200D2B27C
S11313808918491E0978A24A0300DBB2D154401CD3
S11313900100C9B20929F0DB07BD0000600200208A
S11313A04C00002070B54178C9B20909C9B20029BE
S11313B003D002297BD02FD3BDE040780007000F73
S11313C080B2072824DA02252800924908700020F8
S11313D00100914A117001242100904A1170A4491E
S11313E002000A8002004A800200CA8008710122B9
S11313F08B4800F09BF92000C849087089480470A4
S113140089480178062900D0057000F013F902E03C
S11314100020854908708EE041780907090F802271
S11314205200514380780C18200080B2C01F1D2840
S113143039D2FA20C0007D4908800220764908701C
S113144000258B4928000880280048802800C8808F
S1131450280008710122724800F068F9062620006D
S113146080B2401F310001F031F9002907D1A4B244
S1131470601F310001F02AF96A49087007E0A4B23C
S1131480601F310001F022F9401C664908700120F8
S1131490A24908706148057063480178062905D09F
S11314A00421017002E000205F49087043E0FA2142
S11314B0C9005E4A11800224574D210029704078EA
S11314C00007000F95490A78C0B2904217D10878F6
S11314D0401C08700878102801DB0020087051486F
S11314E00178491E0170012261494D4800F01EF93E
S11314F04D48017806290AD00421017007E006202E
S11315000100444A1170864908700020287045483B
S1131510007800280ED120003E4908700020287071
S113152001203E49087040480178062900D0047023
S113153000F080F8FFE770BD440200206C02002038
S113154028020020140000203A020020F8B5304997
S11315504878CA788A78D2B21209724B1B78040090
S1131560E4B2A34203D00020284908704BE02E4B7C
S11315701C78022C02D01C78042C10D10400E4B294
S11315807E2C0CD1254C2478002C08D1FA20C000E4
S113159026490880022020490870002033E01C7886
S11315A0022C1ED10400E4B27E2C1AD000242500A3
S11315B01A4E3570AE4D6C802C80EC8005262E7151
S11315C02B4D6C802C80EC8026002E7102252E0081
S11315D0174F3E7026000F4F3E70514E35700B4D25
S11315E02C700E4C2478032C02D1D2B2022A0AD0D9
S11315F0C0B27E2802D00420187001E006201870C2
S1131600481CFFF7CFFEF1BD3C0200206102002020
S1131610000200205E0200205C0200204D00002039
S1131620010200205A0200205D0200203E02002038
S11316306002002070B5002211000D48C3680488C0
S1131640082565435B195B78DBB21B09C468058810
S113165008266E43A45DE4B27E2C0BD1324802709E
S113166002209C4908709C4802702C48027053E088
S113167024000020DBB2012B06D1C36800880824B3
S113168044431819C07805E0C3680088082444431B
S113169018198078130000E05B1C1C00E4B2072CCE
S11316A00CDA8E4C1D00EDB2645D0500EDB2AC4267
S11316B0F2D101210C008A4DDBB2EC54C9B20129EC
S11316C025D1C0B210281BD022281CD0272808D02E
S11316D0312809D034280AD036280BD037280CD02A
S11316E014E000F0B5F917E000F018FB14E000F086
S11316F009FA11E000F04EFA0EE000F05FFB0BE097
S113170000F0F0F808E000F05AF905E004E01122D6
S11317100021C0B2FFF786FD70BD00BF5B02002050
S11317205F0200204C0000205D02002070B5CB68F1
S11317300C79032C33D00C79052C02D00C79002CB5
S113174008D1D2B2002A02D104220A710DE001228A
S11317500A710AE00A894C88641CA24202D1002260
S11317604A8002E04A88521C4A8000220AE04C88DF
S1131770082565435C191500EDB21600F6B2865DC6
S11317806655521C1400E4B2082CF0DBC888401CD7
S1131790C880C8880A89904201D30320087170BDAB
S11317A0FCB50B00DC6800941C79002C3DD01C793E
S11317B0052C3AD01D8800231C0001900DE00098F0
S11317C02E00B6B208277743C0192600F6B2805D12
S11317D0019E2700FFB2F055641C2000C0B2082807
S11317E0EDDBC888401EC880C888002808D1D2B262
S11317F0002A02D1052008710AE01800087107E0E8
S1131800D2B2002A02D10420087101E0012008713B
S1131810C888002809D008880A89521E904201D13C
S11318200B8002E00888401C0880F3BD38B5012015
S1131830694600220A6000210B0013E06A461C007E
S1131840E4B2AC4D641924781D00EDB25455AA4C91
S11318501D00EDB2645D1D00EDB2525D944200D0F6
S113186008005B1C1A00D2B2042AE7DBC0B232BD06
S11318701400002038B5A14DA14C012302222100FF
S11318802800FFF72BF920785A2801D1012020E005
S11318902078FF2809D100202070607001230222E3
S11318A021002800FFF718F812E06078C0B20009A0
S11318B0C0B2052804DA60780007000F052801DBB0
S11318C0002060700123022221002800FFF704F8A1
S11318D0002032BD4D0000205A020020E02B000001
S11318E01C0200207FB501A8811C6846FFF7F8FBA5
S11318F001A8C0786946098802295AD1A24E804DB0
S11319002978C9B209093170A04C29780907090F4F
S11319102170C0B2012806D002281BD0032821D090
S1131920812827D02FE0FFF781FF002805D17F22EF
S113193000211020FFF776FC0BE0002068700720E0
S113194093490870012201211020FFF76BFC01204C
S113195020701DE0022201211020FFF763FC022009
S1131960207015E0032201211020FFF75BFC032007
S113197020700DE007208649087081220121102083
S1131980FFF750FC04E0122200211020FFF74AFC6C
S113199030782178884209D0307821780143697001
S11319A00123022229005548FEF796FF2078307063
S11319B004E0132200211020FFF734FC7FBDF8B5AA
S11319C001A8811C6846FFF78BFB01A9C8780002B7
S11319D00979084369460988032910DB80B2FF218D
S11319E0C231884205D1402201212220FFF71AFC8E
S11319F00AE0312200212220FFF714FC04E0132224
S1131A0000212220FFF70EFC05B000BD10B5C04A2E
S1131A1003781B06047824041B19047824021B1978
S1131A2000781818002306E0400003E00028FBD5E6
S1131A30400050405B1C1C00E4B2232CF6DB020E79
S1131A400A700200120C4A70020A8A70C87010BD33
S1131A507FB501A96846FFF743FB01AC6078012814
S1131A6015D108204A490870AA4C00F089FE20705C
S1131A7000F086FE607000F083FEA07000F080FE2F
S1131A80E070402201212720FFF7CCFB30E0607892
S1131A90022828D13E4D2878082824D19E4E3100B2
S1131AA09C48FFF7B3FF002000E0401C0100C9B2CE
S1131AB0042910DA0100C9B2715C0200D2B2A21882
S1131AC092789142F1D00820287012220021272018
S1131AD0FFF7A8FB0CE009202870402201212720F1
S1131AE0FFF7A0FB04E0122200212720FFF79AFB56
S1131AF07FBD0000FCFF0000440000202000001017
S1131B005202002038B586B001ACA11C6846FFF72C
S1131B10E7FAE07801280AD11D480178092906D19D
S1131B2001210170402201213420FFF77BFB184D75
S1131B302878042826D1E078002823D1B448617994
S1131B400902A27989180160217A0902627A891846
S1131B50B04A11800068A021C90188420DD14022F9
S1131B6001213420FFF75EFB0120AB4908800020EF
S1131B70BA4908800520287004E03122002134206D
S1131B80FFF750FB07B030BD65020020640200205F
S1131B906C020020F0B58DB00025B1480178012910
S1131BA005D1402201213620FFF73CFBADE000784F
S1131BB0052800D0A4E0AB4C69462000FFF790FA5A
S1131BC000200BE06946091849786D18FF210902C5
S1131BD02940002901D06D1CEDB2401C2188891ECA
S1131BE08842EFD3FF216940684622888218521E3A
S1131BF01278C9B28A427DD12188091F2180864F7B
S1131C00417809028278891839803988934A128880
S1131C10521C91425BD1002107E04218D278AD4BAF
S1131C20AD4D2D786D185A55491C22889142F4D334
S1131C302088A949097840182080A84E04252088C6
S1131C40290000F043FD30702088290000F03EFD9B
S1131C50A14801706E4D9F4C30780422424392B2E9
S1131C6021002868FEF7F2FC0020010000E0491C76
S1131C70327804235A4391420ED2A14A2B68CB18DE
S1131C801B785354525C635C9A42F0D013220021B7
S1131C903620FFF7C7FA38E02968327804235A431C
S1131CA08918296006E03178042251430918615CDF
S1131CB02154401C884909788842F4D338886749FC
S1131CC00880402201213620FFF7ACFA1DE063486A
S1131CD039880288914207D1398801804022012144
S1131CE03620FFF79FFA10E0132200213620FFF779
S1131CF099FA0AE0132200213620FFF793FA04E050
S1131D00132200213620FFF78DFA0DB0F0BD00003C
S1131D10FCEBAD7F280200202C02002038B586B0F1
S1131D2001ADA91C6846FFF7DBF9E87801281FD14B
S1131D30687900280DD14A4C0120207020780028B1
S1131D4007D0402201213120FFF76CFA02202070D5
S1131D5032E06879012805D1402201213120FFF7C2
S1131D6061FA29E07F2200213120FFF75BFA23E0AA
S1131D70E87803281BD16879002809D1384800780D
S1131D80042805D1402201213120FFF74BFA13E04A
S1131D906879012805D1402201213120FFF742FA58
S1131DA00AE07F2200213120FFF73CFA04E07F2281
S1131DB000213120FFF736FA07B030BD80B528483E
S1131DC00178012905D1402201213720FFF72AFAA1
S1131DD01CE00078052814D104227C499B48FEF7B6
S1131DE035FCFFF723FD002805D1132200213720FD
S1131DF0FFF718FA0AE0402201213720FFF712FA10
S1131E0004E0132200213720FFF70CFA01BD000083
S1131E1024020020420200204402002080B500F089
S1131E20EBF901BD10B56F4801680A001206D20F24
S1131E30002A11D00168016880224A4002606A4C7D
S1131E40206800F01DFD0022814B00F029FD00F008
S1131E50FBFD206000F07AF810BD0000460200206F
S1131E606C0200204802002010B46749674A1378C6
S1131E700C7864001C4312780978114389002143CB
S1131E80634A1278D2000A436249097889011143EE
S1131E90C0B2000208436C4901406E48018010BC86
S1131EA0704730B56C49C0B20C225043085C01281D
S1131EB00FD06A486A496B4A0B78D35C01240578D1
S1131EC0AC40A343514C2478007884401C430878E8
S1131ED0145430BDD800002068020020670200209E
S1131EE010B5040000212000C0B2FFF783F80021E0
S1131EF02000C0B2FEF77AFE5B49487010BD0000B6
S1131F003C0100204021594802680A4302605848B5
S1131F100268072313430360324A136819431160AC
S1131F20116810230B4313604E212F4A116001687E
S1131F3008220A4302608020C0024E490A68024314
S1131F400A608F490A6810430860704780B500F042
S1131F5099F801BD80B5484908704348474908606D
S1131F60342047490880412040490A6880235B03A4
S1131F7013430B608D49020092B21212D206D20EA4
S1131F800B681A700A68507000200A6890702C2040
S1131F900A68D07008684079862202430868427152
S1131FA00868807902220243086882710868007810
S1131FB0802202430868027008684079EF220240D8
S1131FC00868427100F0DEF801BD00004400002002
S1131FD080B500F0D7F801BD0A2075490870704734
S1131FE0000000000C9003401090034023490A684D
S1131FF0107000206F4A107008686F49086006204E
S11320006B490870704700005602002057020020F8
S1132010580200205902002010B5184C6748017876
S11320202068FEF71CFE216822681278891848701F
S1132030012060490870206840785C490968C871CB
S113204007205B49087010BD4FFF0000FCFF000033
S113205000885340380200207C2A0000A22B000094
S11320607B2A000000000020000200200C800440B5
S11320700090034080E200E04E0000203402002083
S11320804A02002038B54F480178022914D14E493C
S11320900A88521E0A80098800290DD103214B4A5F
S11320A0117005210A004A4B1A704A4A1170002126
S11320B00A000270484A11700178012911D142497D
S11320C00A88521E0A80098800290AD103213F4A3E
S11320D011700421414A117000210A0002703E4827
S11320E00170334C207800280AD0801E022821D9A0
S11320F0001F2AD0401E01281CD9801E3ED03DE07E
S1132100374D2888002811D1012036490870FF2056
S1132110FEF7FEFE34482880244801684979FD22F0
S11321200A40006842710A20207002E02888401E9C
S1132130288023E02D480188002902D100F022F8EC
S113214002E00188491E018018E02948018800291D
S113215010D118480078002809D0194801780222C3
S11321600A430270234801780720FEF78BFE00F033
S113217009F802E00188491E0180FFE731BD000033
S113218000E100E00E480178FB220A400270164884
S113219013490880002006490870044801684979F9
S11321A002220A4300684271704700004800002080
S11321B04F0000206A02002030020020500000205E
S11321C0690200205C0200203E0200204D00002035
S11321D05E0200205F0200205D02002060020020F9
S11321E05002002058020020102700004C0200205A
S11321F04E0200206B020020F8B5B74C2068067927
S113220020684579C0202840402820D120684079A2
S1132210402101432068417120680078BF210140BA
S113222020680170AD4800780A2804D1FFF7AAFF9E
S11322300020AB49087020680078802101432068A1
S1132240017020684079EF21014020684171022724
S1132250380006421DD02068007939000143206807
S113226001712068C079AF4801780A220A430270DC
S11322709A480178062905D00178072902D0007808
S1132280082804D1C64801780420FEF7FBFDFFF7B7
S113229079FF802001000D422CD021684979084340
S11322A0216848714020216809780143226811702F
S11322B0216809784906490E2268117087490A780D
S11322C00A2A02D1FFF75EFF04E10422954B1A703B
S11322D09A4AD2899A4B1A8022681278104322684B
S11322E010700320087020684079FD2101402068A7
S11322F04171EFE0206800792168CD79810600D42E
S1132300E8E0764E3178032909D0042915D006294E
S113231046D007297BD00A2900D1C0E0DAE0EDB22B
S1132320552D02D10420307006E09D480178062026
S1132330FEF7A8FDFFF726FFCCE0994C0121280009
S1132340C0B2FEF753FC20709948057020783C28F1
S113235002D020783D2805D100209649088001202C
S1132360954908702078FF280ED02078FEF7A3FC4A
S11323707248924909680978022251434018801E24
S113238000888F4908800AE06648017840220A43A1
S11323900270FF210320FEF775FDFFF7F3FE99E0BD
S11323A088480168491C016000680570864F8348AD
S11323B0397802681278914225D17D4909780068FC
S11323C0FEF74DFCEDB2A84211D156480178012226
S11323D00A4302702068C078DB2101402068C17084
S11323E0092030706E4800789C4908700BE04D4815
S11323F0017812220A430270694801780520FEF729
S113240041FDFFF7BFFE3878401C387062E040069B
S113241007D4634801780620FEF734FDFFF7B2FEC7
S113242058E0694865490A680378D25CEDB2954280
S113243007D05B4801780620FEF724FDFFF7A2FED3
S113244048E00A68127803789A4208D30278521C4A
S1132450027009680078085C2168C8711EE0804831
S11324600178022901D1032101702E48017801224B
S11324700A4302702068C078DB2101402068C170E3
S11324800920307046480078FEF7BCFC2068C0780C
S1132490242101432068C170FFF774FE1AE028006C
S11324A0C0B2F0280ED02800C0B2E0280AD028001C
S11324B0C0B2C02806D02800C0B2802802D0EDB235
S11324C0002D06D1FFF75EFE20684079074320689F
S11324D04771FFE7F1BD0000480000204F000020D5
S11324E05802002080B55F480168C97824220A4355
S11324F00068C2705C4800780A2801D0FFF742FEE9
S113250001BD5A485A490860A4205A49087001205C
S1132510594908700F2059490870A020584908707B
S1132520012070476902002000204D4908704B4982
S1132530087054490870487070470000C42B0000AC
S11325404C020020F8B50020FEF7ACFB0020FEF79B
S1132550AEFB0C24202501264B4F38680090200048
S1132560C0B2290000F0B2F832008A400098024359
S11325703A60464F38680090E4B22000290000F029
S1132580A5F88E40009806433E60F1BD80B5FDF786
S11325903FFFFEF7EEFA3E48FDF768FF01BD00007D
S11325A06B02002080B53B4800888047FEE70000AE
S11325B05000002040020020660200203402002067
S11325C04E020020300200206A02002070B500266E
S11325D03400FFF7DBFFFFF7A7FFFFF74BF90128F4
S11325E005D0FFF723F9012801D1FFF7DBFFFFF73F
S11325F0A9FF0FE0641C2000283080218900484393
S1132600FDF76BFF641C244908802878072801D152
S113261000208047FDF722FF104D2878002806D0BF
S113262072B62878FEF7B0FB3000287062B60C4D05
S113263028780328E9D1582CDCD3340004202870EE
S1132640104930000870012302221448FEF744F9AF
S1132650FFF710F90028F3D1D7E700006D0200203E
S11326606C020020480000204F0000200000000001
S113267008ED00E00020054001200540042005404D
S1132680052005405202002080E200E000E100E065
S1132690002D3101045000005402002020000010DD
S11326A0F446002804D4494200F013F8404260473D
S11326B04042002905D45FD000F00BF84042494263
S11326C06047494200F005F84942604703460B431E
S11326D0E6D40022030A8B420BD203098B4219D29F
S11326E043088B422ED2411A00D201465241104671
S11326F07047FF2209023FD012068B4205D3121203
S113270009028B4201D31212090203098B4219D325
S113271000E0090AC3098B4201D3CB01C01A52411C
S113272083098B4201D38B01C01A524143098B4266
S113273001D34B01C01A524103098B4201D30B014F
S1132740C01A5241C3088B4201D3CB00C01A524174
S113275083088B4201D38B00C01A524143088B4239
S113276001D34B00C01A5241884200D3401A52414F
S1132770CFD201461046704708B500F07DF908BD78
S1132780F0B53A480078002859D1384840683849AB
S11327904843384940183849FFF79BFF34484143C0
S11327A0344808183449FFF794FF3148414331480D
S11327B008183149FFF78DFF2D4841432D4808186B
S11327C02D49FFF786FF2A4841432A4808182A4919
S11327D0FFF77FFF26484143264808182649FFF79C
S11327E078FF23484143234808182349FFF771FF22
S11327F01F4841431F4808181F49FFF76AFF1B4839
S113280041601E4D102604461A4F6068184948431B
S1132810C0191949FFF75DFF6160296014484143FD
S1132820C8191549FFF755FF616069600835761EC0
S1132830EBD11248C16F80228150012020700B4CD3
S113284060680B4948430B4940180B49FFF741FFA7
S113285061600A4B180080300278D206520E9A1832
S113286013680360116098008008F0BD3C000020EC
S11328700D6619005FF36E3CFFFFFF7F54000020DC
S1132880010042221201D21E004207D002D4521E7D
S11328900018FCD5C10A40051205891870470000CC
S11328A0F0B40125ED070F005F404FD48B4200D1F7
S11328B0824205D98446100062468C46190063465C
S11328C0DF184C18640D7F0D3AD0661C760537D09E
S11328D0E61B352E34DCDB022B43DB0A0C0DC9026C
S11328E02943C912202E0DDB1700203E06D01F00FD
S11328F0F741F3405F400026012A7741C018714137
S11329000DD217E01700F741F2405740F3415A4007
S1132910B340F3405A400026801859410AD3A21C00
S113292052050FD0C207012F724117004008CB0790
S113293018434908641C24054208AF4170416141B1
S1132940F0BC7047641C21050020F9E76B400AE0E5
S11329506B40ABE7F742F3D1E943F1E72442EFD10F
S113296000200021ECE70C00871A9C4105D2C01B13
S1132970A141D219634169406B40AE0ADF184C187B
S1132980F442E7D2640D7F0DE8D0E61B362ED7DC87
S1132990DB022B43DB0AA4460C0DC9022943C90AF6
S11329A0012E28DC04D1D6075208DF073A435B081E
S11329B0EF0A76429041994114D039423BD1B6197D
S11329C040414941761C394204D1761C00184941E2
S11329D03942FAD0B9436746B74208D9A41B240543
S11329E02143ADE70042EAD13642E8D1A8E7E40A40
S11329F0E1070020A4E7202E0BDD203E1F00F3405A
S1132A00F7415F40012A002257417E42984191419B
S1132A100BE01700F741F2405740F3415A40B340EE
S1132A20F3405A407E42904199410A0303D2641E06
S1132A30B619404149410027641E24054208AE41AD
S1132A4078416141F0BC70474A1812D2400DC90266
S1132A5008430121C9070843520D40210901521AB4
S1132A60521C06D452421F3201D4D0407047C017C2
S1132A70704700207047FEE77047090D00041000FE
S1132A800002000000000000000210040201000027
S1132A900000000000080106030100007A2A00007B
S1132AA00004010E040200000000000011081000E0
S1132AB000000000000000001108010000000000F8
S1132AC00000000070B40123002413E00168001D1D
S1132AD0194202D04D466D1E49190C60091D121F82
S1132AE0042AFAD20D00960701D50C80AD1C1A40B9
S1132AF000D02C700268001D002AE7D170BC70471A
S1132B0030B401220168001D00290FD00368C318E6
S1132B1044680830144202D04D466D1E64191D6885
S1132B2025601B1D241D091FECD0F8E730BC70473D
S1132B3010B5074979441831064C7C44163404E036
S1132B40081D0A68891888470100A142F8D110BD00
S1132B5008000000280000006DFFFFFF1C020000B9
S1132B60540000200000000099FFFFFF5400000003
S1132B7044D5FFFF0000002000000000FFF7C1FC67
S1132B80002801D0FFF7D4FF00BF00BF002000BF22
S1132B9000BFFFF71BFD00F000F880B500F002F85D
S1132BA001BD04090746384600F002F8FBE70000BF
S1132BB080B500BF00BF024A11001820ABBEFBE77E
S1132BC0260002000600070009000A000C000D00A0
S1132BD00F00100000BF00BF00BF00BFFFF7CEFF13
S10B2BE01022273134363700BE
S9032BD5FC
