S00A0000524C532E53313919
S113000070040020952D0000372C0000372C0000D0
S113001000000000000000000000000000000000DC
S1130020000000000000000000000000372C000069
S11300300000000000000000372C0000372C0000F6
S1130040372C0000372C0000372C0000372C000020
S1130050372C0000372C0000372C0000372C000010
S1130060372C0000372C0000372C0000372C000000
S1130070B51F0000372C0000372C0000372C00007F
S1130080372C0000372C0000BD1F0000372C000067
S1130090372C0000372C0000372C0000372C0000D0
S11300A0372C0000372C0000372C0000372C0000C0
S11300B0372C0000000000000000FFFFFFFF0000DD
S11300C00008007F000000000000000005000000A0
S11300D006000000A0010020000000000500000050
S11300E006000000D001002000111203103C3DFF67
S11300F00000000001000000A55AA44A00A0064028
S10B01002202FFFF8000000051
S113041010B58648017802220A43027084480178A4
S1130420FF290DD000788349087083480178FE22A3
S11304300A40824909780B00DB07DB0F1343037082
S113044040207F490A780242FAD07E4A1378202459
S11304501C4314700A781043087010BD72B67A48B1
S11304607A490180C149018062B6704770B50400C1
S113047000252000764902F00CFA411E8020754ABE
S11304801278024203D17448284380B227E0734AA9
S113049013785B0616D4137803420BD03F201378ED
S11304A003400E00F6B23040834203D0B0482843E4
S11304B080B214E01078C02303408806800E1843ED
S11304C010700AE03F20127802400B00DBB21840A3
S11304D0824202D02800A64D0543280080B270BD98
S11304E0F8B5070000210C0003252F4202D0A148D3
S11304F080B22FE0574E302030709F4801709F49E2
S11305000A220A709E4A3B001B0C137001230370DD
S113051038001070380A0870012000F01CF8307898
S1130520800602D52000974C04433078C00602D5DB
S11305302000954C044330782900084202D0200062
S1130540924C04433078284202D02000D14C04431A
S1130550200080B2F2BD00B5B2490A6880235B0274
S113056013430B603B4980220A700300DBB2002B6B
S113057002D00B781342FCD000BDF7B50700002170
S11305800C0003252F4202D07A4880B24DE0314E50
S11305903020307078480170784906220A70784A11
S11305A03B001B0C1370012303703B0013703B0AC8
S11305B00B7002230370019B1B0A0B70019B1370C9
S11305C02B000370019B1B0E0B70019B1B0C137003
S11305D004230370029B1B0A0B70029B13700523F8
S11305E003700298000E08700298000C107001202D
S11305F0FFF7B1FF3078800602D52000614C044338
S11306003078C00602D520005F4C044330782900BE
S1130610084202D020005D4C04433078284202D0C6
S113062020009C4C0443200080B2FEBD00400640E4
S1130630FF0300000240064003400640FE030000A2
S1130640044006400140064002200540A602000086
S113065040420F0006000240143000000000024037
S1130660F5B585B00F000020694648806846008BC8
S113067080B2C008694648816846008B4007400F35
S11306806946087068460078C0B28008C0B26946FE
S11306900881059D3E0005988007800F002802D040
S11306A09D4880B260E0002420006946498980B2F8
S11306B0884213D230680190301D01680391061DF1
S11306C0039A01992800FFF758FF69464880684655
S11306D04088002846D10835641CE5E70020040062
S11306E020006946098980B288420FD2306801909F
S11306F0361D0199280000F04BF869464880684689
S1130700408800282ED12D1D641CE9E76846007836
S1130710694609898900401A694608706846007864
S1130720002802D1684640881EE00020C0430190A2
S1130730684600783018401E0700684600780400B8
S1130740200080B2002807D00198000239780143C4
S113075001917F1E641EF3E70199280000F018F848
S1130760694648806846408807B0F0BDB480000000
S11307701830000001300000020002400A0002406C
S11307800B0002400830000010300000113000005F
S1130790F2B5070000210C0003252F4202D05E4869
S11307A080B23EE05D4E302030705D4801705D499E
S11307B006220A705C4A3B001B0C13700123037071
S11307C03B0013703B0A0B7002230370009B1B0A4F
S11307D00B70009B13702B0003700098000E0870C0
S11307E00098000C10700120FFF7B5FE30788006E9
S11307F002D520004D4C04433078C00602D52000B9
S11308004B4C044330782900084202D02000494C64
S113081004433078284202D020001E4C04432000B8
S113082080B2F2BD0C3000F070B5040000210D0060
S11308303A4E302030703A4801703A4912220A7018
S1130840394A23001B0C137001230370200010701D
S1130850200A08700120FFF77EFE3078800602D55A
S11308602800324D05433078C00602D52800304DAB
S1130870054303203178014202D029002D4D0D4358
S11308803178014202D02800024D0543280080B28D
S113089070BD000012300000F2B5070000210C000A
S11308A01E4D302028701E4801701E4911220A7006
S11308B01D4A3B001B0C1370012303703B00137093
S11308C03B0A0B70022101706946098889B2090A42
S11308D01170032606706846008810700120FFF727
S11308E03AFE2878800602D52000104C044328786C
S11308F0C00602D520000E4C04432878304202D0B2
S113090020000C4C04432878304202D02000BD4C17
S11309100443200080B2F2BD013000000600024012
S1130920020002400A0002400B00024008300000AE
S11309301030000011300000F9B585B00D0014002E
S113094000206946487002A8002101800020694601
S11309504880002D03D0200080B2002801D100205F
S113096000E1059880214905884207D305982100B4
S113097089B24018401EAC49884201D30020F1E0FE
S11309806846007E012800D1641C6846007E012868
S113099014D100200600200080B2401E864207D2F7
S11309A068464078A95D401869464870761CF2E7AD
S11309B068464078C143491C684641700598012146
S11309C08843019005980199401A694608700023EC
S11309D0022202A9019800F0C7F8002801D10020E2
S11309E0C0E0022069460978401A210089B2884291
S11309F024DB02A829786A46127881546D1C694662
S1130A000978491C6A46117098496418220092B208
S1130A10012A0ED16A46127E012A05D16A4652780D
S1130A206B461B78C25403E02A786B461B78C25489
S1130A306418200080B20028DBD10BE068460078FF
S1130A400600022E06D2287802A988556D1C641E61
S1130A50761CF6E702AF38780002797808436946D5
S1130A6048800198FFF7E0FE002801D0002079E0DB
S1130A70684641880198FFF70FFF002801D0002045
S1130A8070E00198801C0190200080B2032823DBD1
S1130A9000200600022E04D22878B8556D1C761C5E
S1130AA0F8E7387800027978084369464880019865
S1130AB0FFF7BAFE002801D0002053E068464188C1
S1130AC00198FFF7E9FE002801D000204AE00198D0
S1130AD0801C0190A41ED7E700200390200080B260
S1130AE000283ED00023022202A9019800F03CF81D
S1130AF0002801D1002035E0200080B200281AD05F
S1130B00200080B201280DD16846007E012804D15E
S1130B10684640780399785402E028780399785419
S1130B20641E08E02878039978546D1C0398401CCF
S1130B300390641EE0E73878000279780843694638
S1130B4048800198FFF770FE002801D0002009E0DA
S1130B50684641880198FFF79FFE002801D00020D5
S1130B6000E0012007B0F0BDF0B505000C00002145
S1130B701800C0B2012800D1521C002C03D0100070
S1130B8080B2002801D100203BE08020400585424E
S1130B9006D3100080B22818401E234EB04201D361
S1130BA000202EE0100080B2002829D080206A4E58
S1130BB03778074201D1002023E02F786D1C27707D
S1130BC0641C671E3F78C919521E1700BFB2012F5B
S1130BD0E8D13678064201D1002012E01800C0B2F4
S1130BE001280AD128786D1C09180800C0B2002811
S1130BF001D1012005E0002003E028782070D1E72E
S1130C000120F0BD12300000802000028B490A68E8
S1130C1002430A608A490A681043086089480168E7
S1130C2002229143016070470001001080B500204A
S1130C3001F05EFA002002BD80B501F09BFA01BD0F
S1130C4080B501F09BFA01BD70B5050000263400A3
S1130C502800C0B2092801DB052603E09848057086
S1130C6001F0AAFA3000C0B270BD0000FFFF00001E
S1130C7010B504002000C0B201F086FA002010BDB7
S1130C8010B502000120030013401400E4B264080C
S1130C9004405C401300DBB29B0803406340140033
S1130CA0E4B224092040584080011300DBB25B0801
S1130CB01400E4B2E4085C401300DBB21B09634097
S1130CC01400E4B264095C40E343DB01034308001D
S1130CD0C0B201280CD11000C0B2C02404401800D6
S1130CE0C0B2844201D0FF2004E09006800E01E0EF
S1130CF018001043C0B210BD10B502000800C0B205
S1130D003C2806D00800C0B27D2802D00C00E4B212
S1130D1000E0002413781800C0B2002809D0521C47
S1130D2010782418200080B2FF2800DDFF3C5B1EF1
S1130D30F1E7A4B2E043C0B210BD80B501F0B0F950
S1130D4001BD80B5FFF7F9FF002002BD10B5040016
S1130D50FFF76CFF10BD000006000240F8B5070065
S1130D600025280095490870954E3800C0B200F05F
S1130D7087F930703078FF2801D12C0049E0012434
S1130D80904831780C225143401800900098007824
S1130D9001281BD18C48009989680978405C002897
S1130DA012D08A4800998968097840184078070069
S1130DB03800C0B200F064F930703800C0B201F0FD
S1130DC05DF90220040024E02C0022E000988078E1
S1130DD001281ED100980078002807D1002138008E
S1130DE0C0B200F069F90220040012E09A4E307893
S1130DF0002801D12C000CE0AC480078032807D06F
S1130E0000F03AF93078401E30700220040000E00F
S1130E102C002000C0B2012802D0022805D009E02D
S1130E2000984078FFF724FF06E000984078FFF729
S1130E300BFF01E0FFF700FFF1BD000014F00F40CD
S1130E4004F00F4004800440F8B507005C485D4995
S1130E5002780C235A438A18147902780C235A43D3
S1130E608A1855790122924B1A7002780C235A433E
S1130E708A5C002A05D101213800C0B200F01CF9B7
S1130E8007E000780C225043085C112801D100F0DF
S1130E90E5F8002630002900C0B2C9B2884207D262
S1130EA0FF20A8492200D2B28854641C761CF1E7C2
S1130EB03800C0B201F0A4F801F0F4FBF1BD000069
S1130EC00002002070B504000125794805707948B6
S1130ED00178012904D100210A009B4B1A7001708A
S1130EE0374E2000C0B200F0CBF83070307800F0FC
S1130EF078F8307801F0A4F82000C0B201F080F84E
S1130F002000C0B23D281BD190480188491E0180B1
S1130F10008800280BD1002001008D4A11700221A5
S1130F208C4A1170614A11708B49087008E0FA20EC
S1130F30C0008A49088086480570022086490870E6
S1130F4070BD000070B505000C001D4E2000C0B23D
S1130F5000F096F830702800C0B2C01E042825D8CE
S1130F600120794908702000C0B23C280DD103202B
S1130F707B4908707B49087002207B490871002076
S1130F8035490870744908700CE02000C0B23D284F
S1130F9008D103206F4908700620754908710020A4
S1130FA06D490870032071490870FFE7307801F03B
S1130FB047F82000C0B201F023F870BD58020020A9
S1130FC0630200203C2C00001402002034000020A6
S1130FD010B504002000C0B201F012F8FFF730FE93
S1130FE010BDF0B5674A0300DBB20C246343D31889
S1130FF01B790400E4B20C256C43141964790500D0
S1131000EDB20C267543555D012D09D15E4D0600E8
S1131010F6B20C277E439619B66836780027AF558A
S11310200500EDB20C267543525D112A13D000223F
S113103011000D002600EDB2F6B2B54207D2FF252D
S1131040404E1F00FFB2F5555B1C491CF1E74E4DA5
S11310500600F6B2AA55F0BD6102002080B54B48E7
S11310604078002805D1012049490870FFF7E8FDC0
S113107001E000F009FB01BD80B500F002FA01BDFA
S113108000B5010006221000C0B200280CD041486F
S11310901300DBB2C05C0B00DBB2984202D1501EDD
S11310A0C0B202E0521EEEE7FF2000BD4D0000205A
S11310B05602002062020020F1B5344A364B314C0E
S11310C01D780C26754365196D7815701D780C26EE
S11310D075436519ED780E00F6B2002E20D11B7809
S11310E00C267343E3189B681800002807D0037884
S11310F02A4C2478A34202D10123294C23700123D2
S11311001C00E4B21678761CB4421ADA254C2E0080
S1131110F6B2A45D1E00F6B294555B1C6D1CEFE79D
S113112001231C00E4B21678761CB44209DA1C00D0
S1131130E4B2145D1B4E2F00FFB2F4555B1C6D1C12
S1131140EFE7F1BD0C020020570200203C02002012
S11311505C020020600200205D0200203E020020AC
S11311605E0200205F020020240000204D000020C9
S11311701400002010B5040001220B49200000F0E7
S1131180C1FB10BD3C2C0000140200200002002012
S1131190580200203400002063020020632D000068
S11311A0620200200000002024000020F3B585B076
S11311B00025012057490870574F387802280CD071
S11311C03878032805D03878062802D038780528DE
S11311D0F2D138784F49087099E002A8FFF7CAFFA6
S11311E002AE7078C0B2000969468870684680789B
S11311F0002803D0022842D020D383E0707800076F
S1131200000F694608806846008805990880B07810
S113121006990870012004002000C0B269460988BC
S113122080B2884209D22000C0B230188078069972
S11312302200D2B28854641CEEE763E070780007A1
S1131240000F802149004843B1784018059908806F
S1131250F178069A117001210C002100C9B2052908
S113126009DA2100C9B27118C978069A2300DBB2E1
S1131270D154641CF1E7401F694608806D1D68461F
S1131280008807281DDB02A8FFF774FF70780007A9
S1131290000F69468880022004002000C0B208289C
S11312A009DA2000C0B2305C06992A0092B2885450
S11312B06D1C641CF1E768460088801F694608803D
S11312C0DDE76846008800281BD002A8FFF752FF1C
S11312D070780007000F6946888000200400200011
S11312E0C0B26946098880B288420AD22000C0B2DE
S11312F03018807806992A0092B288546D1C641CB8
S1131300EDE7FFE70020387002200249087007B0BB
S1131310F0BD00005F0200205E020020F6B592B02E
S11313206946654A12780A70032213004B707F23C2
S11313308B70C87013AB1B780B71FF234B718B71CF
S1131340CB710400E4B2102C0CD0222C18D0272C22
S113135057D0312C45D0342C27D0362C32D0372CD2
S113136047D06AE012AC2478012C08D102244C70D6
S1131370040040348C7013AC2478CC700B715CE0A6
S113138012AB1B78012B0FD1030040338B70062363
S11313904B70F123CB7085230B7102AB1C784C711D
S11313A05C788C719B78CB7147E012AB1B78012B76
S11313B008D1030040338B7006234B701023CB708D
S11313C023230B7112AB1B78012B09D1030040338B
S11313D08B70A74B1C88A4B2240ACC701B880B7199
S11313E02BE012AB1B78012B02D1030040338B702E
S11313F023E012AB1B78012B02D1030040338B7026
S11314001BE012AB1B78012B16D19A4B1B78082BCF
S11314100FD108234B70030040338B700123CB7032
S1131420954B1C780C715C784C719C788C71DB78D2
S1131430CB71030040338B70FFE7904B1A7101228C
S11314401400DC8000242500EDB2082D0CDADD68E0
S11314501E8808277743ED192600F6B22700FFB24D
S1131460CF5DAF55641CEEE75988854B1980110098
S1131470844B198011000F4B1970B5490A7014B0D0
S1131480F0BDE0B500227D49684600F03BFA01203A
S11314900100C9B209290BDA69460200D2B28918DF
S11314A0491E0978AB4A0300DBB2D154401CEFE774
S11314B007BD0000600200204C000020F8B50600C3
S11314C07078C0B2000969464870684640780028C0
S11314D004D0022800D183E031D3C8E0707800073B
S11314E0000F0700380080B2072824DA02252800FC
S11314F09949087000200100984A117001242100C4
S1131500974A1170AC4902000A8002004A80020026
S1131510CA8008710122934800F0B8F92000A74955
S113152008709148047091480178062900D005702C
S113153000F020F902E000208C49087097E07078F0
S11315400007000F802149004843B1784018070084
S1131550380080B207283FDB380080B224283BDA09
S1131560FA20C0008249088002207C4908700024C7
S1131570914920000880200048802000C880200075
S113158008710122774800F081F90625380080B2FD
S1131590401F290001F07AF9002908D1380080B2EF
S11315A0401F290001F072F96F49087008E0380003
S11315B080B2401F290001F069F9401C6A49087093
S11315C001207E490870664804706848017806293D
S11315D005D00421017002E000206449087046E04F
S11315E0FA20C0006249088002245C4D2000287063
S11315F070780007000F69460870704869460978DA
S11316000278914217D10178491C017001781029A0
S113161001DB0021017054480178491E0170012248
S11316206549504800F032F95048017806290AD03B
S11316300421017007E006200100474A11708F4918
S11316400870002028704848007800280ED1200037
S1131650414908700020287001204149087043481E
S11316600178062900D0047000F084F8FFE7F1BD8A
S1131670440200206C0200202802002014000020F4
S11316803A0200203C020020F8B532484478C17880
S11316906A46117081780D00EDB22D0978490978F8
S11316A02200D2B2914203D00020294908704DE0B3
S11316B02E490A78022A02D00A78042A10D122007C
S11316C0D2B27E2A0CD1264A1278002A08D1FA20F6
S11316D0C00027490880022020490870002035E016
S11316E00A78022A1ED12200D2B27E2A1AD00022FF
S11316F013001B4E3370634B5A801A80DA80052620
S11317001E712D4B5A801A80DA8016001E71022336
S11317101E00B24F3E7016000F4F3E70574E33708E
S11317200B4B1A700E4A1278032A03D12A00D2B244
S1131730022A0BD02200D2B27E2A02D004220A70DE
S113174001E006220A70401CFFF7B8FEF1BD00005C
S113175061020020000200205E0200205C020020E2
S11317604D000020010200205A0200205D020020EA
S11317703E020020F8B50020694608700E49CA6888
S11317800B8808245C4312195278D2B212096B46B2
S11317905A70CA680B8808245C43165D3200D2B2C2
S11317A07E2A0DD1384908700221A54A1170A54935
S11317B00870024908705FE0240000205B020020EA
S11317C06A465278012A06D1CA68098808234B431D
S11317D0D118CD7805E0CA68098808234B43D1188D
S11317E08D7804002100C9B2072912DA9649220033
S11317F0D2B2895C2A00D2B2914208D101210A00F6
S1131800924B2700FFB2DA556A46117001E0641C5E
S1131810E8E769460978012928D169460870280053
S1131820C0B210281BD022281CD0272808D0312869
S113183009D034280AD036280BD037280CD014E02D
S113184000F0C3F918E000F035FB15E000F01AFAD7
S113185012E000F05FFA0FE000F080FB0CE000F013
S1131860F7F809E000F067F906E005E0112200212D
S11318702800C0B2FFF752FDF1BD00005F02002056
S11318804C000020140000205D020020F0B5CC685C
S11318900D79032D35D00D79052D02D00D79002D4C
S11318A009D11500EDB2002D02D104250D710DE012
S11318B001250D710AE00D894E88761CB54202D1CE
S11318C000254D8002E04D886D1C4D8000252B00C5
S11318D01D00EDB2082D0BDA4D8808266E43A519BC
S11318E01E00F6B21F00FFB2C75DAF555B1CEFE7E9
S11318F0CD886D1CCD80CD880E89B54201D30325DA
S11319000D71F0BDF5B581B00A00D3681479002CCF
S113191040D01479052C3DD014886D462C800024C9
S1131920250028000500EDB2082D0DDA6D462D883E
S113193008266E439D190600F6B2AD5D019E0700B0
S1131940FFB2F555401CEDE7CD886D1ECD80CD88E6
S1131950002D09D16D462D7A002D02D105250D717A
S11319600BE025000D7108E06D462D7A002D02D1A3
S113197004250D7101E001250D71CD88002D09D0DC
S11319800D880E89761EB54201D10C8002E00C88C8
S1131990641C0C80F7BD38B50120694600220A603A
S11319A0002211000B00DBB2042B14DA6B460C008E
S11319B0E4B2B04D641924780D00EDB25C55AE4C20
S11319C00D00EDB2645D0D00EDB25B5D9C4200D094
S11319D01000491CE6E7C0B232BD000060020020DE
S11319E038B5A64DA64C0123022221002800FFF79A
S11319F0BBF820785A2801D1012020E02078FF2864
S1131A0009D10020207060700123022221002800E7
S1131A10FEF792FF12E06078C0B20009C0B2052858
S1131A2004DA60780007000F052801DB00206070ED
S1131A300123022221002800FEF77EFF002032BD90
S1131A404D0000205A020020A02D00001C0200209E
S1131A50F8B584B001A8811C00A8801CFFF7A6FB80
S1131A6001AFF878694608706846408802285BD15F
S1131A70A54E834D2878C0B200093070A34C287855
S1131A800007000F207068460078012806D002285D
S1131A901BD0032821D0812827D02FE0FFF77BFF1C
S1131AA0002805D17F2200211020FFF737FC0BE02E
S1131AB00020687007209649087001220121102037
S1131AC0FFF72CFC012020701DE0022201211020D0
S1131AD0FFF724FC0220207015E0032201211020CE
S1131AE0FFF71CFC032020700DE0072088490870D4
S1131AF0812201211020FFF711FC04E012220021B1
S1131B001020FFF70BFC30782178884209D0307818
S1131B102178014369700123022229005748FEF706
S1131B200BFF2078307004E0132200211020FFF70F
S1131B30F5FB05B0F0BD7FB501A8811C6846FFF731
S1131B4035FB01ACE6783502207905436846008808
S1131B50032811DB280080B2FF21C231884205D15D
S1131B60402201212220FFF7D9FB0AE03122002183
S1131B702220FFF7D3FB04E0132200212220FFF7E9
S1131B80CDFB7FBD30B5C84A03781B060478240416
S1131B901B19047824021B1904781B19002425003E
S1131BA0EDB2232D07DA002B02D55B00534000E091
S1131BB05B00641CF3E71D0E0D701D002D0C4D70B1
S1131BC01D0A8D701D00CD7030BDF8B584B001A91B
S1131BD06846FFF7EBFA01AE7078012815D10820AA
S1131BE04B490870B14D00F0ABFE287000F0A8FE20
S1131BF0687000F0A5FEA87000F0A2FEE870402214
S1131C0001212720FFF78AFB31E07078022829D1CF
S1131C103F4D2878082825D1A54F3900A348FFF760
S1131C20B1FF002004002000C0B2042812DA200012
S1131C30C0B2385C2100C9B271188978884207D0D3
S1131C4008202870122200212720FFF767FB0EE0EE
S1131C50641CE8E709202870402201212720FFF7AF
S1131C605DFB04E0122200212720FFF757FB05B09B
S1131C70F0BD0000FCFF0000440000202000001024
S1131C805202002038B586B001ACA11C6846FFF7AB
S1131C908DFAE07801280AD11D480178092906D176
S1131CA001210170402201213420FFF737FB184D38
S1131CB02878042826D1E078002823D1A548617922
S1131CC00902A27989180160217A0902627A8918C5
S1131CD0A14A11800068A021C90188420DD1402287
S1131CE001213420FFF71AFB0120B14908800020AC
S1131CF0C04908800520287004E0312200213420E6
S1131D00FFF70CFB07B030BD650200206402002021
S1131D106C020020F0B58DB00025B7480178012988
S1131D2005D1402201213620FFF7F8FAB9E0007806
S1131D30052800D0B0E0B14E69463000FFF736FA0E
S1131D40002004003088801E84420CD268460019AA
S1131D5040782D18FF2000022840002801D06D1C77
S1131D60EDB2641CEEE72800FF2545406846318843
S1131D704118491E09782A00D2B2914200D085E068
S1131D803188091F31804178090282788918884A8C
S1131D90118087490988974A1288521C914261D15F
S1131DA0002731888F4208D2C119C978B14AA34BA0
S1131DB01B78DB19D1547F1CF3E730889F490978DD
S1131DC04018308004243088210000F05FFDAA49C7
S1131DD008703088210000F059FD984801705D4C6E
S1131DE0A54800780422424392B2A2492068FEF733
S1131DF037FC00200600A0490978042251438E4292
S1131E0011D2A6492268B21812788A55895D994A76
S1131E10925D914205D0132200213620FFF77EFA0D
S1131E203FE0761CE7E7944922680B7804277B435C
S1131E30D2182260040081480078844208D28D4878
S1131E400A7804235A431219825C0255641CF2E78F
S1131E505748008867490880402201213620FFF74F
S1131E605DFA1EE06349524802880B889A4207D102
S1131E7000880880402201213620FFF74FFA10E045
S1131E80132200213620FFF749FA0AE01322002129
S1131E903620FFF743FA04E0132200213620FFF72F
S1131EA03DFA0DB0F0BD0000FCEBAD7F2802002030
S1131EB02C02002038B586B001ADA91C6846FFF796
S1131EC075F9E87801281FD1687900280DD14A4CAA
S1131ED0012020702078002807D0402201213120E1
S1131EE0FFF71CFA0220207032E06879012805D13E
S1131EF0402201213120FFF711FA29E07F2200213D
S1131F003120FFF70BFA23E0E87803281BD1687926
S1131F10002809D138480078042805D1402201213D
S1131F203120FFF7FBF913E06879012805D140223D
S1131F3001213120FFF7F2F90AE07F22002131204C
S1131F40FFF7ECF904E07F2200213120FFF7E6F9E6
S1131F5007B030BD240200204202002080B526488C
S1131F600178012905D1402201213720FFF7D6F954
S1131F701CE00078052814D104227C499A48FEF715
S1131F806FFBFFF708FD002805D11322002137203D
S1131F90FFF7C4F90AE0402201213720FFF7BEF918
S1131FA004E0132200213720FFF7B8F901BD000037
S1131FB04402002080B500F0EDF901BD10B56C4875
S1131FC001680A001206D20F002A11D001680168C4
S1131FD080224A4002606B4C206800F031FD0022F0
S1131FE0824B00F03DFD00F00FFE206000F07CF815
S1131FF010BD0000460200206C02002048020020B0
S113200010B46849684A13780C7864001C43127849
S11320100978114389002143644A1278D2000A43A3
S113202063490978890111430200D2B212020A43BA
S1132030604911406E4A118010BC7047680200204C
S113204070B56C490200D2B20C235A43895C012951
S11320500FD06949694A6A4B14781C5D01250E78D2
S1132060B540AC43504D2D7809788D402543117807
S11320705D5470BDD80000206702002010B5040034
S113208000212000C0B2FFF717F800212000C0B2E1
S1132090FEF7F6FD5B49487010BD00003C010020CE
S11320A04021594802680A430260584802680723DD
S11320B0134303602E4A13681943116011681023F7
S11320C00B4313604E212F4A1160016808220A4312
S11320D002608020C0024E490A6802430A608F49A8
S11320E00A6810430860704780B500F099F801BD94
S11320F038B5040047480470424847490860342012
S113210046490880412540480168802252030A4319
S113211002608D48290089B20912C906C90E0268F5
S113212011702900026851700021026891702C21FD
S11321300268D1700168497986220A4301684A71AC
S11321400168897902220A4301688A710168097861
S113215080220A4301680A7001684979EF220A4023
S11321600068427100F0DCF831BD0000440000203A
S11321700C90034080B500F0D3F801BD0A207349E8
S1132180087070471090034023490A6810700022B9
S11321906F4B1A7009686F4A116006216B4A1170FF
S11321A07047000056020020570200205802002009
S11321B0590200204FFF000010B5174C6648017803
S11321C02068FEF799FD2168226812788918487002
S11321D001205F490870206840785B490968C8712C
S11321E007205A49087010BDFCFF000000885340C6
S11321F0380200203C2C0000622D00003B2C000023
S113220000000020000200200C80044000900340E5
S113221080E200E04E000020340200204A02002048
S113222038B54F480178022914D14E490A88521E04
S11322300A80098800290DD103214B4A1170052118
S11322400A004A4B1A704A4A117000210A000270AF
S1132250484A11700178012911D142490A88521E55
S11322600A80098800290AD103213F4A11700421F8
S1132270414A117000210A0002703E480170334C3B
S1132280207800280AD0801E022821D9001F2AD0D5
S1132290401E01281CD9801E3ED03DE0374D2888C1
S11322A0002811D1012036490870FF20FEF790FE66
S11322B034482880244801684979FD220A4000688E
S11322C042710A20207002E02888401E288023E002
S11322D02D480188002902D100F022F802E001888B
S11322E0491E018018E029480188002910D11848A6
S11322F00078002809D01948017802220A430270A4
S1132300234801780720FEF71DFE00F009F802E0DB
S11323100188491E0180FFE731BD000000E100E0B3
S11323200E480178FB220A400270164813490880BF
S113233000200649087004480168497902220A43CA
S11323400068427170470000480000204F000020E0
S11323506A020020300200205000002069020020A0
S11323605C0200203E0200204D0000205E0200209E
S11323705F0200205D020020600200205002002065
S113238058020020102700004C0200204E020020BA
S11323906B020020F8B5C04C2068067920684079AB
S11323A06946087068460078C0210140402920D160
S11323B020684079402101432068417120680078F9
S11323C0BF21014020680170B44800780A2804D174
S11323D0FFF7A6FF0020B24908702068007880212A
S11323E001432068017020684079EF210140206892
S11323F041710225280006421FD020680079290077
S11324000143206801712068C07969468870AD482D
S113241001780A220A430270A0480178062905D0EF
S11324200178072902D00078082804D1CD48017822
S11324300420FEF787FDFFF773FF802069460978C3
S1132440020011422CD0216849790843216848715F
S113245040202168097801432268117021680978B5
S11324604906490E226811708C490A780A2A02D159
S1132470FFF756FF0EE10422924B1A709F4AD2894D
S11324809F4B1A8022681278104322681070032030
S1132490087020684079FD21014020684171F9E00D
S11324A020680079694648702068C7796846407892
S11324B0800600D4EEE0794E3078032809D0042851
S11324C016D0062847D007287DD00A2800D1C5E0B9
S11324D0E0E03800C0B2552802D10420307006E094
S11324E0A04801780620FEF72DFDFFF719FFD1E083
S11324F09C4C01213800C0B2FEF7C2FB20709A4800
S1132500077020783C2802D020783D2805D100208F
S1132510964908800120964908702078FF280ED03B
S11325202078FEF71BFC7548924909680978022255
S113253051434018801E00888F4908800AE0614892
S1132540017840220A430270FF210320FEF7FAFCBF
S1132550FFF7E6FE9EE089480168491C01600068B7
S11325600770874D8348297802681278914226D1F2
S11325707D4909780068FEF7BFFB3900C9B288427B
S113258011D15048017801220A4302702068C078B2
S1132590DB2101402068C170092030707148007847
S11325A09E4908700BE04748017812220A430270E2
S11325B06C4801780520FEF7C5FCFFF7B1FE2878CA
S11325C0401C287066E068464078400607D4654899
S11325D001780620FEF7B6FCFFF7A2FE5AE0684831
S11325E064493A000B6805785B5DD2B29A4207D021
S11325F05C4801780620FEF7A5FCFFF791FE49E050
S11326000A68127803789A4208D30278521C02703E
S113261009680078085C2168C8711EE08048017868
S1132620022901D1032101702648017801220A43BD
S113263002702068C078DB2101402068C170092045
S1132640307048480078FEF73DFC2068C0782421AB
S113265001432068C170FFF763FE1BE03800C0B27D
S1132660F0280FD03800C0B2E0280BD03800C0B238
S1132670C02807D03800C0B2802803D03800C0B2C8
S1132680002806D1FFF74CFE2068407905432068F6
S11326904571FFE7F1BD0000480000204F00002015
S11326A05802002080B55F480168C97824220A4393
S11326B00068C2705C4800780A2801D0FFF730FE39
S11326C001BD0000690200205848594908602320D0
S11326D0584908700120584908700F20574908705C
S11326E0A020574908700120704700204C49087009
S11326F04A4908705349087048707047842D000097
S11327004C020020F8B5002069460870FEF719FB5A
S11327100020FEF71BFB0C24202501264A4F3868B5
S113272000902000C0B2290000F0B0F832008A40C6
S1132730009802433A60454F386800902000C0B2C8
S1132740290000F0A3F88E40009806433E60F1BDD6
S113275080B5FDF75DFEFEF757FA3D48FDF786FEAE
S113276001BD00006B020020500000204002002048
S113277066020020340200204E02002030020020B5
S11327806A02002070B5040025002E88B047FEE7D9
S113279070B500263400FFF7DBFFFFF7A6FFFFF755
S11327A01FF9012806D0FFF7F6F8012802D12948BD
S11327B0FFF7E8FFFFF7A6FFFDF750FE174D287857
S11327C0002804D02878FEF73FFB30002870144D11
S11327D0287803281BD1582C0FD3340004202870E8
S11327E0184930000870012302221B48FEF7A4F8A0
S11327F0FFF7F6F80028F3D109E020002830802103
S113280089004843FDF76CFE641C1449088028784D
S11328100728D1D10020FFF7B5FFCDE76D020020D6
S11328206C020020480000204F000020000000003F
S113283008ED00E00020054001200540042005408B
S1132840052005405202002080E200E000E100E0A3
S1132850002D31010450000020000010540200201B
S1132860F446002804D4494200F013F8404260477B
S11328704042002905D45FD000F00BF840424942A1
S11328806047494200F005F84942604703460B435C
S1132890E6D40022030A8B420BD203098B4219D2DD
S11328A043088B422ED2411A00D2014652411046AF
S11328B07047FF2209023FD012068B4205D3121241
S11328C009028B4201D31212090203098B4219D364
S11328D000E0090AC3098B4201D3CB01C01A52415B
S11328E083098B4201D38B01C01A524143098B42A5
S11328F001D34B01C01A524103098B4201D30B018E
S1132900C01A5241C3088B4201D3CB00C01A5241B2
S113291083088B4201D38B00C01A524143088B4277
S113292001D34B00C01A5241884200D3401A52418D
S1132930CFD201461046704708B500F07DF908BDB6
S1132940F0B53A480078002859D1384840683849E9
S11329504843384940183849FFF79BFF34484143FE
S1132960344808183449FFF794FF3148414331484B
S113297008183149FFF78DFF2D4841432D480818A9
S11329802D49FFF786FF2A4841432A4808182A4957
S1132990FFF77FFF26484143264808182649FFF7DA
S11329A078FF23484143234808182349FFF771FF60
S11329B01F4841431F4808181F49FFF76AFF1B4877
S11329C041601E4D102604461A4F6068184948435A
S11329D0C0191949FFF75DFF61602960144841433C
S11329E0C8191549FFF755FF616069600835761EFF
S11329F0EBD11248C16F80228150012020700B4C12
S1132A0060680B4948430B4940180B49FFF741FFE5
S1132A1061600A4B180080300278D206520E9A1870
S1132A2013680360116098008008F0BD3C0000202A
S1132A300D6619005FF36E3CFFFFFF7F540000201A
S1132A40010042221201D21E004207D002D4521EBB
S1132A500018FCD5C10A400512058918704700000A
S1132A60F0B40125ED070F005F404FD48B4200D135
S1132A70824205D98446100062468C46190063469A
S1132A80DF184C18640D7F0D3AD0661C760537D0DC
S1132A90E61B352E34DCDB022B43DB0A0C0DC902AA
S1132AA02943C912202E0DDB1700203E06D01F003B
S1132AB0F741F3405F400026012A7741C018714175
S1132AC00DD217E01700F741F2405740F3415A4046
S1132AD0B340F3405A400026801859410AD3A21C3F
S1132AE052050FD0C207012F724117004008CB07CF
S1132AF018434908641C24054208AF4170416141F0
S1132B00F0BC7047641C21050020F9E76B400AE023
S1132B106B40ABE7F742F3D1E943F1E72442EFD14D
S1132B2000200021ECE70C00871A9C4105D2C01B51
S1132B30A141D219634169406B40AE0ADF184C18B9
S1132B40F442E7D2640D7F0DE8D0E61B362ED7DCC5
S1132B50DB022B43DB0AA4460C0DC9022943C90A34
S1132B60012E28DC04D1D6075208DF073A435B085C
S1132B70EF0A76429041994114D039423BD1B619BB
S1132B8040414941761C394204D1761C0018494120
S1132B903942FAD0B9436746B74208D9A41B240581
S1132BA02143ADE70042EAD13642E8D1A8E7E40A7E
S1132BB0E1070020A4E7202E0BDD203E1F00F34098
S1132BC0F7415F40012A002257417E4298419141DA
S1132BD00BE01700F741F2405740F3415A40B3402D
S1132BE0F3405A407E42904199410A0303D2641E45
S1132BF0B619404149410027641E24054208AE41EC
S1132C0078416141F0BC70474A1812D2400DC902A4
S1132C1008430121C9070843520D40210901521AF2
S1132C20521C06D452421F3201D4D0407047C01700
S1132C30704700207047FEE77047090D000410003C
S1132C400002000000000000000210040201000065
S1132C500000000000080106030100003A2C0000F7
S1132C600004010E0402000000000000110810001E
S1132C700000000000000000110801000000000036
S1132C800000000070B40123002413E00168001D5B
S1132C90194202D04D466D1E49190C60091D121FC0
S1132CA0042AFAD20D00960701D50C80AD1C1A40F7
S1132CB000D02C700268001D002AE7D170BC704758
S1132CC030B401220168001D00290FD00368C31825
S1132CD044680830144202D04D466D1E64191D68C4
S1132CE025601B1D241D091FECD0F8E730BC70477C
S1132CF010B5074979441831064C7C44163404E075
S1132D00081D0A68891888470100A142F8D110BD3E
S1132D1008000000280000006DFFFFFF1C020000F7
S1132D20540000200000000099FFFFFF5400000041
S1132D3084D3FFFF0000002000000000FFF7C4FC64
S1132D40002801D0FFF7D4FF00BF00BF002000BF60
S1132D5000BFFFF71DFD00F000F880B500F002F899
S1132D6001BD04090746384600F002F8FBE70000FD
S1132D7080B500BF00BF024A11001820ABBEFBE7BC
S1132D80260002000600070009000A000C000D00DE
S1132D900F00100000BF00BF00BF00BFFFF7CEFF51
S10B2DA01022273134363700FC
S9032D953A
