S00B0000524C532E7372656328
S1130000B8040020B14400000B2500000B250000BB
S113001000000000000000000000000000000000DC
S11300200000000000000000000000000B2500009C
S113003000000000000000000B2500000B2500005C
S11300400B2500000B2500000B2500000B250000EC
S11300500B2500000B2500000B2500000B250000DC
S11300600B2500000B2500000B2500000B250000CC
S1130070C94200000B2500000B2500000B250000E1
S11300800B25000037410000D54200000B2500007D
S1130090DB2400000B2500000B2500000B250000CD
S11300A00B2500000B2500000B2500000B2500008C
S11300B00B2500000000000000000000000000000C
S11300C0000000000000000000000000000000002C
S11300D0000000000000000000000000000000001C
S11300E09A1300000B2B00001D3000007735000030
S11300F0943B0000A23F0000E84400006F4A000067
S1130100E74D00002050000033520000C7530000A8
S1130110E654000028550000F0550000EA5600009F
S1130120000014002A004F00B300E70013015F0130
S11301309F01FF0137027702AD02EE026203FD0365
S1130140465200008D6A0000F0730000B277000090
S11301500E7A0000617E00000B810000898300009C
S113016024850000F8850000DC870000B8880000C2
S113017094890000F8890000DE8A0000D88B000012
S11301800000090015001D00230033004400550041
S11301906600730086009400A700B600C800FD0046
S11301A0E000F000000000FF00E0FEFF00FF80FF21
S11301B0F0FFFFFFFFFF0000FF00008000000000D1
S11301C0000000000000000000000000000000002B
S11301D000000000050000000200000024020020CE
S11301E000000000050000000200000034020020AE
S10F01F0002331323C3DFF0016020000E9
S113041070B55E080C68A04201D2108870BDB400AB
S11304200C59A04202D17000105A70BD84420DD202
S1130430761CF6B25B1EB34234DBB4000C599E4208
S11304400ED084420CD2761CF6B2F4E7741EE4B2E9
S1130450A300CB58002C14D0984212D2641EF6E7A5
S1130460751EEDB2AB00CB586900555A7100515A54
S1130470491BC01A41430800E11A01F07EF94019F2
S11304800FE0651CEDB26400145B6E00925B121BFE
S1130490C01A42431000AA008958C91A01F06DF924
S11304A0001980B270BD38B5F020000201F0BCF92B
S11304B0BD4801684A04D20FFBD0022001F088FC39
S11304C00D21FF2001F00EFA052001F081FCB74D4B
S11304D02978092001F0DCFA6978012001F0D8FAC2
S11304E0A978142001F0D4FAE978052001F0D0FAB3
S11304F02979062001F0CCFAE979072001F0C8FA3D
S1130500AB4C217C0B2001F0C3FA6979032001F084
S1130510BFFA297A082001F0BBFA617C0C2001F0B3
S1130520B7FAA979042001F0B3FA697A0A2001F034
S1130530AFFAA97A0F2001F0ABFAE97A102001F0A2
S1130540A7FA297B112001F0A3FA697B122001F09C
S11305509FFAA97B132001F09BFAE97B0E2001F09E
S113056097FA9625AD002A000321102000F044F8E4
S113057020842A000321082000F03EF8A0852A00E8
S11305800321102000F038F860842A000321082099
S113059000F032F8E0852A000321102000F02CF846
S11305A0A0842A000321082000F026F820862A00CF
S11305B00321102000F020F8E0842A000321082001
S11305C000F01AF860862A000321102000F014F8C5
S11305D020852A000321082000F00EF8A0862A00B6
S11305E00321102000F008F860852A000321082068
S11305F000F002F8E08631BDF1B586B00020002598
S1130600019000279E4C6E46317069460A82039021
S1130610029015E06B461E761B8A92B29A4272D201
S1130620984A928A984EB2426DDB039B1818039045
S11306300298401802900198801801906D1C7F1C4C
S113064069460978F8B28842684600D392E0067E8B
S1130650300001F07BFB8B48408A8A49C98A814279
S113066001D2421A00E00A1A4023E252504B5B7E48
S1130670012BCFD0002BEBD16A461676D0E7791A3E
S1130680A185E18E83B2994201D3091A00E0411A8F
S1130690E185A786E086A08DC92834DAE08DC928D3
S11306A031DA01986946097801F067F80500404895
S11306B0407E002829D147E0097E0829F1D1694606
S11306C00E78310001F059F80700678228003100E4
S11306D001F053F86083218FBBB2994201D3C91B47
S11306E000E0791A2186618F83B2994201D3091AF5
S11306F000E0411A618627876087208EC92802DAC4
S1130700608EC928CDDB002032E001282ED1684656
S1130710007E102810D1208BA94A904214DB511E70
S1130720401A80B28100081840009621490001F067
S113073021F82085208D16E06846007E082815D112
S1130740608B9F4A904202DA684645800EE0511E53
S1130750401A80B28100081840009621490001F037
S113076009F86085608D281A694648806846408883
S113077007B0F0BD05700398029D6946097E1029F3
S1130780694699D10E78310000F0F7FF07002782FF
S11307902800310000F0F1FF2083A18EBBB2994202
S11307A000D26CE7C91B6BE710F00F4094440000C3
S11307B0E401002030B45948008F002801D02828D3
S11307C001DC0A2104E0512801DA092100E00721B3
S11307D02C488171018D64234B43C47994494A7830
S11307E062439A4201D30122027000228D7865434C
S11307F09D4200D20270CD7865439D4201D301250C
S113080045700D7965439D4200D242700378447A65
S1130810A34216D08478641C012B847008D1837998
S1130820E4B29C420ED3827001234372827209E0C7
S11308300B78E4B29C4205D3827042720123837226
S113084000E082704378C47AA34216D0C478641C52
S1130850012BC47008D18179E4B28C420ED3C270EA
S11308600121C172027309E00978E4B28C4205D314
S1130870C270C2720121017300E0C27030BC7047C3
S11308809801002000000020D184000010B46948C1
S113089069494A89694B9A421FD1C278521CC27075
S11308A0D2B20A2A03DB0278022313430370C2780C
S11308B00A2A03DA0278FD2313400370604A8B8905
S11308C093420DDA03795B1C0371DBB20A2B09DB5B
S11308D0037804241C43047004E00022C270E9E796
S11308E000230371C98991420ADA4179491C417193
S11308F0C9B20A2906DB017804220A43027001E026
S11309000021417101790A2906DA41790A2903DAB9
S11309100178FB220A40027010BC7047E4010020F9
S1130920FEB5484C072001F011FA678AA58AE68AC9
S1130930072001F00BFA608A381840080190A08A59
S113094028184008E18A7118490800913A49019A27
S11309504A818881009ACA813B4D10232200CC32FF
S11309602900FFF755FD277A7843642100F005FF3D
S1130970FE2800D3FD20207110232200CC32290050
S11309800098FFF745FD47433800642100F0F5FE69
S1130990FE2800D3FD206071102322006C32210058
S11309A02C310198FFF734FDA749884200D3481E33
S11309B02085FFF76BFFFFF7FDFE03B0F0BD0000DD
S11309C0A51F00001B49102810D1A048408F1B4AC6
S11309D0904208D14878401C4870C0B20A281BDBFA
S11309E00A20487011E00020487015E0082813D14F
S11309F09648408F114A90420CD18878401C8870E8
S1130A00C0B20A2808DB0A20887008780122024351
S1130A100A7001E00020887048780A2806DA88788D
S1130A200A2803DA0878FE2202400A7070470000A0
S1130A30A84400007C02002098010020FFFF000071
S1130A40B80B0000000000208C000020F8B5060060
S1130A507F4C7E4D96229200617BFFF7CDFD688727
S1130A603000FFF7AFFF102E6CD1688F002800D143
S1130A70E7E078498882784A088AD08450881080D0
S1130A8002237448018AD1845E00901E975B8753C9
S1130A905B1CD1845E00975B87535B1CD184590037
S1130AA0565A46525B1C142BEBDB6A4E308AD084B8
S1130AB0F17800290AD1B18A69856A8C2A84AA8CC2
S1130AC06A84EA8CAA842A8DEA842985298CB279DD
S1130AD0D208D20714D531842288904201D2227AD6
S1130AE00FE06288904201D2627A0AE0A2889042C2
S1130AF001D2A27A05E0E288904201D3227B00E091
S1130B00E27AB187B08A554B884207D3002232700B
S1130B10401A984212DB288D68850FE0091AB183C8
S1130B2088B2984202DA89B2914203D2288D68854C
S1130B30002002E0717900F01DFE3070308CB0842A
S1130B403078F2BD082E7CD1688F002879D04148D6
S1130B50698FC182404A408A4E215052508D10857F
S1130B6002233C48408A4E21505259001600283630
S1130B70765A170026377E525B1C4E21505259007C
S1130B8016002836765A170026377E525B1C4E21F3
S1130B905052580011002831095A16002636315295
S1130BA05B1C142BDDDB2B4E708A4E215052F178E6
S1130BB000290AD1F18AE986EA8DAA852A8EEA8576
S1130BC06A8E2A86AA8E6A86A986A98DB279D208E7
S1130BD0D20714D571842288904201D2227A0FE080
S1130BE06288904201D2627A0AE0A288904201D2DD
S1130BF0A27A05E0E288904201D3227B00E0E27A07
S1130C00F187F08A154B884207D300227270401A8C
S1130C10984212DBA88EE8860FE0091AF18388B2A5
S1130C20984202DA89B2914203D2A88EE886002063
S1130C3002E0717900F09EFD7070708CF084707821
S1130C40F2BD0020F2BD0000FE030000E40100201C
S1130C507C42000098010020480100208913000014
S1130C60F0B44D4A118A138B4C488B4201D2C91AF5
S1130C7000E0591A0180518A538B8B4201D2C91A60
S1130C8000E0591A4180908DC92808DAD08DC9280E
S1130C9005DA108EC92802DA508EC92801DB00203B
S1130CA000E001203E4C14211425FF232E333C4E3A
S1130CB036882788B74201D2F61B00E0BE1B9E424D
S1130CC000DB0020A41C6D1EF1D1354C2500283515
S1130CD0268D2F88B74201D2F61B00E0BE1B9E4230
S1130CE000DB0020AD1C491EF2D11071F0BC70472E
S1130CF070B42C48C17C284A1279012A23D1027885
S1130D0082754378037083784370224B5C781B7838
S1130D10A34201D2847000E08370437B002B08D18E
S1130D201300042B00DD0623C37582740122427371
S1130D302CE0837C934229D21300042B00DD06238C
S1130D40C375827422E0428D0284C38E83854284FB
S1130D50C38582840386C2844386028583860022F7
S1130D6042738274030003241A70C57D002908D0DD
S1130D700021012D01DDAD1E04E02E0002D06D1E08
S1130D8000E00121C5755B1C641EEDD1C17470BC0B
S1130D907047000094020020980100209002002077
S1130DA048010020E4010020F8B5294B587A69462F
S1130DB008700022274D284CA07B052800D9EBE1C0
S1130DC001A14000095A8F440A004201D8011A01C6
S1130DD0480218031878012804D01878022801D092
S1130DE0032802D1A97C0A3100E0A97C58786E4618
S1130DF030709878E67B002E03D001266F463E7053
S1130E0003E06E463678012E2BD1144EF68A6F46D7
S1130E107E80124EB68A26847F88A78566846F46B4
S1130E207F88E785A6846F467F882786E6846F4699
S1130E307F88678626856E467688A6862280A2707D
S1130E40E27507280CDD00206E46327009E000BF11
S1130E50DA0100207C420000E40100209801002017
S1130E60401C9870684600785870D878C9B2884297
S1130E7002D3DA70227501E0401CD87022769A7190
S1130E8068460270E07D00282AD0DA700121A1733F
S1130E905A711E78042E02D1EE7CB61C0FE0032E8C
S1130EA003D1EE7CF61C022109E0022E01D0012EB2
S1130EB003D1EE7C361D032101E0EE7C361DF6B233
S1130EC0B04204D3207D884201D30420A073A07DC6
S1130ED02D7DA84204D3207D884201D30520A07330
S1130EE0E2735AE1A282DA70DA719879401C98713F
S1130EF0697DC5B28D4206D3C0B2491D884201DA6C
S1130F00012200E0A2732276032043E19A71DA7190
S1130F101A7101215E79761C5E71207DF6B2042E71
S1130F2002DD0021A273401C2176617DE77D1E78DD
S1130F30042E0ED1042F07DD491CEE7DCFB2BE4234
S1130F4002D200210426A673AD7DC6B2AE4224D3DC
S1130F5020E0032E0FD1042F07DD491CEE7DCFB214
S1130F60BE4202D200210426A673C6B2AD7D6D1C1A
S1130F70AE4212DB0EE0042F07DD491CEE7DCFB23A
S1130F80BE4202D200210426A673C6B2AD7DAD1CBA
S1130F90AE4202DB00200222A2736175207501209B
S1130FA0F8E0DA71A2829879401C1A71C1B21E2944
S1130FB00FDB0E001E3E052E10D30E00233E1E2E08
S1130FC007D30E00413E052E08D30E00463E1E2ECA
S1130FD001D2002106E06439052901D2012101E092
S1130FE00021A2732176E17D6E7EB1420ED3694663
S1130FF00978491C6E463170694609782D7EA942EC
S113100004D3002069460A700421A1739871022058
S1131010C0E05A719A7122751A7203202076268FC5
S1131020197804290CD1042E02DCAE7EE97E3DE061
S11310303C2E02DA2E7F697F38E0AE7FE97F35E00F
S1131040032910D1042E03DC20216E5C212108E049
S11310503C2E03DA22216E5C232102E024216E5C03
S11310602521695C22E0022910D1042E03DC26210B
S11310706E5C272108E03C2E03DA28216E5C2921CE
S113108002E02A216E5C2B21695C0FE0042E03DC54
S11310902C216E5C2D2108E03C2E03DA2E216E5C9F
S11310A02F2102E030216E5C3121695CE57D042D45
S11310B00BDA1979B14202D31A71A07301E0491C09
S11310C01971022D65DB1A7163E062DDD879401C69
S11310D0D8711A71C0B288425BD3DA710520A0734B
S11310E057E006202076218F187804280FD1042990
S11310F003DC3220285C332128E03C2903DA342045
S1131100285C352122E03620285C37211EE00328A4
S11311100FD1042903DC3820285C392116E03C294E
S113112003DA3A20285C3B2110E03C20285C3D2176
S11311300CE0022811D1042903DC3E20285C3F2165
S113114004E03C2904DA4020285C4121695C11E078
S113115029004131487889780CE04135042902DCC2
S1131160E878297906E03C2902DA6879A97901E06E
S1131170E879297A1A71DA711D7A6D1C1D72EDB243
S1131180854202D30420A07302E0E07D884200D3AC
S11311901A72A07BE07300E0A2736846007858726C
S11311A0F1BD10B453488179C908C90718D48178AE
S11311B0491C514A514B9B7B052B05D1937BCCB2E7
S11311C0A3420BD2D47B04E0137CCCB2A34205D25D
S11311D0547CCBB2A3429241D20F03E0002201E03F
S11311E000210022C270817010BC704710B5082025
S11311F0FFF72CFC424C002834D0052801DA0120EA
S113120030E0411F022901D802202BE001000839F7
S1131210022901D2032025E001000A39022901D262
S113122004201FE001000C3901D105201AE001005F
S11312300D3901D1062015E001000E39032901D82A
S113124007200FE00100123901D108200AE0010053
S1131250133901D1092005E01438062801D20A20E7
S113126000E00B2060706078E0701020FFF7EEFB68
S1131270002834D0052801DA012030E0411F02297A
S113128001D802202BE001000839022901D20320F1
S113129025E001000A39022901D204201FE00100DF
S11312A00C3901D105201AE001000D3901D10620C5
S11312B015E001000E39032901D807200FE00100D1
S11312C0123901D108200AE00100133901D10920A3
S11312D005E01438062801D20A2000E00B20207013
S11312E02078A070FFF7BCFCFFF702FDFFF75CFD60
S11312F010BD0000980100207C420000E4010020A1
S113130094020020F8B59D4D002028769C48007872
S1131310C006C00E9A4908700120B1490870984867
S11313204078B7210140902008439549487014241F
S11313309626B600320001211020FFF75DF9688778
S1131340002801D1641EF5D1A64988421BDAFE2487
S1131350A54F297C491C2974C9B20B2000F098FBC5
S1131360052000F035FD320003211020FFF744F979
S11313706887297C9D4A8018B84247D3E02945DA1A
S1131380641E4BD0E5E79A4988424BDBFE24964F16
S1131390287C411E2974C9B20B2000F079FB05207A
S11313A000F016FD320003211020FFF725F96887AD
S11313B0297C8E4A8018B8422CD320292ADD641E49
S11313C02CD0E5E7E02962DA641E68D04AE0884957
S11313D0884268DBFE24854F687C411E6974C9B26B
S11313E00C2000F055FB052000F0F2FC3200032134
S11313F00820FFF701F96887697CC0197A4A90428E
S113140049D3202947DD641E49D0E5E7E02905DBFF
S1131410E02002E0202901DC20202874297C0B2014
S113142000F036FB688FA88728846884A884E88441
S113143028856885287C694608700123012287482D
S113144000F07AFD1424320001210820FFF7D4F8BB
S11314506887002801D1641EF5D162498842B6DA52
S1131460FE24624F697C491C6974C9B20C2000F0E7
S11314700FFB052000F0ACFC320003210820FFF72D
S1131480BBF86887697CC019574A90429AD2E02910
S113149005DBE02002E0202901DC20206874697C5F
S11314A00C2000F0F5FA688FE887A885E88528867F
S11314B06886A886E886687C69460870012301224C
S11314C0964800F039FD00212980A9700120687632
S11314D0A9822B490A78102313430B7040490870E2
S11314E0F1BD10B401208E494A79130901221A4032
S11314F006D100230B808B700E248C750B7603E0D1
S1131500CB7E002B00D18876CA760B7F8A7E012A97
S11315100DD1087600220A755B1CDCB2052C02DDB5
S113152000238A760A760A808A70C8738A730B77D6
S113153010BC704710B47A48027B0021C37F9342E9
S113154003D201238377C27703E0C277827F012A23
S113155010D1012201230175447F641C4477E4B255
S1131560062C01DB81770023037601808170C2732E
S1131570817300E0417710BC70470000E401002053
S1131580EC00002010B5684C03210B2000F0FAFD9C
S11315906449414308000D2100F0EFF8000BA080DE
S11315A0A1786078A28813004C2B06DA0021401C35
S11315B0C2B2142A11DB01220EE0503A652A03D28A
S11315C000210020217008E0BA2B06DB0020491C12
S11315D0CAB2142A01DB022222706070A17010BD0D
S11315E064020020D4AD0000E90300002C52FFFF88
S11315F0BDB1000070B500244C4D2879012801D1FB
S11316006C702C704648017E002902D0012169715A
S11316100BE06978491C6970C9B2052902DD6C7058
S11316200121A9716979012917D1012606766C7007
S1131630A878401CA870C0B202280EDBAC7000F081
S1131640E6FEE878022802DB0020EE7100E0401C90
S1131650E8702879012800D16C7170BD1400001065
S113166038B5012432490C703248402142790A438A
S113167042710278114301702F4D2868E103014340
S11316802960E120000200F0CFF8A868800B204018
S1131690FBD0A320000200F0C7F8A868800B20400C
S11316A0FBD01F480079400908D0042806DC00F06C
S11316B0EBFE1E4804700021417104E000201B4928
S11316C0087000F0E7FE0020184908711B480178F3
S11316D0E3220A4002701A48016804220A430260A5
S11316E030BF00F0D7FE31BD38B5164C20688021DC
S11316F009020143216000F0FFFE002000F001FF19
S11317000125E068800B2840FBD0E420000200F0B3
S11317108BF8E068800B2840FBD031BD1600001028
S1131720E4010020360F00008A0200207402002029
S1131730A402002000A0064008F00F4000D007409B
S113174010ED00E004F00F40F446002804D44942B0
S113175000F013F8404260474042002905D45FD0AE
S113176000F00BF8404249426047494200F005F856
S11317704942604703460B43E6D40022030A8B42E6
S11317800BD203098B4219D243088B422ED2411A41
S113179000D20146524110467047FF2209023FD051
S11317A012068B4205D3121209028B4201D3121284
S11317B0090203098B4219D300E0090AC3098B42C9
S11317C001D3CB01C01A524183098B4201D38B014F
S11317D0C01A524143098B4201D34B01C01A5241F2
S11317E003098B4201D30B01C01A5241C3088B4237
S11317F001D3CB00C01A524183088B4201D38B0022
S1131800C01A524143088B4201D34B00C01A5241C3
S1131810884200D3401A5241CFD201461046704745
S113182008B5C046C04608BDF0B403000024002734
S1131830F02109020140D0200002814217D118068C
S1131840400E1906890E41401806C00E484019067C
S1131850090F41401806400F48401906890F4140BE
S1131860CA07D20F1806C00F504018430300874818
S11318700121C268920B0A40F9D042684D03154316
S11318804560CA034568060D2E4346601500E540D1
S11318902B4204D00568CE022E43066003E045685F
S11318A0CE022E4346600568060D2E430660C568C9
S11318B02D0B01262E40B4460F26351B6646AE403E
S11318C03E433700641C102CDCDB016892080A4399
S11318D00260F8B2190A884201D1012000E0002018
S11318E0F0BC7047FCB40200002301938C08CD08BF
S11318F0D60900010F000743780000905706F80F3F
S1131900704084469006C70F60464740BC46D706E1
S1131910F80F6746784084461007C70F6046474073
S1131920BC465707F80F6746784084469007C70FB0
S113193060464740D007C00F7840EF07FF0F47408D
S1131940E007C00F784084468807C70F60464740C9
S1131950C807C00F78400127474000980743780024
S113196084465708574090087840D70847401009E4
S11319707840570947409009784045406C404808F2
S113198060404140C807C00F464060460643B0006F
S11319908721090401433D4A0120D468A40B204057
S11319A0FAD08024A401506820435060A502160D8B
S11319B00198009151683143516000992F00DF4034
S11319C00F4004D01168A7080F43176003E0516863
S11319D0A7080F435760116831431160D768F904B1
S11319E0C90F1727FF1AB940014308005B1CD9B27D
S11319F01829DFDB11680C4314600540681E804120
S1131A00C00FF6BC7047F8B4020000210020120396
S1131A108E252D041543CB4A0123D468A40B2340FF
S1131A20FAD080239B0154681C4354609C020095A7
S1131A305568160D2E4356609D08009E2700CF4022
S1131A40374003D016683543156002E056683543C5
S1131A5055601568160D2E431660D668F504ED0F13
S1131A601726761AB54005432800491CCDB2182D17
S1131A70DEDB11680B4313600104090E8E2901D1CA
S1131A80C0B200E0AA20F2BC7047000004F00F408E
S1131A9038B50D00411E132900D99AE001A2525C09
S1131AA052009744091620202D2D3D3D4C515B5B7F
S1131AB096626D727C818B0E0020FFF7A4FF0021DB
S1131AC080E00020FFF79FFF0021F9220240680018
S1131AD07BE00020FFF797FF0021FE220240E80789
S1131AE0C00F104373E0032801D1022400E0042452
S1131AF02000FFF788FF2100C206D20E680164E0CF
S1131B00052801D1022400E004242000FFF77BFF14
S1131B102100E3220240AB001C201840104356E091
S1131B20072801D1022400E004242000FFF76BFF02
S1131B302100FC220240A807800F104347E0052043
S1131B40FFF761FF05213DE00520FFF75CFF05215C
S1131B50F82202406807400F104338E00B2801D1F7
S1131B60012100E00321280031E00520FFF74BFFAD
S1131B700521F7220240E80008231840104326E01C
S1131B800720FFF740FF07211CE00820FFF73BFF79
S1131B900821F02202402807000F104317E0092013
S1131BA0FFF731FF09210DE00920FFF72CFF092180
S1131BB0F02202402807000F104308E00E20FFF730
S1131BC022FF0E210207120F28011043C0B2FFF7B3
S1131BD089FE32BDFEB5002400256A4654705A4A77
S1131BE0D480010600D50124C10600D5E41C0107F8
S1131BF000D5E41C410700D5641C810700D5641C92
S1131C00C00700D5641C4F48C0684104C90FFAD00E
S1131C104C4F786880218901014379600026802037
S1131C20000201907868390D01437960012000F0C9
S1131C30DBF801983041C3210902014005D038681E
S1131C40802109010143396004E078688021090199
S1131C5001437960380D396808433860012000F089
S1131C60C3F8F868C004C10F0F20801B81402943CA
S1131C700D00761CF0B21028D4DB2804000E324983
S1131C8008704D707968802212010A437A6000213D
S1131C9022062ED06A46947011703D460027002417
S1131CA02E0D686830436860012000F09DF82868B4
S1131CB006432E60012000F097F8E868C004C10FC5
S1131CC00F20C01B814021430C007F1CF8B2102858
S1131CD0E6DB1D4869460978490040184480694696
S1131CE00978491C6A4611706946097892789142CC
S1131CF0D4D30026134C270D6846457860683843D2
S1131D006060012000F070F82068384320600120F2
S1131D1000F06AF8E068C004C10F0720801B81400E
S1131D2029430D00761CF0B20828E7DB06498D75BF
S1131D302268FB0013432360887D401E8041C00F4E
S1131D4003B0F0BD04F00F401000002010B50400F3
S1131D50210080200140600702D008004021014397
S1131D60E00602D5080034210143200702D508000B
S1131D702A210143D02000020843FFF755FD01202A
S1131D8000F026F82000FFF725FF10BD0E4801786B
S1131D9002220A4302700D494A78FF2A08D0827051
S1131DA0C278FE2313400978CA07D20F1A43C270BF
S1131DB0402102790A42FBD0427820231343437026
S1131DC0027911430171704700400640FE03000090
S1131DD0002808D0C821090100BF491E0029FBD1F1
S1131DE0401E0028F6D17047010004D0002800BF2F
S1131DF0401E0028FBD1704730B500244B49FFF743
S1131E00BCFC401E4A4980228B79134201D14948C7
S1131E1030BD3F230D786D0611D40D78154207D0DF
S1131E200A781A403F250540AA4201D0A74830BD90
S1131E300A78C025154003402B430B7005E0097850
S1131E4019400340994200D0A04C200030BD10B48A
S1131E50010000209F4A3023137110701223137263
S1131E600B0C5372012313705172090A11729849B1
S1131E700B68802464021C430C6080211171137967
S1131E800B42FCD01179890600D593481179C90613
S1131E9002D50100AE480843032113790B4202D056
S1131EA00300AC48184312790A4202D00100AA4840
S1131EB0084310BC704730B402000020854B302426
S1131EC01C71187011241C72140C5C7201241C7097
S1131ED05A72120A1A7202221A700A0A5A720322D7
S1131EE01A7059727A490C6880256D0225430D6079
S1131EF0802119711C790C42FCD01979890600D50E
S1131F0075481979C90602D5010091480843197921
S1131F10114202D001008F4808431979114202D0BE
S1131F2001008D48084330BC7047000040420F0058
S1131F300000024014300000FEB50C0000210191A5
S1131F40694600250D80002C00D1B0E0160000D1B8
S1131F50ADE080214905884200D2A8E08119491EDC
S1131F607E4A914200D3A2E069468B70012B0FD1C7
S1131F70761CB1B24A1E07D0230001991D78491975
S1131F805B1C521EFAD101910199CA43521C019261
S1131F9045086D00471BFFB2002302226946280052
S1131FA000F09CF8002800D181E00220C01BB1B2EF
S1131FB0884217DB68462178C155641C7F1CFFB238
S1131FC0761EB1B2012902D03004F3D118E0C01951
S1131FD069468978012901D1019900E021780170CD
S1131FE000260DE0012F0BD8B81E36186846C0191C
S1131FF00221C91B22780270641C401C491EF9D1BD
S11320006846007807026846407807432800FFF7CF
S11320101EFF00284BD139002800FFF74CFF002891
S113202045D1AD1C2F00B0B2022819DD20786946D5
S1132030087060784870A41C09780F0207432800D0
S1132040FFF705FF002832D139002800FFF733FFDE
S113205000282CD1AD1CB61EB0B20228E6DC2F003D
S1132060002530042ED0002302226946380000F0F7
S113207035F800281BD068464019B1B2012918D0A0
S113208021780170641C6D1C761E3004F3D16846FF
S113209001780C02407804433800FFF7D8FE00288A
S11320A005D121003800FFF706FF00280AD00020E0
S11320B009E069468978012902D101990170E6E7AE
S11320C02178FBE7012003B0F0BD000018300000C8
S11320D00C3000F00200024008300000F0B40C00A4
S11320E00021012B00D1521C002C0BD0150409D067
S11320F080256D05A84205D395B245196D1E174E6E
S1132100B5421FD3002002E015041BD10120F0BC0E
S113211070470020FBE700780918C8B2401E8041D0
S1132120C00FF4E70778401C2770641CC919521EBD
S113213097B2012FE8D12D783542EAD0012BEAD0AD
S1132140057825708026064D2F783742EAD1E0E7DE
S113215010300000113000001230000000010010A7
S11321600600024012480168802292050A43026078
S113217010480169C20C0A43026138210160002140
S11321804160704770B50B00002219000AD080240A
S1132190094D28602E682640FCD02E69B6B29219EB
S11321A05B1EF6D11000FFF7E8FA80B270BD0000A4
S11321B00C80044008B0034000B00340012099495A
S11321C008700020984A1070984908807047984811
S11321D001780F2901DB002100E0491C01709549B9
S11321E00A78F023134000780007000F18430870A2
S11321F00120914908707047F8B58E4D8F4C2078B6
S1132200EF210140287AC006C20F16010E43267042
S11322106178EF200840697A8906CA0F17010743DD
S11322206770287B207180011921FFF7A6FA844981
S11322300880F006C00E297A49094901014321703A
S1132240FE20A1780140AA7AD307DB0F0B43A370C9
S1132250A97BA379F0221A400B07DE0FF6004B0787
S11322605B0F33431343A371F0223A406E7A36076F
S1132270360F164366708F221A4070230B401343A7
S1132280A371297C6F4A1578FB232B404D07EE0F71
S1132290B5001D43F7232B400D07EE0FF5001D433A
S11322A02840CB07DB0F03431370FEF77AFF0720A8
S11322B061780901A279120902400A43D2B2112AB3
S11322C00ED0132A0FD0522A0FD0532A10D0952A99
S11322D011D0D22A11D0D32A10D0D52A10D011E08F
S11322E00121012010E0022000E0032001210BE085
S11322F00420022108E0052000E00620032103E079
S1132300082000E0092004214F4A11704F49087049
S113231050204F490870F1BD10B54E484E498A8986
S1132320824202D0C989814202D100204B490870FF
S1132330FFF7D7F8FFF7FEF83E480178C906C90E43
S1132340464A127852010A43027001213A4B19702D
S11323504278434B1B78002B02D00823134301E03F
S1132360F7231340437042783E4B1B78002B02D076
S11323701023134301E0EF231340437042783A4B98
S11323801B78002B02D04023134301E0BF231340EA
S113239043704278354B1B78002B03D080231343C2
S11323A0437002E05206520E4270314A1388427959
S11323B0FC2414409A05920F2243427103712D4B61
S11323C01B78C3702C4B1B7883712C4B1B780A2B06
S11323D000DB0A231207120F1B0113434371837896
S11323E0274A12780A4202D002241C4301E0FD2449
S11323F01C40847083785408920822430A4202D015
S11324000421194301E0FB211940817010BD1D48CE
S1132410017801220A4302700178FE220A40027008
S113242070470000A30200204C0200204E0200204E
S1132430A2020020EC00002064020020E801002039
S11324401C0200209E010020DA010020F00100207F
S11324509D010020FFFF0000A0010020FC010020DE
S1132460090000200A0000200B0000200C000020BE
S1132470280000200500002004000020FA010020AC
S11324807C02002003A006401748016840220A434A
S11324900260704714481BE01448016801220A4393
S11324A00260114801688022D2010A430260016877
S11324B0C022D2000A4302608C214160802149037A
S11324C00B4A13680B4313600A4A136819431160DB
S11324D001684022914301607047034801688022EB
S11324E00A4302607047000000D003400C8004409F
S11324F080E200E000E100E080B500F065F8002033
S113250002BD80B500F002F802BDFEE780B50020F0
S113251000F060F8002002BD80B500F089F801BD2C
S113252080B500F086F801BD10B50024092801DB50
S1132530052403E02649087000F088F8200010BD47
S113254080B500F07AF8002002BD70B40A000409D6
S113255041080D00454086086E4025007540AD01D8
S113256040263540C6084E40744041096140CC01C4
S1132570E1437F24A1432943012A09D1C022024017
S1132580C9B28A4201D0FF2103E08106890E00E02E
S11325900143C8B270BC704710B43C2901D07D29F6
S11325A000D10021027813000AD080235B00401C74
S11325B0047809198CB29C4200DBFF39521EF6D113
S11325C0C843C0B210BC704780B500F01FFA01BD0B
S11325D05002002030B45F485F4941615F490A6896
S11325E080235B0313430B605D4900220A703F2381
S11325F04B708A702C23CB704B7986241C434C710E
S113260002238C791C438C710C78802525430D7032
S11326104C79EF2525404D710479FB252540057142
S1132620504C84810270487903434B7130BC70472D
S113263081E00A2047490870704746494A6910708A
S1132640002048700A6106200870704710B5414C9C
S1132650E1786069FFF7A0FF61694A1C0B78D054E8
S1132660012060704878404908700720207010BD30
S113267038B53E4803783E490A88022B0AD1521ED7
S1132680140416D103233B4C237005233A4C2370C6
S11326903A4C09E0012B0CD1521E140409D1032336
S11326A0344C23700423364C237000240023354D0E
S11326B02C700A800370274C2078002808D0801ED4
S11326C002281CD9001F20D0401E012817D931BD73
S11326D0A089002810D101202B490870FF2108206F
S11326E000F0C2F91F48A081BE480178FD220A40CB
S11326F002700A20207031BD401EA08131BD2089A6
S1132700002810D0401E208131BD608900280DD1E1
S11327106078002807D02079022101432171A17833
S1132720072000F0A1F900F005F831BD401E6081DA
S113273031BD000000BF07480179FB220A40027145
S11327400849818100210170A648017802220A43C8
S11327500270704704010020500200200C800440E5
S113276000A006401027000007A00640AB0200208E
S11327709E02002045010020AD020020AE02002090
S1132780AF020020AC020020A7020020F8B5964C4E
S113279020796679954DC0213140402915D1607961
S11327A0014361712078BF210140217028780A28F3
S11327B004D1FFF7BFFF00208D49087020788021E5
S11327C0014321706079EF2137E00227022108429A
S11327D014D0207901432171E07928790A21014339
S11327E029712878062803D0072801D0082803D1A6
S11327F0A978042000F038F9FFF79CFF80200642F6
S11328001ED06179084360714020217840220A4338
S1132810227021784906490E217029780A2900D1AD
S1132820CDE0042129717349C9892981217808439C
S11328302070032028706079FD2101406171F1BD91
S11328402079E679810600D4CBE0297803290AD0DF
S1132850042911D0062937D0072900D183E00A2999
S113286000D1AFE0F1BD552E00D083E004202870E4
S1132870012061490870F1BD01213000FFF765FEB8
S1132880A870EE703C2801D03D2805D100215B4A98
S1132890118001215A4A1170FF280CD00100002038
S11328A000F0E2F853486969097849004018801E2D
S11328B000886881F1BD2879402101432971FF21F5
S11328C0032000F0D1F87AE02869401C28610670E2
S11328D0686969780278914241D1E978FFF75CFE32
S11328E0B04232D1FFF788FC012628790121014347
S11328F02971E078DB210140E17009202870A97872
S1132900022000F0B1F8E07824210143E170287836
S11329100A2801D0FFF70EFFA8783C281FD1686968
S1132920417800291BD18178FF2918D1C178FF296A
S113293015D10179FF2912D14179FF290FD1C0792D
S1132940FF280CD12F48067009E028791221014391
S11329502971A978052000F087F8FFF7EBFE687865
S1132960401C6870F1BD400604D569786869425C12
S1132970964204D0A978062000F076F81FE0027889
S11329808A4205D3491C6970C9B2405CE071F1BD4B
S113299000201D490870FFF71AFC28790121014322
S11329A02971E078DB210140E17009202870A978C1
S11329B0012000F059F8E07824210143E170FFF789
S11329C0B9FEF1BDF02E07D0E02E05D0C02E03D005
S11329D0802E01D0002E04D1FFF7ACFE60790743AE
S11329E06771F1BD05A0064000A006400401002067
S11329F0A7020020B84300007802002088020020CB
S1132A0086020020B1020020F1010020402110487C
S1132A1002680A4302600F480268072313430360F5
S1132A20C2681143C160C16810220A43C2604C21CC
S1132A300161016808220A4302608020C00206493D
S1132A400A6802430A6005490A681043086070472F
S1132A500C8004400090034080E200E000E100E0CC
S1132A6080B5FFF705FE01BD80B5020003D1080063
S1132A7000F014F801BD012803D1080000F084F827
S1132A8001BD022803D1080000F04EF801BD08285A
S1132A9001D10800DBE000F0AAF801BD70B5040024
S1132AA000207E490870200000F0FEF87C4E707013
S1132AB0FF2832D07B494200101880000D18287876
S1132AC0012812D1A86800788349095C002924D020
S1132AD082490C5C200000F0E7F87070200000F0E0
S1132AE08AF96878FFF720FD70BDA978012917D10C
S1132AF0002804D10021200000F0F4F8F1E7784C1C
S1132B002078002809D091480078032805D000F0E7
S1132B10D7FA2078401E2070E3E7FFF7FDFC70BD74
S1132B206878FFF70DFD70BD70B504005D485C4921
S1132B3049784A005118890041180E794D790120CD
S1132B40834B18700978002904D10121200000F07A
S1132B50C9F80CE011290AD17E494978002904D129
S1132B604E490870FFF7DCFC01E000F091FB012DF9
S1132B7006DB7948FF21F2B28154761C6D1EFAD12E
S1132B80200000F009F970BDF8B50124704A1470F2
S1132B90434D2978012903D10021704B1970297004
S1132BA0070000F081F806006E7000F055F8300060
S1132BB000F00AF9380000F0EFF83D2F16D168480C
S1132BC001884B1E038067480221674A9BB2002B91
S1132BD006D11370654A11705C4A11700370F1BD1F
S1132BE0FA23DB00624D2B8014700170F1BD38B5FF
S1132BF005000C00200000F057F829494870ED1E2C
S1132C00042D1ED80121554A11703C2C0BD10321EF
S1132C10584A1170584A11700221584A1171002102
S1132C202F4A117008E03D2C08D103214F4A11703E
S1132C300621534A117100214A4A11700321434A63
S1132C40117000F0C1F8200000F0A6F831BD00F0CA
S1132C50A3F8FFF765FC01BD30B412494200121815
S1132C6092008B1819795A791C78012C05D100240B
S1132C70194D9B681B78EC5401E0112C0BD0012AF0
S1132C8006DB354BFF24CDB25C55491C521EFAD1EC
S1132C900021114A115430BC70470000A7020020E3
S1132CA0A00200200C43000001000420354A53799F
S1132CB08B4210D0032013798B420CD00220D3789E
S1132CC08B4208D0012093788B4204D000205278A4
S1132CD08A4200D0FF207047640200203D0100209A
S1132CE0B002002030B42848427853009B189B005F
S1132CF0264D6A1CD45C174A1470ED18EB78002931
S1132D0016D1A968002906D00978214C2478A1425B
S1132D1001D10121017001201E49C4B215786D1C36
S1132D20AC4211DADDB24D5D1555401C5B1CF4E775
S1132D30601C012808DD511C16480A78DDB2425592
S1132D405B1C491C641EF8D130BC7047450100204F
S1132D50A5020020500200205C020020A6020020F0
S1132D609C020020AC020020AB020020AF02002035
S1132D709E020020AD020020AE0200202C010020A3
S1132D801C0100203C010020A00200200C43000094
S1132D90D4430000EC0000201D4909781D4A127834
S1132DA04B0013431143890019431B4A1278D20084
S1132DB00A431A4909788901114300020843184952
S1132DC001401848018070471749420010188000DC
S1132DD0085C01280ED01548154909784018154992
S1132DE00978027801238B409A430A4B1B788B4065
S1132DF013430370704710B504000021FFF772FFFE
S1132E0000212000FFF7A1FB0B49487010BD000012
S1132E10A5020020A6020020A7020020A80200208C
S1132E204FFF0000980200200C430000EC0000203B
S1132E30B5430000B643000050020020F1B594B041
S1132E4010009E4A12786B46DA7003267F229A702D
S1132E5014AA14780500FF271F705F701278103AC7
S1132E6012D0123A1AD00C3A00D192E0823A00D130
S1132E70D2E0921E00D1A5E0521E00D1D7E0D21EAE
S1132E80012A00D8C1E0D8E0012900D0D5E002260B
S1132E9050216A4691700400FF25CEE0012900D03C
S1132EA0CBE062216A469170010085290ED101238D
S1132EB0032203A91807FFF711F90626F12403A832
S1132EC0077841786A46117080789BE086290ED194
S1132ED00123032203A99548FFF700F90626F124EC
S1132EE003A8077841786A46117080788AE08729B8
S1132EF00ED10123032203A98D48FFF7EFF806261C
S1132F00F12403A8077841786A461170807879E043
S1132F1088290ED10123032203A98648FFF7DEF88E
S1132F200626F12403A8077841786A461170807850
S1132F3068E0012907D10123012203A97E48FFF794
S1132F40CDF87E4908E0022912D10123012203A908
S1132F507B48FFF7C3F87B4903A80278FF2A02D114
S1132F606420087000E00A70042613240F7864E0DB
S1132F700A2904D1052613247348808905E00B2906
S1132F8030D1052613247048C089070A69460870A1
S1132F9053E0012951D16E216A469170852805D0EC
S1132FA0862803D0872801D0882801D1F12444E061
S1132FB0012805D0022803D00A2801D00B283CD1CF
S1132FC013243AE0012938D10626F2216A46917089
S1132FD0010007D1AB4801880C000D0A41880F009D
S1132FE0090A0DE02039202927D201A900F0CDFAE1
S1132FF0542822D101A8047845788778C1786A4694
S1133000117000796946487017E0012915D101262D
S113301014A8007840300CE09B48C1680088C000C8
S11330200818C079254908700126F02001E001261E
S1133030F32069468870FF24FF2594480321017119
S11330400121C1806946CB78C1680288D2008B54C3
S1133050C168491C0288D2008E54C168891C028848
S1133060D2006B469B788B54C1680288D2008918C1
S1133070CC70C1680288D20089180D71C1680288B9
S1133080D20089184F71C1680288D20089186A4633
S113309012788A71C1680288D20089186A46527807
S11330A0CA714088A54908800120A5490880A5491E
S11330B00870A549087015B0F0BD00004401002057
S11330C01CB57248C2680179002928D0052926D088
S11330D00188CB00D2186B4614781C7054785C704D
S11330E094789C70D478DC7014791C7154795C7178
S11330F094799C71D279DA71C288521EC280130409
S113310001D1052300E004230371120407D00389CD
S11331105B1E994201D1002100E0491C0180082274
S113312069468A4800F05CFA13BD000004000010F0
S1133130080000100C000010100000100700002010
S11331401200001008000020A001002070B5417892
S11331500A0903D0022A59D01FD370BD0807000FF3
S113316006284FDC02257A490D700020794A107038
S11331700124B54A147044490860C88008710122CA
S1133180724800F07FF9B1490C70B1480470B1483D
S11331900178062973D0057071E00902F02212014A
S11331A00A4080781418A4B2E01F05282AD2FA2015
S11331B0C000A949088002206649087000253249E8
S11331C00D60CD800D710122604800F05BF9641F31
S11331D020000621FEF7CEFA060020000621FEF7A5
S11331E0C9FA002900D0761C994806700120974935
S11331F008709548057097480178062941D0042144
S1133200017070BD00209349087070BDFA20C000A1
S1133210914A108002244F4D2C708C480278090783
S1133220090F914215D1521CD1B2102900DB0022A2
S1133230027087480178491E0170012212494348EF
S113324000F020F983480178062909D0042101708F
S113325006E006203E4A107080490870002028705D
S11332607B48007800280CD139490C702870012063
S11332707549087077480178062900D0047000F079
S11332806BF870BDCC4300002C0100201C01002011
S113329038B573484278C17883781B097F2A10D0E7
S11332A07E2A0ED06F4C2478944201D0B02905D1E7
S11332B06D4C2478944204D0B02902D100202249D4
S11332C011E064490C78022C01D0042C25D17E2A0B
S11332D00BD15D4C2478002C1FD1FA20C0005E492C
S11332E0088002201B49087031BD022C15D1002230
S11332F0554C22705D4B1A60DA8005241C715C4BBE
S11333001A60DA801A7102230E4D2B70104D2A7048
S1133310524C23700C4B1A7007E04B4C2478032C4E
S113332001D1022B08D07E2A01D0042200E006221B
S11333300A70401CFFF70AFF31BD00009A0200200A
S11333409C020020AF020020B002002051020020A5
S1133350AD020020AB02002010B54548C1680088CA
S1133360C000081801787E290CD100F007FB00206A
S1133370384908700221344A1170354908703349BC
S1133380087010BD41780909012901D1C07800E015
S113339080780022374B01211C78844215D1364CA9
S11333A0A15410280ED0222840D02E2841D0B02875
S11333B037D0B2282AD0B32835D0B6282CD0B72895
S11333C027D010BD00F02DF910BD01225C78844295
S11333D0E5D002229C788442E1D00322DC78844246
S11333E0DDD004221C798442D9D005225C79844240
S11333F0D5D006229C798442D1D00722DB7983423E
S1133400CDD011220021FFF719FD10BD00F067FA9D
S113341010BD00F02BFA10BD184801700022B62030
S1133420F1E70022EFE700F073FA10BD00F038F97D
S113343010BD13480078012803D17F2200212E20DB
S1133440E1E700F070F910BD45010020AA02002058
S1133450A9020020AC0200209E020020AE0200203F
S11334605002002044010020C84300001C01002039
S11334702C010020D84300006C020020A802002088
S11334808402002030B4CB680C79032C43D0052C83
S113349001D0002C06D1002A01D1042200E001222F
S11334A00A7108E04A880C89551CAC4201D10022FB
S11334B000E0521C4A8002784C88E4001A554A887D
S11334C0D2009A18447854709A1C4C88E400857889
S11334D015554A88D2009A18C478D4701A1D4C889D
S11334E0E400057915554A88D2009A184479547134
S11334F09A1D4C88E400857915554A88D2009A189B
S1133500C079D071C888401CC8800A8980B29042B2
S113351001D30320087130BC704710B4CB680C7918
S1133520002C30D0052C2ED00C88E4001B191C78FC
S113353004705C7844709C788470DC78C4701C7966
S113354004715C7944719C798471DB79C371C88896
S1133550401EC880030405D1002A01D1052206E0DB
S1133560002204E0002A01D1042200E001220A71B1
S1133570000408D008880B895B1E984201D1002002
S113358000E0401C088010BC704702005220202A32
S11335900AD121200870222048702320887024201A
S11335A0C8702520087154207047000070B4103A88
S11335B003D378C9103A78C0FBD2530701D318C992
S11335C018C001D508C908C0D20704D30B880380EA
S11335D0891C801C002A01D50B78037070BC7047CD
S11335E08B0701D18307E1D0124205D00B78491C27
S11335F00370401C521EF9D1704700009A4881881C
S11336008278012A09D1FA235B00994204DB012163
S113361001700021817000E0491C818001784170B3
S1133620704710B584B001ACA11C684600F0AEF937
S11336306846008802282CD1E078012804D026D3DB
S113364003281BD007D322E0012201211020FFF719
S1133650F5FB012018E0844C6078012806D17F2214
S113366000211020FFF7EAFB012005E002220121DE
S11336701020FFF7E3FB022020700FE0032201215A
S11336801020FFF7DBFB03207749087006E01222C5
S113369000E0132200211020FFF7D0FB04B010BD7E
S11336A010B584B001ACA11C684600F06FF96846FF
S11336B00088022830DDE078000221790843A1491E
S11336C0401A1BD0401E1CD008381DD0401E1ED0EE
S11336D09D49401A06D0401E07D0401E08D0401E07
S11336E009D017E08522012118E08622012115E086
S11336F08722012112E0882201210FE00122012109
S11337000CE00222012109E00A22012106E00B2239
S1133710012103E0312200E0132200212220FFF7DF
S11337208DFB04B010BD10B584B001ACA11C68467B
S113373000F02CF968460088022800DC8CE0E07870
S11337400002217908437F49401A43D0401E54D0D7
S1133750083865D0401E70D07B49401A06D0401E00
S113376011D0401E1CD0401E27D073E0684600884C
S1133770062871D101230322611D1807FEF7DCFB23
S1133780852201216AE068460088062864D1012365
S11337900322611D6D48FEF7CFFB862201215DE007
S11337A068460088062857D101230322611D684812
S11337B0FEF7C2FB8722012150E0684600880628F4
S11337C04AD101230322611D6248FEF7B5FB88221A
S11337D0012143E06846008804283DD101230122E9
S11337E0611D5D48FEF7A8FB60795C49FF2800D1A4
S11337F0642008700122012130E068460088042812
S11338002AD101230122611D5548FEF795FB6079F9
S11338105449FF2800D164200870022201211DE0D0
S113382068460088052817D101230222611D4E48ED
S1133830FEF782FB0A22012110E068460088052871
S11338400AD101230222611D4848FEF775FB0B22B1
S1133850012103E0312200E0132200212E20FFF792
S1133860EDFA04B010BD000084020020F8B584B065
S1133870072401ADA91C684600F088F8E878011D0A
S113388001E0641E491E4AB2904219DA63B2EB5C4D
S1133890FF2BF6D0042AF4DB102200210BE00121D7
S11338A0FEF753FE324962B28854641C6D1C761EC6
S11338B00BD100220121B720FFF7C0FA05B0F0BDFB
S11338C0441C01A90D1D0426FF272878010002D0FD
S11338D0FF28EAD0E3E7264861B24754E5E710B58C
S11338E084B001ACA11C684600F050F8E278002ACC
S11338F001D1012107E010002038202801D2012144
S113390001E012220021B220FFF798FA04B010BDA2
S11339101848C1680088C0000818C178002900D080
S1133920704780B5017982794A4041790A4202D1CF
S1133930C0791149087000220121B320FFF77EFAF3
S113394001BD0000011300007ADE00000400001035
S1133950080000100C0000101000001007000020E8
S11339601200001008000020180000101C000010B5
S11339703C0100202C0100204401002080B584B0CB
S113398001A9684600F002F805B000BDF8B584B09E
S113399007000E0000206946088101243E490C708E
S11339A03E480078022806D0032871D006286FD03C
S11339B00528FDD16CE0012239496846FFF7ADFDC9
S11339C06D466878010903D0022925D00DD35AE049
S11339D00007000F3880A9783170844253DAA91C9B
S11339E0095D3155641CE4B2F7E70002F0210901D6
S11339F00140A87808183880E97831702979717005
S1133A006979B170A979F170E9793171401F80B297
S1133A100390052069460881370068460489039E9F
S1133A201EE001221E496846FFF777FDA878A1B27F
S1133A307854641CE878A1B27854641C2879A1B243
S1133A407854641C6879A1B27854641CA879A1B232
S1133A507854641CE879A1B27854641CB61FB6B2D9
S1133A60072EDEDA002E0ED001220D496846FFF73C
S1133A7054FD0020A91C095CA2B2B954641C401C6A
S1133A80C0B2B042F6DB00200449087002200249AB
S1133A90087005B0F0BD0000AE020020AD020020A9
S1133AA02C010020F0B40125ED070F005F404FD436
S1133AB08B4200D1824205D98446100062468C466E
S1133AC019006346DF184C18640D7F0D3AD0661C4C
S1133AD0760537D0E61B352E34DCDB022B43DB0ABC
S1133AE00C0DC9022943C912202E0DDB1700203EFC
S1133AF006D01F00F741F3405F400026012A7741BA
S1133B00C01871410DD217E01700F741F240574039
S1133B10F3415A40B340F3405A40002680185941BB
S1133B200AD3A21C52050FD0C207012F72411700FD
S1133B304008CB0718434908641C24054208AF41D8
S1133B4070416141F0BC7047641C21050020F9E715
S1133B506B400AE06B40ABE7F742F3D1E943F1E78E
S1133B602442EFD100200021ECE70C00871A9C418D
S1133B7005D2C01BA141D219634169406B40AE0A12
S1133B80DF184C18F442E7D2640D7F0DE8D0E61B31
S1133B90362ED7DCDB022B43DB0AA4460C0DC9020C
S1133BA02943C90A012E28DC04D1D6075208DF07AD
S1133BB03A435B08EF0A76429041994114D0394266
S1133BC03BD1B61940414941761C394204D1761C97
S1133BD0001849413942FAD0B9436746B74208D977
S1133BE0A41B24052143ADE70042EAD13642E8D1C3
S1133BF0A8E7E40AE1070020A4E7202E0BDD203E1D
S1133C001F00F340F7415F40012A002257417E42E2
S1133C10984191410BE01700F741F2405740F341BE
S1133C205A40B340F3405A407E42904199410A03BE
S1133C3003D2641EB619404149410027641E24057D
S1133C404208AE4178416141F0BC704738B5444CFC
S1133C500123012221004348FEF740FA2078FF287F
S1133C6001D164202070404C0123012221003F48EF
S1133C70FEF734FA2078FF2801D164202070012354
S1133C80012269463A48FEF729FA68460078FF2877
S1133C9001D1A82001E06846007836490870012364
S1133CA0012269463448FEF719FA68460078FF286D
S1133CB001D1A82001E0684600783049087000204E
S1133CC02F49087048702F4A107001212E4B19702B
S1133CD02E4B18702E4B19702E4B19702E4A537898
S1133CE0B7241C409023234353709378F3241C403F
S1133CF094702A4A137808241C4314701023284A09
S1133D0054781C435470274D29701478234313703E
S1133D101071254B1870254A117025490880254AD1
S1133D201070254A1070254A10705021244A1170D1
S1133D300921244A1170244A1170244A1070244A1B
S1133D401070244A1070244A1070244A1070244AB7
S1133D501070244A1070244A10702449087031BD30
S1133D6007000020100000100800002012000010BE
S1133D7014000010F401002016000010F5010020CA
S1133D8002000020090000200A0000200B0000208F
S1133D900C00002064020020EC0000209E010020A2
S1133DA0E8010020FF010020A2020020840200207C
S1133DB08802002086020020FD010020A3020020CA
S1133DC09D010020F001002003020020DF010020FB
S1133DD0F8010020740200207602002077020020FF
S1133DE075020020B10200207A0200207B0200202C
S1133DF010B459488021090202690A430261026829
S1133E0011430160554902690A4002614269114047
S1133E104161534902690A400261426911404161AA
S1133E20402102690A430261026811430160802251
S1133E3001691143016101681143016049490B683B
S1133E401A430A60802292010369134303610368E1
S1133E50134303600B681A430A60CA0C03691343D3
S1133E6003610368134303600B681A430A60022268
S1133E70D2433D4B1C6814401C603C4B04691C40FD
S1133E800461446923404361030D04691C430461D4
S1133E9004681C4304600C6823430B60016901231C
S1133EA0994301614169994341610169114001618B
S1133EB041690A4042610421C94302690A4002611E
S1133EC04269114041610821C94302690A40026103
S1133ED0426911404161264902690A40026142690E
S1133EE011404161234902690A400261426911405B
S1133EF04161214902690A400261426911404161FC
S1133F001E4902690A4002614269114041611C492B
S1133F1002690A400261426911404161194902691A
S1133F200A400261426911404161174902690A402D
S1133F300261426911404161144902690A40026107
S1133F40426911404161124902690A4002614269B1
S1133F501140416110BC704704F00F40FFBFFFFFE8
S1133F60FFFFFFF70490044004800440FFEFFFFFCD
S1133F70FFFFFEFFFFFFFDFFFFFFFBFFFFFFDFFF74
S1133F80FFFFBFFFFFFF7FFFFFFFFFFEFFFFFFFD00
S1133F90FFFFFFFB38B5FDF7F9FE00F0A9F8FEF7C7
S1133FA0E1F8FFF725FF4148FDF726FF00F026F969
S1133FB0FFF74CFEFCF777FAFEF76EFAFEF79CFA71
S1133FC00020FEF79EFA8020400139490A68024326
S1133FD00A6038490A6810430860012436480168B9
S1133FE0890B2140FBD0354800250178012908D1EF
S1133FF0057033490D8033480078002801D1FDF75E
S11340002FFB31480178314A1378012B06D001295E
S113401007D02F48007801280CD107E0157001293A
S113402000D105702A480078012801D128490D7073
S1134030FDF716FB23480178012900D105702548B6
S11340400178012902D10570FDF74EFB2248017861
S1134050002926D0012927D120480178012908D137
S11340600570FFF7CBFA1E480078012801D1FDF74F
S1134070C1FA1C480178012902D10570FDF782FAC2
S113408019480178012906D10570FCF749FCFDF7B0
S1134090ADF8FEF741F9154801780129A3D105705F
S11340A0A1E7FDF72FF99EE704709CE7002D31018D
S11340B080E200E000E100E010F00F404C0200203C
S11340C04E020020A30200207A020020B102002048
S11340D07B020020A4020020FD01002048020020F1
S11340E074020020490200204A0200204B020020F2
S11340F03A48016820220A430260394801680722CD
S11341000A430260C16840220A43C260C1681022A7
S11341100A43C26033490161016808220A4302600C
S11341208020800230490A6802430A602F490A68E5
S1134130104308607047F8B52D4D28682D4C6189EF
S11341406A4611800106C90F43D028682868802177
S113415041402960686800F069F80022264BFFF7A7
S1134160A1FC00F073F868602078401C207061782E
S1134170491C6170A278521CA270E3785B1CE37046
S11341806D462D886D1C6E463580C8267600002548
S11341906F463F88B74203DB6F463E80012600E04E
S11341A000262672000602D0257001202071C9B2B3
S11341B0042902DD657001206071D2B20A2A02DB93
S11341C0A5700120A071DBB2322B02DBE570012067
S11341D0E071684600886081F1BD00000C800440F5
S11341E000800340F305000080E200E000E100E00D
S11341F00C80034044020020C0CD97400A480021AF
S11342000170017801220A4302700178F7220A4002
S113421002700178EF220A4002700178DF220A401E
S113422002700078704700BF00D0074001004222AE
S11342301201D21E004207D002D4521E0018FCD52F
S1134240C10A400512058918704700004A1812D2A5
S1134250400DC90208430121C9070843520D4021FA
S11342600901521A521C06D452421F3201D4D040C2
S11342707047C0177047002070470000DC1E3421CF
S1134280C4228C23506496C8FA100410041A28021D
S11342900B1E031E0502141E461E5A141428461E25
S11342A05A141428461E5A141428461E5A141E055D
S11342B03C0346031E053C0346031E053C0346031C
S11342C01E053C034603000080B5FEF75FFAFDF7C8
S11342D075FF01BD10B50B4C20680106C90F10D045
S11342E0206820688021414021606068FFF79EFFBC
S11342F00022054BFFF7D6FBFFF7A8FF6060FEF72F
S1134300AFFB10BD0C900340000B534000080100AC
S113431000020000B443000000081008020200007C
S1134320000000000006101004010000000000005E
S11343301108100000000000000000001108010036
S1134340000000000000000070B40123002413E00A
S11343500168001D194202D04D466D1E49190C60BA
S1134360091D121F042AFAD20D00960701D50C80EC
S1134370AD1C1A4000D02C700268001D002AE7D141
S113438070BC704730B401220168001D00290FD0B1
S11343900368C31844680830144202D04D466D1EA9
S11343A064191D6825601B1D241D091FECD0F8E746
S11343B030BC7047130203000600070009000A001E
S11343C00C000D000F001000160000002300230055
S11343D0FF00000013000000B2B6B72210B3B02EE5
S11343E00648074908600748A4210170012141706B
S11343F00F210171A02141710120704700000000CC
S113440008ED00E00020054010B507497944183153
S1134410064C7C44163404E0081D0A688918884751
S11344200100A142F8D110BD0800000028000000DE
S113443019FFFFFF6C01000048010020000000008C
S113444045FFFFFF480100006CBCFFFF0000002097
S113445000000000FFF7C4FF002801D0FFF7D4FFDD
S113446000BF00BF002000BF00BFFFF793FD00F0B6
S113447000F880B500F002F801BD00000746384698
S113448000F002F8FBE70000202109032631182080
S1134490ABBEF9E70B0202000001010303040305AC
S11344A004020101A8A80000376478829600000085
S10F44B000BF00BF00BF00BFFFF7CCFF3F
S90344B107
